:020000040800F2
:10580000580800202DF70008E9F40008EBF4000820
:105810000000000000000000000000000000000088
:10582000000000000000000000000000EDF400088F
:105830000000000000000000EFF40008F1F4000890
:105840005B81000817C10008FDF40008EBE00008C8
:1058500073E7000807F5000867E8000811F500087D
:10586000000000002BED000829F5000839F50008BC
:1058700073EE000893EF00080000000055F50008E3
:10588000000000009FEF0008000000000000000082
:105890005FF500080000000069F500082BF700081C
:1058A00051F7000853F7000855F7000873F5000892
:1058B00079F500088BF500080000000000000000EA
:1058C000BFF34F8FA448A5490860BFF34F8F00BFB7
:1058D000FDE70000F8B502F041FC62B602F04EFCB4
:1058E00000F0C1F802F058FC02F050FC9C4801683E
:1058F000802212020A43026002F056FC02F0C8FC49
:1059000002F0E4FC02F088FD02F0FCFF03F02CF84A
:1059100002F09CFD02F0B4FD03F0DCF803F032F974
:1059200001F06AFD00F0F2F800F03EF903F086FEA7
:105930008C4803F0C6FFFA20400003F0D9FF8A4DDF
:10594000A02028702C206870CE20A870ED20E87070
:105950008648A88006222900082003F0D5FFD64CEF
:10596000012221000F31002003F0E7FFE17B804896
:1059700003F0A7FF0120E0730B227E497E4803F06D
:10598000EDFF04F04BF904F0FDF90323022200219E
:10599000032004F00CFA00BF784E794F794C01E0F7
:1059A00002F02AF9A87E0028FAD0A87E0128F9D1B1
:1059B000E87D002826D174A003F083FFBF4803F0E0
:1059C00097FF01F0A1FC032004F058FA2078C007EB
:1059D000FCD56288211D380004F0EFFF2078FE21FD
:1059E0000140217006226949201D05F05DFC2876E2
:1059F000287E0028EAD00120E875654803F061FFA1
:105A000001F088FC634803F05CFF00F0A5FD6248EC
:105A100002F086FE614802F083FE380002F080FE4C
:105A200002F01CFB01F038FD00F072F9307800281C
:105A3000BBD1594802F03EFD584802F03BFD38000A
:105A400002F038FDAD4803F03CFF30780028EDD17E
:105A500001F012FE05F067FD02F048F900F0A0FE2B
:105A600002F0CAF8F1E710B59AB04D484D490A68FE
:105A70000240CB0C13430B60A1490A681040086038
:105A800006200C90FA300E9001200F9010201090FC
:105A9000022015900024169440041790C0200004A2
:105AA00018900CA805F090FD002800D0FEE70F200C
:105AB00007900320089009940A940B94002107A8EA
:105AC00005F072FF002800D0FEE727200090029426
:105AD00003940494802040020190684606F000F987
:105AE000002800D0FEE706F04DF8FA21890006F004
:105AF00060FA06F0E1FA042006F0F2FA0022002132
:105B00000020C04306F0C6FA1AB010BD7D48FA2145
:105B10000170D1214170012181700221C1707A4848
:105B200000218172C172794909780170B421C900DC
:105B3000417005228270C17002716421C171FF2120
:105B400001728F4801210171002141710121817091
:105B50000021C170704700000400FA050CED00E060
:105B60000C100240E8EF0008080300203316000084
:105B7000F8EF000808F00008241C0020801D002019
:105B8000F8190020580800203131000014F00008F6
:105B90001CF0000824F000081819002088190020C3
:105BA000FFE7FFFF0070004038B5764802F076FE50
:105BB000414801214161414981617349C161734992
:105BC00002220A60C8224A60714A8A608021490024
:105BD0000162962141626F4981626F4908220A6021
:105BE0006E4A4A606E4A8A606E4A10211160FA213C
:105BF000890051606C4B93606C4B802252011A609B
:105C00006B4A5A606B4C9C606B4B40241C606B4C25
:105C10005C606B4C9C608023C3624B000363694CE7
:105C20004463694C8025AD002560684D6560684D12
:105C3000A560684C8025ED0025606360664BA3601D
:105C40006B008363C8239B00C363644C0464644C8F
:105C500004252560634D6560634DA560634C802518
:105C6000AD012560624D6560624DA5608024E40150
:105C700044648364604CC4648024240204654265E7
:105C80005E4A82656200C26501665D4941665D49A2
:105C900092000A60974A4A60974C8C608021090301
:105CA0008166C36695490167802149034167826720
:105CB000A849C16731BD000014020020B80B0000E4
:105CC00080B500F09FFB01BD8D490A6A00688D4BCD
:105CD0001B68984202D1130004221A438A4B1B68A6
:105CE000984202D1130008221A439B4B1B6898422A
:105CF00002D11000102202430A62704734F00008FB
:105D000050100240700300203C0300205403002088
:105D100010B592B00121012006F0FEF98F4801680C
:105D2000802252050A4302608D4801688D4A0A406C
:105D3000C10C11430160684605F03EFF062000904B
:105D40000124039410200490F03002900220099066
:105D500000200A90A0040B90C02000040C9068461C
:105D600005F032FC002800D0FEE70D940E940121CE
:105D70000DA805F019FE002800D0FEE712B010BDF6
:105D80004C030020FFFF0000095E0008241D0020D6
:105D90000D5F0008155F0008181D002060EA000074
:105DA000A55F000864030020A75F00083C1D0020D9
:105DB0003075000095620008A803002070170000ED
:105DC000A969000859630008A01C0020C8AF0000A2
:105DD000616300080C1D00206963000875790008E4
:105DE000301D0020E8FD0000597A0008481D002001
:105DF00010270000D97A0008E17A0008357B0008F6
:105E0000AD7B0008AC1C0020F8B5574CE07B3C4D46
:105E1000A97BA27801260027130009D1002954D1BB
:105E2000012802D0207805284FDABD490E704CE0D9
:105E3000012A4AD14D4A12780B000BD1AE73002AC9
:105E400003D1012801D101F093FFE07B01283CD16F
:105E5000474838E0012938D1012A36D14548007831
:105E6000012804D1444805F0B5FA01F0E1FF4348A8
:105E70000078012812D1424805F0ACFA414805F0FB
:105E8000A9FA414805F0A6FA404805F0A3FA4048AF
:105E900005F0A0FA3948077003F0EFFF3D490E7096
:105EA0006E74AE743C4886713C493D4A1278012AB2
:105EB00001D1627B00E00A78EA740E7006706420FB
:105EC0002B494860084605F0BDFA27702771A87B6A
:105ED00001280DD1294800782649097801432D4829
:105EE0000078084304D18F4803F0EBFC8C4806701F
:105EF000F1BD000088130000B97E0008C17E0008D3
:105F000008030020141B00204C1B002080B500F06B
:105F1000C7FA01BD80B500F0E5FB8348C17A0229CC
:105F200017DA491CC1721148007801280ED07F4849
:105F300001787F480A0003D100228021490003E054
:105F4000012903D10022102106F04BFAC74805F0C1
:105F500079FA01BDDD800008841B00203810024062
:105F600000700040FFE7FFFF1402002055030020EF
:105F7000241D0020851D00203C1D0020841D0020C4
:105F8000A8030020301D0020AC1C0020640300206A
:105F9000A01C0020881D00203C030020540300208A
:105FA0005B0300207047F0B5BDB001276148007861
:105FB000002801D160490F700024604D604E614897
:105FC0000078012842D160480078401C5E49087082
:105FD00016205E490870D3207070E87C1521484374
:105FE0002D303071000A707152480078002802D1BB
:105FF000EC746F74AC74564907A8D32203F0AEFC5E
:10600000290002A8142203F0A9FC310084B06846DC
:10601000172203F0A3FC0FBC03F038F83179707934
:106020000006000C01434B4803F04BFC4648007847
:1060300005286CDB44490C7042490C703D480078DF
:10604000010047D0012868D1894849E08948007893
:10605000012862D188480178012902D10470FFF734
:106060002FFC86490C738F72CC72EC746F74AC7415
:10607000D120707000203130307174711620334996
:1060800008707F4908A8D32203F068FC7B4904A864
:106090000D2203F063FC310082B06846172203F042
:1060A0005DFC0CBC0021112003F0E8FE754803F0F4
:1060B00008FC75480178491C0170744ACA4B5A6043
:1060C000C9B2062923DB6B4A1470047019480078A2
:1060D000010002D1FFF7F4FB1FE001281DD16C483D
:1060E00003F0EFFB934805F075F9934805F072F95A
:1060F000924805F06FF9924805F06CF903F0BDFE87
:1061000090480460904804700548077005E05F48B7
:10611000B5494860084605F095F93DB0F0BD00006E
:10612000801D00203CF0000808030020961C002081
:106130000004005055030020981C0020F41C00208F
:10614000700300208F1D0020901D002056030020AA
:10615000A817002048F00008F8B505007B4C200087
:1061600080300090280006F091F90099086028001E
:1061700006F06EFA764908600026012501780129AB
:1061800037D1C178734F3878884203D23970974835
:1061900003F097FBE07B00282BD13878002828D02B
:1061A00001F046FE00980068C670914803F089FB34
:1061B000E573012221000F31002003F0A5FB00F060
:1061C00091FA8C4805F006F92000203005F002F91C
:1061D000894805F0FFF801F0B3FB00221021874841
:1061E00006F0FFF82948A0672000743005F02AF96E
:1061F000F1BD00980068C178814803F062FB009807
:106200000068C078012830D16079012803D17A482C
:1062100005F0E0F86671E079002826D1E5719A482A
:106220009A499B4A1278002A10D1144BDA781D79CA
:106230002D062D0C2A43792A0DDA964A237A012B52
:1062400002D01378012B06D1167005E0227B002ABC
:1062500001D1257300E0080060652000503005F092
:10626000F1F8616DAF4803F02CFBF1BD3402002062
:1062700060F000085A0300204C0300203C0300207B
:10628000D416002070F00008831D00208813000041
:1062900078F0000870B57F4D2C4C207A012802D090
:1062A0002878012801D1062000E00320618A491CDA
:1062B0006182002689B2012923D126490978022961
:1062C0001FDA994803F0FDFA0020E17B002918D17C
:1062D00001F0AEFD954803F0F4FA464805F07AF86F
:1062E0002000203005F076F801F02AFB0022802102
:1062F0004900424806F075F88D48A06720007430C8
:1063000014E0618A814210D326722E70667189482A
:1063100003F0D7FA668288480078012808D16671B0
:1063200001F086FD01F024FD70BD334805F08AF8C8
:1063300070BD0000A8030020301D0020AC1C002010
:10634000A01C0020741D0020971C002014020020B7
:10635000701D00207C1D002080B500F0D5FF01BD20
:1063600080B501F065F801BD74480078002800D0C0
:10637000704770B5BEB0724C2088401C208080B23F
:10638000062829DA6F4D704E287B1521484331309D
:106390003071000A70716D4908A8D32203F0DEFA4B
:1063A000290004A80D2203F0D9FA310082B0684612
:1063B000172203F0D3FA0CBC0021112003F05EFD7C
:1063C00016206349087063482188032901DBC2490C
:1063D000416005F037F803E000202080FFF770FAF5
:1063E0003EB070BD000000006403002088F000088B
:1063F000A0F00008241D00203C1D002000040050D7
:10640000B0F00008F8B50024A027FF05224D0126B2
:10641000012817D1E87D012835D10121380005F088
:10642000DAFF002805D1286A06432E62AB480470C3
:10643000F1BD0121380005F0CEFF012823D1286AE3
:1064400002211EE0402816D14021380005F0C3FF8C
:10645000002803D12E730022310208E040213800C9
:1064600005F0B9FF01280ED12C73012211020B484F
:1064700005F0B7FFF1BD202805D198480470286ABF
:10648000202101432962F1BD30750000B80B0000E6
:106490008D1D002057030020080300200004005039
:1064A000F8B59A4CA17A9A4D9A48092924DA0278CB
:1064B000002A21D1002901D100F014F99648027870
:1064C000A020C00580210902022A01D0002A05D19E
:1064D000EA7B012A04D11021904801E0012A01D170
:1064E00005F085FFA07A401CA072C8207C49486056
:1064F000084604F0A7FFF1BD0026A6720127077029
:106500008748007800F0ADF8207C012809D1267476
:10651000734804F05FFF834806606F72824803F09F
:10652000D0F9F1BDC0F00008CCF00008E0F00008A0
:1065300088130000F0F00008851D0020550300209E
:10654000161900203C03002070030020D416002000
:10655000560300200C1D0020F8B500F0C3F86B4C6A
:10656000207B01280DD1617B6C480A0003D10022F9
:106570008021490003E0012903D10022102105F008
:1065800030FF6A4801786A48634A6A4B00251E78E2
:10659000012E05D11D70E37C0B4301D115700570F0
:1065A000654E664F3B7819430DD111780A0002D130
:1065B0004178827803E0012905D1C1780279120679
:1065C000120C1143318002F0C5FB5D485D494978EA
:1065D000002900D0057001785B4803F072F931881A
:1065E0005A4803F06EF94F480168594803F069F9B9
:1065F00058480178584803F064F9584801785848D9
:1066000003F05FF9616A574803F05BF9397856483F
:1066100003F057F9554803F054F915205449087010
:1066200001202E49087053480570534805703848BA
:10663000457252490D700580857151490D7051495F
:106640000D7051490D7051490D7051490D70857390
:10665000657550490D70C7490D7085720574657672
:10666000F1BD70B500F03EF8284B0025DD72284CD6
:106670001B4A49480078002806D14848506001F07C
:106680004DF92000203024E0A020C005802109021F
:106690009E7C012E07D19D74002205F0A2FEFA20F7
:1066A000C000E06313E05E7A012E14D15D72C8254C
:1066B000AD005560184A1278012A01D1002203E08A
:1066C000002A03D11021154805F08BFEE563200058
:1066D000383004F0B7FE70BD10270000801D002088
:1066E000241D002010B50D4C01221102200005F0E0
:1066F00078FE01221021200005F073FE0122D10353
:10670000A020C00505F06DFE10BD000008030020AC
:1067100014020020811D00205403002000040050BA
:10672000C0030020741D002000F100088D1D002012
:106730003C030020881D002060030020891D0020EC
:106740000E1C0020F81B002010F1000828F10008A2
:1067500038F100080D1C00204CF100088C1D0020B1
:1067600068F1000878F1000884F100089CF1000845
:1067700056030020941C0020961C0020841D00203D
:10678000911D00208E1D0020921D0020821D0020E2
:10679000991C0020901D002055030020B80B00001C
:1067A000F0B5BDB00024744E707A012811D1747216
:1067B0007248007872490978012906D1714909782F
:1067C000084306D101F010FB03E0084301D101F0BA
:1067D000CFFA6D480078012860D16C480078012814
:1067E0005CD16B490878002858D101200870694DA8
:1067F00069491622694B1F78012F17D11C70684B0D
:1068000018700A70192028716C71664803F059F8E5
:10681000290084B06846172203F0A0F80FBC02F0EC
:10682000C5FE9A48B0673000743035E0984F994EF5
:10683000994B1B78012B03D0984B5B7D012B2ED1FC
:106840000A70D1206870307B15214843313028719F
:10685000000A6871297968790006000C01439048A4
:1068600003F02FF8390008A8D32203F077F831009D
:1068700004A80D2203F072F8290082B0684617229E
:1068800003F06CF80CBC0021112003F0F7FA9649D4
:106890000C7096480470964804F0D4FD68E0954B5F
:1068A0001B78012B31D10A70934FB179012900D1A6
:1068B000F8709248007803F093FD31480078387101
:1068C000D3206870F87C152148432D302871000AC8
:1068D00068718B4907A8D32203F040F8390002A859
:1068E000142203F03BF8290084B06846172203F015
:1068F00035F80FBC02F0CAFB297968790006000C54
:106900000143804802F0DDFF26E0002B2BD10A7006
:10691000307B1521484331302871000A687129798C
:1069200068790006000C0143774802F0CAFF39007D
:1069300008A8D32203F012F8310004A80D2203F0B6
:106940000DF8290082B06846172203F007F80CBC46
:106950000021112003F092FA63490C7063490C7016
:10696000634804F06FFD69480178022900D1047082
:106970003DB0F0BD831D002014020020841D0020C6
:1069800054030020851D0020961C00205503002084
:10699000941C002070030020560300208A1D002054
:1069A0008B1D0020B0F100084F480178012900D16B
:1069B000704710B54D490A78132A63DA521C0A70E1
:1069C00053480178534C032906D1032003F056FAAB
:1069D00051486060514816E0082906D1082003F0AC
:1069E0004DFA4F4860604F480DE00E2901D10E204E
:1069F00029E0042901D1042025E0062906D106203A
:106A000003F03CFA48A002F05CFF37E00A2901D10C
:106A10000A2018E0102901D1102014E00B2901D11F
:106A20000B2010E04148424B182903D120221900C5
:106A3000A0311BE0172903D11C221900843115E075
:106A4000052903D1052003F019FA17E01C2902D10A
:106A5000202238490AE01E2903D123221900D0310F
:106A600004E01D2905D10E221900C03103F0A5FF55
:106A700004E0202902D1002003F08BF8200004F06C
:106A8000E1FC10BD002202700A7010BD30750000DC
:106A9000D41600203C030020891D0020080300209C
:106AA000B8F1000838B5224DE87A194C01280DD10B
:106AB00000200E4908700C490870032003F0DEF92D
:106AC000144804F0BFFC0320207031BD00280AD117
:106AD00007202070184802F0F4FE00F01BFC28008C
:106AE0002C3004F0AFFC31BD5803002059030020C6
:106AF000AC1C00208D1D0020F41C00200D1C00206B
:106B0000A817002048F00008CCF100084C03002032
:106B100056030020A803002070170000DCF10008D5
:106B2000B80B0000E8F100084E524200181900208E
:106B30001402002088030020F4F10008F0B5BDB075
:106B40000600C3A002F0BDFE0125C24F0024C248CA
:106B50000078032803D0C048007808282BD10622EB
:106B6000C249300004F0A0FB002800D003E3C04875
:106B70000570C0490C70B848007803280FD1BE4892
:106B800004F028FCBD4802F09CFE1D20B2490870AC
:106B90000E223900C031BA4803F00FFF09E1AE48B8
:106BA000007808285CD1B44804F014FC092003F0F4
:106BB00065F9092043E2A84800781D2818D106226B
:106BC000AA49300004F070FB002849D1A94804709C
:106BD000A94804F0FFFBC24802F073FE1E209E4944
:106BE000087023223900D031A54803F0E6FE1AE1EF
:106BF000994800781E2818D106229C49300004F0DC
:106C000053FB00282CD19C4804F0E4FB99490C70FC
:106C100097480470042003F031F904208E4908706D
:106C2000954804F00FFCCB488CE18B480078042891
:106C30002CD10822C849300004F036FB00280FD1BF
:106C40008B4805708B490C708B4804F0C3FBC3A1C3
:106C50003000083005F0E6FD050005F00BFE0F28BA
:106C600000D088E20F222900BD4805F06CFE814962
:106C70000C707F480470052003F000F90520764968
:106C800008707D4804F0DEFBB6485BE1724800788E
:106C9000052816D106227549300004F005FB0028AE
:106CA000DED174490C7072490C70062003F0E6F8CE
:106CB000062069490870704804F0C4FBFC72C5489E
:106CC00040E165480078062811D10822C249300009
:106CD00004F0EAFA0028C3D107205F490870CD48C4
:106CE00002F0EFFD00F016FB38002C306EE15A4840
:106CF0000078072815D1C849300005F0A7FE002804
:106D000000D138E208205449087059490C7059489C
:106D10000470C24858494860084604F093FBD148C3
:106D200010E14D480078092817D106224F4930005C
:106D300004F0BAFA002893D10B204749087003F0F9
:106D40009DF84B490C704B480470CD484A49486047
:106D5000084604F077FBCB48F4E03F4800780B2866
:106D600014D106224149300004F09EFA002861D176
:106D70003F4805703F4804703F4804F02BFB0C204F
:106D80003549087003F07AF8C348DBE032480078F0
:106D90000C2817D106223549300004F085FA002866
:106DA00048D10E202C49087003F068F8BB4802F067
:106DB00088FD2F490C702F48047098482E49486070
:106DC000084603E1244800780E2834D1B44802F084
:106DD00078FDB4A50122290030000C3004F064FADB
:106DE000002807D0012229003000183004F05CFA96
:106DF00000281FD1C74802F064FD1F4804F0EAFADA
:106E00001B490C701B48047002F03EFFC249087019
:106E100001280AD1C14802F054FD20200E49087013
:106E2000002002F0B6FE1448D0E00F200A49087096
:106E300003F024F89FE108480078202822D1062298
:106E40000A49300004F030FA002807D1CB4879E035
:106E5000520D0A001402002056030020C848428840
:106E6000C849C94803F0A9FDF7E000BF14F00008C5
:106E70005803002059030020A803002000F2000856
:106E800018190020C14800780F286DD1C0490D7035
:106E9000C0490C70C04804F09DFA300000F0AEF913
:106EA000BE4802F00EFD1520B8490870BC4804F039
:106EB00091FA7C74BB490D70F87B002812D1BA4856
:106EC00002F0FFFCB1480570B8490C70B5490C7070
:106ED000B748047002F0D1FF00F086FF4BE100BF1D
:106EE00010F20008B348007801002ED11620A749FF
:106EF0000870B148B149097B152251433131017104
:106F0000090A4171AE4908A8D32202F027FDAB4916
:106F100004A80D2202F022FDA74982B0684617227C
:106F200002F01CFD0CBC0021112002F0A7FFFA208A
:106F30000001A4494860084604F084FAA24804F01D
:106F400081FAA24802F0BDFC15E10128FCD19E485F
:106F50003CE000BF20F2000828F200080D0A000003
:106F60007603002034F2000888480078162869D19A
:106F7000834842888349844803F01FFD13229449C3
:106F8000300004F091F9002806D009229149300020
:106F900004F08AF9002821D17C48057081490C70E1
:106FA000824804708C4802F08CFC7B4804F012FA92
:106FB0008A4804F00FFA8A4804F00CFA824804F078
:106FC00009FA774804F006FA3800683004F03AFA13
:106FD000D1E000BF3CF2000844F2000806228149DB
:106FE000300004F061F90028F2D1724800780028DE
:106FF00016D1744804F0EEF9784804F0EBF97A48B9
:10700000017801290FD10470BC490D7067480570E3
:1070100009E000BF50F200085CF20008B80B000065
:107020006E4804F0D7F9BA480078012806D16F49B4
:107030000C706F4804706A4804F0CCF91220534970
:10704000087098E05148007812280DD1694802F084
:1070500038FC69480078002802D1300003F056FA65
:1070600089E000BF64F20008484800781A281BD164
:10707000300000F0C3F8012806D1A14805E000BFA8
:10708000881300006CF200089E4802F01AFC1620DB
:107090003E49087043486DE074F2000880F2000831
:1070A00090F200082C000000384800781C2862D1BB
:1070B00006224C49300004F0F7F800285BD134492F
:1070C0000D7034490C70344804F084F915202F49B0
:1070D0000870434804F07EF9404804F07BF93A48D0
:1070E00004F078F92C4804F075F92D4804F072F991
:1070F00005F0C2F9A2480078002811D12F490C737D
:10710000084685720021C1722B48313101714471EA
:107110000AE000BF9CF200089A1C0020A4F20008BC
:10712000A848C47445748474A7490C7002F0A5FE85
:10713000AB4872490978012918D11C4A15701D4ABB
:1071400015706E4A1470AB49714A1278002A03D147
:107150000D70872252010260AF4A1570174A5571AF
:1071600008781070AD4802F0ACFB00E0046068489D
:107170000470AB4805703DB0F0BD00BFB8F2000828
:10718000580800205C080020F81900205603002051
:107190005803002059030020A8030020C4F200086F
:1071A000301D0020961C0020D0F20008941C002006
:1071B000841D002055030020700300203C030020A4
:1071C000D41600200C1D0020A01C0020DCF20008BA
:1071D000E8F20008FCF2000808F30008AC1C0020EC
:1071E0006403002014F00008951C00208F1D00206F
:1071F0005A03002018F300088B1D0020F8B5040086
:10720000022288A104F050F8002875D1002585A13C
:10721000A01C05F007FB0400834E18E005228349FB
:10722000200004F041F800280CD10A220021601D42
:1072300005F0B9FC80B2010A000208437071000A2F
:10724000B0713D0077A1002005F0ECFA04004ED0AB
:107250006F1C0D228F49200004F026F8002810D161
:107260000A22002120000D3005F09DFC0A2104F0C7
:107270009DFE80B2010A000208433070000A70705F
:10728000DFE708228A49200004F00EF8002809D11F
:107290000A2200212000083005F085FCF11D05F0D0
:1072A000AFFCCEE704228349200003F0FDFF002855
:1072B00006D10A220021201D05F075FC3071C0E7BF
:1072C00004227D49200003F0EFFF0028A6D10A2206
:1072D0000021201D05F067FC0A2104F067FE80B242
:1072E000010A00020843B070000AF070A9E7EDB28D
:1072F000052D01D10120F2BD0020F2BD981C002017
:1073000024F3000830F3000810B56C4C2CE00000AA
:10731000971C002070B5694E34005834207C012839
:1073200001D1022070BD01252574300003F0FAFB65
:1073300030680168102291430160E06800680168CC
:10734000A943016000202080E168096848600A685C
:1073500015430D60207470BD10B5594C606E006807
:10736000016801220A430260564A5749200003F08F
:1073700066FB2068016810220A43026010BD00000D
:107380008D1D002038B54E4D2C005834207C01282E
:1073900001D1022032BD01202074280003F0C2FB7D
:1073A00028680168102291430160E0680068016864
:1073B00001229143016000202080E1680968486053
:1073C000207432BDF41C0020A817002000683B493F
:1073D0000968884202D101208A490870704700007C
:1073E000741D0020006835490968884200D100BF3B
:1073F000704700005403002080B5FFF773F90122A5
:10740000D102A020C00504F0ECFF002201217E483B
:1074100004F0E7FF01BD00005703002040F300081F
:10742000801D00200D0A0000B40300207CF300083A
:1074300038B576480078002802D1FEF741FA31BD10
:10744000734803F0C7FF734803F0C4FF724803F0AA
:10745000C1FF724803F0BEFF002471490C707149EE
:107460000C70012570480078012803D16F490D7018
:10747000022000E000206E4948726E4802F021FAB6
:107480006D490C7002F0F9FC6C4804606C480570A2
:1074900031BD000050F3000810B56A4C200005F023
:1074A0002FFC0022A0210902200005F0B3FB10BD33
:1074B00060F300086CF3000874F30008181900204A
:1074C000881900204C0400005C0800205E48016818
:1074D00004220A4302604D480078012800D070471A
:1074E000F8B556480068401C54490860574F0024BE
:1074F000574D012657480078012805D156490E708E
:1075000005205649088044E05548007801001BD109
:1075100051480078010003D1454948788A780DE048
:10752000012832D1286B401CB4214900884201D384
:1075300000203E7228633E49C8780A791206120C70
:1075400010434649088020E001281ED136480078C3
:10755000012807D1E87E002804D1EE764148007862
:1075600002F03EFF286B3C490978012906D1401CF6
:10757000B4214900884201D300203E7228633A4872
:107580000078002801D100F06FFC34480088002802
:1075900025D02A480068314909884A005118884294
:1075A0001DD32648046031480178314800780843EB
:1075B0000DD11D490978012909D1264909780129E8
:1075C00005D1244A14706E75797B234A1170184ACC
:1075D0009471284AD470002811D17E720FE023489C
:1075E0000078234909780143287D084309D1A88BF5
:1075F000401CA88380B25A2803DBAC832E75104848
:107600000470F1BD871D00200004005055030020C8
:10761000A8030020AC1C002064030020301D0020C3
:107620008F1D00205A0300205B0300205C03002014
:107630003C03002084F30008971C0020741D0020E8
:10764000801D0020B81C00200070004014020020A3
:1076500008030020891D002054030020600300203F
:107660008D1D00200D1C0020911D0020851D002077
:10767000841D0020F41C0020F8B50124A44DA54E63
:10768000306A204026D0AC73687801281FD06C7017
:107690002879002808D12C71AC702800143003F030
:1076A000D1FEA54802F00DF9287901280FD1307AD2
:1076B00000280CD13472A14F0821380005F0CEFB10
:1076C0000120C04339680861380005F09DFB306A2D
:1076D0006040306200272020305C80070AD528797E
:1076E000012803D18C4802F0ECF8AF70306A022117
:1076F000414031622020305C400705D503F0E4FEB4
:10770000306A0421414031622020305C000700D4FF
:1077100090E06878012800D087E00121A020C00512
:1077200004F059FE002819D12878401C2870894996
:107730000978012910D1297901290DD1A9790029C8
:107740000AD1C0B2012807D1307C002804D1AC7125
:107750002800443003F076FE2878052864D1E87BC1
:10776000002806D17C4802F0ACF800F001FB7B4811
:1077700058E078480078012856D1794800780028E8
:1077800052D12800143003F025FE2F71754800787F
:10779000012809D1744803F01DFE9F490F707348FA
:1077A00002F08FF800F044FB9C48007801281BD1C0
:1077B0009B4803F00FFE9B4803F00CFE9A4803F031
:1077C00009FE9A4803F006FE994803F003FE684854
:1077D00002F077F897490C708F490F7096490F7037
:1077E0008E490F7002F049FB2F7034749348007873
:1077F000010002D191490C7009E0012807D18F499D
:107800000F708F490F708F490F738C72CF728B4836
:1078100000788C4908708C490F70B772C8204F49A6
:107820004860084603F00EFE6F703772306A082118
:10783000414031622020305CC00605D5FEF730FEA5
:10784000306A1021414031622020305C80065CD5D6
:107850004448007871490A780243A97B11437B4A66
:107860001278012A49D17A4A1378002B43D1147037
:1078700078490978002903D170480078687340E09E
:10788000012809D1384803F0A5FD63490F709048DD
:1078900002F017F800F0CCFA6048007801281BD1FC
:1078A0005F4803F097FD5F4803F094FD5E4803F0E6
:1078B00091FD5E4803F08EFD5D4803F08BFD854829
:1078C00001F0FFFF5B490C7053490F705A490F706C
:1078D00052490F7002F0D1FA934801F0F2FFF776A7
:1078E00058494C7255490C709048076005209049E2
:1078F00008806C7205E0534A5472002901D1B048E7
:107900000470306A2021414031620020F2BD000045
:107910001402002008030020A0F3000810B5A94CB1
:107920000821200005F09AFA0120C043216808616F
:10793000200005F069FA10BD90F300084C1B0020F0
:1079400080B5A0480121C9430268116105F066FABB
:1079500001BD000055030020A8F30008241D0020ED
:107960008D1D0020851D00203C1D0020B0F3000867
:10797000B8F30008F8B5FEF7B5FE8B4C207B012864
:107980000DD1607B010003D100228021490003E07A
:10799000012804D1002210218B4804F022FD884FD9
:1079A0008A4D00200126617C012906D160745F495F
:1079B00008606E72387086482AE018490A7885494E
:1079C00009781143844A1278152A1ADAE27B002AD0
:1079D0000FD1824801F075FF002231027A4804F08D
:1079E00000FDE07B401CE0732800383003F02AFDE6
:1079F000F1BDE07300290DD1794801F062FF3E70BE
:107A0000F1BD002903D1774801F05BFF3E70CD48FE
:107A100001F057FFF1BD0000941C0020841D0020E0
:107A2000A8030020301D0020AC1C002064030020AF
:107A3000A01C002056030020961C002054030020A8
:107A4000D41600203C030020811D00205B03002091
:107A5000891D00205C03002070B501255248417E3D
:107A6000002902D1457660481EE0002646765F4830
:107A70000078564C01001DD1E07B002817D15C48EE
:107A800001F01FFF5B4803F0A5FC2000203003F04D
:107A9000A1FCFFF755FF002229024B4804F0A1FC8E
:107AA0008F48A0672000743003F0CCFC70BDFDF758
:107AB00007FF70BD012809D18A4801F002FF6574F3
:107AC00002F0DBF9194806603D48057070BD000002
:107AD000C0F30008C8F3000880B5FDF7F1FE01BD52
:107AE00038B53A4C0025A5717FA001F0EAFEA078D8
:107AF000002817D12178944801F0E3FE207801286E
:107B000010D192A001F0DDFE25702000143003F0AA
:107B100061FC25710120244948723648C821416022
:107B200003F090FC31BD0000D0F30008741D00206C
:107B30006003002038B5254C25008035286804F006
:107B400082FC00202860E071616D814A914200D181
:107B50002072804801F0B5FE00F06AF97E487F4946
:107B6000097800290ED17E4909787E4A11731523C0
:107B70005943491C9172090AD172117B1522514354
:107B800031310BE078490978B14AD17415234B4360
:107B900053741B0A9374152251432D310171090A44
:107BA000417100F0E5F831BD0803002080B50120E7
:107BB0006E490870BA4801F084FEFFF7CDFB01BDA5
:107BC000801D0020841B00200004005014020020AF
:107BD000D8F30008851D0020C0030020E0F3000852
:107BE000ECF30008F8F30008301D002055030020D6
:107BF00010F40008241D0020F8B500260125784C5B
:107C0000207D01283ED1E662764F380005F078FBF2
:107C1000FA21380005F0A2FB380005F068FC800569
:107C200003D5380005F00EFCA062A06AC821090146
:107C30004843000BA062A8214843642104F0B9F92D
:107C400001006162784801F03CFE0023227BA17DA7
:107C5000606A00F08BFB754908704249C8717C4925
:107C60000874A07501007B4801F02BFE26757A4848
:107C700000787A490978014304D1794801F021FE5E
:107C800099490D70606AC8210901884226D2754F52
:107C9000A07B012813D1714800786F49097801430E
:107CA0001DD1804801F00DFE7F490E703D70A67316
:107CB0007E4845727E490E708B480670F1BD7D4846
:107CC0000078397801430AD188A001F0FAFD2575C2
:107CD000A67685480570FEF71BF8F1BDA576F1BDC7
:107CE0008813000020F400082E2E2E0010B5804CC2
:107CF0002078C10724D5FE21014021705748007823
:107D000001280BD054480078012819D1FFF702FB55
:107D1000201DFEF713FFFFF7F7FA10BD1348017897
:107D2000012906D1002101707249201D05F052FC85
:107D300010BDFFF727FB201DFEF70EFAFFF70CFB27
:107D400010BD000004F4000830F400082100000019
:107D50003075000044F40008700300208D1D0020E1
:107D6000D41600203C030020A81700207F1D00200F
:107D700010B5FFF7C9FA0120374908705E4800784E
:107D8000002805D102F072F8FEF78CFE5B4821E076
:107D90005B486921415C212905D120216922815458
:107DA000584801F08EFD414C607C012805D15648B1
:107DB00001F087FD200068300CE04E49534805F083
:107DC00009FC1A20524908700F2002F057F8514858
:107DD0005149416003F036FBBE4801F072FD10BD11
:107DE00008030020681A002010B514214B4805F044
:107DF000F1FB04F01BFB0120184908702B490024FB
:107E00004C82487108005C3003F01CFB904803F082
:107E100019FB404803F0DEFA8E490C708E4804705E
:107E2000B04801F04EFD10BD78F10008C0030020FD
:107E300080B5FFF7A7FA04F0FEFA002007490870A2
:107E40002C49324805F0C6FBA74801F03AFD01BDB8
:107E5000F41C002064F40008841D0020851D00200F
:107E600070F400088A1D002010B582B09A4880780E
:107E700000F0A6FF0090002468464078012801D158
:107E80009A490C7068460078012808D19848007813
:107E900002F0A6FA9748046001201349087013BD48
:107EA00054F400087CF4000854030020140200205D
:107EB000941C00208B1D002080B500F031F801BD1E
:107EC00080B500208C4908708C490870032001F0AF
:107ED000D5FF8B4803F0B6FA03200D490870074818
:107EE00003F0B0FA01BD0000801D0020534C0000DB
:107EF000580800204C04000055030020301D0020CD
:107F00001819002084F4000894F400085C0800208C
:107F100056030020A01C0020C8AF0000441C002015
:107F2000F0B5BDB00120774A107077490978012972
:107F300003D07649097801297AD11621744A117043
:107F40006E490978002973D172490A786A4D2E78F2
:107F50007149724C724B052E6BDA761C2E70714E85
:107F6000714D724F3F78012F02D05B7D012B0FD1F5
:107F7000D1206870207B1521484331302871000AD8
:107F80006871297968790006000C0143684835E07A
:107F9000012A2BD1674EA279012A00D1F07008780E
:107FA0003071D3206870F07C152148432D30287142
:107FB000000A6871604907A8D32201F0CFFC3100A4
:107FC00002A8142201F0CAFC290084B068461722D6
:107FD00001F0C4FC0FBC01F059F82979687900065A
:107FE000000C0143554801F06CFC1EE0002A1CD136
:107FF000297968790006000C0143514801F061FCC1
:10800000310008A8D32201F0A9FC210004A80D2208
:1080100001F0A4FC290082B06846172201F09EFC02
:108020000CBC0021112001F029FF464803F00AFA98
:108030000BE000202870444D2E78012E05D12870C9
:10804000002A02D1D87C087020703DB0F0BD00003D
:108050003C1D00207F1D00207C1D0020F0B587B056
:1080600002203A490A6802430A60096808400590FC
:1080700005988024E400364F00222100380004F0E7
:10808000B0F9344E01223100380004F0AAF901227F
:10809000C021380004F0A5F90094012401940025C2
:1080A000029503956946380004F052F80096019451
:1080B000029403956946380004F04AF8C020009005
:1080C0000195029403956946380004F041F807B021
:1080D000F0BD00009CF40008F41B002080B5FDF703
:1080E000EFFB01BDA8F40008B4F400088C1D0020CB
:1080F0000D1C0020741D002059030020580300208F
:10810000A8030020841D002055030020951C00209A
:10811000560300208D1D0020540300203C03002046
:1081200008030020D416002070030020891D0020C1
:10813000B8F10008F41C0020A8170020C0F40008C3
:10814000D8F40008AC1C0020881D00202C10024030
:108150000004005002080000FEE7FEE780B5064874
:10816000016840220A430260002005F037FA05F05A
:1081700049FA002002BD00000020024002480168C8
:1081800002220A430260704710E000E005480168DF
:10819000020D0A430260704702480168420D0A431B
:1081A0000260704700700040F0B587B0012433488A
:1081B0000168214301600168214005910599022170
:1081C00002680A4302600068014005910598A027F3
:1081D000FF05002281210901380004F002F9284E30
:1081E00000222849300004F0FCF8882000020090AA
:1081F00001940025029503956946380003F0A8FF15
:10820000FF201230009001940295039569463000DA
:1082100003F09EFF262000900195029569463000EC
:1082200003F096FF202000901748019002956946C0
:10823000300003F08DFF0094144E019602946946BD
:10824000380003F085FF40200090019602956946B2
:10825000380003F07DFF00220021052003F01AFF03
:10826000052003F01BFF00220021072003F012FF6E
:10827000072003F013FF07B0F0BD00BF2C10024031
:1082800000040050018100000000211000003110A6
:1082900080B501200C490A6802430A600968084059
:1082A00000900098002200210A2003F0F3FE0A202B
:1082B00003F0F4FE002200210B2003F0EBFE0B2064
:1082C00003F0ECFE01BD00BF3010024030B583B0BA
:1082D000394C3A4820600020206490218903616075
:1082E000A0600321E16301212161E06020626062FE
:1082F000E062FF21C231A1622063042161616063F9
:10830000A061A063E06100BF31A5200004F026FF5A
:10831000002803D053212800FFF71EFF28480090B3
:10832000000C01906946200005F08FF8002803D06A
:108330005C212800FFF710FF37BD00681F49884205
:1083400000D0704700B585B01E480168420D0A4351
:1083500002601020009003200190002002906946E6
:10836000A020C00503F0F4FE05B000BD30B501004B
:1083700064200022144B1D888D421BD35D8A8D42E0
:1083800001D3002030BD54001C192588A9420ED20B
:1083900064888C420BD2521C0A235A43801AC0B202
:1083A0000A2807D1094A914204D2052030BD521C47
:1083B0000A2AE8DB30BD0000681A002000240140D2
:1083C000100000103410024000000020DE0D0000FC
:1083D000443A5C54454C55535C4149535F50524FAD
:1083E0004752414D5C4C6F6361746F725F4C303526
:1083F0003154385F4149535F616C61726D5F464F24
:1084000054415F417573747269615C5372635C615E
:1084100064632E630000000080B5AB48AB49016087
:1084200096218901416000218160C16001610C22B7
:10843000426181610162416202F026FA002804D0A3
:108440004D2100BFA4A0FFF787FE01BD80B5A04865
:10845000D449016096218901416000218160C16099
:1084600001610C2242618161C1610162416202F0DD
:108470000BFA002803D0622197A0FFF76DFE01BD23
:1084800080B59448C8490160962189014160002166
:108490008160C16001610C2242618161C161016240
:1084A000416202F0F1F9002803D077218AA0FFF79A
:1084B00053FE01BDF0B587B006003268BB4800240A
:1084C000BB4D0221814B9A424AD142684B0413436F
:1084D0004360C0200001019002910120039003201D
:1084E00004900420059001A9B24803F031FEB2487F
:1084F0001430286005276F60AC60EC608020286134
:108500006C61AC61EC612C62280005F09BF80028DE
:1085100003D0A02170A0FFF71FFE7566AE62A648CB
:1085200028646F641020A864EC64802028656C6562
:10853000AC65EC652C662800403005F083F8002817
:1085400003D0B12164A0FFF707FE28004030306659
:10855000AE66002200211D2003F09CFD1D20AEE030
:108560002F0084378F4B9A4252D102684B0313433A
:108570000360C020C00001900291012003900320FD
:1085800004900420059001A9A020C00503F0E0FD9F
:1085900028008030009088483C3000990860032013
:1085A00038607C60BC608020F8603C617C61BC61AC
:1085B000FC61009805F046F8002804D0DD2100BFDA
:1085C00045A0FFF7C9FD009870667E627A482830A2
:1085D000F8630320386410207864BC648020F86459
:1085E0003C657C65BC65FC652C00C034200005F052
:1085F00029F8002803D0EE2137A0FFF7ADFD34663F
:108600007E66002200211B2003F044FD1B2056E063
:10861000654B9A4255D142680B04134343600C20CA
:108620000190029101200390032004900420059002
:1086300001A9A020C00503F08BFD5F485030F8670A
:10864000822040002F18042038607C60BC608020AD
:10865000F8603C617C61BC61FC618030281800904E
:1086600004F0F0FF002804D08D2149001AA0FFF784
:1086700073FD009870667E624F486430F863042092
:10868000386410207864BC648020F8643C657C65A4
:10869000BC65FC65C0302C18200004F0D3FF002816
:1086A00005D0FF212C3100BF0BA0FFF755FD34662C
:1086B0007E66002200211C2003F0ECFC1C2003F04D
:1086C000EDFC07B0F0BD0000181900200048004084
:1086D00088190020F8190020443A5C54454C555341
:1086E0005C4149535F50524F4752414D5C4C6F6360
:1086F00061746F725F4C30353154385F4149535F5C
:10870000616C61726D5F464F54415F417573747265
:1087100069615C5372635C75736172742E630000EF
:1087200010B50400226821492448824210D14868CB
:10873000514A02404A60C02109011E4803F0CBFDA6
:10874000606E04F0F5FF206E04F0F2FF1D2025E0BE
:10875000A020C005134B9A420FD10A68474B134023
:108760000B60C021C90003F0B6FD606E04F0E0FFAD
:10877000206E04F0DDFF1B2010E00B4B9A420FD15E
:108780004A683F4B13404B600C2103F0A4FD606E20
:1087900004F0CEFF206E04F0CBFF1C2003F085FC1C
:1087A00010BD000000380140004400403410024079
:1087B00028140020000400501C0002400048004023
:1087C000F1B5304800680099096801272E4C2F4EFA
:1087D0001025814214D1C969294011D00562294868
:1087E00002F074F92748406E00684068301A6080D3
:1087F0002078384320703200211D224802F01FF9F2
:108800002348006800990968814214D1C969294048
:1088100011D005621E4802F059F91D48406E0068EB
:108820004068301A60802078384320703200211D63
:10883000174802F004F91748006800990968814256
:1088400018D1C969294015D00562124802F03EF9D5
:108850001048406E006840688A21C9006118301ACB
:108860004880087807430F7032000B4821180948E8
:1088700002F0E5F8F1BD0000FFFFFBFFFFBFFFFFC7
:10888000FFFFFDFF18190020580800204C040000CD
:1088900088190020F81900205404000070B586B033
:1088A000724C8021C9052160714961600025A56075
:1088B000401EE060256100BF74A6200004F084FA29
:1088C000002803D040213000FFF746FC8020400103
:1088D000029002A9200004F070FB002803D046217A
:1088E0003000FFF739FC009501956946200005F03E
:1088F00007FA002803D04D213000FFF72DFC06B009
:1089000070BD000070B586B05A4C5B482060584876
:1089100060600025A5609520E06025615BA62000D1
:1089200004F052FA002803D05E213000FFF714FC57
:1089300080204001029002A9200004F03EFB0028A4
:1089400003D064213000FFF707FC009501956946CC
:10895000200005F0D5F9002803D06B213000FFF787
:10896000FBFB06B070BD000070B586B0434C4448B8
:1089700020603F4860600025A5604248E0602561B6
:1089800042A6200004F020FA002803D07C21300009
:10899000FFF7E2FB80204001029002A9200004F0D2
:1089A0000CFB002803D082213000FFF7D5FB009597
:1089B00001956946200005F0A3F9002803D089211C
:1089C0003000FFF7C9FB06B070BD80B501682E48C6
:1089D0008022D20591420AD1416801220A434260B5
:1089E000002200210F2003F055FB0F201AE0224A3D
:1089F00091420AD1016804220A4302600022002148
:108A0000142003F047FB14200CE01D4A91420BD1C7
:108A1000016820220A43026000220021162003F090
:108A200039FB162003F03AFB01BD80B501681648FA
:108A30008022D205914205D14168012291434160D3
:108A40000F2010E00C4A914205D1016804229143A5
:108A50000160142007E00A4A914206D101682022F1
:108A600091430160162003F020FB01BD141B002080
:108A70007F3E00004C1B002000080140841B0020AA
:108A800000140140B70B000034100240443A5C541B
:108A9000454C55535C4149535F50524F4752414DED
:108AA0005C4C6F6361746F725F4C30353154385F6A
:108AB0004149535F616C61726D5F464F54415F4144
:108AC0007573747269615C5372635C74696D2E6353
:108AD0000000000080B51648164901600021416081
:108AE0007F228260FF22C260016141618161C161B8
:108AF00005F02AF9002804D0432100BF0FA0FFF79A
:108B00002BFB01BD00680B49884200D0704780B53F
:108B1000094801688022D2020A4302600022002133
:108B2000022003F0B7FA022003F0B8FA01BD0000FA
:108B3000B81C00200028004050100240443A5C5409
:108B4000454C55535C4149535F50524F4752414D3C
:108B50005C4C6F6361746F725F4C30353154385FB9
:108B60004149535F616C61726D5F464F54415F4193
:108B70007573747269615C5372635C7274632E63A3
:108B80000000000038B5294C294820602948606061
:108B90000020A0600121E16020616061A061E061CE
:108BA000206200BF26A5200005F0A0FA002803D00F
:108BB00042212800FFF7D0FA0021200005F08AFDAD
:108BC000002803D049212800FFF7C6FA0021200021
:108BD00005F09CFD002803D050212800FFF7BCFAC7
:108BE00031BD00681249884200D0704700B585B099
:108BF000C0200090122001900120029003210391D7
:108C0000049069460C4803F0A3FA0C4801688022DE
:108C100092030A43026000220021172003F03AFA6F
:108C2000172003F03BFA05B000BD0000C81A002071
:108C3000005400405B3D30000004005038100240FA
:108C4000443A5C54454C55535C4149535F50524F34
:108C50004752414D5C4C6F6361746F725F4C3035AD
:108C60003154385F4149535F616C61726D5F464FAB
:108C700054415F417573747269615C5372635C69DE
:108C800032632E6300000000F1B50F0016000429C6
:108C900001D0062901D11F2E4ADA092901D00B295A
:108CA00001D11F2E44DA820704D0022906D11D2EDD
:108CB00004DB3DE0022901D11E2E39DA3A0037D01B
:108CC0000D2935DA310033D0202E31DA182B2FDA86
:108CD00006983C282CDA07993C2929DA089D2A00B5
:108CE00026D0082D24DA834C23726072A1720020F2
:108CF0006061A0610022210008317F4805F074F80E
:108D0000002801D00BA00EE025706770A6706846A1
:108D10000078E07000222100774805F00AF9002869
:108D200004D000BF07A000F0CCFD01E00120F2BD9F
:108D30000020F2BD53657454696D654572726F729F
:108D40000D0A0000536574446174654572726F7258
:108D50000D0A000070B50125674E664C0022210007
:108D60000831300005F0BFF800280FD100222100A3
:108D7000300005F03FF9002808D10025A37A627A77
:108D8000217A00BF04A000F09CFD02E007A000F0E3
:108D900098FD280070BD0000253032643A2530323D
:108DA000643A253032640D0A000000006765745291
:108DB00054435F446174655F4552524F520D0A003F
:108DC000F1B582B03FA0006800900125FFF7C2FF17
:108DD000002873D1A24F474C0026207A002842D1A8
:108DE000607A00286CD1A07A010069D03C2867DA4B
:108DF000A07F002864D19B480078012800D1A57786
:108E000099480078012804D1984802F0E3FAFFF766
:108E10000FF83878012811D1954802F0DBFA95480F
:108E200002F0D8FA944802F0D5FA944802F0D2FA47
:108E3000934802F0CFFA3E7001F01FF869460D70BA
:108E40006846007A401E03D0401E012809D90AE076
:108E5000607F401CE17903F0A9F86177607F694683
:108E600000E0A0788870207A0B2829D1607A3B280E
:108E700026D1A07A2838132822D2684645707A482D
:108E80000078012804D1794802F0A4FAFEF7D0FF57
:108E90003878012814D1764802F09CFA754802F01F
:108EA00099FA754802F096FA744802F093FA7448F9
:108EB00002F090FA3E7000F0E0FF01E06846C570F5
:108EC0000098FEBD0000000080B5FFF743FF6D482D
:108ED000017807290BD1017A172908D1417A3B295A
:108EE00005D1807A1438282801D2012002BD002043
:108EF00002BD0000F01B0020B81C0020F1B58AB0B4
:108F00000B002F2030210591FF21002202920092B8
:108F10005B1EDBB2069307AC5B4B6370A170012351
:108F200023700025574B1E7AB54206D169005D7A41
:108F30001E2D00DB491CC9B203E06D1CEDB2182DDB
:108F4000F2DB0025CD4EB446069F78267743664671
:108F5000F6190196019EAF007F19F619B778002F18
:108F60000AD07678B14207DA2F2E05DA0120029076
:108F700030006E46357402E06D1C182DEADB019D51
:108F80009600B618AD19AD782E0009D0A94207DABF
:108F9000312D05DA012600960595D2B2039202E042
:108FA000521C182AEBDB1A7A3C2555435A7AAD1825
:108FB000ADB2009A002A44D0019A039B9E00F31898
:108FC000D6182F2915D02E2913D00599884210DAEA
:108FD000029900290DD01E214843401B6070000AF1
:108FE000A07001986946097C8A005118405C207085
:108FF0002CE0F07831790906090C0843F1783279D0
:109000001206120C1143000A0902014389B20091B1
:1090100077781E204743E81B009902F0C7FF401CE9
:1090200000994843401BC0196070000AA070307856
:109030002070F07831790906090C0843E070000AC5
:1090400006E0B420C00060700520A0700020E07031
:1090500020710A9807A9052200F080FC0BB0F0BD32
:10906000841D002055030020851D00203C1D00208C
:10907000A8030020301D0020AC1C00206403002049
:10908000A01C0020F01B0020FFFF00000FB4FEB565
:109090007B4CE01D05F062FB119020790EA948720F
:1090A0000EA821884171090A81716079A1790906A8
:1090B000090C08430EA948810EA86188C171090AEC
:1090C000017208A88088010A0002084308A9888064
:1090D0000EA9487C8A7C1206120C1043523080B2D2
:1090E0000190487C8A7C1206120C10430EAA517C17
:1090F000937C1B061B0C1943000A0902014351749F
:10910000090A91740EA8C07C0028019802D1801E23
:10911000042101E0401E02216A46517080B200F035
:10912000D1FF05000199490040181A3069460881AD
:10913000544EB71C207B3874E01D05F00FFB310046
:109140001B3103F05DFD0198253831002331020405
:10915000120E000210430870000A48702079B8759A
:1091600049483070B12070700F224849F01C03F05C
:10917000EAFB20883075000A70756079A1790906CC
:10918000090C08437076000AB0766088B075000A52
:10919000F0757B480078222170540320387079489C
:1091A0008079F877784842190F322521300003F092
:1091B000F7FB754829005931C9B24218172108A890
:1091C00003F0EEFB8735ACB26F48021914210EA8EC
:1091D00003F0E6FB2834A4B2002569460D7015E0C3
:1091E00013A81521694346183A001521701C03F095
:1091F000D7FB2A34A4B21521701C03F085FB694605
:1092000009780818694608706D1CEDB25E480719A8
:109210000EA8C07C8542E3DB162108A8401C03F0A1
:1092200073FB6946097808186946087014210EA86E
:1092300003F06AFB694609780818694608703A0025
:109240000121684603F0ACFBFA2069468870BA1C1D
:10925000012100A8801C03F0A3FB09224B494A48C6
:10926000A41CA4B20019801C03F06DFB68460089A1
:1092700069464978421A92B28EE10000E01000205F
:10928000B40300206C1C0020FAB10000760300201B
:10929000F1B584B000203E49087010223D49049881
:1092A00003F01FFB10253B4948798A791206120CFE
:1092B00010430A46517993791B061B0C1943000A87
:1092C000090201435171090A917133480078401C29
:1092D000694648701079C870D078887090780028F6
:1092E00002D101202A490870002602AF00E0761C56
:1092F0002849C979F0B2884237D2062201A90498D8
:10930000401903F0EEFAAD1DADB2002411E00522C4
:1093100002A9224884466846037978204343604680
:10932000C018E4B2A3001B19C018783803F00BFB77
:10933000641C01A98978E0B28842D8D20A2202A925
:109340000498401903F0CDFA0A35ADB2B8787978AF
:10935000814208D2302906DA010004D0312802DA2D
:1093600038780228D3DB002004E00948007801287F
:1093700000D0AA2069460870009805B0F0BD000032
:10938000550300203C030020E00C00207C960008E0
:10939000091D00205C1D0020861D0020E01000201B
:1093A0000FB4F0B583B008A88088010A0002084312
:1093B00008A988800EA948788A781206120C1043F2
:1093C0000EAA517893781B061B0C1943000A090258
:1093D00001435170090A91700EA9C8780A791206E2
:1093E000120C10430EAAD17813791B061B0C1943DB
:1093F000000A09020143D170090A11710EA84089BF
:10940000010A000208430EA948810EA8007B152717
:1094100047435537BFB2380000F054FE04007900CE
:1094200040181A3069464880894EB01C019089481E
:10943000007B0199087447ADE81D05F08FF93100F4
:109440001B3103F0DDFB253F300023303904090ECA
:109450003A020A430270120A42702879019988750B
:109460007D483070B12070700F227C49F01C03F0F1
:109470006AFA28883075000A70756879A979090632
:10948000090C08437076000AB0766888B075000A47
:10949000F0757348007822217054032001990870F8
:1094A000704880790199C8776F4802190F322521D9
:1094B000300003F075FA6C4821005931C9B24218E6
:1094C000172108A803F06CFA8734A4B26648021981
:1094D0000B2147A803F064FA1634A4B262480219BB
:1094E0000D210EA803F05CFA1A34A4B200256946D7
:1094F0000D7015E012A81521694346183A00152190
:10950000701C03F04DFA2A34A4B21521701C03F02C
:10951000FBF9694609780818694608706D1CEDB2B8
:10952000514807190EA8007B8542E3DB162108A8E5
:10953000401C03F0E9F96946097808186946087083
:109540000D210EA803F0E0F969460978081869466C
:1095500008700B2147A803F0D7F969460978081865
:10956000694608703A000121684603F019FAFA20AA
:1095700069464870BA1C012100A8401C03F010FA8B
:10958000092200BF3DA13848A41CA4B20019801CC8
:1095900003F0D9F9684642883349344801F00DFA9E
:1095A00003B00498F0BC05B0004700000FB4F8B554
:1095B00006ACA088010A00020843A0800020607564
:1095C000A075D22060703D2000F07CFD0500264E85
:1095D0005930C0B23218172106A803F0E1F92F0064
:1095E0008737BFB20020694608701621601C03F05F
:1095F0008BF969460978081869460870F419220041
:109600000121684603F0CCF9FA2069464870A21C93
:10961000012100A8401C03F0C3F9092217A1BF1CB7
:10962000BFB2F019801C03F08EF99435AAB2310054
:109630000E4801F0C2F901B0B3E770470C48802131
:10964000890201620B4941620B4981627047000047
:109650006C1C0020B4030020FAB100007603002047
:10966000550300203C030020E00C002018190020C6
:10967000F01B0020881300003B9600082C30783047
:109680003130300D0A00000002B5002805D0026814
:1096900011700168491C016001BD034B012269463C
:1096A000024801F027F901BDFFFF0000F819002072
:1096B000F1B50E00140000252027012C0EDB002040
:1096C00001E0401C491C0A78002AFAD1A04201DBC3
:1096D000002400E0241A980700D53027D80708D4C2
:1096E00005E039000098FFF7CFFF6D1C641E012CC8
:1096F000F7DA317808000BD00098FFF7C5FF6D1C32
:10970000761CF6E739000098FFF7BEFF6D1C641E5B
:10971000012CF7DA2800F2BDF5B585B000200190E4
:1097200000900E0002AA0C9D09D1302111705070DA
:109730000D9B2A0002A90598FFF7BAFF3DE0002B18
:1097400007D0069B0A2B04D1002902D501230193DF
:109750004E4202A90C000B34D0720E9F002E10E076
:109760003000069902F025FC0A2902DB38003A385D
:109770000918641E303121703000069902F019FC7E
:109780000600EDD1019800280FD0002D0AD00D98C9
:10979000800707D52D210598FFF776FF012000905F
:1097A0006D1E02E0641E2D202070009E0D9B2A007D
:1097B00021000598FFF77CFF301807B0F0BD0000CE
:1097C000F0B585B007000C001600002505E02178F3
:1097D0003800FFF759FF6D1C641C2078010068D029
:1097E0002528F4D1641C002300222078010060D0D9
:1097F0002528ECD02D2806D1641C012303E0641C2D
:1098000018000223034320783028F8D02078010084
:1098100030390A2905D20A214A431218303A641C09
:10982000F4E773280AD13168361D002901D100BF41
:109830002DA13800FFF73CFF2D18CDE764280BD190
:109840003168361D612002900193009201230A22A3
:109850003800FFF761FFEFE7782808D13168361D3F
:10986000612002900193009200231022F0E7582813
:1098700008D13168361D41200290019300920023E7
:109880001022E5E7752807D13168361D6120029066
:10989000019300920023DAE763289DD13068361DDA
:1098A00069460873002003A948703800FFF700FFDD
:1098B000C2E7002F02D0002039680870280005B0E8
:1098C000F0BD0EB400B501AA01000020FFF778FF3B
:1098D000009904B008470DB400B502AA01A8FFF72B
:1098E0006FFF009904B00847286E756C6C29000062
:1098F00011B581B004F03EFF040004F03BFF001BF3
:1099000001998842F9D313BD70B505000C0016000B
:1099100004F036FF0F482D1807E0227829000020B8
:1099200004F044FF6D1C641C761E002E02D00A4811
:109930008542F2D304F030FF70BD064BC018002AF8
:1099400004E003780B70401C491C521EF9D170478B
:10995000000000000000080800080808124207D0B4
:109960008B0706D00B78491C0370401C521EF7D899
:109970007047830706D00B78491C0370401C521EA9
:10998000F9D1704770B4103A03D378C9103A78C04F
:10999000FBD2530701D318C918C001D508C908C0A4
:1099A000D20704D30B880380891C801C002A01D5B0
:1099B0000B78037070BC7047F1B586B00E0001A83B
:1099C000B5A11422FFF7DEFF984D9621280003F081
:1099D00003FE28009830009000240480320000BF6D
:1099E000B2A12800FFF777FF280002F043FF010033
:1099F00001AA0EE0069B1B191F783F09D75D07706F
:109A0000491C18780007000F105C89B26854491C83
:109A1000641C89B26818B442ECDB00BFA8A1FFF750
:109A20005AFF280002F026FF00990880A7A0FFF740
:109A300048FF0098028829007D4800F0BEFF07B06B
:109A4000F0BD80B50B001100132804D0142805D0F8
:109A5000182807D001BD00F013F801BD180000F070
:109A60003BF801BD00207349087000F006F9724808
:109A700001F0B0FC0F207149087000F0FFF901BD42
:109A800038B56F4CFF202070FE2060700120A07060
:109A90001320E0700020A080A0711121E1712072DC
:109AA000684D2800083002F0E5FE02002900083168
:109AB00020000930FFF752FF1921200004F0B8FE02
:109AC00080B200210918090A217160711921200052
:109AD000FFF772FF31BD000038B50500594C102268
:109AE000290020001830FFF739FF287C0002697C2C
:109AF00040186080A87C0002E97C40182080A08883
:109B00000090238862882100183100BF71A0FFF700
:109B1000D8FE00F061F800281BD10B227BA12000A9
:109B2000183004F08CFE002810D000F077F80120E7
:109B300000F09CF8012000F08DF8BFF34F8F4248F1
:109B400042490860BFF34F8F00BFFDE7032000F0DC
:109B500001F831BD10B53A4CFF212170FE21617032
:109B60000121A1701422FFE7E2700022A280A271FD
:109B7000E17120720921200004F05AFE80B2002118
:109B80000918090A2171607109212000FFF714FFEB
:109B900010BD10B52A4CFF212170FE2161700121FA
:109BA000A1701821E1700021A180A1711121E17142
:109BB00020721022264920000930FFF7CFFE19211C
:109BC000200004F035FE80B200210918090A217135
:109BD00060711921D9E7000038B50024194D288893
:109BE000002803D14CA0FFF76CFE012468880028F0
:109BF00004D100BF4FA0FFF764FE0224102200BF73
:109C000053A12800183004F01AFE002804D100BF28
:109C100054A0FFF756FE0424200032BD80B5282250
:109C200008492020FFF770FE01BD00007C180020CD
:109C3000181900209A1C0020A803002056030020B9
:109C4000BC1B00201C1C00200400FA050CED00E0E9
:109C5000241C002001B5012269461020FFF754FEA4
:109C600001BDFFF76AFE6846007802BD01B501221A
:109C700069461120FFF748FE01BD01B50122694682
:109C80001220FFF741FE01BD80B500206946087033
:109C900001221220E5E70000303132333435363707
:109CA00038394142434445460000000041542B4DA1
:109CB0004C57554C4441544145583D25642C0000B7
:109CC0002C3078303130300D0A0000005A5A5A0DCD
:109CD0000A0000006E65772076657273696F6E20EA
:109CE000696E666F3A25730A2020202073697A65B1
:109CF0003A25640A6E756D3A25640A20202063684F
:109D000065636B3A3078253034580A0076312E314D
:109D10002E31383038323400666F74615F696E6698
:109D20006F2E626C6F636B5F6E756D206572726F04
:109D3000720A0000666F74615F696E666F2E626CF6
:109D40006F636B5F73697A65206572726F720A0068
:109D50000000000000000000000000000000000003
:109D600000000000666F74615F696E666F2E6E653D
:109D7000775F7665725F73746172206572726F725D
:109D80000A00000038B500246846047004F076FD2F
:109D9000344D68460078332801D02C7031BD04F072
:109DA000B1FE002004F08DFD0120287031BDF8B512
:109DB00005000C0017001E002A48007800282CD04F
:109DC00004F0A0FE280004F063FD002C01D1012066
:109DD00000E0022004F075FD072004F0C9FD00201A
:109DE00004F02CFE012004F011FE002004F03FFEE0
:109DF000402004F05AFE380004F0D5FD012004F0A4
:109E0000ECFD002004F064FEF0B204F0A7FE022096
:109E100004F0AEFE152004F089FEF1BDE0B510227D
:109E200002920122019200910123020031210E4889
:109E300004F062FA401E8041C00F0EBD02B584B02E
:109E4000102102910121019104A900910123020036
:109E50003021054804F0A4F9401E8041C00F05B030
:109E600000BD00007E1D0020C81A002080B5012220
:109E70000121604802F0B5FA01BD70470EB4F0B59B
:109E8000BEB0070062A25CA65C4D5D4C5DA15EA009
:109E9000032F04D05DA3082F04D1009032E000907E
:109EA00033002FE0052F09D1009000BF5AA300BF57
:109EB0005FA2042002F051FD1D2292E0042F03D185
:109EC000009000BF5CA21DE0062F06D103007AA21D
:109ED000032002F042FD082283E0092F02D1009006
:109EE00057A20FE00A2F09D1019000BF56A00090A1
:109EF00059A2052002F031FD1B2272E00B2F06D182
:109F000000906E4A042002F028FD0B2269E00C2F1D
:109F100005D1009052A2042002F01FFD0EE00D2F8B
:109F200005D1009050A2042002F017FD06E00E2F8C
:109F300006D103004EA2032002F00FFD0C2250E0D8
:109F40000F2F07D1030000BF4BA2032002F005FD35
:109F50000D2246E0102F0BD1019000BF49A00090C8
:109F60004BA300BF4CA2052002F0F7FC1A2238E0F8
:109F7000112F20D143A8041D0068002835D12500E9
:109F800018354F493BA80B22FFF7E8FC2900103198
:109F900006A8D322FFF7E2FC290002A80D22FFF752
:109FA000DDFC210084B068461722FFF7D7FC0FBC08
:109FB000FFF7F6F919E0132F0AD1019038A00090AD
:109FC000330000BF38A2052002F0C7FC0F2208E0D2
:109FD000002F0AD1030000BF35A2032002F0BDFC10
:109FE00009222100280000F0E8FC3EB00498F0BCF3
:109FF00004B00047000400503D3000001819002054
:10A00000E00C002041542B000D0A00003D310000FF
:10A010004346554E000000003D3136302E34342E7C
:10A020003230362E3233372C3536383300000000CC
:10A030004E434450000000004347534E00000000D0
:10A04000434D4545000000002C224950222C22633C
:10A05000746E657422000000434744434F4E540021
:10A0600043474154540000004353434F4E00000007
:10A0700043475041444452004E5545535441545374
:10A08000000000002C31372C373430302C310000E8
:10A090003D444752414D00004E534F435200000093
:10A0A0002C353132000000004E534F524600000064
:10A0B00043474D52000000004E524200C0A6000827
:10A0C000B4030020F8B505000024652801DB042452
:10A0D00006E00B2801DB032402E0280000D0022464
:10A0E00019A276A1022002F038FC68466D1C05809A
:10A0F0000088642101F05AFF0D0028000A2101F0B8
:10A1000055FF30316846817028000A2101F04EFF6A
:10A11000050030352C26104F6846008865280CDB7A
:10A1200068460088642101F041FF3030F8733D74C7
:10A13000684680787874BE7404E0FD736846807861
:10A1400038747E742000F2BD4D4C57554C44415438
:10A150004145583D00000000E00C0020F0B585B0FE
:10A1600006000D00052D16DB68003018001F02F0F8
:10A1700089FB0400281F410089B2B01C02F0D2FB09
:10A18000A04209D0010000BF4DA0FFF79AFB2100BB
:10A190004EA0FFF796FB8EE0122201A9300002F0DC
:10A1A000A0FB01A80178FA29F5D1C179027A12063B
:10A1B000120C1143C279037A1B061B0C1A43090ABD
:10A1C00012020A43C271120A0272C179027A12069D
:10A1D000120C1143B34C6184220049320B0A09026C
:10A1E00019431170090A5170407800270125C128D0
:10A1F00025D100BF38A0FFF764FB607E002802D1A4
:10A20000A94801F0E7F806213000123000F082F88A
:10A21000A6490870002808D1607C02280AD000BF37
:10A220002FA0FFF74EFBA2480770607C022801D0E8
:10A23000A57701E09F4805709F48E06237E0C2289B
:10A2400039D100BF2AA0FFF73CFB607E002802D175
:10A25000954801F0BFF89948418830001230FFF767
:10A2600017F80090964E300069460422FFF776FBFF
:10A270008E48407801281ED1307801280BD100BFCC
:10A280001DA0FFF71EFBB078012801D18D48077093
:10A2900087490D7003E000BF1BA0FFF712FB854844
:10A2A00005708548E0628748007800F099F8200042
:10A2B000283001F0C7F805B0F0BD000041542B0074
:10A2C0004353313A25640D0A000000004353323AEB
:10A2D00025640D0A0000000043310D0A0000000053
:10A2E0004D6F64654368616E67650D0A000000008C
:10A2F00043320D0A0000000043325F53756363650B
:10A3000073730D0A0000000043325F4661696C0DF3
:10A310000A00000070B59AB00D006A0092B269465A
:10A3200002F0DFFA5F4C2A0069462000103002F08C
:10A330000AFB0025A571217C0120634E032904D16D
:10A34000E0773570022060721EE004291ED120786B
:10A35000207657490978012904D15A48007800F03D
:10A360003FF80CE0010002D16078A17803E00128F9
:10A3700005D1E07821790906090C0843A0846572AB
:10A38000E577357020202554012026E0627C022AE2
:10A3900001DB22D120E0022901D022762270A18A9D
:10A3A0000A0A09021143628A130A12021A43BC4BB9
:10A3B00089B2994211DA92B29A420EDAE170090A30
:10A3C00021716270120AA270E17822791206120CD1
:10A3D0001143792900DAE07600201AB070BD000040
:10A3E000F0B583B007000024FEF7B4FC3448807851
:10A3F0002C4DAC4E012802D17C1CE1B215E00228A4
:10A4000002D1A94804780FE003281ED1A648047899
:10A41000FEF75AFD002807D000202549087028784B
:10A420002876A248A88410E021006846FEF766FD61
:10A43000300069460522FFF791FA7078B178090675
:10A44000090C0843A88430782876994800780128B8
:10A4500000D1287697488470F17832791206120C70
:10A4600011430170090A4170297E0171012908D048
:10A47000297C022905D00021C174012141740021E9
:10A4800081740B48007801280BD1A98C0FA0FFF72D
:10A4900018FA297E13A0FFF714FA791C16A0FFF70B
:10A4A00010FAF7BD3C0300200C1D0020081D002001
:10A4B0008D1D00208F1D0020B80B000058080020C3
:10A4C000F41B00200D1C0020891D002053636865CB
:10A4D00064756C655F6379636C653A2025640D0A69
:10A4E000000000005363686564756C655F4D6F64C0
:10A4F000653A2025640D0A005363686564756C65D0
:10A500005F446174653A2025640D0A00F1B59CB082
:10A5100000250195BB4CA56001270126BA48428859
:10A5200065A11C9802F057FAA060B748428800BFA6
:10A5300063A11C9802F04FFA002808D1A0680028F7
:10A5400007D100BF60A0FFF7BCF91DB0F0BD401DF2
:10A5500001900A220021019802F025FB80B20090B0
:10A56000AA498842F1DA642801DB032602E00A28BE
:10A5700000DB0226014600BF55A0FFF7A2F9A06844
:10A58000002815D056A0FFF79CF9A179481E8041FC
:10A59000C00F60710098420092B202A9A068401CEE
:10A5A00002F09FF9009989B202A800F001F9CCE706
:10A5B0001C98801901906079954E009908291BD14B
:10A5C0000028C2D1B07F934909780143BDD104224C
:10A5D00045A11C980A3000F067FE0028B5D18E48CE
:10A5E00000780028B1D100BF41A0FFF76AF90198B7
:10A5F0000D3000F089F8A8E70099022940D1002821
:10A60000A3D100BF3DA0FFF75CF9B07F8149097875
:10A6100001439AD1307C012809D13574BFF34F8FA3
:10A620007E487F490860BFF34F8F00BFFDE70228D7
:10A6300010D13000283000F0CDFE20000C3000F0AA
:10A64000C9FE00BF7AA0FFF73CF9FDF7CDFB2570EE
:10A65000A5707AE7707E012802D02079012802D106
:10A6600000F084F871E767701620B0763776F776D9
:10A6700077713770B5832000183000F0E3FE64E78F
:10A680000929FCDB0028FAD1E77000BF6BA0FFF7B7
:10A6900018F9009989B201980930FFF75FFD54E776
:10A6A000A1050000541D0020F01B0020FFFF00004A
:10A6B000881D0020F41C00202C4646464500000062
:10A6C0004E4E4D49000000004F746865720D0A003F
:10A6D000646174615F4C656E3A25640D0A00000088
:10A6E000464646450D0A000046414641000000002E
:10A6F00054696D655F73796E0D0A0000536572765B
:10A7000065725273700D0A0070B586B008220100A0
:10A7100004A804F037FA082203A902F0E2F8414C39
:10A7200003A80022210003781B0645782D048678B3
:10A730003602AD19C07828181818E123DB01C018BB
:10A7400004F09AFAE0790290A07901906079009083
:10A750002379E278A1782088C0B2FEF795FA012823
:10A7600001D12D49087006B070BD000038B5002534
:10A7700028480570264CA577E07F012803D12021C9
:10A780006054022000E00020607200BF30A0FFF79C
:10A7900098F81C20A076A58320006C3000F052FEB3
:10A7A000202221004C31204800F007F931BD000083
:10A7B00038B50400207800026278801880B21B4A05
:10A7C00090421DD12079000262798518ADB2002037
:10A7D00020716071200004F02BF880B2A84205D0EF
:10A7E000020029001EA0FFF76CF831BDA07900021D
:10A7F000E179401882B221000831E078FFF721F9B1
:10A8000031BD0000941C0020580800200102000007
:10A810003C0300208F1D00208C1D00200400FA0541
:10A820000CED00E0641D002018190020FEFF000060
:10A830005370656369616C464E0D0A0070726F63F8
:10A84000657373696E67446174610D0A00000000EE
:10A85000656E746572536C6565700D0A00000000CA
:10A860006372633136206572726F720A7265637645
:10A870003A3078253034582C747275653A30782522
:10A880003034580A0000000038B5040001D101201E
:10A8900032BD250068356878002803D12870200073
:10A8A000FDF708FE242068702068016801229143AA
:10A8B0000160606A002802D0200000F045FB200003
:10A8C00000F028FA012811D020684168084A0A409F
:10A8D0004260206881682A22914381602068016873
:10A8E00001220A430260200000F092FB32BD00000A
:10A8F000FFB7FFFFFCB583B006000C0035005035F4
:10A90000687E202856D1002C0BD0002A09D0B068D0
:10A9100080214901884206D13069002803D1E0072F
:10A9200001D5012047E0287E012843D00120287668
:10A930000027EF612120687603F01CFF0190684634
:10A940008089288068468089688005E02088C00565
:10A95000C00D31688862A41C6888002819D06888F6
:10A96000401E688004980090019B002280213000E6
:10A9700000F082FB002816D1B0688021490188428E
:10A9800002D130690028E1D0207831688862641CE7
:10A99000E2E704980090019B00224021300000F083
:10A9A0006BFB002801D0032005E0202068762F767D
:10A9B000002000E0022005B0F0BD70B506003500B3
:10A9C0005035687E202838D100290BD0100009D0DE
:10A9D000B06880235B01984206D13069002803D11A
:10A9E000C80701D5012070BD287E012825D001208F
:10A9F0002876F1642A806A800024EC612120687640
:10AA00005C482969C8625C48296908635B48296910
:10AA1000486328698463130032682832F16C28691E
:10AA200002F06EFF4020316808622C763068816841
:10AA300080220A438260002070BD022070BDF8B5FC
:10AA4000060035005835A87C20283DD100290BD0C0
:10AA5000100009D0B06880235B01984206D13069AC
:10AA6000002803D1C80701D50120F2BD287C0128A8
:10AA70002AD001272F7471652A8000246C6122205E
:10AA8000A8743F48E968C8623E48E96808633B48E3
:10AA9000E9684863E86884631300726D31682431A3
:10AAA000E86802F02DFF2C74306801683A020A430E
:10AAB0000260306881680F43876030688168402297
:10AAC0000A4382600020F2BD0220F2BD38B50400C6
:10AAD00025006935287821280FD12068816809066A
:10AAE0000BD58168802291438160206E002801D0BF
:10AAF00002F02EFF200000F0F5FA687822280FD12E
:10AB00002068816849060BD58168402291438160A5
:10AB1000606E002801D002F01BFF200000F0EBFA6D
:10AB2000002032BD70B5040020680168164A0A4052
:10AB300002602068816801229143816025006435AC
:10AB400020680026816849060AD581684022914321
:10AB500081602868002803D08663286802F0F8FE28
:10AB60005A2026520F20216808622020A871002058
:10AB700070BD000025B1000855B10008BFB1000844
:10AB80005FB10008B5B10008DFFEFFFFF8B50400B3
:10AB90002368D86919680607360F07D1820605D5DC
:10ABA0008A0603D5200000F037FBF1BD9A68250026
:10ABB0006435002E62D00126324203D190277F00F7
:10ABC0000F405BD0C70705D5CF0503D51E62AB6824
:10ABD0001E43AE6002230426870706D5D70704D597
:10ABE00027683B62AF683743AF60470706D5D70792
:10ABF00004D527683E62AE683343AB60082603077E
:10AC000008D58B0601D4D20704D522681662AA683B
:10AC10003243AA60AA68002A79D0800604D5880643
:10AC200002D5200000F0F8FAA868064003D1206899
:10AC3000806840061CD5200000F05DFA206881681D
:10AC4000490611D581684022914381602868002817
:10AC50000AD02F498163286802F0AAFE002856D046
:10AC60002868816B8847F1BD200004F05DF8F1BDD4
:10AC7000200004F059F80020A860F1BD2026C7028A
:10AC800009D5520207D5F00318626E71AE7120002B
:10AC900004F04CF8F1BD02062DD50A062BD56879D3
:10ACA000212834D15220205A002809D11868802147
:10ACB000884318602068016840220A430260F1BDA1
:10ACC000A068F10188420BD12069002808D1E06C0E
:10ACD0000088C005C00D9862E06C801CE06404E050
:10ACE000E06C411CE164007898625220205A401EBA
:10ACF00052216052F1BD400609D5480607D51868B3
:10AD00004021884318606E712000FCF75FFBF1BDA5
:10AD100005B20008FEB5070010241025002669467C
:10AD20000E7039680868814A0240B86810433A6971
:10AD3000024378691043FA6902430A6048687C4A12
:10AD40000240F86810434860B8697A4A914202D0DC
:10AD50000200386A10438A68774B134018438860B2
:10AD6000764881420BD17648C06C8007800F04D0B2
:10AD7000022812D029D3032823E0012528E07148B6
:10AD800081420CD16E48C06C0C2101401BD00429BB
:10AD90001BD0082901D00C2913E0022518E06548D2
:10ADA000814215D16648C06CC021090101400AD01A
:10ADB000A001814209D040008142EED0C0200001B4
:10ADC000814204D004E0002502E0042500E00825CB
:10ADD000022001F02FF839680291E202554B9942A6
:10ADE00031D1002D06D0022D11D0042D17D0082D01
:10ADF00018D093E000F0C9FE002860D07A685100B6
:10AE00008918884202D3110381420DD286E04C4852
:10AE10000068044001D09748F0E7BE48EEE700F034
:10AE20007BFEE9E71000E9E7050E04025008002167
:10AE300000196941002303F07AFFA8494118A84A84
:10AE400091426BD25FE0F969914239D1002D08D06F
:10AE5000012D0AD0022D0BD0042D13D0082D1AD0AD
:10AE600021E0796840004A0818E000F09BFE0BE002
:10AE700079684808324A1268144001D0A64A0DE0A9
:10AE8000A64A0BE000F048FE7968019140004908AD
:10AE90004018019903E0796848085200801801F0D1
:10AEA00088F8060002E00120694608709C4931409C
:10AEB0003006400E4007400F01433868C16030E063
:10AEC000002D08D0012D09D0022D0AD0042D12D05A
:10AED000082D1AD022E000F058FE0EE000F062FECD
:10AEE0000BE079684808164A1268144001D0614A9C
:10AEF0000DE0884A0BE000F00FFE79684A088018E0
:10AF000001F057F880B2396806E07968480880187F
:10AF100001F04FF880B20299C86002E00120694652
:10AF2000087068460078FEBD00000000F369FFEF7E
:10AF3000FFCFFFFF00480040FFF4FFFF0038014053
:10AF400000100240004400402421415CC90706D59E
:10AF500001684A68914B1340826A1A434A6024216F
:10AF6000415C890706D501684A688D4B1340C26A67
:10AF70001A434A602421415C490706D501684A68A2
:10AF8000884B1340026B1A434A602421415C090735
:10AF900006D501684A68844B1340426B1A434A60E5
:10AFA0002421415CC90606D501688A687F4B13409D
:10AFB000826B1A438A602421415C890606D50168A8
:10AFC0008A687B4B1340C26B1A438A602421415C20
:10AFD000490611D501684A68AC4B1340026C1A430C
:10AFE0004A60026C80235B039A4205D14A68A84BF1
:10AFF0001340426C1A434A602421415C090606D57D
:10B0000001684A68A34B1340806C1843486070473E
:10B01000F8B5040000256830456003F0ABFB06007E
:10B020009D4F20680068000709D500973300002273
:10B0300080218903200000F01FF800280DD120682E
:10B04000006840070BD50097330000228021C90318
:10B05000200000F011F8002801D00320F2BD2020CC
:10B0600021006831487021006831887068202554BB
:10B070000020F2BD00093D00FEB504000F000025D0
:10B08000089E2068C0693840B84201D1012000E024
:10B0900000206946097988421DD10020C0438642BC
:10B0A000EFD0002E05D003F065FB0299401A8642CE
:10B0B000E7D220680168794A0A4002602068816806
:10B0C000012291438160200068302021417081700D
:10B0D00005700320FEBD0020FEBD000000FDFFFF47
:10B0E00000FD0F0001680A68C0239A430A6020210E
:10B0F00069228154704701680A68694B13400B60EC
:10B1000001688A6801239A438A6020216A22815457
:10B11000704700000024F40000127A000048E801A3
:10B12000F0FF000080B50100886A09680968890697
:10B130000DD400215222815201688A6880239A43EB
:10B140008A600068016840220A43026001BDFCF782
:10B150003DF901BD80B5806A03F01EFE01BD38B522
:10B160000100886A202209680968114013D1010092
:10B170005A3100230B8003681C684A4D25401D602E
:10B1800003689C680125AC439C6003689C6840256B
:10B19000AC439C600A74FCF725F931BDFFFFFDFF4D
:10B1A000FFFFFEFFFFFFFBFFFF7FFFFFFFEFFFFF44
:10B1B000FFDFFFFF80B5806A03F0EFFD01BD70B5D2
:10B1C000846A250052350026E87D212807D12068B1
:10B1D0008068000603D52E802000FFF783FF287EBD
:10B1E000222807D120688068400603D52E812000E0
:10B1F000FFF781FFE06E10210143E166200003F0BC
:10B2000093FD70BD80B5806A0100523100220A8131
:10B210000A8003F089FD01BD38B501005A314A8822
:10B2200003680C7C222C29D15B6A846880256D011F
:10B23000AC4209D10469002C06D11A40436D1A8032
:10B24000426D921C426504E0446D651C45651A40E0
:10B2500022700A88521E0A8012040DD102681368F7
:10B260000F4C1C401460026893680124A343936050
:10B2700020220A74FCF7B6F8002032BD9869082134
:10B2800001439961022032BD00000000FFFFEFFF83
:10B29000FFFF9FFFFFFFF7FFFFFFFF015FFEFFFFC5
:10B2A000DFFEFFFFFFFEFFFF10B402E0401C491C61
:10B2B000521E002A0BD00B7804789C4205D002D293
:10B2C0000020C04304E0012002E0002CEED1002069
:10B2D00010BC704738B5050011D0AB4C200001F010
