:020000040800F2
:1058000080080020BDF8000879F600087BF6000843
:105810000000000000000000000000000000000088
:105820000000000000000000000000007DF60008FD
:1058300000000000000000007FF6000881F600086C
:10584000BB8300083BC200088DF600080FE2000889
:1058500097E8000897F600088BE90008A1F6000811
:10586000000000004FEE0008B9F60008C9F6000875
:1058700097EF0008B7F0000800000000E5F6000808
:1058800000000000C3F0000800000000000000005D
:10589000EFF6000800000000F9F60008BBF8000869
:1058A000E1F80008E3F80008E5F8000803F700084D
:1058B00009F700081BF700080000000000000000C6
:1058C000BFF34F8FA448A5490860BFF34F8F00BFB7
:1058D000FDE70000F8B502F071FD62B602F07EFD52
:1058E00000F0C1F802F088FD02F080FD9C480168DC
:1058F000802212020A43026002F086FD02F0F8FDE7
:1059000002F014FE02F0B2FE03F022F903F052F9A5
:1059100002F0C6FE02F0DEFE03F0FCF903F04CFAE2
:1059200001F043FE00F0F2F800F040F903F0FFFE52
:105930008C4804F034F8FA20400004F047F88A4D0F
:10594000752028703C2068709D20A8708920E87020
:105950008648A88006222900082004F043F8D34C8A
:10596000012221001F31002004F055F8E17F80481A
:1059700004F015F80120E0770B227E497E4804F000
:105980005BF804F0BBF904F06BFA03230222002158
:10599000032004F07AFA00BF784E794F794C01E089
:1059A00002F004FAE87A0028FAD0E87A0128F9D15E
:1059B000687A002826D174A003F0F1FF734804F040
:1059C00005F801F075FD032004F0C6FA2078C00741
:1059D000FCD56288211D380005F081F82078FE2171
:1059E0000140217006226A49201D05F0EFFCA872D3
:1059F000A87A0028EAD001206872664803F0CFFF39
:105A000001F060FD644803F0CAFF00F0ADFD63489B
:105A100002F0ACFF624802F0A9FF380002F0A6FFD6
:105A200002F046FC01F028FE00F068F9307800280A
:105A3000BBD15A4802F068FE594802F065FE3800B2
:105A400002F062FEA94803F0AAFF30780028EDD1E9
:105A500001F052FF05F0F9FD02F020FA00F0D4FE4B
:105A600002F0A4F9F1E710B59AB04E484E490A6821
:105A70000240CB0C13430B60BC490A68104008601D
:105A800006200C90FA300E9001200F9010201090FC
:105A9000022015900024169440041790C0200004A2
:105AA00018900CA805F022FE002800D0FEE70F2079
:105AB00007900320089009940A940B94002107A8EA
:105AC00006F004F8002800D0FEE72720009002949A
:105AD00003940494802040020190684606F092F9F5
:105AE000002800D0FEE706F0DFF8FA21890006F072
:105AF000F2FA06F073FB042006F084FB002200217A
:105B00000020C04306F058FB1AB010BD7848FA21B7
:105B10000170D1214170012181700321C17075484C
:105B200000218172C1727449097801703C21417071
:105B3000002181703C21C170002101716421C1717B
:105B4000FF2101728A480121017100214171012167
:105B500081700021C17070470400FA050CED00E06F
:105B60000C1002400CF10008140300203316000052
:105B70001CF100082CF100084C1C0020AF1D002077
:105B8000201A00208008002031310000B80B0000EE
:105B900038F1000840F1000848F1000840190020E1
:105BA000B0190020FFE7FFFF00700040F8B5714812
:105BB00002F09AFF3D4801214162C82189008162BB
:105BC0006D4AC2626D4A02231360C82353606C4B56
:105BD000936080225200026396224263694A826384
:105BE000694A08235360694B9360694CD460694DDE
:105BF00010242C60FA24A4006C60674EAE60674DE0
:105C0000802676012E609E086E60654EAE60654D02
:105C100040262E60644E6E60644EAE608025C56383
:105C200065000564624E4664624E8027BF0037609F
:105C30007360614BB360614B7E001E605D60604DC0
:105C40009D6073008364C1645E4B03655E4B0425F5
:105C50001D605E4D5D605E4D9D605E4BF5001D609C
:105C60005D4D5D605D4D9D603301136151615C4B25
:105C70009361730143655B4B83655B4BC365B30104
:105C8000D3611462594B5362594A33021360974BE4
:105C90005360974C94607202026641669549816632
:105CA0005100C1660367A9494167F1BD1402002094
:105CB00080B500F0A3FB01BD8F498A6F00688F4B50
:105CC0001B68984202D1130004221A438C4B1B68B4
:105CD000984202D1130008221A439D4B1B68984238
:105CE00002D11000102202438A67704758F1000861
:105CF0005C030020280300204003002010B592B070
:105D00000121012006F09AFA92480168802252058A
:105D10000A43026090480168904A0A40C10C11434E
:105D20000160684605F0DAFF062000900124039424
:105D300010200490F03002900220099000200A9078
:105D4000A0040B90C02000040C90684605F0CEFC27
:105D5000002800D0FEE70D940E9401210DA805F057
:105D6000B5FE002800D0FEE712B010BD5010024072
:105D700038030020FFFF0000F55D0008401D0020F3
:105D8000055F00080D5F0008941C002060EA000019
:105D90009D5F0008500300209F5F0008581D0020F1
:105DA000896200089403002070170000456A00080B
:105DB00055630008C81C00205D630008341D0020E6
:105DC00065630008257B00084C1D0020E8FD0000ED
:105DD000F97B0008641D002010270000917C00085A
:105DE000997C000830750000F97C0008717D00087E
:105DF000D41C0020F8B5404CE07F617BA2780125DF
:105E00000026130009D100295CD1012802D0207896
:105E1000052857DAC0490D7054E0012A52D1504F7D
:105E20000A000CD165734F490978002903D1012874
:105E300001D102F079F8E07F012843D13FE0012948
:105E400040D12000483005F057FB00F079FC454870
:105E50000078012836D144480078012804D143480D
:105E600005F04AFB02F0C2F841480078012812D13F
:105E7000404805F041FB404805F03EFB3F4805F037
:105E80003BFB3F4805F038FB3E4805F035FB384802
:105E9000067004F060F83C490D70E57425753B48C8
:105EA00085713B493B4A1278012A02D13A4A12785D
:105EB00000E00A7862750D70057064207860380023
:105EC00005F052FB26702671607B01280DD1284811
:105ED00000782549097801432B480078084304D10C
:105EE0008E4803F05CFD8C480570F1BD88130000FE
:105EF000758000087D800008140200203C1B0020F3
:105F0000741B002080B500F0C7FA01BD80B500F019
:105F100017FC83480178022917DA491C01701148DF
:105F2000007801280ED07F4801787F480A0003D10D
:105F300000228021490003E0012903D10022102121
:105F400006F0E1FAC54805F00FFB01BD31830008FA
:105F5000AC1B00203810024000700040FFE7FFFF3C
:105F6000401D002041030020B41D0020581D0020CA
:105F7000B31D0020940300204C1D0020D41C0020E1
:105F800050030020C81C0020B71D0020280300205B
:105F90004003002047030020A91D00207047F0B5F2
:105FA000BDB0012761480078002801D160490F7019
:105FB0000024604D604E61480078012842D160485D
:105FC0000078401C5E49087016205E490870D32096
:105FD0007070E87C152148432D303071000A7071D3
:105FE00052480078002802D1EC746F74AC745649A2
:105FF00007A8D32203F020FD290002A8142203F0F1
:106000001BFD310084B06846172203F015FD0FBC5C
:1060100003F04CF9317970790006000C01434B48CC
:1060200003F0BDFC4648007805286CDB44490C7041
:1060300042490C703D480078010047D0012868D1E2
:10604000874849E087480078012862D1864801786E
:10605000012902D10470FFF733FC84490C738F725D
:10606000CC72EC746F74AC74D1207070002031303D
:10607000307174711620334908707D4908A8D32205
:1060800003F0DAFC794904A80D2203F0D5FC3100B5
:1060900082B06846172203F0CFFC0CBC002111200F
:1060A00003F05AFF734803F07AFC73480178491CE7
:1060B0000170724ACB4B5A60C9B2062923DB694A88
:1060C0001470047019480078010002D1FFF7F8FB42
:1060D0001FE001281DD16A4803F061FC694805F002
:1060E0000BFA914805F008FA904805F005FA904837
:1060F00005F002FA03F02FFF8E4804608E4804700A
:106100000548077005E08D48B6494860084605F027
:106110002BFA3DB0F0BD0000AF1D002060F100087B
:10612000AE1D0020BE1C00200004005041030020D2
:10613000C01C00201C1D00205C030020BD1D002091
:10614000BE1D002042030020D01700206CF1000883
:10615000F8B504007A4F06F02BFA3860200006F0FC
:1061600009FB784908600026774C01250178012950
:1061700038D1C17875480078884204D273480170DC
:10618000734803F00CFCE07F00282BD16F480078A7
:10619000002827D001F02AFF3868C670924803F023
:1061A000FEFBE577012221001F31002003F01AFCDD
:1061B00000F0C6FA8D4805F09FF92000303005F058
:1061C0009BF98B4805F098F901F098FC002210210A
:1061D000884806F098F92948206720006C3005F0BF
:1061E000C3F9F1BD3868C178834803F0D8FB38683B
:1061F000C078012830D1A079012803D17C4805F06E
:106200007BF9A671207A002826D125729D489E49E7
:106210009E4A1278002A10D1144BDA781D792D0687
:106220002D0C2A43792A0DDA994A637A012B02D080
:106230001378012B06D1167005E0227C002A01D1CB
:10624000257400E00800A0652000543005F08CF9AA
:10625000A16DB24803F0A3FBF1BD00004402002091
:1062600084F10008460300203803002028030020A2
:10627000FC16002094F10008B21D002088130000D5
:106280009CF1000894030020F8B5814F2E4C607AF1
:10629000012802D03878012801D10C2000E0062026
:1062A0007C4D6988491C6980002689B2022923D166
:1062B0002649097800291FD1994803F070FB002076
:1062C000E17F002918D101F091FE964803F067FBA9
:1062D000464805F011F92000303005F00DF901F0C5
:1062E0000DFC002280214900424806F00CF98E483E
:1062F000206720006C3014E06988814210D36672F8
:106300003E70A671894803F04AFB6E808848007889
:10631000012808D1A67101F069FE01F005FEF1BD6A
:10632000334805F021F9F1BD4C1D0020D41C00209C
:10633000C81C0020A01D0020BF1C0020102700004A
:106340009C1D0020981D002014020020AA1D002082
:10635000ACF1000880B501F0ABF801BD80B501F0EB
:1063600041F901BD73480078002800D0704770B52E
:10637000BEB0714C2088401C208080B2062829DAEB
:106380006E4D6F4E287B1521484331303071000A25
:1063900070716C4908A8D32203F04EFB290004A8B1
:1063A0000D2203F049FB310082B06846172203F04A
:1063B00043FB0CBC0021112003F0CEFD16206249E6
:1063C000087062482188032901DBBC49416005F05F
:1063D000CBF803E000202080FFF772FA3EB070BDDA
:1063E0000000000050030020C4F10008401D002000
:1063F000581D002000040050D4F10008F8B5544C9A
:106400000025A027FF050126012818D15148407A10
:10641000012835D10121380006F06FF8002805D198
:10642000A06F0643A667C5480570F1BD012138007D
:1064300006F063F8012823D1A06F02211EE0402856
:1064400016D14021380006F058F8002803D1E67232
:106450000022310208E04021380006F04EF8012801
:106460000ED1E572012211023B4806F04CF8F1BD55
:10647000202805D1B1480570A06F20210143A167F4
:10648000F1BD000030750000B80B0000BB1D0020FE
:1064900043030020941C0020F8B5304C2178304F85
:1064A0002B4D3048092923DA0278002A20D100290F
:1064B00001D100F045F982480278A020C005802172
:1064C0000902022A01D0002A05D1EA7F012A04D15B
:1064D0001021214801E0012A01D106F01AF82078A4
:1064E000401C2070C8207860380005F03DF8F1BDF0
:1064F0000026267001240470687E00F0E5F8A87C70
:10650000012809D1AE74380004F0F6FF6D4806602A
:10651000AC73954803F043FAF1BD0000E4F10008C4
:10652000F0F1000804F200088813000014F20008DB
:10653000B41D0020410300203E1900202803002044
:106540005C030020FC16002042030020341D0020C4
:10655000140200201403002000040050AD1D002090
:10656000401D0020B01D0020F8B500F0E9F801271B
:106570007E4D7F4C4021A020C00505F0BEFF0028C5
:1065800003D1E7720022390207E0E07A012807D13F
:10659000207B012804D100221021280005F0B3FF40
:1065A00074480078744E4649744A00251378012BCC
:1065B0000BD11570627D024307D10D703570704AA2
:1065C0001278012A01D16F4A15706F4A1278104370
:1065D0001ED1087801000AD17178B0780006000C4D
:1065E00001436A4803F0DBF97078B1780BE00128C9
:1065F0000ED1F17830790006000C0143644803F0B5
:10660000CEF9F07831790906090C08436149088010
:1066100002F0B4FC60484078002801D05F48057063
:106620002020215C5E4803F0BAF95A4801885D4891
:1066300003F0B5F9234801685B4803F0B0F95B4803
:1066400001785B4803F0ABF95A4801785A4803F0E7
:10665000A6F9E16F594803F0A2F94B480178584870
:1066600003F09DF947480178564803F098F95648D9
:1066700003F095F9152055490870304807705448C3
:10668000057054480570E5815348057025802571D3
:10669000E5715248057052480570524805705248DD
:1066A000057052480570E5752576514805705148CA
:1066B0000570657765836574F1BD000010270000E3
:1066C00040030020A01D002038B500F039F800225A
:1066D00049480270264C494949480078002806D1AB
:1066E0004848486001F0FAF9200030300CE01F48BB
:1066F000237D012B0BD12275102105F004FFFA2018
:10670000C000E0642000483004F02EFF31BDA37AC1
:10671000012B12D1A272C825AD004D60B84909788D
:10672000012904D180210902A020C00502E000292E
:1067300002D1102105F0E7FEE56431BDAF1D002058
:1067400010B50A4C01221102200005F0DCFE0122E6
:106750001021200005F0D7FE0122D103A020C005A2
:1067600005F0D1FE10BD000024F200080004005026
:1067700014020020BB1D002028030020B71D0020AC
:1067800047030020A91D0020A81D002034F20008A6
:1067900048F200084C030020201C0020361C00207A
:1067A0005CF2000870F2000880F20008351C00203E
:1067B00094F20008BA1D0020B0F20008C0F20008F0
:1067C000CCF20008E4F20008FCF2000842030020CA
:1067D000BC1C0020BE1C0020B31D0020BF1D0020DB
:1067E000BC1D0020C01D0020B11D0020C11C0020C8
:1067F000BE1D0020B21D0020AE1D0020401D002047
:1068000041030020B80B0000F0B5BDB000247D4E60
:10681000B07B012811D1B4737B480078784909789E
:10682000012906D179490978084306D101F0BCFB5A
:1068300003E0084301D101F077FB75480078012897
:1068400068D174480078012864D173490878002819
:1068500060D101200870714D1621714A1378012B07
:1068600021D114706F4B18706F4A10706F4801700F
:10687000192028716C716E4803F091F8290084B0DA
:106880006846172203F0D8F80FBC02F003FFAC49AA
:106890000C70B6480470674804F066FE66483067BE
:1068A00030006C3034E0654F654A1278012A02D01E
:1068B000327E012A2FD15D480170D1206870387B6B
:1068C0001521484331302871000A687129796879A7
:1068D0000006000C01439B4803F061F89A4908A8A0
:1068E000D32203F0A9F8390004A80D2203F0A4F87C
:1068F000290082B06846172203F09EF80CBC0021E4
:10690000112003F029FB8E490C7098480470494807
:1069100004F02AFE72E0964A1278012A32D1434AE4
:106920001170944EB979012900D1F0709248007825
:1069300003F0D6FD324800783071D3206870F07CC7
:10694000152148432D302871000A68718B4907A82A
:10695000D32203F071F8310002A8142203F06CF87E
:10696000290084B06846172203F066F80FBC02F0D5
:106970009DFC297968790006000C0143804803F0EA
:106980000EF82FE0002A34D17E480078012803D188
:10699000707D002800D13C7024480170387B15219F
:1069A000484331302871000A6871297968790006F6
:1069B000000C0143744802F0F2FF634908A8D32297
:1069C00003F03AF8390004A80D2203F035F8290045
:1069D00082B06846172203F02FF80CBC002111206A
:1069E00003F0BAFA56490C7060490C70114804F073
:1069F000BBFD66480178022900D104703DB0F0BDAE
:106A00004003002014020020B31D0020B41D00200C
:106A1000BE1C002041030020BC1C00205C030020A1
:106A2000B81D0020B91D0020C21C00204203002018
:106A30000CF30008D41C002030750000280300204F
:106A4000A81D00203E480178012900D1704710B5EB
:106A500046490A78132A6EDA521C0A704C480178AB
:106A60004C4C032906D1032003F076FA4A486060B3
:106A70004A4816E0082906D1082003F06DFA484874
:106A8000606048480DE00E2901D10E2029E004295C
:106A900001D1042025E0062906D1062003F05CFA86
:106AA00041A002F07CFF42E00A2901D10A2018E04F
:106AB000102901D1102014E00B2901D10B2010E086
:106AC0003A483B4B182903D120221900A0312CE071
:106AD000172903D11C221900843126E0052903D18E
:106AE000052003F039FA22E01C2902D12022314985
:106AF0001BE01E2903D123221900D03115E01D29E6
:106B000003D10E221900C0310FE0202903D100204B
:106B100003F0AFF80BE0212903D10A221900F43168
:106B200003E0222903D10922234903F0D8FF2000E2
:106B300004F01AFD10BD002202700A7010BD0000A2
:106B40004403002014F30008FC16002080B5002048
:106B50000649087019490870032003F0FDF90D4833
:106B600004F002FD03200A49087001BD450300201E
:106B7000BB1D00201C1D0020351C0020D01700204C
:106B80006CF10008B71D002028F30008380300202E
:106B900042030020940300207017000038F300081F
:106BA000B80B000044F300084E5242004019002088
:106BB000140200207403002050F300084403002056
:106BC000F0B5BDB0050095480178954802F0E7FEA4
:106BD0000126944F002491480078032803D08F4861
:106BE000007808282AD10622D449280004F0EEFBB8
:106BF00000282DD1D2480670D2490C708748007801
:106C000003280FD1D04804F077FCD04802F0C7FE2B
:106C10001D20824908700E223900C031CC4803F093
:106C20005EFFD4E17D480078082811D1C64804F001
:106C300063FC092003F090F9092016E377480078F7
:106C40001D2819D10622BD49280004F0BFFB0028E9
:106C500000D0B2E3BB480470BB4804F04DFCCA4806
:106C600002F09DFE1E206D49087023223900D031AC
:106C7000B74803F034FFE4E1684800781E2818D1D3
:106C80000622AE49280004F0A1FB002865D1AE48D9
:106C900004F032FCAB490C70A9480470042003F0E6
:106CA0005BF904205D490870A74804F05DFCB74813
:106CB00052E25A48007804282BD10822B44928000F
:106CC00004F084FB002848D19D4806709D490C7053
:106CD0009D4804F011FCAFA12800083005F034FEF7
:106CE000050005F059FE0F2837D10F222900AA48C8
:106CF00005F0BBFE93490C7091480470052003F029
:106D00002BF90520454908708F4804F02DFCA34855
:106D100022E242480078052815D10622874928003A
:106D200004F054FB002818D186490C708448047084
:106D3000062003F011F9062038490870824804F053
:106D400013FCCE4808E235480078062812D1082204
:106D5000CB49280004F03AFB002800D02DE307209F
:106D60002E490870C74802F01AFE00F0ABFB38004D
:106D70003C304FE229480078072815D1C249280045
:106D800005F0F6FE002800D117E30820234908701B
:106D90006B490C706B480470D3486B4948600846D7
:106DA00004F0E2FBD148D7E11C480078092817D14C
:106DB00006226249280004F009FB0028CDD10B20EF
:106DC0001649087003F0C8F85D490C705D480470FE
:106DD000C7485D494860084604F0C6FBC548BBE1AA
:106DE0000E4800780B281FD106225449280004F0D1
:106DF000EDFA0028B1D153480470534804F07CFBED
:106E0000D94802F0CCFD2120044908700A2239003B
:106E1000F4314F4803F063FE13E100BF420300204A
:106E20005CF3000814020020D0480078212800D02C
:106E300090E00922CE49280004F0C8FA00288CD13D
:106E4000022229000931684605F00FFE08222900B8
:106E50000B3104A805F009FE09222900133101A80D
:106E600005F003FE0A220021684605F02EFF05000A
:106E70000A220021684605F028FFBE492A04120EA6
:106E8000000210434871000A88710A22002104A8F8
:106E900005F01BFF050E0A22002104A805F015FFCE
:106EA000000AFF273F0207402F430A22002104A8BF
:106EB00005F00BFF05000A22002104A805F005FFDC
:106EC000AC492A02FF231B0413403B43000618432E
:106ED00005F028FF0A22002101A805F0F6FE050EA4
:106EE0000A22002101A805F0F0FE000AFF273F0258
:106EF00007402F430A22002101A805F0E6FE050005
:106F00000A22002101A805F0E0FECE492A02FF2353
:106F10001B0413403B430006184305F003FF0848D9
:106F2000067008480470084804F0E6FA0C208F49FF
:106F3000087003F011F8C4480EE100BF38F10008F2
:106F400044030020450300209403002064F300085C
:106F500040190020854800780C2821D10622CA4912
:106F6000280004F033FA002872D122207F490870EB
:106F70000922CC49CC4803F0B2FDCC490C70CC4876
:106F800004705B4828E000BF74F3000884F3000835
:106F90008CF300080D0A00006203002098F300083B
:106FA0007248007822281BD1B749280005F0E0FD7F
:106FB000002804D00F22A91CC24805F056FD0E205F
:106FC0006A49087002F0C8FFBF4802F0E8FCB74900
:106FD0000C70B74804704448BC494860084619E141
:106FE000624800780E2834D1B94802F0D8FCB9A61E
:106FF0000122310028000C3004F0E8F9002807D005
:10700000012231002800183004F0E0F900281FD1D7
:10701000B14802F0C4FCAD4804F06EFAA3490C700C
:10702000A348047002F0A2FEC749087001280AD1E3
:10703000C64802F0B4FC20204C490870002002F041
:1070400018FEA248E6E00F204849087002F084FFCD
:10705000B3E146480078202818D106228A49280042
:1070600004F0B4F9002801D1B94875E0B948428864
:10707000B949BA4803F033FD01E100BFA0F30008AD
:10708000A8F30008B4F30008C0F3000837480078FC
:107090000F2871D185490E7085490C708B4804F01A
:1070A0002BFA280000F0B4F9C54802F078FC15204E
:1070B0002E490870C34804F01FFABC77C2490E700D
:1070C000F87F002818D1C14802F069FC27480670F3
:1070D000BF490C70BC490C70BE48047002F03BFF05
:1070E00000F062FF69E100BFB80B0000C8F30008C0
:1070F00088130000D0F30008B748007801002ED1B3
:1071000016201A490870B548B549097B1522514324
:1071100031310171090A4171B24908A8D32202F044
:107120008BFCAF4904A80D2202F086FCAB4982B06B
:107130006846172202F080FC0CBC0021112002F0EE
:107140000BFFFA200001A8494860084604F00CFA39
:10715000A64804F009FAA64802F021FC2DE1012816
:10716000FCD1A24856E000BFD8F30008420300203B
:10717000E0F30008701D00209E480078162877D1A3
:10718000744842887449754803F0A9FC13229A494F
:10719000280004F01BF9002806D00922C049280065
:1071A00004F014F900280ED1F87E401CF876C0B225
:1071B0000328D3DBFC768F48067083490C70844823
:1071C00004708E4813E006222F49280004F0FEF8D0
:1071D000002821D12020385C05281EDB20217C548A
:1071E0008448067078490C7079480470844802F02D
:1071F000D6FB364804F080F9824804F07DF98248D5
:1072000004F07AF9794804F077F96E4804F074F9DB
:107210003800603004F0A8F9CFE06F48007800280B
:1072200014D1714804F068F9764804F065F977489C
:10723000017801290DD104709F490E7064480670D1
:1072400007E000BF771D0020ECF300086D4804F054
:1072500053F9AD480078012806D192490C70924844
:107260000470694804F048F9122062490870A4E0EB
:1072700060480078122809D18C4802F090FB280061
:1072800003F0C4F999E000BF38F1000859480078CC
:107290001A2823D1280000F0BBF801280AD187481A
:1072A00009E000BF50F3000840190020440300200B
:1072B00045030020824802F072FB16204D490870F9
:1072C000414879E0A4030020F8F30008940300206B
:1072D00008F400082C00000014F400084548007869
:1072E0001C286AD106228949280004F06FF800287A
:1072F00063D191490E7091490C70914804F0FCF8EB
:1073000015203C490870404804F0F6F83D4804F068
:10731000F3F8364804F0F0F8894804F0EDF829480D
:1073200004F0EAF805F03AF99B480078002817D1F4
:107330002B490C73084686720021C17227483131EF
:107340000171447110E000BFC31C00201CF4000850
:1073500030F400088008002084080020201A002053
:107360009948C4744674847498490C7002F0F3FD13
:10737000974851490978012918D1154A1670164ABB
:1073800016704D4A147093495F4A1278002A03D14F
:107390000E708722520102608F4A1670104A567191
:1073A000087810708D4802F0FAFA00E0046056493F
:1073B0000C7020203C54AD4806703DB0F0BD00007C
:1073C0003CF400084C1D0020BE1C002048F40008BE
:1073D000BC1C0020B31D0020410300205C030020E2
:1073E00028030020FC160020341D0020C81C0020AB
:1073F00054F400084203002060F4000880F4000800
:1074000090F40008D41C002050030020BD1C002074
:10741000F8B5050072A70222390003F0D7FF002853
:107420003BD100243900A81C09E005228C49280022
:1074300003F0CCFF002800D134003900002005F013
:1074400083FA050024D0661C0D22864903F0BEFF96
:107450000028F1D008228449280003F0B7FF002853
:10746000EAD004228249280003F0B0FF002807D1A7
:107470000A220021281D05F028FC7E490871DBE75F
:1074800004228749280003F0A1FF0028CDD1D3E7CB
:10749000E4B2052C01D10120F2BD0020F2BD0000B4
:1074A00074F40008BD1D002046030020A8F4000865
:1074B00010B57C4C34E00000C01C0020B4F400087F
:1074C000C0F4000870B5774E34005834207C012891
:1074D00001D1022070BD01252574300003F0B4FBFA
:1074E00030680168102291430160E068006801681B
:1074F000A943016000202080E168096848600A68AB
:1075000015430D60207470BDBF1C002038F10008C9
:1075100010B5654C606E0068016801220A43026084
:10752000624A6349200003F01CFB206801681022B6
:107530000A43026010BD0000440300204503002000
:107540009403002038B5584D2C005834207C012875
:1075500001D1022032BD01202074280003F074FB09
:1075600028680168102291430160E06800680168A2
:1075700001229143016000202080E1680968486091
:10758000207432BD006847490968884202D1012051
:107590004849087070470000BB1D00200068414941
:1075A0000968884200D100BF704780B5FFF7C8F86E
:1075B0000122D102A020C00504F0A5FF0022012174
:1075C0003D4804F0A0FF01BD1C1D0020D017002085
:1075D000A01D00204003002043030020D0F4000839
:1075E0000D0A000038B535480078002802D1FEF7B2
:1075F00067F931BD324803F07FFF324803F07CFF6A
:10760000314803F079FF314803F076FF0024304918
:107610000C7030490C7001252F48007801280AD1E0
:107620002E480178002904D105702D4800782D4995
:107630000870022000E000202B4948722B4802F01D
:10764000AEF92B482021415C491C20228154294954
:107650000C7002F080FC284804600448057031BDBD
:107660000CF50008E0F40008F0F40008AF1D00205D
:10767000FCF40008701D002010B58C4C200005F0B3
:10768000D1FB8B48407E152803DA0022A021890116
:1076900002E00022A0210902200005F04DFB10BDF0
:1076A00004F5000840190020B01900204C04000027
:1076B00084080020B61D0020000400504103002073
:1076C00094030020D41C0020500300204C1D0020F7
:1076D000BD1D002046030020470300204803002072
:1076E00040030020A91D00202803002014F50008F5
:1076F00014020020BF1C0020A01D00206D4801685E
:1077000004220A4302606C480078012800D07047C8
:10771000F8B56A480068401C684908600025644C58
:10772000012667480078012803D166490E700520BC
:1077300026E020008030009063480078B427FF00E6
:10774000010020D15F480078010003D15F494878EB
:107750008A7812E001283ED100980068617E1529E0
:1077600002DAB84206D302E0B908884202D3009890
:10777000056066725549C8780A791206120C1043E2
:107780005349088027E0012825D152480078012874
:1077900007D1207F002804D126774F48007802F0D7
:1077A0009FFE009800684749097801290BD1401CC9
:1077B000617E152902DAB84205D302E0B908884291
:1077C00001D30020667200990860444800780028C0
:1077D00001D100F025FC424F387842490978014335
:1077E0001CD1607E152819DAE07A002816D1C2492A
:1077F0000D7020793C4909780143607C08430DD124
:1078000000223102394804F07EFE607C401C607426
:107810006420E0642000483003F0A6FE2C48008875
:10782000010030D0617E152902DA0C21484301E0C5
:10783000410008182149096880B2814223D3200001
:10784000483003F059FEFEF77BFF1C48056039788D
:107850002448007808430ED11E49097801290AD12D
:1078600017490978012906D1154A1570267620494D
:107870000978144A1170154A95711E4AD57000286E
:1078800010D1A6730EE03878164909780143A07D1F
:10789000084309D1608C401C608480B25A2803DB05
:1078A0006584A67594480570F1BD0000E01C0020B9
:1078B000140200200070004041030020A01D0020A1
:1078C000A81D002040030020BB1D0020280300202D
:1078D0004C03002047030020351C0020BF1D002062
:1078E000B41D0020B31D0020B71D0020000400506F
:1078F000A91D00201C1D0020F8B50124844DA86F8F
:1079000020402CD0EC756878012825D06C7028793F
:1079100000280ED12C71AC702800243003F024FE16
:10792000FEF70EFF2800483003F0E6FD794802F02C
:1079300036F8287901280FD1687900280CD16C71AC
:10794000754E0821300005F01BFB0120C043316853
:107950000861300005F0EAFAA86F6040A8670226C7
:10796000A86F30400AD02879012804D16B4802F072
:1079700016F80020A870A86F4640AE670426A86FCE
:10798000304004D003F032FEA86F4640AE670826B0
:10799000A86F304033D0687801282BD10121A02076
:1079A000C00504F0AAFD002822D12878401C2870C8
:1079B0005B49097801290DD1297901290AD1E97991
:1079C000002907D1C0B2012804D1A87C00280FD11A
:1079D000EC710DE0C0B205280AD1E87F002807D17C
:1079E0007D4801F0DCFF00F09FFA7C4803F0BCFD0D
:1079F0000020687000206871A86F4640AE671026AE
:107A0000A86F304004D0FEF747FDA86F4640AE6730
:107A10002027A86F38405FD09448007870490978D3
:107A20000143E87D084334496E4A1278012A4DD15A
:107A30006D4E6E4A1278002A47D16D4801F0AFFFB3
:107A40006A490C708A480078002842D0644800785F
:107A500001280AD1874803F04FFD002086490870AD
:107A6000864801F09CFF00F0C1FA804800780128A8
:107A70001CD1834803F040FD824803F03DFD82485D
:107A800003F03AFD814803F037FD944803F034FDDC
:107A9000934801F084FF93490C70002076490870E8
:107AA000914908707149087002F055FA8F4801F049
:107AB00076FF0020287774728D490C708D4908601C
:107AC0000520B0490880AC7303E07472002800D12F
:107AD0000C70A86F4740AF670020F2BD10B5AA4CEC
:107AE0000821200005F04CFA0120C04321680861FC
:107AF000200005F01BFA10BDAF1D002080B5A24884
:107B00000121C9430268116105F01AFA01BD0000A4
:107B10001402002020F50008741B002030F5000836
:107B200041030020F8B5914CE07A01280DD1207B6B
:107B3000010003D100228021490003E0012804D183
:107B400000221021914804F0DEFC2A4F0025012676
:107B5000E07C012808D1FEF7F3FDE5746548056077
:107B6000A6733D708A4834E0607E152824DA607C74
:107B7000052810DA874801F012FF3102834804F02B
:107B8000C8FC607C401C60746420E06420004830C5
:107B900003F0EAFCF1BD6574E07A002801D1FEF73C
:107BA000CFFD324800780E490978014313D17A4855
:107BB00001F0F5FE3E70F1BDFEF7C2FD2B480078E6
:107BC00007490978014303D1744801F0E8FE3E708B
:107BD000C84801F0E4FEF1BD38F50008401D002062
:107BE000B41D00204703002028030020A81D00200A
:107BF00040F50008AF1D002070B501255B4CA07E4C
:107C0000002802D1A5761F481DE00026A67664480C
:107C1000007801001DD1E07F002817D1614801F0F4
:107C2000BEFE614803F068FC2000303003F064FCC5
:107C3000FFF764FF00222902544804F064FC9548D1
:107C4000206720006C3003F08FFC70BDFDF738FE1C
:107C500070BD012809D1904801F0A1FEA57702F07E
:107C60007AF924480660A648057070BDB31D00204F
:107C700048030020581D0020BC1C002048F50008C7
:107C8000940300204C1D0020D41C00205003002031
:107C900080B5FDF715FE01BD38B5344C0025E57102
:107CA00095A001F07CFEA078002816D12178934899
:107CB00001F075FE207801280FD192A001F06FFE2F
:107CC00025702000243003F017FC25710120A072DC
:107CD0003548C821416003F047FC31BDC81C002075
:107CE00050F5000842030020BE1C002058F5000893
:107CF00040030020A01D002010B5834C206804F034
:107D000034FC00202060194908728A6D7F4B9A422A
:107D100000D148727E4801F042FE00F067F97D48CC
:107D20007D49097800290ED17C4909787C4A117374
:107D300015235943491C9172090AD172117B1522EE
:107D4000514331310BE077490978B04AD17415239A
:107D50004B4353741B0A9374152251432D31017107
:107D6000090A417100F0E0F810BD00001402002083
:107D700080B5012088490870B74801F010FEFFF770
:107D8000C7FB01BD4C030020AC1B002000040050C9
:107D900060F5000868F5000874F5000880F5000833
:107DA0004103002098F50008401D0020F8B57B4EE7
:107DB000002701247A4DA87D01283CD137617948FC
:107DC00005F030FBFA21774805F05AFB754805F0BD
:107DD00020FC800503D5734805F0C6FBF060F06811
:107DE000C82109014843000BF060A82148436421E1
:107DF00004F071F90100E9677B4801F0D0FD002330
:107E0000EA7A317AE86F00F0E1FB68764449C8719C
:107E10007E490874307201007D4801F0C0FDAF75E5
:107E20007C4800787C490978014304D17B4801F003
:107E3000B6FD33490C70E86FCD210901884226D286
:107E4000687B012813D1744800787249097801438E
:107E50001ED1824801F0A3FD81490F7081490C7049
:107E60006F73AC7380490F7025480770F1BD7F4870
:107E700000787C49097801430AD17DA001F08FFD8B
:107E8000AC75F7721E480470FDF738FFF1BDF4724F
:107E9000F1BD000088130000A8F5000810B5824C61
:107EA0002078C10724D5FE21014021705A4800786E
:107EB00001280BD057480078012819D1FFF702FBA1
:107EC000201DFEF77DFEFFF7F3FA10BD3248017862
:107ED000012906D1002101707449201D05F00CFC18
:107EE00010BDFFF72FFB201DFEF732F9FFF710FB47
:107EF00010BD00008CF500082E2E2E00B8F50008ED
:107F0000AF1D0020210000009C1D002030750000E6
:107F1000CCF500085C030020BB1D0020FC160020EF
:107F200028030020D017002010B5FFF7C1FA012068
:107F3000384908705E480078002805D102F004F83E
:107F4000FEF704FE5B4821E05B486921415C212982
:107F500005D1202169228154584801F020FD104CA0
:107F6000A07F012805D1564801F019FD200060309E
:107F70000CE04E49534805F0BFFB1A2052490870E7
:107F80000F2001F0E9FF51485149416003F0ECFA3C
:107F9000C24801F004FD10BD941C00201403002011
:107FA00014020020901A002038B51421494805F029
:107FB000A3FB04F0CDFA012017490870464C0025B8
:107FC00065804649887120001C3003F0CDFA444892
:107FD00003F0CAFA3D4803F08FFA25704148057056
:107FE000D14801F0DCFC31BDC0F2000880B5FFF7DC
:107FF000A9FA04F0B2FA0020074908702B49314869
:1080000005F07AFBC94801F0CAFC01BD1C1D002027
:10801000ECF50008B31D0020B41D0020F8F50008A1
:1080200010B582B03048807800F0DEFF0090002468
:1080300068464078012801D12C490C7068460078C8
:10804000012808D12A48007802F04AFA2948046039
:108050000120B949087013BDDCF5000804F60008DA
:1080600040030020B81D0020BC1C0020B91D0020CA
:10807000534C000080B500F03FF801BD80B50020F2
:10808000874908708749087087490870032001F004
:1080900063FF864803F068FA03200B490870A7487D
:1080A00003F062FA01BD0000800800204C040000CB
:1080B000410300204C1D0020401900200CF6000850
:1080C0001CF600088408002042030020C81C002081
:1080D00060EA00006C1C0020941C002014020020A8
:1080E000581D0020AA1D00201C1C0020BA1D0020C5
:1080F000351C0020A01D0020F0B5BDB00120904A25
:10810000107090490978012903D08F490978012915
:1081100005D18E4916220A70634A1278002A00D0CF
:10812000BAE0604A13788A4C8A4E052B00DB83E064
:108130005B1C1370884D89490978012910D11920D9
:10814000287100206871864801F029FC290084B05C
:108150006846172201F070FC0FBC01F09BFA67E043
:10816000804F81490978012902D0317E01290FD140
:10817000D1206870207B1521484331302871000AD6
:108180006871297968790006000C0143774838E066
:108190007749097801292CD1764EA179012900D19E
:1081A000F070754800783071D3206870F07C15212C
:1081B00048432D302871000A6871704907A8D322FE
:1081C00001F03AFC310002A8142201F035FC29002C
:1081D00084B06846172201F02FFC0FBC01F066F84E
:1081E000297968790006000C0143654801F0D7FB46
:1081F0001EE000291CD1297968790006000C014392
:10820000604801F0CCFB390008A8D32201F014FC2F
:10821000210004A80D2201F00FFC290082B068465D
:10822000172201F009FC0CBC0021112001F094FE82
:10823000554803F099F92FE000251570087053494F
:108240000D7053490D70534801F0A9FB174803F016
:1082500053F94D4803F050F94F4803F04DF94F489A
:1082600003F04AF9354803F047F93000603003F075
:108270007BF94B48017801290ED105703C48007804
:10828000717D014308D13C490D7025704548007847
:10829000012801D1444805703DB0F0BD24F6000826
:1082A00034020020450300204403002094030020F2
:1082B000F0B587B002203D490A6802430A600968A8
:1082C0000840059005988024E400394F00222100E1
:1082D000380004F018F9374E01223100380004F05C
:1082E00012F90122C021380004F00DF90094012494
:1082F00001940025029503956946380003F0BAFF02
:1083000000960194029403956946380003F0B2FF89
:10831000C02000900195029403956946380003F04F
:10832000A9FF07B0F0BD000030F600083CF60008D9
:1083300080B5FDF7C5FA01BDAF1D00204C1D002022
:10834000B31D002041030020BD1C0020420300207B
:1083500028030020140200205C030020C21C00201F
:1083600048F60008FC160020A81D002014F30008A1
:10837000BB1D00201C1D002040030020D017002042
:1083800050F6000868F60008D41C0020BE1C00202F
:10839000BC1C002080F4000850030020C81C0020F2
:1083A000B71D002047030020A91D00202C1002400B
:1083B0000004005002080000FEE7FEE780B5064812
:1083C000016840220A430260002005F099F905F097
:1083D000ABF9002002BD0000002002400248016805
:1083E00002220A430260704710E000E0054801687D
:1083F000020D0A430260704702480168420D0A43B9
:108400000260704700700040F0B587B00124334827
:10841000016821430160016821400591059902210D
:1084200002680A4302600068014005910598A02790
:10843000FF05002281210901380004F064F8284E6C
:1084400000222849300004F05EF8882000020090E5
:1084500001940025029503956946380003F00AFF50
:10846000FF20123000900194029503956946300078
:1084700003F000FF26200090019502956946300028
:1084800003F0F8FE202000901748019002956946FD
:10849000300003F0EFFE0094144E019602946946FA
:1084A000380003F0E7FE40200090019602956946EF
:1084B000380003F0DFFE00220021052003F07CFEDF
:1084C000052003F07DFE00220021072003F074FE4A
:1084D000072003F075FE07B0F0BD00BF2C1002406E
:1084E0000004005001810000000021100000311044
:1084F00080B501200C490A6802430A6009680840F7
:1085000000900098002200210A2003F055FE0A2066
:1085100003F056FE002200210B2003F04DFE0B203D
:1085200003F04EFE01BD00BF3010024030B583B0F5
:10853000394C3A4820600020206490218903616012
:10854000A0600321E16301212161E060206260629B
:10855000E062FF21C231A162206304216161606396
:10856000A061A063E06100BF31A5200004F088FE97
:10857000002803D053212800FFF71EFF2848009051
:10858000000C01906946200004F0F1FF002803D0A0
:108590005C212800FFF710FF37BD00681F498842A3
:1085A00000D0704700B585B01E480168420D0A43EF
:1085B0000260102000900320019000200290694684
:1085C000A020C00503F056FE05B000BD30B5010087
:1085D00064200022144B1D888D421BD35D8A8D427E
:1085E00001D3002030BD54001C192588A9420ED2A9
:1085F00064888C420BD2521C0A235A43801AC0B2A0
:108600000A2807D1094A914204D2052030BD521CE4
:108610000A2AE8DB30BD0000901A00200024014047
:10862000100000103410024000000020DE0D000099
:10863000443A5C54454C55535C436F61705C4C6FDD
:108640006361746F725F4C30353154385F536368C7
:108650006564756C65303732334F54415F494D5313
:10866000495C5372635C6164632E630080B5AB4800
:10867000AB49016096218901416000218160C160A0
:1086800001610C22426181610162416202F08EF956
:10869000002804D04D2100BFA4A0FFF78DFE01BD2E
:1086A00080B5A048D249016096218901416000212E
:1086B0008160C16001610C2242618161C16101621E
:1086C000416202F073F9002803D0622197A0FFF7FE
:1086D00073FE01BD80B59448C649016096218901A9
:1086E000416000218160C16001610C2242618161B1
:1086F000C1610162416202F059F9002803D077217B
:108700008AA0FFF759FE01BDF0B587B006003268B8
:10871000B9480024B94D0221814B9A424AD142689E
:108720004B0413434360C0200001019002910120DB
:108730000390032004900420059001A9B04803F0A1
:1087400099FDB0481430286005276F60AC60EC607C
:10875000802028616C61AC61EC612C62280005F01E
:1087600003F8002803D0A02170A0FFF725FE75664E
:10877000AE62A44828646F641020A864EC64802072
:1087800028656C65AC65EC652C662800403004F00B
:10879000EBFF002803D0B12164A0FFF70DFE2800F5
:1087A00040303066AE66002200211D2003F004FD3B
:1087B0001D20AEE02F0084378D4B9A4252D10268C3
:1087C0004B0313430360C020C000019002910120BD
:1087D0000390032004900420059001A9A020C00567
:1087E00003F048FD28008030009086483C30009916
:1087F0000860032038607C60BC608020F8603C61C9
:108800007C61BC61FC61009804F0AEFF002804D0DC
:10881000DD2100BF45A0FFF7CFFD009870667E62A6
:1088200078482830F8630320386410207864BC64EA
:108830008020F8643C657C65BC65FC652C00C03418
:10884000200004F091FF002803D0EE2137A0FFF7AD
:10885000B3FD34667E66002200211B2003F0ACFCD1
:108860001B2056E0634B9A4255D142680B041343D8
:1088700043600C200190029101200390032004909A
:108880000420059001A9A020C00503F0F3FC5D4879
:108890005030F867822040002F18042038607C6038
:1088A000BC608020F8603C617C61BC61FC61803010
:1088B0002818009004F058FF002804D08D214900AA
:1088C0001AA0FFF779FD009870667E624D4864300B
:1088D000F8630420386410207864BC648020F86455
:1088E0003C657C65BC65FC65C0302C18200004F03C
:1088F0003BFF002805D0FF212C3100BF0BA0FFF764
:108900005BFD34667E66002200211C2003F054FCCF
:108910001C2003F055FC07B0F0BD000040190020FA
:1089200000480040B0190020201A0020443A5C544E
:10893000454C55535C436F61705C4C6F6361746F61
:10894000725F4C30353154385F5363686564756CC1
:1089500065303732334F54415F494D53495C537250
:10896000635C75736172742E6300000010B50400BF
:10897000226821492448824210D14868514A024065
:108980004A60C02109011E4803F037FD606E04F003
:1089900061FF206E04F05EFF1D2025E0A020C005D1
:1089A000134B9A420FD10A68474B13400B60C0210A
:1089B000C90003F022FD606E04F04CFF206E04F04D
:1089C00049FF1B2010E00B4B9A420FD14A683F4BE6
:1089D00013404B600C2103F010FD606E04F03AFF71
:1089E000206E04F037FF1C2003F0F1FB10BD0000E7
:1089F0000038014000440040341002405014002070
:108A0000000400501C00024000480040F1B530480E
:108A100000680099096801272E4C2F4E10258142CD
:108A200014D1C969294011D00562294802F0E0F843
:108A30002748406E00684068301A608020783843CC
:108A400020703200211D224802F08BF82348006874
:108A500000990968814214D1C969294011D0056281
:108A60001E4802F0C5F81D48406E00684068301A84
:108A700060802078384320703200211D174802F0B2
:108A800070F81748006800990968814218D1C969CF
:108A9000294015D00562124802F0AAF81048406E2D
:108AA000006840688A21C9006118301A4880087837
:108AB00007430F7032000B482118094802F051F8A3
:108AC000F1BD0000FFFFFBFFFFBFFFFFFFFFFDFF4A
:108AD00040190020800800204C040000B01900203C
:108AE000201A00205404000070B586B0724C80211A
:108AF000C9052160714961600025A560401EE060E4
:108B0000256100BF74A6200004F0F0F9002803D00E
:108B100040213000FFF750FC80204001029002A964
:108B2000200004F0DCFA002803D046213000FFF7D3
:108B300043FC009501956946200005F073F9002873
:108B400003D04D213000FFF737FC06B070BD0000A8
:108B500070B586B05A4C5B4820605848606000256C
:108B6000A5609520E06025615BA6200004F0BEF9B9
:108B7000002803D05E213000FFF71EFC802040015A
:108B8000029002A9200004F0AAFA002803D0642170
:108B90003000FFF711FC009501956946200005F0B3
:108BA00041F9002803D06B213000FFF705FC06B027
:108BB00070BD000070B586B0434C444820603F480B
:108BC00060600025A5604248E060256142A6200063
:108BD00004F08CF9002803D07C213000FFF7ECFB77
:108BE00080204001029002A9200004F078FA0028B9
:108BF00003D082213000FFF7DFFB00950195694625
:108C0000200005F00FF9002803D089213000FFF77C
:108C1000D3FB06B070BD80B501682E488022D20516
:108C200091420AD1416801220A4342600022002198
:108C30000F2003F0C1FA0F201AE0224A91420AD114
:108C4000016804220A43026000220021142003F07C
:108C5000B3FA14200CE01D4A91420BD10168202286
:108C60000A43026000220021162003F0A5FA162014
:108C700003F0A6FA01BD80B5016816488022D2052E
:108C8000914205D141680122914341600F2010E0DB
:108C90000C4A914205D101680422914301601420DD
:108CA00007E00A4A914206D10168202291430160FF
:108CB000162003F08CFA01BD3C1B00207F3E000013
:108CC000741B002000080140AC1B00200014014070
:108CD000B70B000034100240443A5C54454C5553E5
:108CE0005C436F61705C4C6F6361746F725F4C309A
:108CF000353154385F5363686564756C653037325D
:108D0000334F54415F494D53495C5372635C7469FE
:108D10006D2E630080B51648164901600021416040
:108D20007F228260FF22C260016141618161C16175
:108D300005F09CF8002804D0432100BF0FA0FFF7E6
:108D40003BFB01BD00680B49884200D0704780B5ED
:108D5000094801688022D2020A43026000220021F1
:108D6000022003F029FA022003F02AFA01BD0000D4
:108D7000E01C00200028004050100240443A5C549F
:108D8000454C55535C436F61705C4C6F6361746F0D
:108D9000725F4C30353154385F5363686564756C6D
:108DA00065303732334F54415F494D53495C5372FC
:108DB000635C7274632E630038B5294C29482060C7
:108DC000294860600020A0600121E16020616061AD
:108DD000A061E061206200BF26A5200005F018FA1E
:108DE000002803D042212800FFF7E6FA00212000E6
:108DF00005F002FD002803D049212800FFF7DCFA26
:108E00000021200005F014FD002803D05021280087
:108E1000FFF7D2FA31BD00681249884200D070478E
:108E200000B585B0C0200090122001900120029072
:108E300003210391049069460C4803F01BFA0C4887
:108E40000168802292030A43026000220021172059
:108E500003F0B2F9172003F0B3F905B000BD00002C
:108E6000F01A0020005400405B3D30000004005028
:108E700038100240443A5C54454C55535C436F6192
:108E8000705C4C6F6361746F725F4C303531543875
:108E90005F5363686564756C65303732334F544196
:108EA0005F494D53495C5372635C6932632E6300C2
:108EB000F1B50F001600042901D0062901D11F2E9B
:108EC0004ADA092901D00B2901D11F2E44DA820781
:108ED00004D0022906D11D2E04DB3DE0022901D178
:108EE0001E2E39DA3A0037D00D2935DA310033D069
:108EF000202E31DA182B2FDA06983C282CDA079925
:108F00003C2929DA089D2A0026D0082D24DA834C32
:108F100023726072A17200206061A06100222100B2
:108F200008317F4804F0F2FF002801D00BA00EE0CA
:108F300025706770A67068460078E07000222100F6
:108F4000774805F088F8002804D000BF07A000F09B
:108F500026FD01E00120F2BD0020F2BD53657454EE
:108F6000696D654572726F720D0A00005365744435
:108F70006174654572726F720D0A000070B501254B
:108F8000674E664C002221000831300005F03DF8A4
:108F900000280FD100222100300005F0BDF8002884
:108FA00008D10025A37A627A217A00BF04A000F0DC
:108FB000F6FC02E007A000F0F2FC280070BD000003
:108FC000253032643A253032643A253032640D0A55
:108FD000000000006765745254435F446174655F2C
:108FE0004552524F520D0A00F1B582B03FA00068C1
:108FF00000900125FFF7C2FF002873D1A24F474C14
:109000000026207A002842D1607A00286CD1A07A0C
:10901000010069D03C2867DAA07F002864D19B4812
:109020000078012800D1A57799480078012804D15B
:10903000984802F061FAFEF7D9FF3878012811D17B
:10904000954802F059FA954802F056FA944802F011
:1090500053FA944802F050FA934802F04DFA3E70E9
:1090600000F079FF69460D706846007A401E03D013
:10907000401E012809D90AE0607F401CE17903F015
:1090800027F86177607F694600E0A0788870207AD1
:109090000B2829D1607A3B2826D1A07A28381328BA
:1090A00022D2684645707A480078012804D1794870
:1090B00002F022FAFEF79AFF3878012814D1764898
:1090C00002F01AFA754802F017FA754802F014FA1D
:1090D000744802F011FA744802F00EFA3E7000F083
:1090E0003AFF01E06846C5700098FEBD0000000030
:1090F00080B5FFF743FFC848017807290BD1017AF3
:10910000172908D1417A3B2905D1807A14382828BB
:1091100001D2012002BD002002BD0000181C002069
:10912000E01C0020F1B58AB00B002F203021059102
:10913000FF210022029200925B1EDBB2069307AC75
:10914000B64B6370A170012323700025B24B1E7AC9
:10915000B54206D169005D7A1E2D00DB491CC9B2FB
:1091600003E06D1CEDB2182DF2DB0025AC4EB446C9
:10917000069F782677436646F6190196019EAF0052
:109180007F19F619B778002F0AD07678B14207DA3E
:109190002F2E05DA0120029030006E46357402E071
:1091A0006D1C182DEADB019D9600B618AD19AD783F
:1091B0002E0009D0A94207DA312D05DA01260096E2
:1091C0000595D2B2039202E0521C182AEBDB1A7A00
:1091D0003C2555435A7AAD18ADB2009A002A45D0C5
:1091E000019A039B9E00F318D6182F2916D02E291A
:1091F00014D00599884211DA029900290ED01E2157
:109200004843401B6070000AA07001986946097CC1
:109210008A005118405C207000202BE0F0783179F2
:109220000906090C0843F17832791206120C114331
:10923000000A0902014389B2009177781E20474352
:10924000E81B009902F044FF401C00994843401B72
:10925000C0196070000AA07030782070F078317901
:109260000906090C0843E070000A04E03C20607025
:109270000020A070E07020710A9807A9052200F074
:10928000DBFB0BB0F0BD0000B31D0020410300204C
:10929000B41D0020581D0020940300204C1D002008
:1092A000D41C002050030020C81C00200FB4F0B5CF
:1092B00083B05C4C20790EA948720EA8411D20682D
:1092C00003F030FDE01D05F0DBFA11906079A17923
:1092D0000906090C08430EA9488108A88088010ADC
:1092E0000002084308A988800EA8457C817C0906F5
:1092F000090C0D435235ADB20EA9487C8A7C12068A
:10930000120C10430EAA517C937C1B061B0C1943B4
:10931000000A090201435174090A91740EA8C07C25
:10932000002802D1A81E042101E0681E02216A461D
:10933000517080B200F034FF0400690040181A3008
:1093400069468880744821005931C9B242181721F2
:1093500008A803F0B7FB8734A4B26F4802191421A0
:109360000EA803F0AFFB2834A4B2002569460D70A7
:1093700015E013A81521694346183A001521701C01
:1093800003F0A0FB2A34A4B21521701C03F04EFB9D
:10939000694609780818694608706D1CEDB25E4888
:1093A00007190EA8C07C8542E3DB162108A8401CE3
:1093B00003F03CFB694609780818694608701421D7
:1093C0000EA803F033FB694609780818694608704F
:1093D0003A000121684603F075FBFA20694688705F
:1093E000BA1C012100A8801C03F06CFB09224B4928
:1093F0004948A41CA4B20019801C03F036FB68463F
:10940000808869464978421A92B24349444801F03B
:1094100066FB03B084E10000181C0020FFFF000081
:1094200008110020701D0020F1B584B0002097497C
:10943000087010229649049803F0E5FA1025944923
:1094400048798A791206120C10430A4651799379A9
:109450001B061B0C1943000A090201435171090A3A
:109460009171B1480078401C694648701079C87005
:10947000D07888709078002802D101208349087044
:10948000002602AF00E0761C8149C979F0B288421B
:1094900037D2062201A90498401903F0B4FAAD1D91
:1094A000ADB2002411E0052202A9A5488446684611
:1094B0000379782043436046C018E4B2A3001B1927
:1094C000C018783803F0D1FA641C01A98978E0B299
:1094D0008842D8D20A2202A90498401903F093FACC
:1094E0000A35ADB2B8787978814208D2302906DAE7
:1094F000010004D0312802DA38780228D3DB0020BA
:1095000004E062480078012800D0AA20694608706B
:10951000009805B0F0BD0000080D00205897000825
:10952000401900200FB4F8B506A88088010A00028F
:10953000084306A988800CA948788A781206120C7C
:1095400010430CAA517893781B061B0C1943000A90
:10955000090201435170090A91700CA9C8780A796F
:109560001206120C10430CAAD17813791B061B0C9F
:109570001943000A09020143D170090A11710CA8AC
:109580004089010A000208430CA948810CA8057B08
:10959000152045435535A8B200F002FE04006900CD
:1095A00040181A3069464880664821005931C9B2CE
:1095B0004218172106A803F085FA8734A4B261483F
:1095C00002190B2145A803F07DFA1634A4B25D48B8
:1095D00002190D210CA803F075FA1A34A4B2002563
:1095E00069460D7015E010A81521694346183A0028
:1095F0001521701C03F066FA2A34A4B21521701CE0
:1096000003F014FA694609780818694608706D1C59
:10961000EDB24C4807190CA8007B8542E3DB16210C
:1096200006A8401C03F002FA694609780818694642
:1096300008700D210CA803F0F9F96946097808189B
:10964000694608700B2145A803F0F0F969460978CE
:109650000818694608703A000121684603F032FA9A
:10966000FA2069464870BA1C012100A8401C03F08A
:1096700029FA092238A13348A41CA4B20019801C7D
:1096800003F0F3F9684642882E4945E0311D002079
:10969000841D00200FB4F8B506ACA088010A0002B2
:1096A0000843A08000206075A075D22060703D2026
:1096B00000F076FD0500234E5930C0B23218172154
:1096C00006A803F0FFF92F008737BFB200206946D4
:1096D00008701621601C03F0A9F96946097808187A
:1096E00069460870F41922000121684603F0EAF97E
:1096F000FA2069464870A21C012100A8401C03F012
:10970000E1F9092214A1BF1CBFB2F019801C03F0BB
:10971000ACF99435AAB231000B4801F0E0F901B080
:109720000498F0BC05B00047B51D002070470748FD
:1097300080218902016206494162064981627047BF
:1097400008110020080D002040190020181C0020DE
:10975000881300002D9700082C3078303130300D00
:109760000A00000002B5002805D0026811700168E7
:10977000491C016001BD034B01226946024801F00A
:109780004BF901BDFFFF0000201A0020F1B50E00CB
:10979000140000252027012C0EDB002001E0401CD6
:1097A000491C0A78002AFAD1A04201DB002400E01B
:1097B000241A980700D53027D80708D405E03900C7
:1097C0000098FFF7CFFF6D1C641E012CF7DA31788B
:1097D00008000BD00098FFF7C5FF6D1C761CF6E75C
:1097E00039000098FFF7BEFF6D1C641E012CF7DAEC
:1097F0002800F2BDF5B585B00020019000900E0064
:1098000002AA0C9D09D13021117050700D9B2A00C5
:1098100002A90598FFF7BAFF3DE0002B07D0069B91
:109820000A2B04D1002902D5012301934E4202A93B
:109830000C000B34D0720E9F002E10E03000069901
:1098400002F049FC0A2902DB38003A380918641E84
:10985000303121703000069902F03DFC0600EDD158
:10986000019800280FD0002D0AD00D98800707D549
:109870002D210598FFF776FF012000906D1E02E074
:10988000641E2D202070009E0D9B2A00210005984B
:10989000FFF77CFF301807B0F0BD0000F0B585B0D1
:1098A00007000C001600002505E021783800FFF7BE
:1098B00059FF6D1C641C2078010068D02528F4D164
:1098C000641C002300222078010060D02528ECD001
:1098D0002D2806D1641C012303E0641C1800022318
:1098E000034320783028F8D02078010030390A2945
:1098F00005D20A214A431218303A641CF4E773284F
:109900000AD13168361D002901D100BF2DA13800D0
:10991000FFF73CFF2D18CDE764280BD13168361DC9
:10992000612002900193009201230A223800FFF780
:1099300061FFEFE7782808D13168361D6120029079
:109940000193009200231022F0E7582808D13168D3
:10995000361D412002900193009200231022E5E77A
:10996000752807D13168361D61200290019300925D
:109970000023DAE763289DD13068361D69460873F5
:10998000002003A948703800FFF700FFC2E7002F4E
:1099900002D0002039680870280005B0F0BD0EB470
:1099A00000B501AA01000020FFF778FF009904B07C
:1099B00008470DB400B502AA01A8FFF76FFF009990
:1099C00004B00847286E756C6C29000011B581B091
:1099D00004F062FF040004F05FFF001B019988425D
:1099E000F9D313BD70B505000C00160004F05AFF42
:1099F0000F482D1807E022782900002004F068FFA6
:109A00006D1C641C761E002E02D00A488542F2D3DB
:109A100004F054FF70BD064BC018002A04E0037820
:109A20000B70401C491C521EF9D170470000000009
:109A30000000080800080808124207D08B0706D06B
:109A40000B78491C0370401C521EF7D870478307DF
:109A500006D00B78491C0370401C521EF9D1704788
:109A600070B4103A03D378C9103A78C0FBD25307C8
:109A700001D318C918C001D508C908C0D20704D33A
:109A80000B880380891C801C002A01D50B78037089
:109A900070BC7047F1B586B00E0001A8B7A11422C2
:109AA000FFF7DEFF994C9621200003F027FE2000EF
:109AB0009830009000250580320000BFB4A120003E
:109AC000FFF777FF200002F067FF010001AA0EE018
:109AD000069B5B191F783F09D75D0770491C1878F2
:109AE0000007000F105C89B26054491C6D1C89B2DC
:109AF0006018B542ECDB00BFAAA1FFF75AFF2000B7
:109B000002F04AFF009908800098028821008048EE
:109B100000F0E5FF0098028821007E4800F0DFFF9A
:109B200007B0F0BD80B50B001100132804D0142835
:109B300005D0182807D001BD00F013F801BD1800AA
:109B400000F03AF801BD00207349087000F007F9F1
:109B5000724801F0D1FC0F207149087000F0FCF947
:109B600001BD38B56F4CFF202070FE2060700120D1
:109B7000A0701320E0700020A080A0711121E1717D
:109B80002072694D2800083002F006FF020029000B
:109B9000083120000930FFF74FFF1921200004F0A1
:109BA000D9FE80B200210918090A217160711921BA
:109BB0002000FFF76FFF31BD38B505005A4C102269
:109BC000290020001830FFF737FF287C0002697C4D
:109BD00040186080A87C0002E97C40182080A088A2
:109BE0000090238862882100183100BF70A0FFF721
:109BF000D6FE00F061F800281BD10B227AA12000CC
:109C0000183004F0AEFE002810D000F077F80120E4
:109C100000F09EF8012000F08FF8BFF34F8F43480B
:109C200043490860BFF34F8F00BFFDE7032000F0FA
:109C300001F831BD10B53B4CFF212170FE21617050
:109C40000121A1701422FFE7E2700022A280A2711C
:109C5000E17120720921200004F07CFE80B2002115
:109C60000918090A2171607109212000FFF712FF0C
:109C700010BD10B52B4CFF212170FE216170012118
:109C8000A1701821E1700021A180A1711121E17161
:109C900020721022274920000930FFF7CDFE19213C
:109CA000200004F057FE80B200210918090A217132
:109CB00060711921D9E7000038B500241A4D2888B1
:109CC000002803D14BA0FFF76AFE01246888002812
:109CD00004D100BF4EA0FFF762FE0224102200BF95
:109CE00052A12800183004F03CFE002804D100BF27
:109CF00053A0FFF754FE0424200032BD80B5282273
:109D000009492020FFF76EFE01BD0000A4180020C5
:109D1000201A002040190020C31C002094030020BA
:109D200042030020E41B0020441C00200400FA052C
:109D30000CED00E04C1C002001B50122694610200A
:109D4000FFF750FE01BDFFF766FE6846007802BDD2
:109D500001B5012269461120FFF744FE01BD01B59E
:109D6000012269461220FFF73DFE01BD80B50020AB
:109D70006946087001221220E5E7000030313233D5
:109D800034353637383941424344454600000000F7
:109D900041542B4D4C57554C4441544145583D2559
:109DA000642C00002C3078303130300D0A00000077
:109DB0006E65772076657273696F6E20696E666F67
:109DC0003A25730A2020202073697A653A25640AAF
:109DD0006E756D3A25640A202020636865636B3ACE
:109DE0003078253034580A0076312E302E31383014
:109DF00039313400666F74615F696E666F2E626C14
:109E00006F636B5F6E756D206572726F720A000012
:109E1000666F74615F696E666F2E626C6F636B5FF5
:109E200073697A65206572726F720A000000000023
:109E30000000000000000000000000000000000022
:109E4000666F74615F696E666F2E6E65775F7665AB
:109E5000725F73746172206572726F720A00000023
:109E600038B500246846047004F09AFD344D684605
:109E70000078332801D02C7031BD04F0D5FE0020CD
:109E800004F0B1FD0120287031BDF8B505000C00CB
:109E900017001E002A48007800282CD004F0C4FEC9
:109EA000280004F087FD002C01D1012000E00220F1
:109EB00004F099FD072004F0EDFD002004F050FEB1
:109EC000012004F035FE002004F063FE402004F081
:109ED0007EFE380004F0F9FD012004F010FE0020A1
:109EE00004F088FEF0B204F0CBFE022004F0D2FEB3
:109EF000152004F0ADFEF1BDE0B510220292012262
:109F0000019200910123020031210E4804F086FAEB
:109F1000401E8041C00F0EBD02B584B010210291D9
:109F20000121019104A9009101230200302105487B
:109F300004F0C8F9401E8041C00F05B000BD00000C
:109F4000AC1D0020F01A002080B5012201216048DC
:109F500002F0D9FA01BD70470EB4F0B5BEB00700EB
:109F600062A25CA65C4D5D4C5DA15EA0032F04D097
:109F70005DA3082F04D1009032E0009033002FE061
:109F8000052F09D1009000BF5AA300BF5FA2042093
:109F900002F075FD1D2292E0042F03D1009000BF56
:109FA0005CA21DE0062F06D103007AA2032002F076
:109FB00066FD082283E0092F02D1009057A20FE02E
:109FC0000A2F09D1019000BF56A0009059A2052088
:109FD00002F055FD1B2272E00B2F06D100906E4A55
:109FE000042002F04CFD0B2269E00C2F05D10090FB
:109FF00052A2042002F043FD0EE00D2F05D1009087
:10A0000050A2042002F03BFD06E00E2F06D1030013
:10A010004EA2032002F033FD0C2250E00F2F07D197
:10A02000030000BF4BA2032002F029FD0D2246E0F1
:10A03000102F0BD1019000BF49A000904BA300BF8F
:10A040004CA2052002F01BFD1A2238E0112F20D16E
:10A0500043A8041D0068002835D1250018354F4954
:10A060003BA80B22FFF7E8FC2900103106A8D322F9
:10A07000FFF7E2FC290002A80D22FFF7DDFC21001A
:10A0800084B068461722FFF7D7FC0FBCFFF74AFAE7
:10A0900019E0132F0AD1019038A00090330000BFBF
:10A0A00038A2052002F0EBFC0F2208E0002F0AD1B5
:10A0B000030000BF35A2032002F0E1FC09222100C9
:10A0C000280000F00CFD3EB00498F0BC04B000473E
:10A0D000000400503D30000040190020080D002011
:10A0E00041542B000D0A00003D3100004346554EFF
:10A0F000000000003D3131372E36302E3135372EFD
:10A100003133372C35363833000000004E4344508D
:10A11000000000004347534E00000000434D4545FA
:10A12000000000002C224950222C2263746E6574BA
:10A1300022000000434744434F4E540043474154DC
:10A14000540000004353434F4E000000434750412A
:10A15000444452004E5545535441545300000000AE
:10A160002C31372C373430302C3100003D444752ED
:10A17000414D00004E534F43520000002C35313208
:10A18000000000004E534F524600000043474D521E
:10A19000000000004E524200C8A70008701D0020B9
:10A1A000F8B505000024652801DB042406E00B282F
:10A1B00001DB032402E0280000D002241EA27BA1C0
:10A1C000022002F05CFC68466D1C0580008864215A
:10A1D00001F07EFF0D0028000A2101F079FF3031E7
:10A1E0006846817028000A2101F072FF05003035B1
:10A1F0002C26154F68460088652810DB68460088C5
:10A20000642101F065FF3030F8733D746846807852
:10A210007874BE744A2266493800133008E0FD7332
:10A220006846807838747E744A226149380012305A
:10A2300002F01BFC2000F2BD4D4C57554C444154DC
:10A240004145583D00000000080D0020F0B585B0E4
:10A2500006000D00052D16DB68003018001F02F007
:10A26000A3FB0400281F410089B2B01C02F0ECFBE4
:10A27000A04209D0010000BF4EA0FFF790FB2100D3
:10A280004FA0FFF78CFB8EE0122201A9300002F0F4
:10A29000BAFB01A80178FA29F5D1C179027A120630
:10A2A000120C1143C279037A1B061B0C1A43090ACC
:10A2B00012020A43C271120A0272C179027A1206AC
:10A2C000120C1143B74C6184220049320B0A090277
:10A2D00019431170090A5170407800270125C128DF
:10A2E00025D100BF39A0FFF75AFB607E002802D1BC
:10A2F0007A4801F001F906213000123000F084F8AC
:10A30000A9490870002808D1607C02280AD000BF43
:10A3100030A0FFF744FBA5480770607C022801D0FD
:10A32000A57701E0A2480570A248E06237E0C228A4
:10A3300039D100BF2BA0FFF732FB607E002802D18D
:10A34000664801F0D9F89C48418830001230FFF788
:10A350006BF80090994E300069460422FFF76CFBC1
:10A360009148407801281ED1307801280BD100BFD8
:10A370001EA0FFF714FBB078012801D190480770A8
:10A380008A490D7003E000BF1CA0FFF708FB884856
:10A3900005708848E0628A48007800F0A1F8200043
:10A3A000283001F0E1F805B0F0BD000041542B0069
:10A3B000A00300204353313A25640D0A0000000039
:10A3C0004353323A25640D0A0000000043310D0A60
:10A3D000000000004D6F64654368616E67650D0A9B
:10A3E0000000000043320D0A0000000043325F53BA
:10A3F0007563636573730D0A0000000043325F46A6
:10A4000061696C0D0A00000070B59AB00D006A0019
:10A4100092B2694602F0F7FA624C2A0069462000BF
:10A42000103002F022FB0025A571217C0120654E31
:10A43000032904D1E0773570022060721EE0042900
:10A440001ED12078207659490978012904D15C4829
:10A45000007800F045F80CE0010002D16078A178A6
:10A4600003E0012805D1E07821790906090C0843A9
:10A47000A0846572E57735702020255401202AE0FC
:10A48000627C022A01DB26D124E0022901D0227657
:10A490002270E17F012900D17270A18A0A0A0902A3
:10A4A0001143628A130A12021A43474B89B2994236
:10A4B00011DA92B29A420EDAE170090A21716270E1
:10A4C000120AA270E17822791206120C114379293E
:10A4D00000DAE07600201AB070BD0000341D0020C4
:10A4E000F0B583B007000024FEF748FD33488078BC
:10A4F0002C4DB04E012802D17C1CE1B215E002289F
:10A5000002D1AD4804780FE003281ED1AA48047890
:10A51000FEF7EEFD002807D00020244908702878B7
:10A520002876A648A88410E021006846FEF7FAFDC8
:10A53000300069460522FFF77FFA7078B178090686
:10A54000090C0843A884307828769D4800780128B3
:10A5500000D128769B488470F17832791206120C6B
:10A5600011430170090A4170297E0171012908D047
:10A57000297C022905D00021C174012141740021E8
:10A5800081740A48007801280BD1A98C0FA0FFF72D
:10A5900006FA297E13A0FFF702FA791C16A0FFF72E
:10A5A000FEF9F7BD28030020301D0020BB1D002050
:10A5B000BD1D002088130000800800201C1C002006
:10A5C000351C0020A81D0020A1050000536368650C
:10A5D00064756C655F6379636C653A2025640D0A68
:10A5E000000000005363686564756C655F4D6F64BF
:10A5F000653A2025640D0A005363686564756C65CF
:10A600005F446174653A2025640D0A00F1B59CB081
:10A6100000250195AF4CA56001270126AE48428870
:10A6200069A11C9802F069FA0090AB48428800BF0B
:10A6300067A11C9802F061FAA0600099002902D17C
:10A64000002800D1B0E02000183000F055FF00983D
:10A65000002801D0401D01900A220021019802F03B
:10A6600034FB80B20090B249884222DA642801DBD0
:10A67000032602E00A2800DB0226014656A0FFF767
:10A680008EF9A068002815D057A0FFF788F9E17966
:10A69000481E8041C00F60710098420092B202A92A
:10A6A000A068401C02F0AFF9009989B202A800F03E
:10A6B00015F97CE01C988019019060799D4E0099F5
:10A6C00008291BD1002872D1B07F9B49097801432A
:10A6D0006DD1042246A11C980A3000F077FE0028B4
:10A6E00065D196480078002861D100BF42A0FFF7ED
:10A6F00056F901980D3000F091F858E000990229C0
:10A7000043D1002853D100BF3EA0FFF748F9B07FE6
:10A710008949097801434AD1307C012809D135742F
:10A72000BFF34F8F864887490860BFF34F8F00BF44
:10A73000FDE7022810D13000283000F0DDFE2000B7
:10A740000C3000F0D9FE00BF31A0FFF728F9FDF76B
:10A750002BFC2570A5702AE0707E012802D020799C
:10A76000012805D1A079002821D100F089F81EE048
:10A7700067701620B0763776F77677713770B583C5
:10A780002000183000F0F0FE11E009290FDB00284E
:10A790000DD1E77070A0FFF702F9009989B2019816
:10A7A0000930FFF753FD02E070A0FFF7F8F81DB085
:10A7B000F0BD00007C1D0020181C0020FFFF0000E1
:10A7C000B71D00201C1D00204E4E4D49000000000A
:10A7D0002C46464645000000646174615F4C656E1E
:10A7E0003A25640D0A000000464646450D0A000061
:10A7F000464146410000000054696D655F73796E03
:10A800000D0A00005365727665725273700D0A006E
:10A810005370656369616C464E0D0A0070B586B071
:10A820000822010004A804F03FFA082203A902F05C
:10A83000EAF8454C03A80022210003781B0645785E
:10A840002D0486783602AD19C07828181818E1232F
:10A85000DB01C01804F0A2FAE0790290A07901901F
:10A86000607900902379E278A1782088C0B2FEF761
:10A870001FFB012801D13149087006B070BD0000EE
:10A8800038B500252C4805702A4CA577E07F0128B3
:10A890000BD12020205C002805D10120202160540C
:10A8A000207E2A494870022000E00020607200BF2C
:10A8B00030A0FFF774F81C20A076A58320006C3030
:10A8C00000F052FE202221004C31214800F007F90F
:10A8D00031BD0000BC1C00208008002038B50400F9
:10A8E000207800026278801880B21A4A90421DD106
:10A8F0002079000262798518ADB200202071607164
:10A90000200004F027F880B2A84205D002002900F8
:10A910001CA0FFF744F831BDA0790002E17940188E
:10A9200082B221000831E078FFF7FCF831BD000069
:10A930000102000028030020BD1D0020BA1D0020D8
:10A940000400FA050CED00E08C1D0020A81D00207D
:10A9500040190020FEFF000070726F636573736919
:10A960006E67446174610D0A000000004F746865F1
:10A97000720D0A00656E746572536C6565700D0A20
:10A98000000000006372633136206572726F720AD4
:10A99000726563763A3078253034582C7472756558
:10A9A0003A3078253034580A0000000038B50400E9
:10A9B00001D1012032BD250068356878002803D117
:10A9C00028702000FDF7A0FE242068702068016830
:10A9D000012291430160606A002802D0200000F04B
:10A9E00045FB200000F028FA012811D020684168BA
:10A9F000084A0A404260206881682A2291438160A7
:10AA00002068016801220A430260200000F092FBE6
:10AA100032BD0000FFB7FFFFFCB583B006000C009D
:10AA200035005035687E202856D1002C0BD0002AE6
:10AA300009D0B06880214901884206D130690028D8
:10AA400003D1E00701D5012047E0287E012843D04B
:10AA5000012028760027EF612120687603F01CFF93
:10AA6000019068468089288068468089688005E072
:10AA70002088C005C00D31688862A41C6888002841
:10AA800019D06888401E688004980090019B0022BD
:10AA90008021300000F082FB002816D1B0688021B0
:10AAA0004901884202D130690028E1D0207831681C
:10AAB0008862641CE2E704980090019B0022402118
:10AAC000300000F06BFB002801D0032005E02020BF
:10AAD00068762F76002000E0022005B0F0BD70B54A
:10AAE000060035005035687E202838D100290BD06B
:10AAF000100009D0B06880235B01984206D130690C
:10AB0000002803D1C80701D5012070BD287E012887
:10AB100025D001202876F1642A806A800024EC6127
:10AB2000212068765C482969C8625C482969086305
:10AB30005B482969486328698463130032682832B6
:10AB4000F16C286902F06EFF4020316808622C76B3
:10AB50003068816880220A438260002070BD022034
:10AB600070BDF8B5060035005835A87C20283DD1C9
:10AB700000290BD0100009D0B06880235B019842F7
:10AB800006D13069002803D1C80701D50120F2BDE4
:10AB9000287C01282AD001272F7471652A8000247F
:10ABA0006C612220A8743F48E968C8623E48E968A1
:10ABB00008633B48E9684863E86884631300726D82
:10ABC00031682431E86802F02DFF2C743068016888
:10ABD0003A020A430260306881680F438760306838
:10ABE000816840220A4382600020F2BD0220F2BD4B
:10ABF00038B5040025006935287821280FD1206850
:10AC0000816809060BD58168802291438160206E9E
:10AC1000002801D002F02EFF200000F0F5FA68783D
:10AC200022280FD12068816849060BD5816840220F
:10AC300091438160606E002801D002F01BFF20006C
:10AC400000F0EBFA002032BD70B504002068016806
:10AC5000164A0A400260206881680122914381609F
:10AC60002500643520680026816849060AD5816878
:10AC70004022914381602868002803D086632868B9
:10AC800002F0F8FE5A2026520F2021680862202088
:10AC9000A871002070BD000049B2000879B2000818
:10ACA000E3B2000883B20008D9B20008DFFEFFFF5C
:10ACB000F8B504002368D86919680607360F07D16C
:10ACC000820605D58A0603D5200000F037FBF1BDCA
:10ACD0009A6825006435002E62D00126324203D1E5
:10ACE00090277F000F405BD0C70705D5CF0503D560
:10ACF0001E62AB681E43AE6002230426870706D59A
:10AD0000D70704D527683B62AF683743AF60470772
:10AD100006D5D70704D527683E62AE683343AB60DB
:10AD20000826030708D58B0601D4D20704D522686C
:10AD30001662AA683243AA60AA68002A79D08006FF
:10AD400004D5880602D5200000F0F8FAA86806406D
:10AD500003D12068806840061CD5200000F05DFA11
:10AD600020688168490611D581684022914381603D
:10AD7000286800280AD02F498163286802F0AAFEBB
:10AD8000002856D02868816B8847F1BD200004F068
:10AD90005DF8F1BD200004F059F80020A860F1BD75
:10ADA0002026C70209D5520207D5F00318626E713A
:10ADB000AE71200004F04CF8F1BD02062DD50A0654
:10ADC0002BD56879212834D15220205A002809D166
:10ADD00018688021884318602068016840220A436F
:10ADE0000260F1BDA068F10188420BD12069002802
:10ADF00008D1E06C0088C005C00D9862E06C801C32
:10AE0000E06404E0E06C411CE16400789862522048
:10AE1000205A401E52216052F1BD400609D5480615
:10AE200007D518684021884318606E712000FCF730
:10AE3000A9FBF1BD29B30008FEB5070010241025B9
:10AE4000002669460E7039680868814A0240B86871
:10AE500010433A69024378691043FA6902430A6071
:10AE600048687C4A0240F86810434860B8697A4AEA
:10AE7000914202D00200386A10438A68774B13402F
:10AE800018438860764881420BD17648C06C8007B1
:10AE9000800F04D0022812D029D3032823E00125F3
:10AEA00028E0714881420CD16E48C06C0C210140F1
:10AEB0001BD004291BD0082901D00C2913E002253E
:10AEC00018E06548814215D16648C06CC02109016F
:10AED00001400AD0A001814209D040008142EED059
:10AEE000C0200001814204D004E0002502E00425D6
:10AEF00000E00825022001F02FF839680291E202F3
:10AF0000554B994231D1002D06D0022D11D0042D80
:10AF100017D0082D18D093E000F0C9FE002860D0AB
:10AF20007A6851008918884202D3110381420DD2F8
:10AF300086E04C480068044001D09748F0E7BE48DE
:10AF4000EEE700F07BFEE9E71000E9E7050E0402FA
:10AF50005008002100196941002303F07AFFA84935
:10AF60004118A84A91426BD25FE0F969914239D108
:10AF7000002D08D0012D0AD0022D0BD0042D13D0A6
:10AF8000082D1AD021E0796840004A0818E000F046
:10AF90009BFE0BE079684808324A1268144001D0E1
:10AFA000A64A0DE0A64A0BE000F048FE7968019140
:10AFB000400049084018019903E0796848085200A8
:10AFC000801801F088F8060002E001206946087048
:10AFD0009C4931403006400E4007400F014338681D
:10AFE000C16030E0002D08D0012D09D0022D0AD01B
:10AFF000042D12D0082D1AD022E000F058FE0EE0E9
:10B0000000F062FE0BE079684808164A12681440A6
:10B0100001D0614A0DE0884A0BE000F00FFE79682C
:10B020004A08801801F057F880B2396806E079685C
:10B030004808801801F04FF880B20299C86002E019
:10B0400001206946087068460078FEBD00000000D7
:10B05000F369FFEFFFCFFFFF00480040FFF4FFFF61
:10B060000038014000100240004400402421415CAF
:10B07000C90706D501684A68914B1340826A1A4392
:10B080004A602421415C890706D501684A688D4BD6
:10B090001340C26A1A434A602421415C490706D51D
:10B0A00001684A68884B1340026B1A434A602421A6
:10B0B000415C090706D501684A68844B1340426B1E
:10B0C0001A434A602421415CC90606D501688A6892
:10B0D0007F4B1340826B1A438A602421415C8906AE
:10B0E00006D501688A687B4B1340C26B1A438A609D
:10B0F0002421415C490611D501684A68AC4B1340D4
:10B10000026C1A434A60026C80235B039A4205D1A9
:10B110004A68A84B1340426C1A434A602421415CA0
:10B12000090606D501684A68A34B1340806C184392
:10B1300048607047F8B5040000256830456003F0AA
:10B14000ABFB06009D4F20680068000709D50097FB
:10B150003300002280218903200000F01FF800281E
:10B160000DD12068006840070BD5009733000022FE
:10B170008021C903200000F011F8002801D003202D
:10B18000F2BD2020210068314870210068318870AC
:10B19000682025540020F2BD00093D00FEB50400E2
:10B1A0000F000025089E2068C0693840B84201D1D0
:10B1B000012000E000206946097988421DD1002065
:10B1C000C0438642EFD0002E05D003F065FB029904
:10B1D000401A8642E7D220680168794A0A40026034
:10B1E000206881680122914381602000683020211D
:10B1F0004170817005700320FEBD0020FEBD00007F
:10B2000000FDFFFF00FD0F0001680A68C0239A439C
:10B210000A60202169228154704701680A68694BDD
:10B2200013400B6001688A6801239A438A602021D9
:10B230006A228154704700000024F40000127A0052
:10B240000048E801F0FF000080B50100886A096845
:10B25000096889060DD400215222815201688A684A
:10B2600080239A438A600068016840220A43026092
:10B2700001BDFCF787F901BD80B5806A03F01EFEB1
:10B2800001BD38B50100886A2022096809681140AB
:10B2900013D101005A3100230B8003681C684A4D0A
:10B2A00025401D6003689C680125AC439C600368D1
:10B2B0009C684025AC439C600A74FCF76FF931BD73
:10B2C000FFFFFDFFFFFFFEFFFFFFFBFFFF7FFFFF15
:10B2D000FFEFFFFFFFDFFFFF80B5806A03F0EFFDA8
