:020000040800F2
:1058000058080020A1F800085DF600085FF60008BF
:105810000000000000000000000000000000000088
:1058200000000000000000000000000061F6000819
:10583000000000000000000063F6000865F60008A4
:105840007382000867C2000871F6000837E200089A
:10585000BFE800087BF60008B3E9000885F60008F9
:105860000000000077EE00089DF60008ADF6000885
:10587000BFEF0008DFF0000800000000C9F60008D4
:1058800000000000EBF00008000000000000000035
:10589000D3F6000800000000DDF600089FF80008BD
:1058A000C5F80008C7F80008C9F80008E7F60008BE
:1058B000EDF60008FFF60008000000000000000000
:1058C000BFF34F8FA048B5490860BFF34F8F00BFAB
:1058D000FDE70000F8B502F0CDFC62B602F0DAFC9C
:1058E00000F0DFF802F0E4FC02F0DCFC974801680D
:1058F000802212020A43026002F0E2FC02F054FD30
:1059000002F070FD02F018FE03F090F803F0C0F80A
:1059100002F02CFE02F044FE03F074F903F0CEF91D
:1059200001F06AFD00F014F900F066F903F026FFBB
:105930009B4804F066F8FA20400004F079F8994D8D
:105940000A2028708F2068708420A8700120E870D9
:105950009548A88006222900082004F075F8012245
:105960009249002004F089F8DA48C17B904804F09D
:1059700048F80120D749C8730B228E498E4804F09D
:105980008DF804F0EBF904F09DFA032302220021C4
:10599000032004F0ACFA00BF884E894F894C01E027
:1059A00002F090F9687E0028FAD0687E0128F9D1CB
:1059B000A87D002826D184A004F023F8834804F0B1
:1059C00037F801F09DFC032004F0F8FA2078C007B6
:1059D000FCD56288211D380005F097F82078FE215B
:1059E0000140217006227A49201D05F005FDE87569
:1059F000E87D0028EAD00120A875764804F001F877
:105A000001F081FC74480078697B002916D10121DE
:105A1000697300213170002805D1AE48C07B012890
:105A200001D102F00BFAAB48C07B01281CD16B48B6
:105A300003F0E7FF6A4805F0ADFD15E0012813D13A
:105A4000684803F0DEFF00F0B3FD674802F0FCFE9B
:105A5000664802F0F9FE380002F0F6FE02F088FB1C
:105A600001F02AFD00F07CF9307800289DD15E48D5
:105A700002F0B0FD5D4802F0ADFD380002F0AAFD75
:105A8000B24803F0BEFF30780028EDD101F004FEEB
:105A900005F0F1FD02F090F900F0C0FE02F012F9FD
:105AA000F1E710B59AB0524852490A680240CB0C4F
:105AB00013430B60A6490A681040086006200C904A
:105AC000FA300E9001200F901020109002201590B7
:105AD0000024169440041790C020000418900CA8CD
:105AE00005F01AFE002800D0FEE70F2007900320E3
:105AF000089009940A940B94002107A805F0FCFF74
:105B0000002800D0FEE7272000900294039404941C
:105B1000802040020190684606F08AF9002800D0F3
:105B2000FEE706F0D7F8FA21890006F0EAFA06F057
:105B30006BFB042006F07CFB002200210020C04308
:105B400006F050FB1AB010BD0400FA050C1002401C
:105B50008048FA210170D121417001218170022118
:105B6000C1707D4800218172C1727C490978017041
:105B70003C214170002181703C21C17000210171E4
:105B80006421C171FF21017291480121017100213D
:105B90004171012181700021C17070470CED00E05E
:105BA00034F100080803002033160000230200200F
:105BB00044F1000854F10008241C0020821D00203C
:105BC000F81900205808002031310000B80B0000FF
:105BD00060F1000868F100085503002070F100082A
:105BE000241D002078F100081819002088190020D1
:105BF000FFE7FFFF0070004010B5764802F0E2FEBC
:105C0000344801214161FA2189008161724AC261EF
:105C1000724A02231360C8235360714B9360802241
:105C200052000262962242626E4A82626E4A0823E3
:105C300013606E4B53606E4B93606E4A102313607B
:105C400051606D4B93606D4A80235B0113606C4B18
:105C500053606C4B93606C4A402313606B4B5360F2
:105C60006B4B93608022C2624A000263694B4363BC
:105C7000694B8024A4001C60684C5C60684C9C608C
:105C8000684B8024E4001C605A60674A9A60620096
:105C90008263C8229200C263644B0364644B042491
:105CA0001C60644C5C60644C9C60644B8024A40168
:105CB0001C60634C5C60634C9C608023DB0143642C
:105CC0008264614BC36480231B0203655F4B4365A1
:105CD0005F4B01E014020020836580235B02C365F3
:105CE00001665C4941665C499B000B605B4B4B6005
:105CF000964C8C60802109038166C26694490167D5
:105D00008021490341678367A749C16710BD80B5FA
:105D100000F0A4FB01BD8F490A6A00688E4B1B6826
:105D2000984202D1130004221A438C4B1B689842FC
:105D300002D1130008221A439C4B1B68984202D1DF
:105D40001000102202430A627047000088F1000828
:105D500050100240700300203C0300205403002038
:105D600010B592B00121012006F07EFA904801683A
:105D7000802252050A4302608E4801688E4A0A401A
:105D8000C10C11430160684605F0BEFF062000907B
:105D90000124039410200490F03002900220099016
:105DA00000200A90A0040B90C02000040C906846CC
:105DB00005F0B2FC002800D0FEE70D940E940121FE
:105DC0000DA805F099FE002800D0FEE712B010BD26
:105DD0004C030020FFFF0000615E0008241D00202E
:105DE000615F0008695F0008181D002060EA00007C
:105DF000FD5F000864030020FF5F00083C1D0020D9
:105E0000983A0000ED620008A80300207017000017
:105E1000396A0008B1630008A01C0020C8AF000068
:105E2000B96300080C1D0020C1630008717A0008E6
:105E3000301D0020E8FD0000217B0008481D0020E7
:105E400010270000A57B0008AD7B0008307500001E
:105E5000FD7B0008717C0008AC1C0020881300004A
:105E6000F8B5564CE07B3B4D697BA27801260027B4
:105E7000130009D1002955D1012802D02078052826
:105E800050DABD490E704DE0012A4BD14C4A1278D0
:105E90000B000BD16E73002A03D1012801D101F050
:105EA000CDFFE07B01283DD1464839E0012939D1B9
:105EB000012A37D144480078012804D1434805F02D
:105EC00031FB02F03BF842480078012812D14148EA
:105ED00005F028FB404805F025FB404805F022FB73
:105EE0003F4805F01FFB3F4805F01CFB3848077092
:105EF00004F063F83C490E702E746E743B48867152
:105F00003B493C4A1278012A02D13B4A127800E010
:105F10000A78AA740E70067064202A494860084600
:105F200005F038FB27702771687B01280DD12848C0
:105F300000782549097801432B480078084304D1AB
:105F40008E4803F05EFD8C480670F1BDB57F0008F9
:105F5000BD7F000808030020141B00204C1B0020FC
:105F600080B500F0C5FA01BD80B500F0F9FB8448AA
:105F7000817A022917DA491C8172114800780128B8
:105F80000ED08048017880480A0003D10022802189
:105F9000490003E0012903D10022102106F0C9FACB
:105FA000C84805F0F7FA01BDF5810008841B002000
:105FB0003810024000700040FFE7FFFF140200208D
:105FC00055030020241D0020871D00203C1D0020BB
:105FD000861D0020A8030020301D0020AC1C0020DE
:105FE00064030020A01C00208A1D00203C03002028
:105FF000540300205B0300207D1D00207047F0B596
:10600000BDB0012761480078002801D160490F70B8
:106010000024604D604E61480078012842D16048FC
:106020000078401C5E49087016205E490870D32035
:106030007070E87C152148432D303071000A707172
:1060400052480078002802D1EC746F74AC74564941
:1060500007A8D32203F022FD290002A8142203F08E
:106060001DFD310084B06846172203F017FD0FBCF8
:1060700003F0ACF8317970790006000C01434B480D
:1060800003F0BFFC4648007805286CDB44490C70DF
:1060900042490C703D480078010047D0012868D182
:1060A000894849E089480078012862D18848017808
:1060B000012902D10470FFF703FC86490C738F722B
:1060C000CC72EC746F74AC74D120707000203130DD
:1060D000307174711620334908707F4908A8D322A3
:1060E00003F0DCFC7B4904A80D2203F0D7FC31004F
:1060F00082B06846172203F0D1FC0CBC00211120AD
:1061000003F05CFF754803F07CFC75480178491C7E
:106110000170744ACA4B5A60C9B2062923DB6B4A24
:106120001470047019480078010002D1FFF7C8FB11
:106130001FE001281DD16C4803F063FC934805F073
:10614000F1F9934805F0EEF9924805F0EBF9924821
:1061500005F0E8F903F031FF9048046090480470BE
:106160000548077005E05F48B5494860084605F0F6
:1061700011FA3DB0F0BD0000821D002090F1000832
:1061800008030020961C0020000400505503002046
:10619000981C0020F41C002070030020911D00209A
:1061A000921D002056030020A81700209CF1000833
:1061B000F8B505007B4C200080300090280006F0E8
:1061C0000BFA00990860280006F0E8FA76490860A2
:1061D000002601250178012937D1C178734F38781D
:1061E000884203D23970974803F00BFCE07B00280B
:1061F0002BD13878002828D001F0A0FE0098006844
:10620000C670914803F0FDFBE573012221000F31B8
:10621000002003F019FC00F0A3FA8C4805F082F985
:106220002000203005F07EF9894805F07BF901F067
:10623000E3FB00221021874806F07BF92948A0677C
:106240002000743005F0A6F9F1BD00980068C1780F
:10625000814803F0D6FB00980068C078012830D14F
:10626000A079012803D17A4805F05CF9A671207A5B
:10627000002826D125729A489A499B4A1278002A0A
:1062800010D1144BDA781D792D062D0C2A43792A6A
:106290000DDA964A637A012B02D01378012B06D1CE
:1062A000167005E0227B002A01D1257300E008006A
:1062B00060652000503005F06DF9616DAD4803F068
:1062C000A0FBF1BD34020020B4F100085A03002005
:1062D0004C0300203C030020D4160020C4F1000829
:1062E000851D002088130000CCF1000870B57F4D9B
:1062F0002C4C607A012802D02878012801D10C208A
:1063000000E00620618A491C6182002689B20429C6
:1063100023D12649097800291FD1974803F071FB42
:106320000020E17B002918D101F008FE934803F01A
:1063300068FB464805F0F6F82000203005F0F2F83A
:1063400001F05AFB002280214900424806F0F1F892
:106350008B48A0672000743014E0618A814210D31A
:1063600066722E70A671874803F04BFB66828648E2
:106370000078012808D1A67101F0E0FD01F05EFD72
:1063800070BD334805F006F970BD0000A803002079
:10639000301D0020AC1C0020A01C0020741D00201B
:1063A000971C002014020020701D00207E1D00207C
:1063B00080B500F0A5FF01BD80B501F03BF801BD3F
:1063C00072480078002800D0704770B5BEB0704C9D
:1063D0002088401C208080B2062829DA6D4D6E4E40
:1063E000287B1521484331303071000A70716B49A8
:1063F00008A8D32203F052FB290004A80D2203F0C1
:106400004DFB310082B06846172203F047FB0CBCFD
:106410000021112003F0D2FD162061490870614867
:106420002188032901DBA949416005F0B3F803E0A5
:1064300000202080FFF744FA3EB070BD000000004D
:1064400064030020DCF10008F4F10008241D0020A2
:106450003C1D00200004005004F20008F8B50024A0
:10646000A027FF05504D0126012817D1A87D01283E
:1064700035D10121380006F056F8002805D1286AE8
:1064800006432E62B4480470F1BD0121380006F0C5
:106490004AF8012823D1286A02211EE0402816D19B
:1064A0004021380006F03FF8002803D1EE720022A8
:1064B000310208E04021380006F035F801280ED1FD
:1064C000EC7201221102394806F033F8F1BD2028A0
:1064D00005D1A1480470286A202101432962F1BD39
:1064E00030750000B80B00008F1D002057030020FE
:1064F000F8B52D4C617AA44D7548092924DA027843
:10650000002A21D1002901D100F02AF9714802782E
:10651000A020C00580210902022A01D0002A05D14D
:10652000EA7B012A04D11021204801E0012A01D18F
:1065300006F005F8607A401C6072C8206649486021
:10654000084605F027F8F1BD00266672012707709E
:106550006248007800F0C4F8E07B012809D1E673B6
:106560005D4804F0DFFF7D480660AF72874803F0A6
:1065700048FAF1BD14F2000820F2000834F20008D5
:106580008813000044F20008871D002055030020F6
:10659000161900203C03002070030020D4160020B0
:1065A000560300200C1D00200803002000040050AA
:1065B000F8B500F0D5F80127754D764C4021A020A4
:1065C000C00505F0B0FF002803D1E77200223902B0
:1065D00007E0E07A012807D1207B012804D10022BE
:1065E0001021280005F0A5FF6B4801786B48394A57
:1065F0006B4B00251E78012E0BD11D70A37C0B4325
:1066000007D115700570674B1B78012B01D1664BC4
:106610001D70664E664B1B7819430DD111780A0028
:1066200002D14178827803E0012905D1C17802794D
:106630001206120C1143318002F02CFC5D484078A8
:10664000002801D05C48057031885C4803F0D9F916
:10665000424801685A4803F0D4F95A4801785A4828
:1066600003F0CFF9616A594803F0CBF9504801783B
:10667000574803F0C6F957480178574803F0C1F965
:10668000564803F0BEF91520554908703248077086
:1066900054480570544805703B48458153490D7076
:1066A0000580C57152490D7052490D7052490D70E7
:1066B00052490D7052490D708573257551490D7001
:1066C00051490D7005742576F1BD000010270000BA
:1066D000831D002054030020241D0020C00300203F
:1066E00070B500F03DF82B4B00259D72264C474AB3
:1066F00047480078002806D14648506001F064F908
:106700002000203024E0A020C005802109025E7C0A
:10671000012E07D15D74002205F00BFFFA20C000A6
:10672000E06313E01E7A012E14D11D72C825AD005E
:106730005560394A1278012A01D1002203E0002A6B
:1067400003D11021124805F0F4FEE5632000383033
:1067500004F020FF70BD0000821D0020741D002089
:1067600010B50B4C01221102200005F0E2FE0122BF
:106770001021200005F0DDFE0122D103A020C0057C
:1067800005F0D7FE10BD00001402002054F20008EE
:1067900000040050080300208F1D00203C0300204F
:1067A0008A1D00205B0300207D1D00206003002067
:1067B0007C1D0020F81B00200E1C002064F2000845
:1067C00074F200088E1D002088F2000898F200087C
:1067D000A4F200088D1D0020BCF20008D4F20008CD
:1067E00056030020941C0020961C0020861D0020CB
:1067F000931D0020901D0020941D0020841D00206A
:10680000991C0020921D0020851D0020241D0020C1
:1068100055030020B80B000054030020F0B5BDB0B4
:106820000024774EB07A012811D1B47275480078EF
:1068300075490978012906D174490978084306D1B8
:1068400001F03CFB03E0084301D101F0F7FA704886
:10685000007801285FD16F48007801285BD16E492C
:106860000878002857D1012008706C4D6C49162219
:106870006C4B1F78012F17D11C706B4B18700A706E
:10688000192028716C71694803F0BBF8290084B0A5
:106890006846172203F002F90FBC02F027FF644894
:1068A000B0673000743034E0624E9C4B1B78012B93
:1068B00003D09B4B1F7D012F2ED10A70D120687011
:1068C000307B1521484331302871000A68712979DD
:1068D00068790006000C01439A4803F092F89A493F
:1068E00008A8D32203F0DAF8310004A80D2203F03F
:1068F000D5F8290082B06846172203F0CFF80CBC07
:106900000021112003F05AFB90490C70904804704C
:10691000904804F03FFE70E08F4F3F78012F31D157
:106920000A708E4FB179012900D1F8708C48007837
:1069300003F0F6FD344800783871D3206870F87C95
:10694000152148432D302871000A6871854907A830
:10695000D32203F0A3F8390002A8142203F09EF812
:10696000290084B06846172203F098F80FBC02F0A3
:106970002DFC297968790006000C01437A4803F060
:1069800040F82EE0002F33D178480078012803D159
:10699000987C002800D134700A70307B1521484360
:1069A00031302871000A6871297968790006000C75
:1069B00001436F4803F025F8634908A8D32203F088
:1069C0006DF8310004A80D2203F068F8290082B0A8
:1069D0006846172203F062F80CBC0021112003F076
:1069E000EDFA5A490C705A490C705A4804F0D2FD1D
:1069F00060480178022900D104703DB0F0BD00006C
:106A000014020020861D002054030020871D002052
:106A1000961C002055030020941C002070030020C9
:106A2000560300208B1D00208C1D0020E8F200087A
:106A3000307500003C03002044480178012900D152
:106A4000704710B542490A78132A63DA521C0A705B
:106A500049480178494C032906D1032003F0AEFAD6
:106A600047486060474816E0082906D1082003F02F
:106A7000A5FA4548606045480DE00E2901D10E2079
:106A800029E0042901D1042025E0062906D10620A9
:106A900003F094FA3EA002F0B4FF37E00A2901D1D6
:106AA0000A2018E0102901D1102014E00B2901D18F
:106AB0000B2010E03748384B182903D12022190049
:106AC000A0311BE0172903D11C221900843115E0E5
:106AD000052903D1052003F071FA17E01C2902D122
:106AE00020222E490AE01E2903D123221900D03189
:106AF00004E01D2905D10E221900C03104F005F86B
:106B000004E0202902D1002003F0E3F8200004F083
:106B100041FD10BD002202700A7010BD7C1D0020D6
:106B20000803002080B50020094908700749087053
:106B3000032003F043FA114804F02CFD03200E4912
:106B4000087001BDF0F20008D416002058030020A0
:106B500059030020AC1C00208F1D0020F41C0020D5
:106B60000D1C0020A81700209CF100088A1D0020A1
:106B700004F300084C03002056030020A803002063
:106B80007017000014F30008B80B000020F3000891
:106B90004E524200181900201402002088030020E1
:106BA000F0B5BDB00700B0A002F02BFFAF4E01253D
:106BB00000243078032801D0082825D10622C249B4
:106BC000380004F019FC00286AD1C0480570C0499B
:106BD0000C70307803280DD1BE4804F0A3FCBE48E9
:106BE00002F00FFF1D2030700E22BC49BC4803F09C
:106BF0008CFFE9E0082853D1B64804F093FC092043
:106C000003F0DCF9092010E21D2816D10622AE4956
:106C1000380004F0F1FB002842D1AD480470AD48C3
:106C200004F080FCAF4802F0ECFE1E2030702322FE
:106C3000AD49AB4803F069FFFDE01E2817D10622DD
:106C4000A149380004F0D8FB002829D1A14804F05C
:106C500069FC9F490C709D480470042003F0AEF954
:106C6000042030709B4804F095FCBB486DE104287B
:106C70002BD10822B949380004F0BEFB00280FD1FF
:106C80009248057092490C70924804F04BFCB4A1F4
:106C90003800083005F06CFE050005F091FE0F2865
:106CA00000D064E20F222900C74805F0F2FE8849AF
:106CB0000C7086480470052003F080F905203070C0
:106CC000844804F067FCC1483FE1052814D106223E
:106CD0007D49380004F090FB0028E1D17C490C701C
:106CE0007A480470062003F069F90620307079486C
:106CF00004F050FCC44828E106280FD10822CC49F2
:106D0000380004F079FB0028CAD107203070C94848
:106D100002F077FE00F0F7FAC74851E1072814D1D6
:106D2000CD49380005F038FF002800D11FE20820C7
:106D3000307066490C7066480470C8486549486000
:106D4000084604F027FCC648FFE0092816D10622B1
:106D50005D49380004F050FB002872D10B203070E0
:106D600003F02CF959490C7059480470C548594929
:106D70004860084604F00EFCC348E6E00B2813D137
:106D800006225149380004F037FB002859D14F48FA
:106D900005704F4804704F4804F0C4FB0C2030705D
:106DA00003F00CF9B948D0E00C2816D10622464968
:106DB000380004F021FB002843D10E20307003F08E
:106DC000FDF8B34802F01DFE40490C7040480470C5
:106DD000A248404948600846F2E00E2832D1C64831
:106DE00002F00FFEC5A50122290038000C3004F086
:106DF00003FB002807D0012229003800183004F0D6
:106E0000FBFA00281DD1BE4802F0FBFD314804F01A
:106E100089FB2E490C702E48047002F0D5FFB94949
:106E20000870012809D1B84802F0EBFD202030702D
:106E3000002002F04EFF2748C2E00F20307003F020
:106E4000BDF894E1202813D106221F49380004F030
:106E5000D3FA002801D1C74877E0C7484288C7491C
:106E6000C74803F052FEF2E0520D0A00560300201C
:106E70000F2877D115490D7015490C70154804F08D
:106E800051FB380000F0B4F9BE4802F0BAFD1520FD
:106E90003070BD4804F046FBBC494C74BC490D70D1
:106EA000BA48C07B002821D1BA4802F0AAFD35704B
:106EB000B9490C70B6490C70B848047003F07DF8FD
:106EC00000F0FCFF53E100BF60F100085803002010
:106ED00059030020A80300202CF30008D40200204E
:106EE000181900203CF30008E4020020AC480078A8
:106EF00001002DD116203070AA48AB49097B15221C
:106F0000514331310171090A4171A84908A8D322BE
:106F100002F0C4FDA44904A80D2202F0BFFDA1495E
:106F200082B06846172202F0B9FD0CBC0021112086
:106F300003F044F8FA2000019D494860084604F037
:106F400029FB9C4804F026FB9B4802F05AFD0EE109
:106F50000128FCD1974833E04CF3000854F30008B3
:106F60000D0A0000162869D1834842888349844865
:106F700003F0CBFD13229149380004F03DFA0028BC
:106F800006D009228E49380004F036FA00281FD1B5
:106F900035707F490C70804804708A4802F031FDDA
:106FA000894804F0BFFA894804F0BCFA884804F024
:106FB000B9FA804804F0B6FA734804F0B3FA854889
:106FC00004F0E8FAD3E000BF7603002060F3000885
:106FD00006228149380004F00FFA0028F2D17048E7
:106FE0000078002812D1724804F09CFA774804F027
:106FF00099FA7A48017801290BD10470BC490D70C7
:107000006548057005E000BF68F300086F4804F0AC
:1070100089FABA480078012806D171490C70714884
:1070200004706B4804F07EFA122030709FE000BFBD
:1070300070F300087CF3000840020020122811D1F0
:10704000694802F0DEFC69480078002802D1380067
:1070500003F0FAFA8BE000BF88F30008B80B0000D9
:1070600090F300081A2815D1380000F0C1F8012863
:1070700001D1A04800E0A04802F0C3FC1620307007
:10708000434873E08813000098F30008A0F3000859
:10709000ACF300081C286AD106224F49380004F0DE
:1070A000ABF9002863D1B4490D70B4490C7046485F
:1070B00004F038FA15203070454804F033FA43489C
:1070C00004F030FA3B4804F02DFA3F4804F02AFA65
:1070D0002D4804F027FA05F074FA9C48007800283F
:1070E00014D131490C73084685720021C1722D48B4
:1070F0003131017144710DE0BCF300082C00000037
:10710000C8F300089A1C0020D0F300089C48C474FF
:10711000457484749B490C7002F04FFFAA4874496F
:107120000978012918D11C4A15701D4A1570704A3A
:107130001470AF49714A1278002A03D10D7087226A
:1071400052010260AB4A1570174A557108781070E9
:10715000B14802F056FC00E0046068480470AF4893
:107160000178032901DA491C0170AD4805703DB072
:10717000F0BD00BFE4F30008580800205C080020C0
:10718000F8190020F0F30008301D00201402002040
:10719000961C0020FCF30008941C0020861D002093
:1071A00055030020700300203C030020D41600206B
:1071B0000C1D0020A01C002008F4000814F4000896
:1071C00028F4000834F40008A8030020AC1C0020B8
:1071D000640300207C02002060F10008951C002060
:1071E000911D00205A03002044F400088C1D00204B
:1071F000F8B5040002228BA104F0FEF8002875D136
:10720000002588A1A01C05F0B3FB0400864E18E001
:1072100005228649200004F0EFF800280CD10A224C
:107220000021601D05F065FD80B2010A00020843DF
:107230007071000AB0713D007AA1002005F098FB42
:1072400004004ED06F1C0D227949200004F0D4F8C0
:10725000002810D10A22002120000D3005F049FD40
:107260000A2104F04BFF80B2010A0002084330708B
:10727000000A7070DFE708228D49200004F0BCF896
:10728000002809D10A2200212000083005F031FD34
:10729000F11D05F05BFDCEE704228649200004F0D5
:1072A000ABF8002806D10A220021201D05F021FD9F
:1072B0003071C0E704228649200004F09DF80028C0
:1072C000A6D10A220021201D05F013FD0A2104F099
:1072D00015FF80B2010A00020843B070000AF07086
:1072E000A9E7EDB2052D01D10120F2BD0020F2BDCC
:1072F000981C002050F400085CF40008971C002043
:1073000010B5744C2CE070B5724E34005834207CAB
:10731000012801D1022070BD01252574300003F041
:10732000A9FC30680168102291430160E0680068A0
:107330000168A943016000202080E1680968486075
:107340000A6815430D60207470BD00008F1D002079
:1073500010B5614C606E0068016801220A4302604A
:107360005E4A5F49200003F012FC20680168102289
:107370000A43026010BD000058030020590300209A
:10738000F41C0020A817002038B5534D2C005834A9
:10739000207C012801D1022032BD01202074280068
:1073A00003F068FC28680168102291430160E068DE
:1073B0000068016801229143016000202080E1689B
:1073C00009684860207432BD741D0020006841497E
:1073D0000968884202D10120904908707047000076
:1073E00000683C490968884200D100BF704700002E
:1073F000540300205703002080B5FFF7B1F90122A4
:10740000D102A020C00505F094F800220121844893
:1074100005F08FF801BD00006CF400088D1D002000
:10742000821D00200D0A0000B4030020A8F400080B
:107430007CF4000838B52B480078002802D1FEF70C
:107440003FFA31BD774804F06DF8774804F06AF8E8
:10745000764804F067F8764804F064F8002475492B
:107460000C7075490C7001257448007801280AD108
:1074700073480178002904D1057072480078724978
:107480000870022000E0002070494872704802F045
:10749000B8FA70480178032901DA491C01706E4975
:1074A0000C7002F08AFD6D4804606D48057031BDB6
:1074B0008CF4000898F4000810B56A4C200005F020
:1074C000C5FC0022A0210902200005F049FC10BDE6
:1074D000A0F4000818190020881900204C040000AE
:1074E0005C080020550300205F48016804220A431D
:1074F00002605E480078012800D07047F8B5574810
:107500000068401C554908600024594D4F4F012622
:1075100058480078012805D14A490E70052056497F
:10752000088044E05548007801001AD145480078A9
:10753000010002D17878B9780DE0012833D1286BA9
:10754000401CB4214900884202D300204C4A5672A4
:107550002863F87839790906090C084346490880F8
:1075600021E001281FD135480078012807D1A87EE5
:10757000002804D1AE764348007802F0D1FF286B92
:1075800030490978012907D1401CB42149008842BB
:1075900002D300203A4A567228633B4800780028FC
:1075A00001D100F0E5FC34480088002822D02B48A7
:1075B000006803281ED32948046034480178344801
:1075C000007808430ED11D49097801290AD12949BB
:1075D0000978012906D1274A14702E751A490978AD
:1075E000184A1170BC712B4AD470002812D124485B
:1075F00086720FE025480078254909780143E87C28
:10760000084309D1A88B401CA88380B25A2803DB09
:10761000AC83EE7412480470F1BD0000891D002097
:1076200000040050A8030020AC1C002064030020CC
:10763000301D0020911D00205A0300205B03002014
:107640005C030020540300207D1D00203C0300202B
:10765000B0F400088D1D0020971C0020741D002030
:10766000821D0020B81C002000700040550300203F
:10767000080300207C1D0020600300208F1D0020D7
:10768000140200200D1C0020931D0020871D0020E7
:10769000861D0020F41C0020F8B50124C74DC84FFA
:1076A000386A204026D0AC73687801281FD06C70EF
:1076B0002879002808D12C71AC702800143003F010
:1076C00069FFC84802F09DF9287901280FD168792F
:1076D00000280CD16C71C44E0821300005F064FC08
:1076E0000120C04331680861300005F033FC386A7E
:1076F0006040386200262020385C80070AD528794F
:10770000012803D1B94802F07CF9AE70386A022131
:10771000414039622020385C400705D503F07CFFEA
:10772000386A0421414039622020385C000700D4C7
:1077300090E06878012800D087E00121A020C005F2
:1077400004F0F1FE002819D12878401C2870A849BF
:107750000978012910D1297901290DD1E979002968
:107760000AD1C0B2012807D1F87B002804D1EC71FE
:107770002800443003F00EFF2878052864D1E87B08
:10778000002806D1A14802F03CF900F057FBA048C0
:1077900058E097480078012856D19E480078002884
:1077A00052D12800143003F0BDFE2E719A480078A3
:1077B000012809D1994803F0B5FE99490E709948FE
:1077C00002F01FF900F0BAFB9748007801281BD19E
:1077D000964803F0A7FE964803F0A4FE954803F0F0
:1077E000A1FE954803F09EFE944803F09BFE754869
:1077F00002F007F992490C7089490E7091490E7098
:1078000089490E7002F0D9FB2E70FC73794800781C
:10781000010002D177490C7009E0012807D17549B0
:107820000E7089490E7089490E738C72CE72714840
:1078300000788649087086490E707E72C8207449A7
:107840004860084603F0A6FE6E706E71386A082123
:10785000414039622020385CC00605D5FEF748FE5D
:10786000386A1021414039622020385C800600D4FB
:10787000A2E078480178032901DB6C7300E06E73A5
:10788000067069480078644909780143A87B084379
:107890007149724A1278012A4BD1714A1278002A32
:1078A00044D1704802F0ADF86D490C706E48007814
:1078B00000287DD058480078012809D1574803F0A6
:1078C00031FE57490E70694802F09BF800F036FB14
:1078D0005548007801281BD1544803F023FE544832
:1078E00003F020FE534803F01DFE534803F01AFE38
:1078F000524803F017FE874802F083F850490C7095
:1079000047490E704F490E7047490E7002F055FB03
:10791000814802F076F8BE764C494C7235490C70BD
:10792000B448066005207D4908803CE0474B5C7206
:107930003BE06A7B012A38D16E73974802F061F808
:1079400035480078012809D1344803F0EBFD34496B
:107950000E70924802F055F800F0F0FA32480078C4
:1079600001281BD1314803F0DDFD314803F0DAFD79
:10797000304803F0D7FD304803F0D4FD2F4803F022
:10798000D1FD874802F03DF82D490C7024490E7056
:107990002C490E7024490E7002F00FFB964802F03D
:1079A00030F894480660AC7202E0002800D10C70F8
:1079B000386A2021414039620020F2BD14020020C3
:1079C00008030020E4F4000810B5AE4C08212000A4
:1079D00005F0EAFA0120C04321680861200005F0A3
:1079E000B9FA10BDBCF400084C1B0020CCF4000810
:1079F000550300205403002080B5A2480121C9434B
:107A00000268116105F0B0FA01BD0000D4F400086D
:107A1000241D00208F1D0020871D00203C1D0020FC
:107A2000941C0020DCF40008861D0020A803002020
:107A3000301D0020AC1C002064030020A01C00208E
:107A400056030020961C0020D41600203C03002082
:107A5000831D00208D1D0020821D00205B0300205F
:107A60007C1D0020ECF400085C030020F4F4000806
:107A7000F8B5FEF775FE844CE07A01280DD1207B25
:107A8000010003D100228021490003E0012804D134
:107A9000002210217D4804F04CFD7D4F7D4D0020DB
:107AA0000126217C012906D1207452490860AE725A
:107AB000387079482AE079490A7879490978114378
:107AC000784A1278152A1ADAA27B002A0FD1764852
:107AD00001F097FF002231026C4804F02AFDA07BE0
:107AE000401CA0732800383003F054FDF1BDA07392
:107AF00000290DD16D4801F084FF3E70F1BD0029D1
:107B000003D16B4801F07DFF3E70C34801F079FF5F
:107B1000F1BD0000FCF4000804F50008600300203B
:107B200070B501255848017E002902D105766148CB
:107B30001EE00026067660480078564C01001DD1F4
:107B4000E07B002817D15D4801F05BFF5C4803F043
:107B5000E9FC2000203003F0E5FCFFF74DFF002298
:107B600029024A4804F0E5FC9048A06720007430E0
:107B700003F010FD70BDFDF7A3FE70BD012809D113
:107B80008B4801F03EFF657402F017FA1948066051
:107B90003F48057070BD00000CF500081CF500089A
:107BA00024F5000880B5FDF78BFE01BD38B5394CD2
:107BB0000025E5717FA001F024FFA078002817D1EF
:107BC0002178934801F01DFF2078012810D191A061
:107BD00001F017FF25702000143003F0A3FC25717D
:107BE0000120294908723648C821416003F0D2FCBF
:107BF00031BD0000741D00202CF5000838B5254C5F
:107C000025008035286804F0C3FC0020286020721D
:107C1000616D824A914200D16072814801F0F1FEAB
:107C200000F08CF97F488049097800290ED17F49FE
:107C300009787F4A117315235943491C9172090A27
:107C4000D172117B1522514331310BE0794909780A
:107C5000B54AD17415234B4353741B0A93741522F0
:107C600051432D310171090A417100F0E7F831BD2E
:107C700080B5012070490870B74801F0C2FEFFF7D7
:107C800067FB01BD841B0020080300200004005096
:107C9000821D0020140200203CF50008861D0020F3
:107CA000871D0020C003002044F5000850F500089F
:107CB0005CF50008301D00205503002074F5000815
:107CC000241D0020F8B500260125784CE07C012811
:107CD0003ED1E662764F380005F0B8FBFA21380055
:107CE00005F0E2FB380005F0A8FC800503D538005C
:107CF00005F04EFCA062A06AC82109014843000BB0
:107D0000A062A8214843642104F0FBF901006162EC
:107D1000684801F076FE0023E27A617D606A00F037
:107D2000B1FB654908704249C8717F4908746075A4
:107D300001007E4801F065FEE6747D4800787D49CB
:107D40000978014304D17C4801F05BFEA5490D7020
:107D5000606AC8210901884226D2804F607B0128D1
:107D600013D1744800787249097801431DD17C48C9
:107D700001F047FE7B490E703D7066737A4885724C
:107D80007A490E7097480670F1BD874800783978B7
:107D900001430AD185A001F034FEE574667691486E
:107DA0000570FDF7DDFFF1BD6576F1BD88130000BC
:107DB00084F500082E2E2E0010B57D4C2078C107CA
:107DC00024D5FE21014021705A48007801280BD0AB
:107DD00057480078012819D1FFF795FA201DFEF7C2
:107DE000DFFEFFF78DFA10BD13480178012906D197
:107DF000002101707C49201D05F092FC10BDFFF7A9
:107E0000C3FA201DFEF7D4F9FFF7A2FA10BD000057
:107E100094F500082100000068F5000830750000A6
:107E2000A8F50008700300208F1D0020D416002044
:107E30003C030020A8170020811D002010B5FFF78B
:107E40005FFA01203A49087068480078002805D197
:107E500002F0ACF8FEF766FE654821E0654869214E
:107E6000415C212905D1202169228154624801F019
:107E7000C8FD3D4C607C012805D1604801F0C1FD82
:107E8000200068300CE058495D4805F049FC1A2094
:107E90005C4908700F2002F091F85B485B49416033
:107EA00003F078FBD04801F0ACFD10BD08030020C2
:107EB000681A002098F20008C003002070B5142151
:107EC000534805F02DFC04F059FB0120194C20709B
:107ED000254D00266E82A8714B4803F023FB4D49C7
:107EE0000E704D490E704D4801F08BFD4C480078E6
:107EF000032807DA28005C3003F04CFB494803F004
:107F000049FB70BD6E7248490E70AE71BB4801F0FE
:107F100078FD6E822078012804D1AE7100F00EF851
:107F2000FFF78CFF70BD0000F41C0020C8F50008AE
:107F3000861D0020871D0020D4F5000880B5FFF7BE
:107F400023FA00208849087027492D4805F0E8FBEE
:107F5000AB4801F056FD01BDB8F500088B1D0020AF
:107F6000E0F500085403002014020020941C0020B7
:107F700010B582B07D48807800F0C2FF00900024E8
:107F800068464078012801D198490C70684600780D
:107F9000012808D19648007802F0C2FA9948046096
:107FA00001201049087013BD8C1D0020534C0000A7
:107FB0005808002080B500F039F801BD80B50020D8
:107FC0009149087091490870032001F0F7FF90482B
:107FD00003F0E0FA03200B490870054803F0DAFAD1
:107FE00001BD0000821D00204C040000550300204C
:107FF000301D002018190020E8F50008F8F50008E9
:108000005C08002056030020A01C0020C8AF000020
:10801000441C0020811D00207E1D00200CF600085D
:108020008D1D00203C1D002057030020F0B5BDB081
:108030000120784A107078490978012903D07749DE
:10804000097801297AD11621754A11706F4909788A
:10805000002973D173490A786B4D2E787249734C9D
:10806000734B052E6BDA761C2E70724E724D734F69
:108070003F78012F02D01B7D012B0FD1D1206870DA
:10808000207B1521484331302871000A6871297915
:1080900068790006000C0143694835E0012A2BD1BC
:1080A000684EA279012A00D1F07008783071D3208F
:1080B0006870F07C152148432D302871000A6871E2
:1080C000614907A8D32201F0E9FC310002A814227B
:1080D00001F0E4FC290084B06846172201F0DEFCC0
:1080E0000FBC01F073F8297968790006000C014390
:1080F000564801F086FC1EE0002A1CD129796879D7
:108100000006000C0143524801F07BFC310008A836
:10811000D32201F0C3FC210004A80D2201F0BEFC13
:10812000290082B06846172201F0B8FC0CBC00217F
:10813000112001F043FF474803F02CFA11E0002022
:108140002870454D2E78012E0BD128709B7C13434F
:1081500007D10870207041490978012901D14049AF
:1081600008703DB0F0BD0000871D0020F41B00200A
:10817000F0B587B002203B490A6802430A600968EB
:108180000840059005988024E400374F0022210024
:10819000380004F0CEF9354E01223100380004F0E9
:1081A000C8F90122C021380004F0C3F90094012469
:1081B00001940025029503956946380004F070F893
:1081C00000960194029403956946380004F068F81B
:1081D000C02000900195029403956946380004F090
:1081E0005FF807B0F0BD000000F600088E1D00200B
:1081F0000D1C002080B5FDF763FB01BD18F60008DB
:1082000028F60008741D00205903002058030020A0
:10821000A8030020861D002055030020951C002087
:10822000560300208F1D0020540300203C03002033
:1082300008030020D4160020700300207C1D0020BD
:10824000F0F20008F41C0020A817002034F6000803
:108250004CF60008AC1C00208A1D00205B030020A7
:108260007D1D00202C100240000400500208000078
:10827000FEE7FEE780B50648016840220A43026037
:10828000002005F051FA05F063FA002002BD00005D
:10829000002002400248016802220A43026070473F
:1082A00010E000E005480168020D0A4302607047D3
:1082B00002480168420D0A430260704700700040A6
:1082C000F0B587B00124334801682143016001689B
:1082D000214005910599022102680A430260006865
:1082E000014005910598A027FF0500228121090181
:1082F000380004F01EF9284E00222849300004F00E
:1083000018F9882000020090019400250295039539
:108310006946380003F0C4FFFF201230009001943A
:10832000029503956946300003F0BAFF26200090BD
:10833000019502956946300003F0B2FF20200090BD
:108340001748019002956946300003F0A9FF009498
:10835000144E019602946946380003F0A1FF4020B4
:108360000090019602956946380003F099FF0022BB
:108370000021052003F036FF052003F037FF00221F
:108380000021072003F02EFF072003F02FFF07B086
:10839000F0BD00BF2C10024000040050018100001D
:1083A000000021100000311080B501200C490A683E
:1083B00002430A60096808400090009800220021EA
:1083C0000A2003F00FFF0A2003F010FF0022002113
:1083D0000B2003F007FF0B2003F008FF01BD00BFD7
:1083E0003010024030B583B0394C3A48206000204C
:1083F0002064902189036160A0600321E163012171
:108400002161E06020626062E062FF21C231A1620E
:108410002063042161616063A061A063E06100BF2B
:1084200031A5200004F040FF002803D0532128008C
:10843000FFF71EFF28480090000C019069462000BD
:1084400005F0A9F8002803D05C212800FFF710FFF1
:1084500037BD00681F49884200D0704700B585B01D
:108460001E480168420D0A4302601020009003205C
:108470000190002002906946A020C00503F010FF83
:1084800005B000BD30B5010064200022144B1D88EA
:108490008D421BD35D8A8D4201D3002030BD540034
:1084A0001C192588A9420ED264888C420BD2521C1A
:1084B0000A235A43801AC0B20A2807D1094A9142B6
:1084C00004D2052030BD521C0A2AE8DB30BD000072
:1084D000681A0020002401401000001034100240EF
:1084E00000000020DE0D0000443A5C54454C55531A
:1084F0005C4149535F50524F4752414D5C4C6F6352
:1085000061746F725F4C30353154385F4149535F4D
:10851000616C61726D5F4149535F4E575F4F5441CB
:10852000325F53454E534F525F545C5372635C61EC
:1085300064632E630000000080B5AB48AB49016066
:1085400096218901416000218160C16001610C2296
:10855000426181610162416202F03EFA002804D06A
:108560004D2100BFA4A0FFF783FE01BD80B5A04848
:10857000D649016096218901416000218160C16076
:1085800001610C2242618161C1610162416202F0BC
:1085900023FA002803D0622197A0FFF769FE01BDEE
:1085A00080B59448CA490160962189014160002143
:1085B0008160C16001610C2242618161C16101621F
:1085C000416202F009FA002803D077218AA0FFF760
:1085D0004FFE01BDF0B587B006003268BD480024EB
:1085E000BD4D0221814B9A424AD142684B0413434C
:1085F0004360C020000101900291012003900320FC
:1086000004900420059001A9B44803F049FEB44841
:108610001430286005276F60AC60EC608020286112
:108620006C61AC61EC612C62280005F0B1F80028A7
:1086300003D0A02170A0FFF71BFE7566AE62A848AC
:1086400028646F641020A864EC64802028656C6541
:10865000AC65EC652C662800403005F099F80028E0
:1086600003D0B12164A0FFF703FE2800403030663C
:10867000AE66002200211D2003F0B4FD1D20AEE0F7
:108680002F008437914B9A4252D102684B03134317
:108690000360C020C00001900291012003900320DC
:1086A00004900420059001A9A020C00503F0F8FD66
:1086B0002800803000908A483C30009908600320F0
:1086C00038607C60BC608020F8603C617C61BC618B
:1086D000FC61009805F05CF8002804D0DD2100BFA3
:1086E00045A0FFF7C5FD009870667E627C48283083
:1086F000F8630320386410207864BC648020F86438
:108700003C657C65BC65FC652C00C034200005F030
:108710003FF8002803D0EE2137A0FFF7A9FD34660B
:108720007E66002200211B2003F05CFD1B2056E02A
:10873000674B9A4255D142680B04134343600C20A7
:1087400001900291012003900320049004200590E1
:1087500001A9A020C00503F0A3FD61485030F867CF
:10876000822040002F18042038607C60BC6080208C
:10877000F8603C617C61BC61FC618030281800902D
:1087800005F006F8002804D08D2149001AA0FFF753
:108790006FFD009870667E6251486430F863042073
:1087A000386410207864BC648020F8643C657C6583
:1087B000BC65FC65C0302C18200004F0E9FF0028DF
:1087C00005D0FF212C3100BF0BA0FFF751FD34660F
:1087D0007E66002200211C2003F004FD1C2003F013
:1087E00005FD07B0F0BD000018190020004800404A
:1087F00088190020F8190020443A5C54454C555320
:108800005C4149535F50524F4752414D5C4C6F633E
:1088100061746F725F4C30353154385F4149535F3A
:10882000616C61726D5F4149535F4E575F4F5441B8
:10883000325F53454E534F525F545C5372635C75C5
:10884000736172742E63000010B504002268214920
:108850002448824210D14868514A02404A60C021EF
:1088600009011E4803F0DFFD606E05F007F8206E79
:1088700005F004F81D2025E0A020C005134B9A4206
:108880000FD10A68474B13400B60C021C90003F0A9
:10889000CAFD606E04F0F2FF206E04F0EFFF1B20B3
:1088A00010E00B4B9A420FD14A683F4B13404B608C
:1088B0000C2103F0B8FD606E04F0E0FF206E04F0C0
:1088C000DDFF1C2003F099FC10BD000000380140C2
:1088D00000440040341002402814002000040050DE
:1088E0001C00024000480040F1B530480068009983
:1088F000096801272E4C2F4E1025814214D1C969D9
:10890000294011D00562294802F088F92748406EB5
:1089100000684068301A6080207838432070320048
:10892000211D224802F033F92348006800990968A4
:10893000814214D1C969294011D005621E4802F054
:108940006DF91D48406E00684068301A60802078DC
:10895000384320703200211D174802F018F91748DB
:10896000006800990968814218D1C969294015D069
:108970000562124802F052F91048406E00684068E3
:108980008A21C9006118301A4880087807430F709F
:1089900032000B482118094802F0F9F8F1BD000037
:1089A000FFFFFBFFFFBFFFFFFFFFFDFF18190020C8
:1089B000580800204C04000088190020F8190020F5
:1089C0005404000070B586B0724C8021C905216046
:1089D000714961600025A560401EE060256100BF0F
:1089E00074A6200004F096FA002803D0402130003D
:1089F000FFF73EFC80204001029002A9200004F015
:108A000082FB002803D046213000FFF731FC00959F
:108A100001956946200005F019FA002803D04D2180
:108A20003000FFF725FC06B070BD000070B586B0C1
:108A30005A4C5B482060584860600025A56095202E
:108A4000E06025615BA6200004F064FA002803D0F2
:108A50005E213000FFF70CFC80204001029002A94B
:108A6000200004F050FB002803D064213000FFF701
:108A7000FFFB009501956946200005F0E7F9002805
:108A800003D06B213000FFF7F3FB06B070BD000090
:108A900070B586B0434C444820603F486060002574
:108AA000A5604248E060256142A6200004F032FA49
:108AB000002803D07C213000FFF7DAFB8020400142
:108AC000029002A9200004F01EFB002803D082219E
:108AD0003000FFF7CDFB009501956946200005F0B9
:108AE000B5F9002803D089213000FFF7C1FB06B09B
:108AF00070BD80B501682E488022D20591420AD10E
:108B0000416801220A434260002200210F2003F045
:108B100069FB0F201AE0224A91420AD1016804221F
:108B20000A43026000220021142003F05BFB1420A2
:108B30000CE01D4A91420BD1016820220A430260D9
:108B400000220021162003F04DFB162003F04EFBFF
:108B500001BD80B5016816488022D205914205D139
:108B600041680122914341600F2010E00C4A91427C
:108B700005D10168042291430160142007E00A4AEC
:108B8000914206D10168202291430160162003F032
:108B900034FB01BD141B00207F3E00004C1B002055
:108BA00000080140841B002000140140B70B0000A6
:108BB00034100240443A5C54454C55535C4149538F
:108BC0005F50524F4752414D5C4C6F6361746F72FE
:108BD0005F4C30353154385F4149535F616C61728D
:108BE0006D5F4149535F4E575F4F5441325F53456C
:108BF0004E534F525F545C5372635C74696D2E63C5
:108C00000000000080B5164816490160002141604F
:108C10007F228260FF22C260016141618161C16186
:108C200005F038F9002804D0432100BF0FA0FFF75A
:108C30001FFB01BD00680B49884200D0704780B51A
:108C4000094801688022D2020A4302600022002102
:108C5000022003F0C7FA022003F0C8FA01BD0000A9
:108C6000B81C00200028004050100240443A5C54D8
:108C7000454C55535C4149535F50524F4752414D0B
:108C80005C4C6F6361746F725F4C30353154385F88
:108C90004149535F616C61726D5F4149535F4E574B
:108CA0005F4F5441325F53454E534F525F545C53B4
:108CB00072635C7274632E630000000038B5294C47
:108CC00029482060294860600020A0600121E160FF
:108CD00020616061A061E061206200BF26A52000E4
:108CE00005F0AAFA002803D042212800FFF7C0FAB5
:108CF0000021200005F094FD002803D04921280020
:108D0000FFF7B6FA0021200005F0A6FD002803D0E9
:108D100050212800FFF7ACFA31BD006812498842A3
:108D200000D0704700B585B0C0200090122001909F
:108D30000120029003210391049069460C4803F03E
:108D4000AFFA0C480168802292030A4302600022B5
:108D50000021172003F046FA172003F047FA05B068
:108D600000BD0000C81A0020005400405B3D3000E8
:108D70000004005038100240443A5C54454C5553AE
:108D80005C4149535F50524F4752414D5C4C6F63B9
:108D900061746F725F4C30353154385F4149535FB5
:108DA000616C61726D5F4149535F4E575F4F544133
:108DB000325F53454E534F525F545C5372635C694C
:108DC00032632E6300000000F1B50F001600042985
:108DD00001D0062901D11F2E4ADA092901D00B2919
:108DE00001D11F2E44DA820704D0022906D11D2E9C
:108DF00004DB3DE0022901D11E2E39DA3A0037D0DA
:108E00000D2935DA310033D0202E31DA182B2FDA44
:108E100006983C282CDA07993C2929DA089D2A0073
:108E200026D0082D24DA834C23726072A1720020B0
:108E30006061A0610022210008317F4805F07AF8C6
:108E4000002801D00BA00EE025706770A670684660
:108E50000078E07000222100774805F010F9002822
:108E600004D000BF07A000F0CCFD01E00120F2BD5E
:108E70000020F2BD53657454696D654572726F725E
:108E80000D0A0000536574446174654572726F7217
:108E90000D0A000070B50125674E664C00222100C6
:108EA0000831300005F0C5F800280FD1002221005C
:108EB000300005F045F9002808D10025A37A627A30
:108EC000217A00BF04A000F09CFD02E007A000F0A2
:108ED00098FD280070BD0000253032643A253032FC
:108EE000643A253032640D0A000000006765745250
:108EF00054435F446174655F4552524F520D0A00FE
:108F0000F1B582B03FA0006800900125FFF7C2FFD5
:108F1000002873D1A24F474C0026207A002842D166
:108F2000607A00286CD1A07A010069D03C2867DA09
:108F3000A07F002864D19B480078012800D1A57744
:108F400099480078012804D1984802F0EBFAFEF71E
:108F5000F5FF3878012811D1954802F0E3FA9548D9
:108F600002F0E0FA944802F0DDFA944802F0DAFAEE
:108F7000934802F0D7FA3E7001F01FF869460D7071
:108F80006846007A401E03D0401E012809D90AE035
:108F9000607F401CE17903F0B1F86177607F69463A
:108FA00000E0A0788870207A0B2829D1607A3B28CD
:108FB00026D1A07A2838132822D2684645707A48EC
:108FC0000078012804D1794802F0ACFAFEF7B6FF28
:108FD0003878012814D1764802F0A4FA754802F0D6
:108FE000A1FA754802F09EFA744802F09BFA7448A0
:108FF00002F098FA3E7000F0E0FF01E06846C570AC
:109000000098FEBD0000000080B5FFF743FF6D48EB
:10901000017807290BD1017A172908D1417A3B2918
:1090200005D1807A1438282801D2012002BD002001
:1090300002BD0000F01B0020B81C0020F1B58AB072
:109040000B002F2030210591FF2100220292009277
:109050005B1EDBB2069307AC5B4B6370A170012310
:1090600023700025574B1E7AB54206D169005D7A00
:109070001E2D00DB491CC9B203E06D1CEDB2182D9A
:10908000F2DB0025CD4EB446069F78267743664630
:10909000F6190196019EAF007F19F619B778002FD7
:1090A0000AD07678B14207DA2F2E05DA0120029035
:1090B00030006E46357402E06D1C182DEADB019D10
:1090C0009600B618AD19AD782E0009D0A94207DA7E
:1090D000312D05DA012600960595D2B2039202E001
:1090E000521C182AEBDB1A7A3C2555435A7AAD18E4
:1090F000ADB2009A002A45D0019A039B9E00F31856
:10910000D6182F2916D02E2914D00599884211DAA5
:10911000029900290ED01E214843401B6070000AAE
:10912000A07001986946097C8A005118405C207043
:1091300000202BE0F07831790906090C0843F1781A
:1091400032791206120C1143000A0902014389B256
:10915000009177781E204743E81B009902F0CEFF6C
:10916000401C00994843401BC0196070000AA07061
:1091700030782070F07831790906090C0843E070E6
:10918000000A04E03C2060700020A070E0702071B4
:109190000A9807A9052200F081FC0BB0F0BD000081
:1091A000861D002055030020871D00203C1D002047
:1091B000A8030020301D0020AC1C00206403002008
:1091C000A01C0020F01B0020FFFF00000FB4FEB524
:1091D0007B4CE01D05F068FB119020790EA94872C8
:1091E0000EA821884171090A81716079A179090667
:1091F000090C08430EA948810EA86188C171090AAB
:10920000017208A88088010A0002084308A9888022
:109210000EA9487C8A7C1206120C1043523080B290
:109220000190487C8A7C1206120C10430EAA517CD5
:10923000937C1B061B0C1943000A0902014351745D
:10924000090A91740EA8C07C0028019802D1801EE2
:10925000042101E0401E02216A46517080B200F0F4
:10926000CBFF05000199490040181A306946088172
:10927000544EB71C207B3874E01D05F015FB3100FF
:109280001B3103F063FD01982538310023310204BE
:10929000120E000210430870000A48702079B87559
:1092A00049483070B12070700F224849F01C03F01B
:1092B000F0FB20883075000A70756079A179090685
:1092C000090C08437076000AB0766088B075000A11
:1092D000F0757B480078222170540320387079485B
:1092E0008079F877784842190F322521300003F051
:1092F000FDFB754829005931C9B24218172108A849
:1093000003F0F4FB8735ACB26F48021914210EA8A4
:1093100003F0ECFB2834A4B2002569460D7015E07B
:1093200013A81521694346183A001521701C03F053
:10933000DDFB2A34A4B21521701C03F08BFB6946B7
:1093400009780818694608706D1CEDB25E48071967
:109350000EA8C07C8542E3DB162108A8401C03F060
:1093600079FB6946097808186946087014210EA827
:1093700003F070FB694609780818694608703A00DE
:109380000121684603F0B2FBFA2069468870BA1CD6
:10939000012100A8801C03F0A9FB09224B494A487F
:1093A000A41CA4B20019801C03F073FB684600895A
:1093B00069464978421A92B28EE10000E01000201E
:1093C000B40300206C1C0020FAB1000076030020DA
:1093D000F1B584B000203E49087010223D49049840
:1093E00003F025FB10253B4948798A791206120CB7
:1093F00010430A46517993791B061B0C1943000A46
:10940000090201435171090A917133480078401CE7
:10941000694648701079C870D078887090780028B4
:1094200002D101202A490870002602AF00E0761C14
:109430002849C979F0B2884237D2062201A9049896
:10944000401903F0F4FAAD1DADB2002411E005227D
:1094500002A922488446684603797820434360463F
:10946000C018E4B2A3001B19C018783803F011FB30
:10947000641C01A98978E0B28842D8D20A2202A9E4
:109480000498401903F0D3FA0A35ADB2B878797868
:10949000814208D2302906DA010004D0312802DAEC
:1094A00038780228D3DB002004E00948007801283E
:1094B00000D0AA2069460870009805B0F0BD0000F1
:1094C000550300203C030020E00C0020BC9700085E
:1094D000091D00205C1D0020881D0020E0100020D8
:1094E0000FB4F0B583B008A88088010A00020843D1
:1094F00008A988800EA948788A781206120C1043B1
:109500000EAA517893781B061B0C1943000A090216
:1095100001435170090A91700EA9C8780A791206A0
:10952000120C10430EAAD17813791B061B0C194399
:10953000000A09020143D170090A11710EA840897D
:10954000010A000208430EA948810EA8007B1527D6
:1095500047435537BFB2380000F04EFE0400790093
:1095600040181A3069464880894EB01C01908948DD
:10957000007B0199087447ADE81D05F095F93100AD
:109580001B3103F0E3FB253F300023303904090E83
:109590003A020A430270120A4270287901998875CA
:1095A0007D483070B12070700F227C49F01C03F0B0
:1095B00070FA28883075000A70756879A9790906EB
:1095C000090C08437076000AB0766888B075000A06
:1095D000F0757348007822217054032001990870B7
:1095E000704880790199C8776F4802190F32252198
:1095F000300003F07BFA6C4821005931C9B242189F
:10960000172108A803F072FA8734A4B26648021939
:109610000B2147A803F06AFA1634A4B26248021973
:109620000D210EA803F062FA1A34A4B2002569468F
:109630000D7015E012A81521694346183A0015214E
:10964000701C03F053FA2A34A4B21521701C03F0E5
:1096500001FA694609780818694608706D1CEDB270
:10966000514807190EA8007B8542E3DB162108A8A4
:10967000401C03F0EFF9694609780818694608703C
:109680000D210EA803F0E6F9694609780818694625
:1096900008700B2147A803F0DDF96946097808181E
:1096A000694608703A000121684603F01FFAFA2063
:1096B00069464870BA1C012100A8401C03F016FA44
:1096C000092200BF3DA13848A41CA4B20019801C87
:1096D00003F0DFF9684642883349344801F015FA4F
:1096E00003B00498F0BC05B0004700000FB4F8B513
:1096F00006ACA088010A00020843A0800020607523
:10970000A075D22060703D2000F076FD0500264E49
:109710005930C0B23218172106A803F0E7F92F001C
:109720008737BFB20020694608701621601C03F01D
:1097300091F969460978081869460870F4192200F9
:109740000121684603F0D2F9FA2069464870A21C4C
:10975000012100A8401C03F0C9F9092217A1BF1C70
:10976000BFB2F019801C03F094F99435AAB231000D
:109770000E4801F0CAF901B0B3E770470C488021E8
:10978000890201620B4941620B4981627047000006
:109790006C1C0020B4030020FAB100007603002006
:1097A000550300203C030020E00C00201819002085
:1097B000F01B0020881300007B9700082C307830C5
:1097C0003130300D0A00000002B5002805D00268D3
:1097D00011700168491C016001BD034B01226946FB
:1097E000024801F02FF901BDFFFF0000F819002029
:1097F000F1B50E00140000252027012C0EDB0020FF
:1098000001E0401C491C0A78002AFAD1A04201DB81
:10981000002400E0241A980700D53027D80708D480
:1098200005E039000098FFF7CFFF6D1C641E012C86
:10983000F7DA317808000BD00098FFF7C5FF6D1CF0
:10984000761CF6E739000098FFF7BEFF6D1C641E1A
:10985000012CF7DA2800F2BDF5B585B000200190A3
:1098600000900E0002AA0C9D09D130211170507099
:109870000D9B2A0002A90598FFF7BAFF3DE0002BD7
:1098800007D0069B0A2B04D1002902D5012301939E
:109890004E4202A90C000B34D0720E9F002E10E035
:1098A0003000069902F02DFC0A2902DB38003A3814
:1098B0000918641E303121703000069902F021FC35
:1098C0000600EDD1019800280FD0002D0AD00D9888
:1098D000800707D52D210598FFF776FF012000901E
:1098E0006D1E02E0641E2D202070009E0D9B2A003C
:1098F00021000598FFF77CFF301807B0F0BD00008D
:10990000F0B585B007000C001600002505E02178B1
:109910003800FFF759FF6D1C641C2078010068D0E7
:109920002528F4D1641C002300222078010060D097
:109930002528ECD02D2806D1641C012303E0641CEB
:1099400018000223034320783028F8D02078010043
:1099500030390A2905D20A214A431218303A641CC8
:10996000F4E773280AD13168361D002901D100BF00
:109970002DA13800FFF73CFF2D18CDE764280BD14F
:109980003168361D612002900193009201230A2262
:109990003800FFF761FFEFE7782808D13168361DFE
:1099A000612002900193009200231022F0E75828D2
:1099B00008D13168361D41200290019300920023A6
:1099C0001022E5E7752807D13168361D6120029025
:1099D000019300920023DAE763289DD13068361D99
:1099E00069460873002003A948703800FFF700FF9C
:1099F000C2E7002F02D0002039680870280005B0A7
:109A0000F0BD0EB400B501AA01000020FFF778FFF9
:109A1000009904B008470DB400B502AA01A8FFF7E9
:109A20006FFF009904B00847286E756C6C29000020
:109A300011B581B004F044FF040004F041FF001BA5
:109A400001998842F9D313BD70B505000C001600CA
:109A500004F03CFF0F482D1807E022782900002071
:109A600004F04AFF6D1C641C761E002E02D00A48CA
:109A70008542F2D304F036FF70BD064BC018002AB1
:109A800004E003780B70401C491C521EF9D170474A
:109A9000000000000000080800080808124207D073
:109AA0008B0706D00B78491C0370401C521EF7D858
:109AB0007047830706D00B78491C0370401C521E68
:109AC000F9D1704770B4103A03D378C9103A78C00E
:109AD000FBD2530701D318C918C001D508C908C063
:109AE000D20704D30B880380891C801C002A01D56F
:109AF0000B78037070BC7047F1B586B00E0001A8FA
:109B0000B5A11422FFF7DEFF984D9621280003F03F
:109B100009FE28009830009000240480320000BF25
:109B2000B2A12800FFF777FF280002F049FF0100EB
:109B300001AA0EE0069B1B191F783F09D75D07702D
:109B4000491C18780007000F105C89B26854491C42
:109B5000641C89B26818B442ECDB00BFA8A1FFF70F
:109B60005AFF280002F02CFF00990880A7A0FFF7F9
:109B700048FF0098028829007D4800F0C6FF07B022
:109B8000F0BD80B50B001100132804D0142805D0B7
:109B9000182807D001BD00F013F801BD180000F02F
:109BA0003BF801BD00207349087000F006F97248C7
:109BB00001F0B8FC0F207149087000F0FFF901BDF9
:109BC00038B56F4CFF202070FE2060700120A0701F
:109BD0001320E0700020A080A0711121E17120729B
:109BE000684D2800083002F0EBFE02002900083121
:109BF00020000930FFF752FF1921200004F0BEFEBB
:109C000080B200210918090A217160711921200010
:109C1000FFF772FF31BD000038B50500594C102226
:109C2000290020001830FFF739FF287C0002697CEA
:109C300040186080A87C0002E97C40182080A08841
:109C40000090238862882100183100BF71A0FFF7BF
:109C5000D8FE00F061F800281BD10B227BA1200068
:109C6000183004F092FE002810D000F077F80120A0
:109C700000F09CF8012000F08DF8BFF34F8F4248B0
:109C800042490860BFF34F8F00BFFDE7032000F09B
:109C900001F831BD10B53A4CFF212170FE216170F1
:109CA0000121A1701422FFE7E2700022A280A271BC
:109CB000E17120720921200004F060FE80B20021D1
:109CC0000918090A2171607109212000FFF714FFAA
:109CD00010BD10B52A4CFF212170FE2161700121B9
:109CE000A1701821E1700021A180A1711121E17101
:109CF00020721022264920000930FFF7CFFE1921DB
:109D0000200004F03BFE80B200210918090A2171ED
:109D100060711921D9E7000038B50024194D288851
:109D2000002803D14CA0FFF76CFE012468880028AE
:109D300004D100BF4FA0FFF764FE0224102200BF31
:109D400053A12800183004F020FE002804D100BFE1
:109D500054A0FFF756FE0424200032BD80B528220F
:109D600008492020FFF770FE01BD00007C1800208C
:109D7000181900209A1C0020A80300205603002078
:109D8000BC1B00201C1C00200400FA050CED00E0A8
:109D9000241C002001B5012269461020FFF754FE63
:109DA00001BDFFF76AFE6846007802BD01B50122D9
:109DB00069461120FFF748FE01BD01B50122694641
:109DC0001220FFF741FE01BD80B5002069460870F2
:109DD00001221220E5E700003031323334353637C6
:109DE00038394142434445460000000041542B4D60
:109DF0004C57554C4441544145583D25642C000076
:109E00002C3078303130300D0A0000005A5A5A0D8B
:109E10000A0000006E65772076657273696F6E20A8
:109E2000696E666F3A25730A2020202073697A656F
:109E30003A25640A6E756D3A25640A20202063680D
:109E400065636B3A3078253034580A0076312E300D
:109E50002E31383039313600666F74615F696E6655
:109E60006F2E626C6F636B5F6E756D206572726FC3
:109E7000720A0000666F74615F696E666F2E626CB5
:109E80006F636B5F73697A65206572726F720A0027
:109E900000000000000000000000000000000000C2
:109EA00000000000666F74615F696E666F2E6E65FC
:109EB000775F7665725F73746172206572726F721C
:109EC0000A00000038B500246846047004F07CFDE8
:109ED000344D68460078332801D02C7031BD04F031
:109EE000B7FE002004F093FD0120287031BDF8B5C5
:109EF00005000C0017001E002A48007800282CD00E
:109F000004F0A6FE280004F069FD002C01D1012018
:109F100000E0022004F07BFD072004F0CFFD0020CC
:109F200004F032FE012004F017FE002004F045FE8C
:109F3000402004F060FE380004F0DBFD012004F056
:109F4000F2FD002004F06AFEF0B204F0ADFE022043
:109F500004F0B4FE152004F08FFEF1BDE0B5102230
:109F600002920122019200910123020031210E4848
:109F700004F068FA401E8041C00F0EBD02B584B0E7
:109F8000102102910121019104A9009101230200F5
:109F90003021054804F0AAF9401E8041C00F05B0E9
:109FA00000BD0000801D0020C81A002080B50122DD
:109FB00001215E4802F0BDFA01BD70470EB4F0B554
:109FC000BEB0070060A25AA65A4D5B4C5BA15CA0D4
:109FD000032F04D05BA3082F04D100902EE0009043
:109FE00033002BE0052F06D1009000BF58A300BF1F
:109FF0005CA204201AE0042F02D100905BA21DE0B5
:10A00000062F06D1030079A2032002F04CFD08229E
:10A0100083E0092F02D1009056A20FE00A2F09D148
:10A02000019000BF55A0009058A2052002F03BFD12
:10A030001B2272E00B2F06D100906D4A042002F023
:10A0400032FD0B2269E00C2F05D1009051A20420B3
:10A0500002F029FD0EE00D2F05D100904FA2042043
:10A0600002F021FD06E00E2F06D103004DA20320D1
:10A0700002F019FD0C2250E00F2F07D1030000BFA2
:10A080004AA2032002F00FFD0D2246E0102F0BD153
:10A09000019000BF48A000904AA300BF4BA205203A
:10A0A00002F001FD1A2238E0112F20D143A8041D2F
:10A0B0000068002835D1250018354E493BA80B22F1
:10A0C000FFF7ECFC2900103106A8D322FFF7E6FCCD
:10A0D000290002A80D22FFF7E1FC210084B06846A8
:10A0E0001722FFF7DBFC0FBCFFF7FAF919E0132F7B
:10A0F0000AD1019037A00090330000BF37A205209D
:10A1000002F0D1FC0F2208E0002F0AD1030000BFAB
:10A1100034A2032002F0C7FC09222100280000F02D
:10A12000F4FC3EB00498F0BC04B0004700040050BA
:10A130003D30000018190020E00C002041542B0095
:10A140000D0A00003D3100004346554E000000005E
:10A150003D31302E3134332E3133322E312C3536E1
:10A16000383300004E434450000000004347534E34
:10A1700000000000434D4545000000002C224950DE
:10A18000222C2263746E657422000000434744430E
:10A190004F4E540043474154540000004353434F33
:10A1A0004E00000043475041444452004E55455331
:10A1B00054415453000000002C31372C37343030D8
:10A1C0002C3100003D444752414D00004E534F4357
:10A1D000520000002C353132000000004E534F5227
:10A1E0004600000043474D52000000004E5242001E
:10A1F000FCA70008B4030020F8B50500002465287A
:10A2000001DB042406E00B2801DB032402E0280024
:10A2100000D0022419A276A1022002F044FC684674
:10A220006D1C05800088642101F068FF0D00280086
:10A230000A2101F063FF30316846817028000A214D
:10A2400001F05CFF050030352C26104F6846008871
:10A2500065280CDB68460088642101F04FFF303030
:10A26000F8733D74684680787874BE7404E0FD73BA
:10A270006846807838747E742000F2BD4D4C575586
:10A280004C4441544145583D00000000E00C002082
:10A29000F0B585B006000D00052D16DB68003018FE
:10A2A000001F02F095FB0400281F410089B2B01C7A
:10A2B00002F0DEFBA04209D0010000BF4DA0FFF775
:10A2C000A0FB21004EA0FFF79CFB8EE0122201A90B
:10A2D000300002F0ACFB01A80178FA29F5D1C17970
:10A2E000027A1206120C1143C279037A1B061B0C68
:10A2F0001A43090A12020A43C271120A0272C17990
:10A30000027A1206120C1143B64C618422004932C3
:10A310000B0A090219431170090A5170407800278D
:10A320000125C12825D100BF38A0FFF76AFB607E58
:10A33000002802D1794801F0F5F8062130001230EA
:10A3400000F082F8A8490870002808D1607C022833
:10A350000AD000BF2FA0FFF754FBA4480770607C11
:10A36000022801D0A57701E0A1480570A148E0626C
:10A3700037E0C22839D100BF2AA0FFF742FB607E38
:10A38000002802D1654801F0CDF89B484188300093
:10A390001230FFF71DF80090984E300069460422F5
:10A3A000FFF77CFB9048407801281ED130780128C7
:10A3B0000BD100BF1DA0FFF724FBB078012801D10D
:10A3C0008F48077089490D7003E000BF1BA0FFF79D
:10A3D00018FB874805708748E0628948007800F0DC
:10A3E0009FF82000283001F0D5F805B0F0BD00003E
:10A3F00041542B004353313A25640D0A00000000FC
:10A400004353323A25640D0A0000000043310D0A1F
:10A41000000000004D6F64654368616E67650D0A5A
:10A420000000000043320D0A0000000043325F5379
:10A430007563636573730D0A0000000043325F4665
:10A4400061696C0D0A00000070B59AB00D006A00D9
:10A4500092B2694602F0EBFA624C2A00694620008B
:10A46000103002F016FB0025A571217C0120654EFD
:10A47000032904D1E0773570022060721EE00429C0
:10A480001ED12078207659490978012904D15C48E9
:10A49000007800F045F80CE0010002D16078A17866
:10A4A00003E0012805D1E07821790906090C084369
:10A4B000A0846572E57735702020255401202AE0BC
:10A4C000627C022A01DB26D124E0022901D0227617
:10A4D0002270E17F012900D17270A18A0A0A090263
:10A4E0001143628A130A12021A43BC4B89B2994281
:10A4F00011DA92B29A420EDAE170090A21716270A1
:10A50000120AA270E17822791206120C11437929FD
:10A5100000DAE07600201AB070BD00000C1D0020AB
:10A52000F0B583B007000024FEF7B4FC3348807810
:10A530002C4DAB4E012802D17C1CE1B215E0022863
:10A5400002D1A84804780FE003281ED1A54804785A
:10A55000FEF75AFD002807D000202449087028780B
:10A560002876A148A88410E021006846FEF766FD21
:10A57000300069460522FFF791FA7078B178090634
:10A58000090C0843A8843078287698480078012878
:10A5900000D1287696488470F17832791206120C30
:10A5A00011430170090A4170297E0171012908D007
:10A5B000297C022905D00021C174012141740021A8
:10A5C00081740A48007801280BD1A98C0EA0FFF7EE
:10A5D00018FA297E12A0FFF714FA791C15A0FFF7CC
:10A5E00010FAF7BD3C030020081D00208F1D00203D
:10A5F000911D0020B80B000058080020F41B00201B
:10A600000D1C00207C1D00205363686564756C651B
:10A610005F6379636C653A2025640D0A00000000D1
:10A620005363686564756C655F4D6F64653A20259A
:10A63000640D0A005363686564756C655F446174FA
:10A64000653A2025640D0A00F1B59CB000250195FE
:10A65000AA4CA56001270126BE48428865A11C9826
:10A6600002F05FFAA060BB48428800BF63A11C985B
:10A6700002F057FA002808D1A068002807D100BFCF
:10A6800060A0FFF7BEF91DB0F0BD401D01900A2289
:10A690000021019802F02DFB80B20090AE49884263
:10A6A000F1DA642801DB032602E00A2800DB022637
:10A6B000014600BF55A0FFF7A4F9A068002815D0F7
:10A6C00056A0FFF79EF9A179481E8041C00F607126
:10A6D0000098420092B202A9A068401C02F0A7F9BB
:10A6E000009989B202A800F00BF9CCE71C988019F8
:10A6F00001906079994E009908291BD10028C2D198
:10A70000B07F974909780143BDD1042245A11C9827
:10A710000A3000F071FE0028B5D192480078002878
:10A72000B1D100BF41A0FFF76CF901980D3000F0E6
:10A7300089F8A8E70099022940D10028A3D100BFD9
:10A740003DA0FFF75EF9B07F8549097801439AD1B2
:10A75000307C012809D13574BFF34F8F824883497B
:10A760000860BFF34F8F00BFFDE7022810D1300013
:10A77000283000F0D7FE20000C3000F0D3FE00BFE0
:10A780007FA0FFF73EF9FDF799FB2570A5707AE7EA
:10A79000707E012802D02079012802D100F084F8CF
:10A7A00071E767701620B0763776F7767771377075
:10A7B000B5832000183000F0EDFE64E70929FCDBCA
:10A7C0000028FAD1E77000BF70A0FFF71AF90099CE
:10A7D00089B201980930FFF75BFD54E7A10500003D
:10A7E000541D0020F01B0020FFFF00008A1D0020E8
:10A7F000F41C00202C464646450000004E4E4D49B4
:10A80000000000004F746865720D0A006461746195
:10A810005F4C656E3A25640D0A00000046464645C9
:10A820000D0A0000464146410000000054696D6574
:10A830005F73796E0D0A000053657276657252730C
:10A84000700D0A0070B586B00822010004A804F05B
:10A850003FFA082203A902F0EAF8454C03A80022B7
:10A86000210003781B0645782D0486783602AD1941
:10A87000C07828181818E123DB01C01804F0A2FAE8
:10A88000E0790290A0790190607900902379E278D4
:10A89000A1782088C0B2FEF797FA012801D131498A
:10A8A000087006B070BD000038B500252C48057052
:10A8B0002A4CA577E07F01280BD12020205C0028BE
:10A8C00005D1012020216054207E2A4948700220B1
:10A8D00000E00020607200BF31A0FFF792F81C205A
:10A8E000A076A58320006C3000F054FE20222100C9
:10A8F0004C31214800F009F931BD0000941C0020C2
:10A9000038B50400207800026278801880B21B4AB3
:10A9100090421DD12079000262798518ADB20020E5
:10A9200020716071200004F029F880B2A84205D09F
:10A93000020029001EA0FFF764F831BDA0790002D3
:10A94000E179401882B221000831E078FFF719F967
:10A9500031BD000058080020010200003C03002027
:10A96000911D00208E1D00200400FA050CED00E072
:10A97000641D00207C1D002018190020FEFF00002F
:10A980005370656369616C464E0D0A0070726F63A7
:10A99000657373696E67446174610D0A000000009D
:10A9A000656E746572536C6565700D0A0000000079
:10A9B0006372633136206572726F720A72656376F4
:10A9C0003A3078253034582C747275653A307825D1
:10A9D0003034580A0000000038B5040001D10120CD
:10A9E00032BD250068356878002803D12870200022
:10A9F000FDF7F0FD24206870206801680122914372
:10AA00000160606A002802D0200000F045FB2000B1
:10AA100000F028FA012811D020684168084A0A404D
:10AA20004260206881682A22914381602068016821
:10AA300001220A430260200000F092FB32BD0000B8
:10AA4000FFB7FFFFFCB583B006000C0035005035A2
:10AA5000687E202856D1002C0BD0002A09D0B0687F
:10AA600080214901884206D13069002803D1E007DE
:10AA700001D5012047E0287E012843D00120287617
:10AA80000027EF612120687603F01AFF01906846E5
:10AA90008089288068468089688005E02088C00514
:10AAA000C00D31688862A41C6888002819D06888A5
:10AAB000401E688004980090019B00228021300095
:10AAC00000F082FB002816D1B0688021490188423D
:10AAD00002D130690028E1D0207831688862641C96
:10AAE000E2E704980090019B00224021300000F032
:10AAF0006BFB002801D0032005E0202068762F762C
:10AB0000002000E0022005B0F0BD70B50600350061
:10AB10005035687E202838D100290BD0100009D08C
:10AB2000B06880235B01984206D13069002803D1C8
:10AB3000C80701D5012070BD287E012825D001203D
:10AB40002876F1642A806A800024EC6121206876EE
:10AB50005C482969C8625C48296908635B482969BF
:10AB6000486328698463130032682832F16C2869CD
:10AB700002F06CFF4020316808622C7630688168F2
:10AB800080220A438260002070BD022070BDF8B5AB
:10AB9000060035005835A87C20283DD100290BD06F
:10ABA000100009D0B06880235B01984206D130695B
:10ABB000002803D1C80701D50120F2BD287C012857
:10ABC0002AD001272F7471652A8000246C6122200D
:10ABD000A8743F48E968C8623E48E96808633B4892
:10ABE000E9684863E86884631300726D3168243152
:10ABF000E86802F02BFF2C74306801683A020A43BF
:10AC00000260306881680F43876030688168402245
:10AC10000A4382600020F2BD0220F2BD38B5040074
:10AC200025006935287821280FD120688168090618
:10AC30000BD58168802291438160206E002801D06D
:10AC400002F02CFF200000F0F5FA687822280FD1DE
:10AC50002068816849060BD5816840229143816054
:10AC6000606E002801D002F019FF200000F0EBFA1E
:10AC7000002032BD70B5040020680168164A0A4001
:10AC8000026020688168012291438160250064355B
:10AC900020680026816849060AD5816840229143D0
:10ACA00081602868002803D08663286802F0F6FED9
:10ACB0005A2026520F20216808622020A871002007
:10ACC00070BD000075B20008A5B200080FB30008FF
:10ACD000AFB2000805B30008DFFEFFFFF8B50400BF
:10ACE0002368D86919680607360F07D1820605D58B
:10ACF0008A0603D5200000F037FBF1BD9A682500D5
:10AD00006435002E62D00126324203D190277F00A5
:10AD10000F405BD0C70705D5CF0503D51E62AB68D2
:10AD20001E43AE6002230426870706D5D70704D545
:10AD300027683B62AF683743AF60470706D5D70740
:10AD400004D527683E62AE683343AB60082603072C
:10AD500008D58B0601D4D20704D522681662AA68EA
:10AD60003243AA60AA68002A79D0800604D58806F2
:10AD700002D5200000F0F8FAA868064003D1206848
:10AD8000806840061CD5200000F05DFA20688168CC
:10AD9000490611D5816840229143816028680028C6
:10ADA0000AD02F498163286802F0A8FE002856D0F7
:10ADB0002868816B8847F1BD200004F05BF8F1BD85
:10ADC000200004F057F80020A860F1BD2026C7023B
:10ADD00009D5520207D5F00318626E71AE712000DA
:10ADE00004F04AF8F1BD02062DD50A062BD5687984
:10ADF000212834D15220205A002809D118688021F6
:10AE0000884318602068016840220A430260F1BD4F
:10AE1000A068F10188420BD12069002808D1E06CBC
:10AE20000088C005C00D9862E06C801CE06404E0FE
:10AE3000E06C411CE164007898625220205A401E68
:10AE400052216052F1BD400609D5480607D5186861
:10AE50004021884318606E712000FCF7B7FAF1BDFD
:10AE600055B30008FEB507001024102500266946DA
:10AE70000E7039680868814A0240B86810433A6920
:10AE8000024378691043FA6902430A6048687C4AC1
:10AE90000240F86810434860B8697A4A914202D08B
:10AEA0000200386A10438A68774B13401843886061
:10AEB000764881420BD17648C06C8007800F04D061
:10AEC000022812D029D3032823E0012528E0714865
:10AED00081420CD16E48C06C0C2101401BD004296A
:10AEE0001BD0082901D00C2913E0022518E0654881
:10AEF000814215D16648C06CC021090101400AD0C9
:10AF0000A001814209D040008142EED0C020000162
:10AF1000814204D004E0002502E0042500E0082579
:10AF2000022001F02FF839680291E202554B994254
:10AF300031D1002D06D0022D11D0042D17D0082DAF
:10AF400018D093E000F0C9FE002860D07A68510064
:10AF50008918884202D3110381420DD286E04C4801
:10AF60000068044001D09748F0E7BE48EEE700F0E3
:10AF70007BFEE9E71000E9E7050E04025008002116
:10AF800000196941002303F078FFA8494118A84A35
:10AF900091426BD25FE0F969914239D1002D08D01E
:10AFA000012D0AD0022D0BD0042D13D0082D1AD05C
:10AFB00021E0796840004A0818E000F09BFE0BE0B1
:10AFC00079684808324A1268144001D0A64A0DE058
:10AFD000A64A0BE000F048FE79680191400049085C
:10AFE0004018019903E0796848085200801801F080
:10AFF00088F8060002E00120694608709C4931404B
:10B000003006400E4007400F01433868C16030E011
:10B01000002D08D0012D09D0022D0AD0042D12D008
:10B02000082D1AD022E000F058FE0EE000F062FE7B
:10B030000BE079684808164A1268144001D0614A4A
:10B040000DE0884A0BE000F00FFE79684A0880188E
:10B0500001F057F880B2396806E07968480880182E
:10B0600001F04FF880B20299C86002E00120694601
:10B07000087068460078FEBD00000000F369FFEF2D
:10B08000FFCFFFFF00480040FFF4FFFF0038014002
:10B0900000100240004400402421415CC90706D54D
:10B0A00001684A68914B1340826A1A434A6024211E
:10B0B000415C890706D501684A688D4B1340C26A16
:10B0C0001A434A602421415C490706D501684A6851
:10B0D000884B1340026B1A434A602421415C0907E4
:10B0E00006D501684A68844B1340426B1A434A6094
:10B0F0002421415CC90606D501688A687F4B13404C
:10B10000826B1A438A602421415C890606D5016856
:10B110008A687B4B1340C26B1A438A602421415CCE
:10B12000490611D501684A68AC4B1340026C1A43BA
:10B130004A60026C80235B039A4205D14A68A84B9F
:10B140001340426C1A434A602421415C090606D52B
:10B1500001684A68A34B1340806C184348607047ED
:10B16000F8B5040000256830456003F0A9FB06002F
:10B170009D4F20680068000709D500973300002222
:10B1800080218903200000F01FF800280DD12068DD
:10B19000006840070BD50097330000228021C903C7
:10B1A000200000F011F8002801D00320F2BD20207B
:10B1B000210068314870210068318870682025546A
:10B1C0000020F2BD00093D00FEB504000F0000257F
:10B1D000089E2068C0693840B84201D1012000E0D3
:10B1E00000206946097988421DD10020C04386426B
:10B1F000EFD0002E05D003F063FB0299401A86427F
:10B20000E7D220680168794A0A40026020688168B4
:10B2100001229143816020006830202141708170BB
:10B2200005700320FEBD0020FEBD000000FDFFFFF5
:10B2300000FD0F0001680A68C0239A430A602021BC
:10B2400069228154704701680A68694B13400B609A
:10B2500001688A6801239A438A6020216A22815406
:10B26000704700000024F40000127A000048E80152
:10B27000F0FF000080B50100886A09680968890646
:10B280000DD400215222815201688A6880239A439A
:10B290008A600068016840220A43026001BDFCF731
:10B2A00095F801BD80B5806A03F01CFE01BD38B57C
:10B2B0000100886A202209680968114013D1010041
:10B2C0005A3100230B8003681C684A4D25401D60DD
:10B2D00003689C680125AC439C6003689C6840251A
