:020000040800F2
:105800004808002055F8000811F6000813F60008B3
:105810000000000000000000000000000000000088
:1058200000000000000000000000000015F6000865
:10583000000000000000000017F6000819F600083C
:105840004F82000823C2000825F60008F7E100088F
:105850007FE800082FF6000873E9000839F6000811
:105860000000000037EE000851F6000861F600085D
:105870007FEF00089FF00008000000007DF60008A0
:1058800000000000ABF00008000000000000000075
:1058900087F600080000000091F6000853F80008A1
:1058A00079F800087BF800087DF800089BF60008EE
:1058B000A1F60008B3F60008000000000000000098
:1058C000BFF34F8F9C489D490860BFF34F8F00BFC7
:1058D000FDE70000F8B502F0BBFC62B602F0C8FCC0
:1058E00000F0B2F802F0D2FC02F0CAFC9448016861
:1058F000802212020A43026002F0D0FC02F042FD54
:1059000002F05EFD02F0FEFD03F06EF803F09EF87B
:1059100002F012FE02F02AFE03F04AF903F09CF9AD
:1059200001F07CFD00F0E3F800F02CF903F0ECFE50
:10593000844804F02CF8FA20400004F03FF8D54CDD
:10594000012221000F31002004F05DF8E17B7E4848
:1059500004F01DF80120E0730B227C497C4804F020
:1059600063F804F0C1F904F073FA03230222002162
:10597000032004F082FA00BF764E774F774C784DC3
:1059800001E002F05BF9287C0028FAD0287C01288D
:10599000F9D1687B002826D172A003F0F8FFBE4839
:1059A00004F00CF801F0C2FC032004F0CDFA2078DA
:1059B000C007FCD56288211D380005F084F82078E6
:1059C000FE210140217006226749201D05F0F2FCEE
:1059D000A873A87B0028EAD001206873634803F00D
:1059E000D6FF01F0A9FC624803F0D1FF00F0A2FD50
:1059F000604802F007FF604802F004FF380002F040
:105A000001FF02F09DFB01F067FD00F06FF93078B7
:105A10000028BBD1574802F0C3FD574802F0C0FD33
:105A2000380002F0BDFDAC4803F0B1FF307800282B
:105A3000EDD101F045FE05F0FCFD02F077F900F034
:105A4000A9FE02F0FBF8F1E710B59AB04B484C49BB
:105A50000A680240CB0C13430B60A0490A6810404F
:105A6000086006200C90FA300E9001200F90102054
:105A70001090022015900024169440041790C02026
:105A8000000418900CA805F025FE002800D0FEE7C1
:105A90000F2007900320089009940A940B9400218A
:105AA00007A806F007F8002800D0FEE7272000909E
:105AB000029403940494802040020190684606F00A
:105AC00095F9002800D0FEE706F0E2F8FA218900F7
:105AD00006F0F5FA06F076FB042006F087FB0022BC
:105AE00000210020C04306F05BFB1AB010BD7C48CB
:105AF000FA210170D1214170012181700221C17010
:105B0000784800218172C172774909780170B42107
:105B1000C900417005228270C17002716421C17197
:105B2000FF2101728D480121017100214171012184
:105B300081700021C17070470400FA050CED00E08F
:105B40000C100240F4F0000804F1000814F1000801
:105B5000141C0020741D0020E819002048080020B3
:105B6000080300203131000020F1000828F100086E
:105B700030F100080819002078190020FFE7FFFF26
:105B80000070004038B5764802F0FAFE4148012125
:105B90004161414981617349C161734902220A60CF
:105BA000C8224A60714A8A608021490001629621B8
:105BB00041626F4981626F4908220A606E4A4A60F9
:105BC0006E4A8A606E4A10211160FA218900516084
:105BD0006C4B93606C4B802252011A606B4A5A6086
:105BE0006B4C9C606B4B40241C606B4C5C606B4C42
:105BF0009C608023C3624B000363694C4463694C1F
:105C00008025AD002560684D6560684DA560684CD5
:105C10008025ED0025606360664BA3606B008363A5
:105C2000C8239B00C363644C0464644C0425256052
:105C3000634D6560634DA560634C8025AD012560B3
:105C4000624D6560624DA5608024E4014464836414
:105C5000604CC46480242402046542655E4A826507
:105C60006200C26501665D4941665D4992000A6055
:105C70005C4A4A60974C8C60802109038166C36648
:105C8000954901678021490341678267A949C16736
:105C900031BD000014020020B80B000080B500F0F8
:105CA0009FFB01BD8D494A6900688D4B1B68984276
:105CB00002D1130004221A438A4B1B68984202D176
:105CC000130008221A439C4B1B68984202D1100013
:105CD000102202434A61704740F100085010024010
:105CE00064030020300300204803002010B592B068
:105CF0000121012006F096FA9048016880225205A1
:105D00000A4302608E4801688E4A0A40C10C114362
:105D10000160684605F0D6FF062000900124039438
:105D200010200490F03002900220099000200A9088
:105D3000A0040B90C02000040C90684605F0CAFC3B
:105D4000002800D0FEE70D940E9401210DA805F067
:105D5000B1FE002800D0FEE712B010BD40030020C5
:105D6000FFFF0000E95D0008141D0020E95E000847
:105D7000F15E0008081D002060EA0000895F00084D
:105D8000580300208B5F00082C1D00203075000098
:105D90006D6200089C03002070170000DD69000898
:105DA00035630008901C0020C8AF00003D63000868
:105DB000FC1C002045630008B9790008201D002064
:105DC000E8FD00009D7A0008381D00201027000023
:105DD0001D7B0008257B00087D7B0008F57B000803
:105DE0009C1C002088130000F8B5574CE07B3B4D0D
:105DF0006979A27801260027130009D1002955D11D
:105E0000012802D02078052850DABE490E704DE0F6
:105E1000012A4BD14D4A12780B000BD16E71002A2A
:105E200003D1012801D101F0C3FFE07B01283DD15E
:105E3000474839E0012939D1012A37D1454800784E
:105E4000012804D1444805F04BFB02F017F8434801
:105E50000078012812D1424805F042FB414805F084
:105E60003FFB414805F03CFB404805F039FB40480A
:105E700005F036FB3948077004F065F83D490E70AF
:105E80002E726E723C4886713C493D4A1278012A56
:105E900002D13C4A127800E00A78AA720E700670AD
:105EA00064202B494860084605F052FB2770277193
:105EB000687901280DD129480078264909780143DD
:105EC0002C480078084304D18F4803F060FD8D48CA
:105ED0000670F1BD057F00080D7F00080803002053
:105EE000041B00203C1B002080B500F0D5FA01BD4A
:105EF00010B500F0EDFB144C607A022818DA401C53
:105F000060721248007801280ED0804801788048DD
:105F10000A0003D100228021490003E0012903D1B6
:105F20000022102106F0E3FA2000203005F010FBDB
:105F300010BD0000C1810008741B00203810024011
:105F400000700040FFE7FFFF14020020490300201B
:105F5000141D0020791D00202C1D0020781D00201C
:105F60009C030020201D00209C1C002058030020C2
:105F7000901C00207C1D00203003002048030020DE
:105F80004F0300206F1D00207047F0B5BDB0012702
:105F900060480078002801D15F490F7000245F4DF0
:105FA0005F4E60480078012842D15F480078401C6D
:105FB0005D49087016205D490870D3207070E87C38
:105FC000152148432D303071000A70715148007816
:105FD000002802D1EC746F74AC74554907A8D32221
:105FE00003F022FD290002A8142203F01DFD310058
:105FF00084B06846172203F017FD0FBC03F0ACF81D
:10600000317970790006000C01438F4803F0BFFC22
:106010004548007805286CDB43490C7041490C70F9
:106020003C480078010047D0012868D1874849E002
:1060300087480078012862D186480178012902D179
:106040000470FFF73DFC84490C738F72CC72EC74C2
:106050006F74AC74D1207070002031303071747165
:106060001620324908707D4908A8D32203F0DCFCD1
:10607000794904A80D2203F0D7FC310082B06846AC
:10608000172203F0D1FC0CBC0021112003F05CFFAF
:10609000734803F07CFC73480178491C0170724A14
:1060A000C84B5A60C9B2062923DB694A14700470D0
:1060B00018480078010002D1FFF702FC1FE0012818
:1060C0001DD1924803F063FC914805F009FA91480C
:1060D00005F006FA904805F003FA904805F000FA3A
:1060E00003F031FF8E4804608E4804700548077045
:1060F00005E05D48B3494860084605F029FA3DB01F
:10610000F0BD0000741D002048F10008861C00202E
:106110000004005049030020881C0020E41C0020DB
:1061200064030020821D0020831D00204A030020FC
:1061300098170020F8B505007B4C200080300090B7
:10614000280006F029FA00990860280006F006FBEE
:1061500076490860002601250178012937D1C178E8
:10616000734F3878884203D23970974803F00FFC98
:10617000E07B00282BD13878002828D001F07EFE63
:1061800000980068C670914803F001FCE573012295
:1061900021000F31002003F01DFC00F099FA8C481B
:1061A00005F09EF92000203005F09AF9894805F0A5
:1061B00097F901F0DFFB00221021874806F097F9DC
:1061C0002948A0672000743005F0C2F9F1BD00989D
:1061D0000068C178814803F0DAFB00980068C07855
:1061E000012830D16079012803D17A4805F078F987
:1061F0006671E079002826D1E5719A489A499B4A50
:106200001278002A10D1144BDA781D792D062D0C46
:106210002A43792A0DDA964A237A012B02D0137881
:10622000012B06D1167005E0227B002A01D12573CF
:1062300000E0080060652000503005F089F9616DCC
:10624000B64803F0A4FBF1BD54F100086CF100085E
:106250004E0300204003002030030020C41600201D
:106260007CF10008771D00208813000070B5804D78
:106270002D4C207A012802D02878012801D106204F
:1062800000E00320618A491C6182002689B201294D
:1062900023D12749097802291FDAA14803F077FBA7
:1062A0000020E17B002918D101F0E8FD9D4803F0B2
:1062B0006EFB474805F014F92000203005F010F976
:1062C00001F058FB002280214900434806F00FF9F5
:1062D0009548A0672000743014E0618A814210D391
:1062E00026722E706671914803F051FB66829048C9
:1062F0000078012808D1667101F0C0FD01F058FD59
:1063000070BD344805F024F970BD000084F1000828
:106310009C030020201D00209C1C0020901C0020BD
:10632000641D0020871C002014020020601D002036
:10633000701D002080B500F0F9FF01BD80B501F0AF
:1063400089F801BD4B480078002800D0704770B52F
:10635000BEB0494C2088401C208080B2062829DA33
:10636000464D474E287B1521484331303071000A95
:106370007071444908A8D32203F056FB290004A8F1
:106380000D2203F051FB310082B06846172203F062
:106390004BFB0CBC0021112003F0D6FD16203A491E
:1063A00008703A482188032901DBA749416005F0BC
:1063B000CFF803E000202080FFF782FA3EB070BDE6
:1063C000000000005803002094F10008ACF1000820
:1063D000141D00202C1D002000040050BCF10008FA
:1063E000F8B50024A027FF05294D0126012817D163
:1063F000687B012835D10121380006F072F80028A9
:1064000005D1686906436E61AE480470F1BD012193
:10641000380006F066F8012823D1686902211EE0E1
:10642000402816D14021380006F05BF8002803D13F
:10643000EE700022310208E04021380006F051F8E9
:1064400001280ED1EC7001221102124806F04FF81B
:10645000F1BD202805D19B480470686920210143C3
:106460006961F1BD30750000B80B0000801D00208F
:106470004B030020490300200619002030030020B0
:1064800064030020C41600204A030020FC1C0020E6
:106490000803002000040050F8B5974CA178974DF0
:1064A0009748092924DA0278002A21D1002901D14C
:1064B00000F00EF993480278A020C005802109025F
:1064C000022A01D0002A05D1EA7B012A04D1102139
:1064D0008D4801E0012A01D106F00FF8A078401C98
:1064E000A070C82078494860084605F031F8F1BD31
:1064F0000026A670012707707448007800F0A6F8FF
:10650000E079012809D1E6716F4804F0E9FF7F487E
:106510000660AF727E4803F03AFAF1BDCCF1000894
:10652000D8F10008ECF1000888130000FCF1000825
:10653000791D0020F8B500F0CBF86F4CE078012809
:106540000DD1217970480A0003D100228021490031
:1065500003E0012903D10022102105F0C8FF6D4896
:1065600001786D48674A6D4B00251E78012E0BD1CE
:106570001D70A37A0B4307D115700570684B1B780B
:10658000012B01D1674B1D70674E684F3B78194353
:106590000DD111780A0002D14178827803E00129F7
:1065A00005D1C17802791206120C1143318002F034
:1065B00037FC5F485F494978002900D005700178B1
:1065C0005D4803F0E4F931885C4803F0E0F94F4896
:1065D00001685B4803F0DBF95A4801785A4803F038
:1065E000D6F95A4801785A4803F0D1F9A1695948B7
:1065F00003F0CDF93978584803F0C9F9574803F04A
:10660000C6F915205649087001202E4908705548D2
:106610000570554805703948458154490D7005800D
:10662000857153490D7053490D7053490D7053498D
:106630000D7053490D708573E57252490D705249C2
:106640000D700574E573F1BD1027000070B500F002
:106650003FF82A4C002363721B4A4C4800780028FC
:1066600006D14B48506001F077F92000203025E03A
:10667000A020C005802109021F4D6E7A012E07D18E
:106680006B72002205F033FFFA20C000E06313E0D4
:106690006E78012E14D16B70C825AD005560194A73
:1066A0001278012A01D1002203E0002A03D110212F
:1066B000154805F01CFFE5632000383004F048FF62
:1066C00070BD0000741D0020141D0020B4030020C4
:1066D00010B50D4C01221102200005F008FF012227
:1066E0001021200005F003FF0122D103A020C005E6
:1066F00005F0FDFE10BD000008030020140200207C
:10670000751D00204803002000040050641D002077
:106710000CF20008801D0020300300207C1D0020AA
:106720004F0300206F1D0020540300206E1D002029
:10673000FE1B0020E81B00201CF2000834F20008B9
:1067400044F20008FD1B002058F200087F1D0020C5
:1067500074F2000884F2000890F20008A8F2000821
:106760004A030020841C0020861C0020781D002085
:10677000841D0020811D0020851D0020761D002025
:10678000891C0020831D0020771D00204903002064
:10679000B80B0000F0B5BDB000247D4EB07A0128E2
:1067A00011D1B4727B4800787B490978012906D160
:1067B0007A490978084306D101F03CFB03E008431D
:1067C00001D101F0F5FA7648007801286AD17548C0
:1067D0000078012866D174490878002862D1012028
:1067E0000870724D1621724A1378012B21D1147052
:1067F000704B1870704A1070704801701920287121
:106800006C716F4803F0C3F8290084B06846172202
:1068100003F00AF90FBC02F02FFFB2490C70B24826
:106820000470684804F094FE6748B0673000743024
:1068300036E0664F664E674A1278012A03D0664AF0
:10684000D37A012B2FD15D480170D1206870307B45
:106850001521484331302871000A68712979687917
:106860000006000C0143964803F091F8390008A88F
:10687000D32203F0D9F8310004A80D2203F0D4F894
:10688000290082B06846172203F0CEF80CBC002124
:10689000112003F059FB93490C7093480470494848
:1068A00004F056FE72E0914B1B78012B32D1434A23
:1068B00011708F4FB179012900D1F8708D4800789F
:1068C00003F0FAFD344800783871D3206870F87C02
:1068D000152148432D302871000A6871864907A8A0
:1068E000D32203F0A1F8390002A8142203F09CF887
:1068F000290084B06846172203F096F80FBC02F016
:106900002BFC297968790006000C01437B4803F0D1
:106910003EF82FE0002B34D179480078012803D1CC
:10692000907A002800D1347024480170307B152102
:10693000484331302871000A687129796879000666
:10694000000C01436F4803F022F8390008A8D32255
:1069500003F06AF8310004A80D2203F065F829005D
:1069600082B06846172203F05FF80CBC00211120AA
:1069700003F0EAFA5B490C705B490C70114804F0B3
:10698000E7FD61480178022900D104703DB0F0BDF7
:1069900014020020781D002048030020791D0020EB
:1069A000861C002049030020841C00206403002072
:1069B0007D1D00207E1D00208A1C00204A0300202F
:1069C000BCF200089C1C002030750000C41600209A
:1069D000300300206E1D002008030020414801788C
:1069E000012900D1704710B53F490A78132A63DAAC
:1069F000521C0A7045480178454C032906D10320F2
:106A000003F0A2FA43486060434816E0082906D123
:106A1000082003F099FA4148606041480DE00E29D2
:106A200001D10E2029E0042901D1042025E0062906
:106A300006D1062003F088FA3AA002F0A8FF37E05A
:106A40000A2901D10A2018E0102901D1102014E0F0
:106A50000B2901D10B2010E03348344B182903D106
:106A600020221900A0311BE0172903D11C22190094
:106A7000843115E0052903D1052003F065FA17E0FC
:106A80001C2902D120222A490AE01E2903D12322EF
:106A90001900D03104E01D2905D10E221900C031A2
:106AA00004F011F804E0202902D1002003F0D7F807
:106AB000200004F04DFD10BD002202700A7010BDD0
:106AC000C4F2000880B50020074908700549087025
:106AD000032003F039FA0E4804F03AFD03200B4975
:106AE000087001BD4C0300204D030020801D0020D4
:106AF000E41C0020FD1B00209817002054F1000822
:106B00007C1D0020D8F20008400300204A0300202A
:106B10009C03002070170000E8F20008B80B00008A
:106B2000F4F200084E52420008190020140200201E
:106B30007C030020F0B5BDB0060092A002F027FF54
:106B40000125914F0024C6480078032803D0C4488B
:106B5000007808282BD10622C249300004F02AFC14
:106B6000002800D01FE3C0480570C0490C70BC4825
:106B7000007803280FD1BE4804F0B2FCBD4802F0F3
:106B800006FF1D20B64908700E223900C031BA48F0
:106B900003F099FF0DE1B248007808285CD1B448B1
:106BA00004F09EFC092003F0CFF909205BE2AC4819
:106BB00000781D2818D10622AA49300004F0FAFBFB
:106BC000002849D1A9480470A94804F089FCC248AA
:106BD00002F0DDFE1E20A249087023223900D031C8
:106BE000A54803F070FF1EE19D4800781E2818D1CB
:106BF00006229C49300004F0DDFB00282CD19C4883
:106C000004F06EFC99490C7097480470042003F05E
:106C10009BF9042092490870954804F099FCCB48F0
:106C20008CE18F48007804282CD10822C849300014
:106C300004F0C0FB00280FD18B4805708B490C7005
:106C40008B4804F04DFCC3A13000083005F070FE05
:106C5000050005F095FE0F2800D0A4E20F222900C0
:106C6000BD4805F0F6FE81490C707F480470052090
:106C700003F06AF905207A4908707D4804F068FC41
:106C8000CB485BE176480078052815D10622754986
:106C9000300004F08FFB0028DED174490C7072487C
:106CA0000470062003F050F906206D490870704802
:106CB00004F04EFCBF4841E169480078062811D134
:106CC0000822BD49300004F075FB0028C4D107201C
:106CD00063490870B94802F05AFE00F02DFB3800F5
:106CE0002C3096E15E480078072815D1B449300071
:106CF00005F032FF002800D155E2082058490870FD
:106D000059490C7059480470CD48594948600846A3
:106D100004F01EFCCB4811E151480078092817D136
:106D200006225049300004F045FB002894D10B2086
:106D30004B49087003F008F94B490C704B4804703C
:106D4000D0484B494860084604F002FCCE48F5E0C4
:106D5000434800780B2819D106224249300004F03C
:106D600029FB002866D1404805704048047040481F
:106D700004F0B6FB0C203A49087003F0E5F8C94866
:106D8000DCE000BF520D0A001402002034480078F5
:106D90000C2817D106223349300004F00BFB0028E1
:106DA00048D10E202E49087003F0CEF8C24802F0F8
:106DB000EEFD2D490C702D480470A1482C49486007
:106DC000084626E1264800780E2834D1BB4802F058
:106DD000DEFDBBA50122290030000C3004F0EAFAE8
:106DE000002807D0012229003000183004F0E2FA10
:106DF00000281FD1B34802F0CAFD1D4804F070FB03
:106E000019490C701948047002F0A4FFAE490870CB
:106E100001280AD1C84802F0BAFD202010490870A4
:106E2000002002F01CFF1248F3E00F200C4908700C
:106E300003F08AF8B7E10A48007820281ED106221C
:106E40000849300004F0B6FA002801D1BB4875E0CB
:106E5000BB484288BB49BC4803F035FE0DE100BF8A
:106E60004A03002020F100084C0300204D030020BD
:106E70009C03002000F3000808190020CB4800788C
:106E80000F286BD1CA490D70CA490C70CA4804F06A
:106E900027FB300000F0C4F9C84802F078FD152047
:106EA000C2490870C64804F01BFB7C74C5490D70CC
:106EB000F87B002812D1C44802F069FDBB48057078
:106EC000C2490C70BF490C70C148047003F03BF814
:106ED00000F0B0FF67E100BF10F30008BD48007884
:106EE00001002ED11620B1490870BB48BB49097B6F
:106EF0001522514331310171090A4171B84908A87D
:106F0000D32202F091FDB54904A80D2202F08CFDB8
:106F1000B14982B06846172202F086FD0CBC002100
:106F2000112003F011F8FA200001AE49486008462C
:106F300004F00EFBAC4804F00BFBAC4802F027FD5C
:106F400031E10128FCD1A84863E000BF20F300082C
:106F500028F300080D0A00006A0300209348007817
:106F6000162800D082E0764842887649764803F0B9
:106F7000AAFD13229E49300004F01CFA002806D016
:106F800009229C49300004F015FA00281AD19A48C9
:106F90000078401C98490870C0B20328D0DB0C7000
:106FA0008248057087490C708848047093481DE03A
:106FB00034F300083CF3000844F3000850F30008E1
:106FC0005CF3000806228E49300004F0F3F9002833
:106FD00021D18948407805281EDB87494C707348C9
:106FE000057078490C7079480470864802F0CFFC2F
:106FF000714804F075FA844804F072FA834804F08A
:107000006FFA794804F06CFA6D4804F069FA3800B8
:10701000683004F09DFAC6E06E480078002813D16D
:10702000704804F05DFA784804F05AFA784801781C
:1070300001290CD10470BA490D706448057006E04E
:10704000B80B000064F300086F4804F049FAB9482F
:107050000078012806D16F490C706F4804706B48A6
:1070600004F03EFA1220514908709CE04F48007825
:1070700012280BD1694802F08AFC300003F0B4FA00
:1070800091E000BF881300006CF3000847480078C7
:107090001A281BD1300000F0C3F8012804D1A14800
:1070A00003E000BF74F300089F4802F070FC162054
:1070B0003E490870434875E080F3000890F30008EB
:1070C0002C0000009CF300088B1C0020374800783F
:1070D0001C2868D106224A49300004F06BF90028C8
:1070E00061D133490D7033490C70334804F0F8F91D
:1070F00015202E490870454804F0F2F9424804F082
:10710000EFF9394804F0ECF92B4804F0E9F92C4880
:1071100004F0E6F905F036FAA2480078002815D107
:107120002E490C73084685720021C1722A483131FC
:10713000017144710EE000BFA4F30008B8F3000829
:10714000480800204C080020E8190020A648C47414
:1071500045748474A5490C7002F0F5FEA948704985
:107160000978012918D1194A15701A4A15706C4A04
:107170001470A9496F4A1278002A03D10D70872232
:1071800052010260AD4A1570144A557108781070AA
:10719000AB4802F0FCFB00E0046066490C70164846
:1071A0004470A84805703DB0F0BD00BF4A03002000
:1071B0004C0300204D0300209C030020C4F3000872
:1071C000201D0020861C0020D0F30008841C002015
:1071D000781D0020490300206403002030030020B4
:1071E000C4160020FC1C0020901C0020DCF30008CA
:1071F000E8F30008FCF300086C1D002008F4000808
:1072000020F1000818F400089C1C002058030020FE
:10721000851C0020821D00204E03002030F4000851
:10722000F8B50400022288A104F0C4F8002875D142
:10723000002585A1A01C05F07BFB0400834E18E00F
:1072400005228349200004F0B5F800280CD10A2259
:107250000021601D05F02DFD80B2010A00020843E7
:107260007071000AB0713D0077A1002005F060FB4D
:1072700004004ED06F1C0D229449200004F09AF8AF
:10728000002810D10A22002120000D3005F011FD48
:107290000A2104F011FF80B2010A00020843307095
:1072A000000A7070DFE708228949200004F082F8A4
:1072B000002809D10A2200212000083005F0F9FC3D
:1072C000F11D05F023FDCEE704228249200004F0E1
:1072D00071F8002806D10A220021201D05F0E9FCE2
:1072E0003071C0E704228249200004F063F80028CE
:1072F000A6D10A220021201D05F0DBFC0A2104F0A2
:10730000DBFE80B2010A00020843B070000AF07090
:10731000A9E7EDB2052D01D10120F2BD0020F2BD9B
:10732000881C00203CF4000848F4000810B5714C9B
:107330002CE00000871C002070B56E4E34005834DD
:10734000207C012801D1022070BD01252574300068
:1073500003F06EFC30680168102291430160E06820
:1073600000680168A943016000202080E168096885
:1073700048600A6815430D60207470BD10B55E4CFE
:10738000606E0068016801220A4302605B4A5C4942
:10739000200003F0DAFB2068016810220A43026033
:1073A00010BD0000801D002038B5534D2C0058340E
:1073B000207C012801D1022032BD01202074280048
:1073C00003F036FC28680168102291430160E068F0
:1073D0000068016801229143016000202080E1687B
:1073E00009684860207432BDE41C00209817002012
:1073F000006840490968884202D10120914908701B
:1074000070470000641D002000683A4909688842FE
:1074100000D100BF704700004803002080B5FFF78F
:1074200057F90122D102A020C00505F060F8002222
:107430000121854805F05BF801BD00004B030020E9
:1074400058F40008741D00200D0A0000A803002055
:1074500094F4000838B52B480078002802D1FEF7D4
:107460002FFA31BD794804F03BF8794804F038F838
:10747000784804F035F8784804F032F80024774969
:107480000C7077490C7001257648007801280AD1E4
:1074900075480178002904D1057074480078744952
:1074A0000870022000E0002072494872724802F021
:1074B0006EFA72484178491C417071490C7002F0B3
:1074C00042FD704804607048057031BD68F40008E2
:1074D00078F4000884F4000810B56C4C200005F026
:1074E00095FC0022A0210902200005F019FC10BD26
:1074F0008CF4000808190020781900204C040000C2
:107500004C080020490300206148016804220A4316
:10751000026060480078012800D07047F8B55948EB
:107520000068401C574908605B4F00245B4D0126F2
:107530005B480078012805D14C490E700520594957
:10754000088044E05848007801001BD14748007883
:10755000010003D1474948788A780DE0012832D1EB
:10756000686A401CB4214900884201D300203E7261
:1075700068624049C8780A791206120C10434949DA
:10758000088020E001281ED136480078012807D164
:10759000687C002804D16E744448007802F08CFFA7
:1075A000686A32490978012906D1401CB421490092
:1075B000884201D300203E7268623D48007800286E
:1075C00001D100F075FC37480088002826D02D48EE
:1075D0000068344909884A00511888421ED3294856
:1075E0000460344801783448007808430ED11D49BE
:1075F000097801290AD12A490978012906D1284A9E
:107600001470EE721A490978184A1170194A947167
:107610002A4AD470002811D1BE720FE025480078A4
:10762000254909780143787B084309D1688A401CC1
:10763000688280B25A2803DB6C827E731248047021
:10764000F1BD00007B1D0020000400509C030020C1
:107650009C1C002058030020201D0020821D0020BB
:107660004E0300204F030020500300204803002059
:107670006F1D0020300300209CF400086C1D0020CA
:10768000871C0020641D0020741D0020A81C002001
:10769000007000404903002014020020080300206D
:1076A0006E1D002054030020801D0020FD1B0020C3
:1076B000841D0020791D0020781D0020E41C00207E
:1076C000F8B50124B04EB14D6869204026D0B4739E
:1076D000707801281FD074703079002808D1347177
:1076E000B4703000143003F033FFA94802F04FF9B2
:1076F000307901280FD1287800280CD12C70944FB4
:107700000821380005F030FC0120C04339680861C9
:10771000380005F0FFFB6869604068610027287D3C
:1077200080070AD53079012803D18A4802F02FF961
:10773000B7706869022141406961287D400705D51D
:1077400003F048FF6869042141406961287D000712
:1077500000D490E07078012800D087E00121A020BB
:10776000C00504F0BEFE002819D13078401C3070EE
:1077700088490978012910D1317901290DD1B179D0
:1077800000290AD1C0B2012807D1E879002804D124
:10779000B4713000443003F0DBFE3078052864D14A
:1077A000F07B002806D17C4802F0F1F800F000FBE5
:1077B0007A4858E077480078012856D17848007810
:1077C000002852D13000143003F08AFE377175481A
:1077D0000078012809D1744803F082FE9F490F7098
:1077E000724802F0D4F800F049FB9D480078012867
:1077F0001BD19C4803F074FE9B4803F071FE9B482C
:1078000003F06EFE9A4803F06BFE9A4803F068FEA0
:10781000674802F0BCF898490C7090490F7097497E
:107820000F708F490F7002F08EFB3770EC7161485A
:107830000078010002D15F490C7009E0012807D1EE
:107840005C490F708E490F70C8490F738C72CF72EC
:1078500058480078C54908708A490F70AF70C82031
:107860004E494860084603F073FE77702F706869D0
:10787000082141406961287DC00605D5FEF70CFE50
:107880006869102141406961287D80065ED5744891
:107890000078444909780143B07B08437A497B4A20
:1078A0001278012A4BD17A4A1278002A45D17948B8
:1078B00002F06DF876490C7077480078002841D0C6
:1078C00038480078012809D1374803F009FE634998
:1078D0000F70904802F05BF800F0D0FA6048007832
:1078E00001281BD15F4803F0FBFD5F4803F0F8FD62
:1078F0005E4803F0F5FD5E4803F0F2FD5D4803F0DD
:10790000EFFD854802F043F85B490C7053490F7056
:107910005A490F7052490F7002F015FB944802F05B
:1079200036F86F7491494C7222490C709148076087
:10793000052091490880B47204E08C4B5C720028E9
:1079400000D10C7068692021414069610020F2BDBE
:107950003C1B0020B8F4000810B5AB4C08212000F7
:1079600005F002FB0120C04321680861200005F0FA
:10797000D1FA10BD80B5A4480121C9430268116144
:1079800005F0D2FA01BD0000140200200803002017
:10799000A8F4000849030020C0F40008141D0020CA
:1079A000801D0020791D00202C1D0020C8F4000837
:1079B000D0F4000848030020F8B5FEF789FE8C4C8F
:1079C000E07801280DD12079010003D10022802127
:1079D000490003E0012804D1002210218B4804F063
:1079E00086FD294F8A4D00200126217A012906D1E2
:1079F000207260490860AE72387086482AE01849E3
:107A00000A78854909781143844A1278152A1ADAC6
:107A1000A279002A0FD1824801F0B9FF0022310279
:107A20007A4804F064FDA079401CA0712800383029
:107A300003F08EFDF1BDA07100290DD1794801F050
:107A4000A6FF3E70F1BD002903D1774801F09FFFEA
:107A50003E70CC4801F09BFFF1BD0000841C00206B
:107A6000781D00209C030020201D00209C1C00206D
:107A700058030020901C00204A030020861C002090
:107A8000C4160020751D0020741D00204F03002027
:107A90006E1D0020D8F400085003002070B50125A9
:107AA0005348C17B002902D1C57360481EE00026FF
:107AB000C6735F480078564C01001DD1E07B00285A
:107AC00017D15C4801F063FF5B4803F009FD20001B
:107AD000203003F005FDFFF74DFF002229024B483F
:107AE00004F005FD8F48A0672000743003F030FDDE
:107AF00070BDFDF7E5FE70BD012809D18A4801F08F
:107B000046FF657402F01FFA1A480660C448057003
:107B100070BD0000E0F40008E8F4000880B5FDF74F
:107B2000CFFE01BD38B53A4C0025A57196A001F0F5
:107B30002EFFA078002817D12178944801F027FF64
:107B40002078012810D192A001F021FF257020009B
:107B5000143003F0C5FC25710120254948703648D2
:107B6000C821416003F0F4FC31BD00003003002067
:107B7000F0F40008641D00205403002038B5244CA4
:107B800025008035286804F0E4FC00202860E071BE
:107B9000616D804A914200D120727F4801F0F7FE6A
:107BA00000F06CF97D487E49097800290ED17D49A5
:107BB00009787D4A117315235943491C9172090AAA
:107BC000D172117B1522514331310BE0774909788D
:107BD000B24AD17415234B4353741B0A9374152274
:107BE00051432D310171090A417100F0E1F831BDB5
:107BF0000803002080B501208A490870BA4801F0C6
:107C0000C6FEFFF7BBFB01BD741B00200004005043
:107C100014020020F8F40008791D0020B4030020AD
:107C200000F500080CF5000818F50008201D0020DC
:107C30004903002030F50008141D0020F8B57A4CE7
:107C400000260125794F787B01283DD126627848AE
:107C500005F0DCFBFA21764805F006FC744805F0D7
:107C6000CCFC800503D5724805F072FCE061E06948
:107C7000C82109014843000BE061A8214843642161
:107C800004F01DFA0100A1617A4801F080FE002392
:107C9000E278217BA06900F0E3FB77490870424954
:107CA000C8717E490874207301007D4801F06FFEA1
:107CB0007E737C4800787C490978014304D17B4875
:107CC00001F065FE56490D70A069CD210901884279
:107CD00026D26079012813D1734800787149097858
:107CE00001431ED1814801F052FE81490E70814945
:107CF0000D706671BD7280490E7049480670F1BD05
:107D00007E4800787B49097801430AD17CA001F0C4
:107D10003EFE7D73267442480570FDF7E7FFF1BD16
:107D20002574F1BD8813000040F5000810B5824CA1
:107D30002078C10724D5FE21014021705A480078DF
:107D400001280BD057480078012819D1FFF7F4FA21
:107D5000201DFEF7EFFEFFF7E9FA10BD314801786C
:107D6000012906D1002101707449201D05F0B8FCDD
:107D700010BDFFF719FB201DFEF7DCF9FFF7FEFA37
:107D800010BD000024F500082E2E2E0050F500082E
:107D9000210000003075000064F500086403002035
:107DA000801D0020C41600203003002098170020FA
:107DB00010B5FFF7BBFA01203A4908706048007817
:107DC000002805D102F0B8F8FEF77CFE5D4821E0FE
:107DD0005D486921415C212905D120216922815416
:107DE0005A4801F0D4FD114C607C012805D1584857
:107DF00001F0CDFD200068300CE05049554805F0F9
:107E00006FFC1A20544908700F2002F09DF8534867
:107E10005349416003F09CFBC44801F0B8FD10BD1C
:107E2000741D0020731D0020080300201402002090
:107E3000581A002010B514214A4805F051FC04F0EE
:107E40007BFB012018490870474900244C82487187
:107E500008005C3003F07CFB444803F079FB3F48AA
:107E600003F03EFB42490C7042480470D24801F0D6
:107E70008EFD10BD84F20008B403002080B5FFF72A
:107E800093FA04F05EFB0020074908702B49314843
:107E900005F026FCC94801F07AFD01BDE41C002074
:107EA00084F50008781D0020791D002090F5000859
:107EB00010B582B03048807800F0E8FF00900024D0
:107EC00068464078012801D12C490C70684600783A
:107ED000012808D12A48007802F0EEFA2948046007
:107EE0000120B949087013BD74F500089CF500081D
:107EF000480300207D1D0020841C00207E1D0020E2
:107F0000534C000080B500F03FF801BD80B5002063
:107F1000874948708749087087490870032002F034
:107F200013F8864803F014FB03200B490870A74898
:107F300003F00EFB01BD0000480800204C040000C7
:107F400049030020201D002008190020A4F5000886
:107F5000B4F500084C0800204A030020901C0020C3
:107F6000C8AF0000341C0020140200202C1D00208B
:107F7000731D0020701D0020E41B00207F1D0020C9
:107F8000FD1B0020641D0020F0B5BDB00120904A0B
:107F9000107090490978012903D08F490978012987
:107FA00005D18E4916220A70634A1278002A00D041
:107FB000B9E0604A13788A4C8A4E052B00DB83E0D7
:107FC0005B1C1370884D89490978012910D119204B
:107FD000287100206871864801F0D9FC290084B01E
:107FE0006846172201F020FD0FBC01F045FB67E059
:107FF000804F81490978012902D0F17A01290FD1F6
:10800000D1206870207B1521484331302871000A47
:108010006871297968790006000C0143774838E0D7
:108020007749097801292CD1764EA179012900D10F
:10803000F070754800783071D3206870F07C15219D
:1080400048432D302871000A6871704907A8D3226F
:1080500001F0EAFC310002A8142201F0E5FC29003D
:1080600084B06846172201F0DFFC0FBC01F074F801
:10807000297968790006000C0143654801F087FC06
:108080001EE000291CD1297968790006000C014303
:10809000604801F07CFC390008A8D32201F0C4FC40
:1080A000210004A80D2201F0BFFC290082B068461F
:1080B000172201F0B9FC0CBC0021112001F044FF93
:1080C000554803F045FA2EE0002515700870534915
:1080D0000D7053490D70534801F059FC174803F0D7
:1080E000FFF94D4803F0FCF94F4803F0F9F94F4808
:1080F00003F0F6F9354803F0F3F94D4803F028FA98
:108100004C48017801290ED105703D480078B17ABC
:10811000014308D13C490D7025704748007801287B
:1081200001D1464805703DB0F0BD0000BCF5000827
:108130006C1D00204D0300204C0300209C030020F8
:10814000F0B587B002203E490A6802430A60096818
:108150000840059005988024E4003A4F0022210051
:10816000380004F0C4F9384E01223100380004F020
:10817000BEF90122C021380004F0B9F900940124AD
:1081800001940025029503956946380004F066F8CD
:1081900000960194029403956946380004F05EF855
:1081A000C02000900195029403956946380004F0C0
:1081B00055F807B0F0BD0000C8F50008D4F5000878
:1081C00080B5FDF77DFB01BD741D0020201D002042
:1081D000781D002049030020851C00204A03002050
:1081E0003003002008030020640300208A1C0020C4
:1081F000E0F50008C41600206E1D0020C4F200083F
:10820000801D0020E41C0020480300209817002057
:10821000E8F5000800F600089C1C0020861C0020E1
:10822000841C002008F4000858030020901C002043
:108230007C0200207C1D00204F0300206F1D0020C9
:108240002C1002400004005002080000FEE7FEE788
:1082500080B50648016840220A430260002005F00C
:1082600043FA05F055FA002002BD0000002002404C
:108270000248016802220A430260704710E000E0F1
:1082800005480168020D0A43026070470248016810
:10829000420D0A430260704700700040F0B587B09D
:1082A00001243348016821430160016821400591A0
:1082B0000599022102680A430260006801400591A5
:1082C0000598A027FF05002281210901380004F04C
:1082D0000EF9284E00222849300004F008F98820C1
:1082E000000200900194002502950395694638002C
:1082F00003F0B4FFFF201230009001940295039523
:108300006946300003F0AAFF2620009001950295EF
:108310006946300003F0A2FF20200090174801902A
:1083200002956946300003F099FF0094144E0196BF
:1083300002946946380003F091FF402000900196B6
:1083400002956946380003F089FF002200210520CC
:1083500003F026FF052003F027FF0022002107205D
:1083600003F01EFF072003F01FFF07B0F0BD00BFA2
:108370002C10024000040050018100000000211078
:108380000000311080B501200C490A6802430A60E0
:108390000968084000900098002200210A2003F09C
:1083A000FFFE0A2003F000FF002200210B2003F053
:1083B000F7FE0B2003F0F8FE01BD00BF30100240B5
:1083C00030B583B0394C3A482060002020649021B9
:1083D00089036160A0600321E16301212161E06004
:1083E00020626062E062FF21C231A1622063042149
:1083F00061616063A061A063E06100BF31A52000FE
:1084000004F032FF002803D053212800FFF71EFF9D
:1084100028480090000C01906946200005F09BF868
:10842000002803D05C212800FFF710FF37BD00684B
:108430001F49884200D0704700B585B01E480168CA
:10844000420D0A430260102000900320019000209A
:1084500002906946A020C00503F000FF05B000BDF2
:1084600030B5010064200022144B1D888D421BD3BF
:108470005D8A8D4201D3002030BD54001C1925882F
:10848000A9420ED264888C420BD2521C0A235A4352
:10849000801AC0B20A2807D1094A914204D20520A5
:1084A00030BD521C0A2AE8DB30BD0000581A0020FB
:1084B0000024014010000010341002400000002091
:1084C000DE0D0000443A5C54454C55535C41495321
:1084D0005F50524F4752414D5C4C6F6361746F72F5
:1084E0005F4C30353154385F4149535F616C617284
:1084F0006D5F464F54415C5372635C6164632E63ED
:108500000000000080B5AB48AB49016096218901AD
:10851000416000218160C16001610C224261816182
:108520000162416202F036FA002804D04D2100BFFA
:10853000A4A0FFF78BFE01BD80B5A048D249016021
:1085400096218901416000218160C16001610C2296
:1085500042618161C1610162416202F01BFA00283F
:1085600003D0622197A0FFF771FE01BD80B594484A
:10857000C649016096218901416000218160C16086
:1085800001610C2242618161C1610162416202F0BC
:1085900001FA002803D077218AA0FFF757FE01BD1A
:1085A000F0B587B006003268B9480024B94D022101
:1085B000814B9A424AD142684B0413434360C02026
:1085C00000010190029101200390032004900420F7
:1085D000059001A9B04803F041FEB048143028606E
:1085E00005276F60AC60EC60802028616C61AC6135
:1085F000EC612C62280005F0ABF8002803D0A02124
:1086000070A0FFF723FE7566AE62A44828646F640D
:108610001020A864EC64802028656C65AC65EC656E
:108620002C662800403005F093F8002803D0B121D3
:1086300064A0FFF70BFE280040303066AE660022D3
:1086400000211D2003F0ACFD1D20AEE02F0084377B
:108650008D4B9A4252D102684B0313430360C020F2
:10866000C000019002910120039003200490042097
:10867000059001A9A020C00503F0F0FD280080307E
:10868000009086483C3000990860032038607C6088
:10869000BC608020F8603C617C61BC61FC6100983A
:1086A00005F056F8002804D0DD2100BF45A0FFF7F3
:1086B000CDFD009870667E6278482830F86303200C
:1086C000386410207864BC648020F8643C657C6564
:1086D000BC65FC652C00C034200005F039F800288A
:1086E00003D0EE2137A0FFF7B1FD34667E6600228D
:1086F00000211B2003F054FD1B2056E0634B9A42DF
:1087000055D142680B04134343600C200190029141
:1087100001200390032004900420059001A9A020CB
:10872000C00503F09BFD5D485030F8678220400093
:108730002F18042038607C60BC608020F8603C61A9
:108740007C61BC61FC6180302818009005F000F865
:10875000002804D08D2149001AA0FFF777FD00986A
:1087600070667E624D486430F863042038641020DF
:108770007864BC648020F8643C657C65BC65FC65FD
:10878000C0302C18200004F0E3FF002805D0FF21A2
:108790002C3100BF0BA0FFF759FD34667E66002226
:1087A00000211C2003F0FCFC1C2003F0FDFC07B0A2
:1087B000F0BD000008190020004800407819002092
:1087C000E8190020443A5C54454C55535C414953E8
:1087D0005F50524F4752414D5C4C6F6361746F72F2
:1087E0005F4C30353154385F4149535F616C617281
:1087F0006D5F464F54415C5372635C757361727474
:108800002E63000010B504002268214924488242EA
:1088100010D14868514A02404A60C02109011E48EF
:1088200003F0DFFD606E05F009F8206E05F006F834
:108830001D2025E0A020C005134B9A420FD10A68E5
:10884000474B13400B60C021C90003F0CAFD606EA6
:1088500004F0F4FF206E04F0F1FF1B2010E00B4B3E
:108860009A420FD14A683F4B13404B600C2103F0F2
:10887000B8FD606E04F0E2FF206E04F0DFFF1C2004
:1088800003F099FC10BD0000003801400044004096
:108890003410024018140020000400501C00024054
:1088A00000480040F1B53048006800990968012788
:1088B0002E4C2F4E1025814214D1C969294011D068
:1088C0000562294802F088F92748406E0068406830
:1088D000301A60802078384320703200211D2248F1
:1088E00002F033F92348006800990968814214D1E5
:1088F000C969294011D005621E4802F06DF91D4872
:10890000406E00684068301A6080207838432070DC
:108910003200211D174802F018F917480068009925
:108920000968814218D1C969294015D005621248E9
:1089300002F052F91048406E006840688A21C90070
:108940006118301A4880087807430F7032000B48CE
:108950002118094802F0F9F8F1BD0000FFFFFBFF04
:10896000FFBFFFFFFFFFFDFF0819002048080020A0
:108970004C04000078190020E8190020540400007D
:1089800070B586B0724C8021C90521607149616063
:108990000025A560401EE060256100BF74A6200090
:1089A00004F098FA002803D040213000FFF74EFC75
:1089B00080204001029002A9200004F084FB0028DE
:1089C00003D046213000FFF741FC00950195694630
:1089D000200005F01BFA002803D04D213000FFF7DE
:1089E00035FC06B070BD000070B586B05A4C5B48CF
:1089F0002060584860600025A5609520E0602561F2
:108A00005BA6200004F066FA002803D05E21300047
:108A1000FFF71CFC80204001029002A9200004F016
:108A200052FB002803D064213000FFF70FFC0095B3
:108A300001956946200005F0E9F9002803D06B2173
:108A40003000FFF703FC06B070BD000070B586B0C3
:108A5000434C444820603F4860600025A560424880
:108A6000E060256142A6200004F034FA002803D01B
:108A70007C213000FFF7EAFB80204001029002A930
:108A8000200004F020FB002803D082213000FFF7F3
:108A9000DDFB009501956946200005F0B7F9002837
:108AA00003D089213000FFF7D1FB06B070BD80B53F
:108AB00001682E488022D20591420AD141680122E4
:108AC0000A434260002200210F2003F069FB0F20BF
:108AD0001AE0224A91420AD1016804220A43026044
:108AE00000220021142003F05BFB14200CE01D4A3F
:108AF00091420BD1016820220A430260002200212A
:108B0000162003F04DFB162003F04EFB01BD80B58F
:108B1000016816488022D205914205D141680122A0
:108B2000914341600F2010E00C4A914205D1016849
:108B3000042291430160142007E00A4A914206D1C1
:108B40000168202291430160162003F034FB01BD2F
:108B5000041B00207F3E00003C1B00200008014059
:108B6000741B002000140140B70B000034100240B9
:108B7000443A5C54454C55535C4149535F50524F05
:108B80004752414D5C4C6F6361746F725F4C30357E
:108B90003154385F4149535F616C61726D5F464F7C
:108BA00054415C5372635C74696D2E630000000075
:108BB00080B5164816490160002141607F2282601D
:108BC000FF22C260016141618161C16105F042F92A
:108BD000002804D0432100BF0FA0FFF737FB01BDE1
:108BE00000680B49884200D0704780B50948016889
:108BF0008022D2020A43026000220021022003F0F8
:108C0000CFFA022003F0D0FA01BD0000A81C00201A
:108C10000028004050100240443A5C54454C5553E3
:108C20005C4149535F50524F4752414D5C4C6F631A
:108C300061746F725F4C30353154385F4149535F16
:108C4000616C61726D5F464F54415C5372635C723C
:108C500074632E630000000038B5294C2948206059
:108C6000294860600020A0600121E160206160610E
:108C7000A061E061206200BF26A5200005F0BCFADB
:108C8000002803D042212800FFF7E0FA002120004D
:108C900005F0A6FD002803D049212800FFF7D6FAE9
:108CA0000021200005F0B8FD002803D05021280045
:108CB000FFF7CCFA31BD00681249884200D07047F6
:108CC00000B585B0C02000901220019001200290D4
:108CD00003210391049069460C4803F0BFFA0C4845
:108CE0000168802292030A430260002200211720BB
:108CF00003F056FA172003F057FA05B000BD000044
:108D0000B81A0020005400405B3D300000040050C1
:108D100038100240443A5C54454C55535C41495329
:108D20005F50524F4752414D5C4C6F6361746F729C
:108D30005F4C30353154385F4149535F616C61722B
:108D40006D5F464F54415C5372635C6932632E63BE
:108D500000000000F1B50F001600042901D006291B
:108D600001D11F2E4ADA092901D00B2901D11F2E6A
:108D700044DA820704D0022906D11D2E04DB3DE02F
:108D8000022901D11E2E39DA3A0037D00D2935DA01
:108D9000310033D0202E31DA182B2FDA06983C28F8
:108DA0002CDA07993C2929DA089D2A0026D0082DBB
:108DB00024DA834C23726072A17200206061A0618A
:108DC0000022210008317F4805F094F8002801D0E6
:108DD0000BA00EE025706770A67068460078E07002
:108DE00000222100774805F02AF9002804D000BFAE
:108DF00007A000F0CCFD01E00120F2BD0020F2BD93
:108E000053657454696D654572726F720D0A000086
:108E1000536574446174654572726F720D0A000087
:108E200070B50125674E664C0022210008313000E4
:108E300005F0DFF800280FD100222100300005F0F6
:108E40005FF9002808D10025A37A627A217A00BF51
:108E500004A000F09CFD02E007A000F098FD2800AF
:108E600070BD0000253032643A253032643A253036
:108E700032640D0A000000006765745254435F4479
:108E80006174655F4552524F520D0A00F1B582B0D0
:108E90003FA0006800900125FFF7C2FF002873D1B2
:108EA000A24F474C0026207A002842D1607A002841
:108EB0006CD1A07A010069D03C2867DAA07F002835
:108EC00064D19B480078012800D1A57799480078A3
:108ED000012804D1984802F003FBFEF7CFFF387851
:108EE000012811D1954802F0FBFA954802F0F8FAF2
:108EF000944802F0F5FA944802F0F2FA934802F02E
:108F0000EFFA3E7001F01FF869460D706846007A6E
:108F1000401E03D0401E012809D90AE0607F401C92
:108F2000E17903F0C9F86177607F694600E0A078D5
:108F30008870207A0B2829D1607A3B2826D1A07A24
:108F40002838132822D2684645707A4800780128CC
:108F500004D1794802F0C4FAFEF790FF387801286E
:108F600014D1764802F0BCFA754802F0B9FA754897
:108F700002F0B6FA744802F0B3FA744802F0B0FA9C
:108F80003E7000F0E0FF01E06846C5700098FEBD4D
:108F90000000000080B5FFF743FF6D480178072906
:108FA0000BD1017A172908D1417A3B2905D1807A62
:108FB0001438282801D2012002BD002002BD000083
:108FC000E01B0020A81C0020F1B58AB00B002F2068
:108FD00030210591FF210022029200925B1EDBB23C
:108FE000069307AC5B4B6370A170012323700025CF
:108FF000574B1E7AB54206D169005D7A1E2D00DB03
:10900000491CC9B203E06D1CEDB2182DF2DB00253E
:10901000CD4EB446069F782677436646F6190196EC
:10902000019EAF007F19F619B778002F0AD0767825
:10903000B14207DA2F2E05DA0120029030006E4689
:10904000357402E06D1C182DEADB019D9600B61800
:10905000AD19AD782E0009D0A94207DA312D05DA15
:10906000012600960595D2B2039202E0521C182AFE
:10907000EBDB1A7A3C2555435A7AAD18ADB2009A0B
:10908000002A44D0019A039B9E00F318D6182F297A
:1090900015D02E2913D00599884210DA029900299B
:1090A0000DD01E214843401B6070000AA07001983B
:1090B0006946097C8A005118405C20702CE0F078E9
:1090C00031790906090C0843F17832791206120C3D
:1090D0001143000A0902014389B2009177781E20EA
:1090E0004743E81B009902F0E7FF401C0099484302
:1090F000401BC0196070000AA07030782070F078B2
:1091000031790906090C0843E070000A06E0B42032
:10911000C00060700520A0700020E07020710A98E7
:1091200007A9052200F080FC0BB0F0BD781D0020DF
:1091300049030020791D00202C1D00209C030020E5
:10914000201D00209C1C002058030020901C0020A3
:10915000E01B0020FFFF00000FB4FEB57B4CE01DBC
:1091600005F082FB119020790EA948720EA8218883
:109170004171090A81716079A1790906090C0843D6
:109180000EA948810EA86188C171090A017208A858
:109190008088010A0002084308A988800EA9487C3B
:1091A0008A7C1206120C1043523080B20190487C27
:1091B0008A7C1206120C10430EAA517C937C1B066B
:1091C0001B0C1943000A090201435174090A9174E6
:1091D0000EA8C07C0028019802D1801E042101E065
:1091E000401E02216A46517080B200F0D1FF050096
:1091F0000199490040181A3069460881544EB71C3D
:10920000207B3874E01D05F02FFB31001B3103F08B
:109210007DFD01982538310023310204120E000231
:1092200010430870000A48702079B87549483070BA
:10923000B12070700F224849F01C03F00AFC20880E
:109240003075000A70756079A1790906090C084328
:109250007076000AB0766088B075000AF0757B48B9
:109260000078222170540320387079488079F8778B
:10927000784842190F322521300003F017FC754859
:1092800029005931C9B24218172108A803F00EFC71
:109290008735ACB26F48021914210EA803F006FC02
:1092A0002834A4B2002569460D7015E013A81521D5
:1092B000694346183A001521701C03F0F7FB2A3465
:1092C000A4B21521701C03F0A5FB694609780818A3
:1092D000694608706D1CEDB25E4807190EA8C07C87
:1092E0008542E3DB162108A8401C03F093FB694686
:1092F000097808186946087014210EA803F08AFB43
:10930000694609780818694608703A0001216846DC
:1093100003F0CCFBFA2069468870BA1C012100A832
:10932000801C03F0C3FB09224B494A48A41CA4B289
:109330000019801C03F08DFB684600896946497856
:10934000421A92B28EE10000D0100020A803002043
:109350005C1C0020FAB100006A030020F1B584B063
:1093600000203E49087010223D49049803F03FFB5D
:1093700010253B4948798A791206120C10430A4697
:10938000517993791B061B0C1943000A090201430A
:109390005171090A917133480078401C6946487040
:1093A0001079C870D07888709078002802D1012098
:1093B0002A490870002602AF00E0761C2849C979C6
:1093C000F0B2884237D2062201A90498401903F06E
:1093D0000EFBAD1DADB2002411E0052202A922480A
:1093E000844668460379782043436046C018E4B257
:1093F000A3001B19C018783803F02BFB641C01A9CB
:109400008978E0B28842D8D20A2202A90498401989
:1094100003F0EDFA0A35ADB2B8787978814208D216
:10942000302906DA010004D0312802DA387802281F
:10943000D3DB002004E009480078012800D0AA20EE
:1094400069460870009805B0F0BD0000490300208F
:1094500030030020D00C002048970008F91C0020A1
:109460004C1D00207A1D0020D01000200FB4F0B554
:1094700083B008A88088010A0002084308A98880F0
:109480000EA948788A781206120C10430EAA517859
:1094900093781B061B0C1943000A09020143517003
:1094A000090A91700EA9C8780A791206120C1043A5
:1094B0000EAAD17813791B061B0C1943000A090266
:1094C0000143D170090A11710EA84089010A0002F6
:1094D00008430EA948810EA8007B1527474355373E
:1094E000BFB2380000F054FE0400790040181A3072
:1094F00069464880894EB01C01908948007B0199DB
:10950000087447ADE81D05F0AFF931001B3103F0D9
:10951000FDFB253F300023303904090E3A020A438F
:109520000270120A42702879019988757D4830705E
:10953000B12070700F227C49F01C03F08AFA288851
:109540003075000A70756879A9790906090C084315
:109550007076000AB0766888B075000AF0757348B6
:109560000078222170540320019908707048807996
:109570000199C8776F4802190F322521300003F096
:1095800095FA6C4821005931C9B24218172108A830
:1095900003F08CFA8734A4B2664802190B2147A85D
:1095A00003F084FA1634A4B2624802190D210EA801
:1095B00003F07CFA1A34A4B2002569460D7015E058
:1095C00012A81521694346183A001521701C03F0B2
:1095D0006DFA2A34A4B21521701C03F01BFA6946F7
:1095E00009780818694608706D1CEDB251480719D2
:1095F0000EA8007B8542E3DB162108A8401C03F07F
:1096000009FA694609780818694608700D210EA8FC
:1096100003F000FA694609780818694608700B21BA
:1096200047A803F0F7F969460978081869460870F1
:109630003A000121684603F039FAFA206946487079
:10964000BA1C012100A8401C03F030FA092200BF17
:109650003DA13848A41CA4B20019801C03F0F9F9FC
:10966000684642883349344801F02DFA03B0049823
:10967000F0BC05B0004700000FB4F8B506ACA088F8
:10968000010A00020843A08000206075A075D22066
:1096900060703D2000F07CFD0500264E5930C0B2C0
:1096A0003218172106A803F001FA2F008737BFB23E
:1096B0000020694608701621601C03F0ABF969466A
:1096C0000978081869460870F419220001216846D3
:1096D00003F0ECF9FA2069464870A21C012100A8A9
:1096E000401C03F0E3F9092217A1BF1CBFB2F01917
:1096F000801C03F0AEF99435AAB231000E4801F097
:10970000E2F901B0B3E770470C4880218902016299
:109710000B4941620B498162704700005C1C0020CC
:10972000A8030020FAB100006A03002049030020CA
:1097300030030020D00C002008190020E01B00207E
:1097400088130000079700082C3078303130300D36
:109750000A00000002B5002805D0026811700168F7
:10976000491C016001BD034B01226946024801F01A
:1097700047F901BDFFFF0000E8190020F1B50E0018
:10978000140000252027012C0EDB002001E0401CE6
:10979000491C0A78002AFAD1A04201DB002400E02B
:1097A000241A980700D53027D80708D405E03900D7
:1097B0000098FFF7CFFF6D1C641E012CF7DA31789B
:1097C00008000BD00098FFF7C5FF6D1C761CF6E76C
:1097D00039000098FFF7BEFF6D1C641E012CF7DAFC
:1097E0002800F2BDF5B585B00020019000900E0074
:1097F00002AA0C9D09D13021117050700D9B2A00D6
:1098000002A90598FFF7BAFF3DE0002B07D0069BA1
:109810000A2B04D1002902D5012301934E4202A94B
:109820000C000B34D0720E9F002E10E03000069911
:1098300002F045FC0A2902DB38003A380918641E98
:10984000303121703000069902F039FC0600EDD16C
:10985000019800280FD0002D0AD00D98800707D559
:109860002D210598FFF776FF012000906D1E02E084
:10987000641E2D202070009E0D9B2A00210005985B
:10988000FFF77CFF301807B0F0BD0000F0B585B0E1
:1098900007000C001600002505E021783800FFF7CE
:1098A00059FF6D1C641C2078010068D02528F4D174
:1098B000641C002300222078010060D02528ECD011
:1098C0002D2806D1641C012303E0641C1800022328
:1098D000034320783028F8D02078010030390A2955
:1098E00005D20A214A431218303A641CF4E773285F
:1098F0000AD13168361D002901D100BF2DA13800E1
:10990000FFF73CFF2D18CDE764280BD13168361DD9
:10991000612002900193009201230A223800FFF790
:1099200061FFEFE7782808D13168361D6120029089
:109930000193009200231022F0E7582808D13168E3
:10994000361D412002900193009200231022E5E78A
:10995000752807D13168361D61200290019300926D
:109960000023DAE763289DD13068361D6946087305
:10997000002003A948703800FFF700FFC2E7002F5E
:1099800002D0002039680870280005B0F0BD0EB480
:1099900000B501AA01000020FFF778FF009904B08C
:1099A00008470DB400B502AA01A8FFF76FFF0099A0
:1099B00004B00847286E756C6C29000011B581B0A1
:1099C00004F05EFF040004F05BFF001B0199884275
:1099D000F9D313BD70B505000C00160004F056FF56
:1099E0000F482D1807E022782900002004F064FFBA
:1099F0006D1C641C761E002E02D00A488542F2D3EC
:109A000004F050FF70BD064BC018002A04E0037834
:109A10000B70401C491C521EF9D170470000000019
:109A20000000080800080808124207D08B0706D07B
:109A30000B78491C0370401C521EF7D870478307EF
:109A400006D00B78491C0370401C521EF9D1704798
:109A500070B4103A03D378C9103A78C0FBD25307D8
:109A600001D318C918C001D508C908C0D20704D34A
:109A70000B880380891C801C002A01D50B78037099
:109A800070BC7047F1B586B00E0001A8B5A11422D4
:109A9000FFF7DEFF984D9621280003F023FE2800F3
:109AA0009830009000240480320000BFB2A128004A
:109AB000FFF777FF280002F063FF010001AA0EE024
:109AC000069B1B191F783F09D75D0770491C187842
:109AD0000007000F105C89B26854491C641C89B2ED
:109AE0006818B442ECDB00BFA8A1FFF75AFF2800BA
:109AF00002F046FF00990880A7A0FFF748FF0098F2
:109B0000028829007D4800F0DEFF07B0F0BD80B577
:109B10000B001100132804D0142805D0182807D0F2
:109B200001BD00F013F801BD180000F03BF801BDC5
:109B300000207349087000F006F9724801F0D0FC6B
:109B40000F207149087000F0FFF901BD38B56F4C66
:109B5000FF202070FE2060700120A0701320E070B4
:109B60000020A080A0711121E1712072684D2800B1
:109B7000083002F005FF02002900083120000930FA
:109B8000FFF752FF1921200004F0D8FE80B2002117
:109B90000918090A2171607119212000FFF772FF6D
:109BA00031BD000038B50500594C102229002000B5
:109BB0001830FFF739FF287C0002697C401860806C
:109BC000A87C0002E97C40182080A08800902388AF
:109BD00062882100183100BF71A0FFF7D8FE00F0A5
:109BE00061F800281BD10B227BA12000183004F063
:109BF000ACFE002810D000F077F8012000F09CF8AF
:109C0000012000F08DF8BFF34F8F424842490860B1
:109C1000BFF34F8F00BFFDE7032000F001F831BD17
:109C200010B53A4CFF212170FE2161700121A17015
:109C30001422FFE7E2700022A280A271E17120727B
:109C40000921200004F07AFE80B200210918090AD7
:109C50002171607109212000FFF714FF10BD10B5BC
:109C60002A4CFF212170FE2161700121A170182171
:109C7000E1700021A180A1711121E17120721022F7
:109C8000264920000930FFF7CFFE1921200004F0FB
:109C900055FE80B200210918090A2171607119214D
:109CA000D9E7000038B50024194D2888002803D1D1
:109CB0004CA0FFF76CFE01246888002804D100BF87
:109CC0004FA0FFF764FE0224102200BF53A128001A
:109CD000183004F03AFE002804D100BF54A0FFF76A
:109CE00056FE0424200032BD80B5282208492020D9
:109CF000FFF770FE01BD00006C180020081900205D
:109D00008B1C00209C0300204A030020AC1B002079
:109D10000C1C00200400FA050CED00E0141C0020CF
:109D200001B5012269461020FFF754FE01BDFFF77F
:109D30006AFE6846007802BD01B50122694611201D
:109D4000FFF748FE01BD01B5012269461220FFF769
:109D500041FE01BD80B50020694608700122122035
:109D6000E5E7000030313233343536373839414297
:109D7000434445460000000041542B4D4C57554C80
:109D80004441544145583D25642C00002C30783026
:109D90003130300D0A0000005A5A5A0D0A000000F6
:109DA0006E65772076657273696F6E20696E666F77
:109DB0003A25730A2020202073697A653A25640ABF
:109DC0006E756D3A25640A202020636865636B3ADE
:109DD0003078253034580A0076312E312E31383023
:109DE00038323000666F74615F696E666F2E626C28
:109DF0006F636B5F6E756D206572726F720A000023
:109E0000666F74615F696E666F2E626C6F636B5F05
:109E100073697A65206572726F720A000000000033
:109E20000000000000000000000000000000000032
:109E3000666F74615F696E666F2E6E65775F7665BB
:109E4000725F73746172206572726F720A00000033
:109E500038B500246846047004F096FD344D684619
:109E60000078332801D02C7031BD04F0D1FE0020E1
:109E700004F0ADFD0120287031BDF8B505000C00DF
:109E800017001E002A48007800282CD004F0C0FEDD
:109E9000280004F083FD002C01D1012000E0022005
:109EA00004F095FD072004F0E9FD002004F04CFECD
:109EB000012004F031FE002004F05FFE402004F099
:109EC0007AFE380004F0F5FD012004F00CFE0020BD
:109ED00004F084FEF0B204F0C7FE022004F0CEFECF
:109EE000152004F0A9FEF1BDE0B510220292012276
:109EF000019200910123020031210E4804F082FA00
:109F0000401E8041C00F0EBD02B584B010210291E9
:109F10000121019104A9009101230200302105488B
:109F200004F0C4F9401E8041C00F05B000BD000020
:109F3000721D0020B81A002080B50122012160485E
:109F400002F0D5FA01BD70470EB4F0B5BEB00700FF
:109F500062A25CA65C4D5D4C5DA15EA0032F04D0A7
:109F60005DA3082F04D1009032E0009033002FE071
:109F7000052F09D1009000BF5AA300BF5FA20420A3
:109F800002F071FD1D2292E0042F03D1009000BF6A
:109F90005CA21DE0062F06D103007AA2032002F086
:109FA00062FD082283E0092F02D1009057A20FE042
:109FB0000A2F09D1019000BF56A0009059A2052098
:109FC00002F051FD1B2272E00B2F06D100906E4A69
:109FD000042002F048FD0B2269E00C2F05D100900F
:109FE00052A2042002F03FFD0EE00D2F05D100909B
:109FF00050A2042002F037FD06E00E2F06D1030028
:10A000004EA2032002F02FFD0C2250E00F2F07D1AB
:10A01000030000BF4BA2032002F025FD0D2246E005
:10A02000102F0BD1019000BF49A000904BA300BF9F
:10A030004CA2052002F017FD1A2238E0112F20D182
:10A0400043A8041D0068002835D1250018354F4964
:10A050003BA80B22FFF7E8FC2900103106A8D32209
:10A06000FFF7E2FC290002A80D22FFF7DDFC21002A
:10A0700084B068461722FFF7D7FC0FBCFFF7F6F94C
:10A0800019E0132F0AD1019038A00090330000BFCF
:10A0900038A2052002F0E7FC0F2208E0002F0AD1C9
:10A0A000030000BF35A2032002F0DDFC09222100DD
:10A0B000280000F008FD3EB00498F0BC04B0004752
:10A0C000000400503D30000008190020D00C002092
:10A0D00041542B000D0A00003D3100004346554E0F
:10A0E000000000003D3230332E3137322E31313511
:10A0F0002E36372C35363833000000004E4344509E
:10A10000000000004347534E00000000434D45450A
:10A11000000000002C224950222C2263746E6574CA
:10A1200022000000434744434F4E540043474154EC
:10A13000540000004353434F4E000000434750413A
:10A14000444452004E5545535441545300000000BE
:10A150002C31372C373430302C3100003D444752FD
:10A16000414D00004E534F43520000002C35313218
:10A17000000000004E534F524600000043474D522E
:10A18000000000004E524200B0A70008A8030020C3
:10A19000F8B505000024652801DB042406E00B283F
:10A1A00001DB032402E0280000D0022419A276A1DA
:10A1B000022002F058FC68466D1C0580008864216E
:10A1C00001F07AFF0D0028000A2101F075FF3031FF
:10A1D0006846817028000A2101F06EFF05003035C5
:10A1E0002C26104F6846008865280CDB68460088DE
:10A1F000642101F061FF3030F8733D746846807867
:10A200007874BE7404E0FD736846807838747E7498
:10A210002000F2BD4D4C57554C4441544145583DEA
:10A2200000000000D00C0020F0B585B006000D0045
:10A23000052D16DB68003018001F02F0A9FB040092
:10A24000281F410089B2B01C02F0F2FBA04209D0E5
:10A25000010000BF4DA0FFF79AFB21004EA0FFF7C1
:10A2600096FB8EE0122201A9300002F0C0FB01A88B
:10A270000178FA29F5D1C179027A1206120C11433C
:10A28000C279037A1B061B0C1A43090A12020A43FD
:10A29000C271120A0272C179027A1206120C1143BB
:10A2A000B64C6184220049320B0A0902194311702D
:10A2B000090A5170407800270125C12825D100BF27
:10A2C00038A0FFF764FB607E002802D1794801F0D6
:10A2D00007F906213000123000F082F8A849087012
:10A2E000002808D1607C02280AD000BF2FA0FFF709
:10A2F0004EFBA4480770607C022801D0A57701E0DE
:10A30000A1480570A148E06237E0C22839D100BFFA
:10A310002AA0FFF73CFB607E002802D1654801F0CF
:10A32000DFF89B48418830001230FFF717F80090A3
:10A33000984E300069460422FFF776FB904840783B
:10A3400001281ED1307801280BD100BF1DA0FFF7D6
:10A350001EFBB078012801D18F48077089490D7024
:10A3600003E000BF1BA0FFF712FB8748057087487A
:10A37000E0628948007800F09FF82000283001F062
:10A38000E7F805B0F0BD000041542B004353313ACB
:10A3900025640D0A000000004353323A25640D0A7B
:10A3A0000000000043310D0A000000004D6F64659D
:10A3B0004368616E67650D0A0000000043320D0AB4
:10A3C0000000000043325F537563636573730D0AC9
:10A3D0000000000043325F4661696C0D0A00000016
:10A3E00070B59AB00D006A0092B2694602F0FFFAA9
:10A3F000624C2A0069462000103002F02AFB00253A
:10A40000A571217C0120654E032904D1E0773570C8
:10A41000022060721EE004291ED12078207659495E
:10A420000978012904D15C48007800F045F80CE077
:10A43000010002D16078A17803E0012805D1E0781D
:10A4400021790906090C0843A0846572E577357007
:10A450002020255401202AE0627C022A01DB26D13B
:10A4600024E0022901D022762270E17F012900D167
:10A470007270A18A0A0A09021143628A130A12023F
:10A480001A43474B89B2994211DA92B29A420EDAD4
:10A49000E170090A21716270120AA270E1782279D2
:10A4A0001206120C1143792900DAE07600201AB066
:10A4B00070BD0000FC1C0020F0B583B00700002434
:10A4C000FEF7AEFC334880782C4D364E012802D181
:10A4D0007C1CE1B215E0022802D1B14804780FE0FB
:10A4E00003281ED1AE480478FEF754FD002807D09B
:10A4F00000202449087028782876AA48A88410E00B
:10A5000021006846FEF760FD300069460522FFF72E
:10A510008BFA7078B1780906090C0843A884307862
:10A520002876A1480078012800D128769F488470B9
:10A53000F17832791206120C11430170090A417048
:10A54000297E0171012908D0297C022905D000212A
:10A55000C17401214174002181740A4800780128E6
:10A560000BD1A98C10A0FFF712FA297E14A0FFF7D7
:10A570000EFA791C17A0FFF70AFAF7BD3003002086
:10A58000F81C0020801D0020821D00208813000080
:10A5900048080020E41B0020FD1B00206E1D002049
:10A5A000A1050000441D00205363686564756C6557
:10A5B0005F6379636C653A2025640D0A0000000032
:10A5C0005363686564756C655F4D6F64653A2025FB
:10A5D000640D0A005363686564756C655F4461745B
:10A5E000653A2025640D0A00F1B59CB0002501955F
:10A5F000AF4CA560012769460F72AE48428800BF84
:10A600006BA11C9802F06DFA0600AA48428800BFB0
:10A6100069A11C9802F065FAA060002E02D1002802
:10A6200000D1B7E02000183000F05AFF002E01D012
:10A63000701D01900A220021019802F03AFB80B2BD
:10A640000090B249884228DA642801DB032002E046
:10A650000A2802DB022069460872009958A0FFF719
:10A6600096F9AB4EA068002818D0707E012815D14D
:10A6700057A0FFF78CF9E179481E8041C00F607147
:10A680000098420092B203A9A068401C02F0AFF902
:10A69000009989B203A800F00FF97EE01C98694682
:10A6A000097A401801906079009908291CD1002886
:10A6B00073D1B07F9749097801436ED1042200BF5E
:10A6C00045A11C980A3000F075FE002865D192481B
:10A6D0000078002861D100BF41A0FFF758F9019828
:10A6E0000D3000F089F858E00099022943D1002884
:10A6F00053D100BF3DA0FFF74AF9B07F85490978E3
:10A7000001434AD1307C012809D13574BFF34F8F02
:10A71000824883490860BFF34F8F00BFFDE70228DE
:10A7200010D13000283000F0DBFE20000C3000F0AB
:10A73000D7FE00BF7FA0FFF72AF9FDF77BFB25704E
:10A74000A5702AE0707E012802D02079012805D169
:10A75000A079002821D100F081F81EE06770162052
:10A76000B0763776F77677713770B583200018307A
:10A7700000F0EEFE11E009290FDB00280DD1E77093
:10A780006FA0FFF704F9009989B201980930FFF72B
:10A790004BFD02E06FA0FFF7FAF81DB0F0BD00001E
:10A7A000E01B0020FFFF00007C1D0020E41C0020B7
:10A7B0004E4E4D49000000002C4646464500000024
:10A7C000646174615F4C656E3A25640D0A00000097
:10A7D000464646450D0A000046414641000000003D
:10A7E00054696D655F73796E0D0A0000536572766A
:10A7F00065725273700D0A0070B586B008220100B0
:10A8000004A804F045FA082203A902F0F0F8454C28
:10A8100003A80022210003781B0645782D048678C2
:10A820003602AD19C07828181818E123DB01C018CA
:10A8300004F0A8FAE0790290A07901906079009084
:10A840002379E278A1782088C0B2FEF783FA012844
:10A8500001D13149087006B070BD000038B500253F
:10A860002C4805702A4CA577E07F01280BD12020C9
:10A87000205C002805D1012020216054207E2A4937
:10A880004870022000E00020607200BF33A0FFF794
:10A890007EF81C20A076A58320006C3000F058FEC6
:10A8A000202221004C31214800F00DF931BD00007B
:10A8B000841C00204808002038B5040020780002DD
:10A8C0006278801880B21A4A90421DD12079000225
:10A8D00062798518ADB2002020716071200004F00B
:10A8E0002DF880B2A84205D0020029001FA0FFF772
:10A8F0004EF831BDA0790002E179401882B2210002
:10A900000831E078FFF703F931BD000001020000D3
:10A9100030030020821D00207F1D00200400FA0566
:10A920000CED00E0541D00206E1D002008190020D1
:10A93000FEFF00005370656369616C464E0D0A00AE
:10A9400070726F63657373696E67446174610D0A39
:10A95000000000004F746865720D0A00656E746532
:10A9600072536C6565700D0A0000000063726331FC
:10A9700036206572726F720A726563763A30782596
:10A980003034582C747275653A3078253034580A52
:10A990000000000038B5040001D1012032BD2500BF
:10A9A00068356878002803D128702000FDF7F8FD8D
:10A9B0002420687020680168012291430160606A68
:10A9C000002802D0200000F045FB200000F028FA0B
:10A9D000012811D020684168084A0A404260206876
:10A9E00081682A22914381602068016801220A431C
:10A9F0000260200000F092FB32BD0000FFB7FFFFB5
:10AA0000FCB583B006000C0035005035687E202868
:10AA100056D1002C0BD0002A09D0B0688021490102
:10AA2000884206D13069002803D1E00701D5012012
:10AA300047E0287E012843D0012028760027EF61D7
:10AA40002120687603F01CFF0190684680892880E9
:10AA500068468089688005E02088C005C00D31689F
:10AA60008862A41C6888002819D06888401E688005
:10AA700004980090019B00228021300000F082FBAE
:10AA8000002816D1B06880214901884202D130697E
:10AA90000028E1D0207831688862641CE2E70498DD
:10AAA0000090019B00224021300000F06BFB002849
:10AAB00001D0032005E0202068762F76002000E0FA
:10AAC000022005B0F0BD70B5060035005035687E37
:10AAD000202838D100290BD0100009D0B06880237D
:10AAE0005B01984206D13069002803D1C80701D51F
:10AAF000012070BD287E012825D001202876F16430
:10AB00002A806A800024EC61212068765C482969EB
:10AB1000C8625C48296908635B48296948632869F9
:10AB20008463130032682832F16C286902F06EFFEA
:10AB30004020316808622C763068816880220A43A0
:10AB40008260002070BD022070BDF8B5060035009F
:10AB50005835A87C20283DD100290BD0100009D001
:10AB6000B06880235B01984206D13069002803D188
:10AB7000C80701D50120F2BD287C01282AD0012771
:10AB80002F7471652A8000246C612220A8743F48CC
:10AB9000E968C8623E48E96808633B48E968486379
:10ABA000E86884631300726D31682431E86802F04C
:10ABB0002DFF2C74306801683A020A430260306845
:10ABC00081680F4387603068816840220A43826051
:10ABD0000020F2BD0220F2BD38B504002500693521
:10ABE000287821280FD12068816809060BD5816853
:10ABF000802291438160206E002801D002F02EFF58
:10AC0000200000F0F5FA687822280FD120688168CA
:10AC100049060BD58168402291438160606E00280F
:10AC200001D002F01BFF200000F0EBFA002032BD43
:10AC300070B5040020680168164A0A400260206866
:10AC400081680122914381602500643520680026D7
:10AC5000816849060AD5816840229143816028684D
:10AC6000002803D08663286802F0F8FE5A20265296
:10AC70000F20216808622020A871002070BD00000C
:10AC800031B2000861B20008CBB200086BB2000814
:10AC9000C1B20008DFFEFFFFF8B504002368D869E1
:10ACA00019680607360F07D1820605D58A0603D52F
:10ACB000200000F037FBF1BD9A6825006435002EB6
:10ACC00062D00126324203D190277F000F405BD033
:10ACD000C70705D5CF0503D51E62AB681E43AE601E
:10ACE00002230426870706D5D70704D527683B62C9
:10ACF000AF683743AF60470706D5D70704D5276845
:10AD00003E62AE683343AB600826030708D58B0666
:10AD100001D4D20704D522681662AA683243AA6019
:10AD2000AA68002A79D0800604D5880602D52000BA
:10AD300000F0F8FAA868064003D120688068400651
:10AD40001CD5200000F05DFA20688168490611D505
:10AD50008168402291438160286800280AD02F49E9
:10AD60008163286802F0AAFE002856D02868816B0B
:10AD70008847F1BD200004F05DF8F1BD200004F02B
:10AD800059F80020A860F1BD2026C70209D552025B
:10AD900007D5F00318626E71AE71200004F04CF814
:10ADA000F1BD02062DD50A062BD56879212834D1AC
:10ADB0005220205A002809D1186880218843186041
:10ADC0002068016840220A430260F1BDA068F101D9
:10ADD00088420BD12069002808D1E06C0088C005AA
:10ADE000C00D9862E06C801CE06404E0E06C411CE3
:10ADF000E164007898625220205A401E522160522D
:10AE0000F1BD400609D5480607D51868402188439A
:10AE100018606E712000FCF7EBFAF1BD11B3000869
:10AE2000FEB5070010241025002669460E7039680B
:10AE30000868814A0240B86810433A690243786959
:10AE40001043FA6902430A6048687C4A0240F86885
:10AE500010434860B8697A4A914202D00200386AC9
:10AE600010438A68774B13401843886076488142C4
:10AE70000BD17648C06C8007800F04D0022812D016
:10AE800029D3032823E0012528E0714881420CD111
:10AE90006E48C06C0C2101401BD004291BD008292E
:10AEA00001D00C2913E0022518E06548814215D134
:10AEB0006648C06CC021090101400AD0A00181424E
:10AEC00009D040008142EED0C0200001814204D070
:10AED00004E0002502E0042500E00825022001F03E
:10AEE0002FF839680291E202554B994231D1002D79
:10AEF00006D0022D11D0042D17D0082D18D093E0C4
:10AF000000F0C9FE002860D07A6851008918884294
:10AF100002D3110381420DD286E04C480068044000
:10AF200001D09748F0E7BE48EEE700F07BFEE9E786
:10AF30001000E9E7050E04025008002100196941DC
:10AF4000002303F07AFFA8494118A84A91426BD226
:10AF50005FE0F969914239D1002D08D0012D0AD066
:10AF6000022D0BD0042D13D0082D1AD021E07968C2
:10AF700040004A0818E000F09BFE0BE079684808A2
:10AF8000324A1268144001D0A64A0DE0A64A0BE0EE
:10AF900000F048FE79680191400049084018019985
:10AFA00003E0796848085200801801F088F806002C
:10AFB00002E00120694608709C4931403006400E8D
:10AFC0004007400F01433868C16030E0002D08D0D1
:10AFD000012D09D0022D0AD0042D12D0082D1AD02F
:10AFE00022E000F058FE0EE000F062FE0BE079680F
:10AFF0004808164A1268144001D0614A0DE0884A98
:10B000000BE000F00FFE79684A08801801F057F84D
:10B0100080B2396806E079684808801801F04FF876
:10B0200080B20299C86002E0012069460870684653
:10B030000078FEBD00000000F369FFEFFFCFFFFFC7
:10B0400000480040FFF4FFFF0038014000100240BC
:10B05000004400402421415CC90706D501684A68C4
:10B06000914B1340826A1A434A602421415C89074C
:10B0700006D501684A688D4B1340C26A1A434A607C
:10B080002421415C490706D501684A68884B134072
:10B09000026B1A434A602421415C090706D5016806
:10B0A0004A68844B1340426B1A434A602421415C36
:10B0B000C90606D501688A687F4B1340826B1A4324
:10B0C0008A602421415C890606D501688A687B4B29
:10B0D0001340C26B1A438A602421415C490611D592
:10B0E00001684A68AC4B1340026C1A434A60026C18
:10B0F00080235B039A4205D14A68A84B1340426CF7
:10B100001A434A602421415C090606D501684A6851
:10B11000A34B1340806C184348607047F8B5040097
:10B1200000256830456003F0ABFB06009D4F2068AA
:10B130000068000709D500973300002280218903A9
:10B14000200000F01FF800280DD12068006840079B
:10B150000BD50097330000228021C903200000F0A6
:10B1600011F8002801D00320F2BD20202100683111
:10B170004870210068318870682025540020F2BD95
:10B1800000093D00FEB504000F000025089E206860
:10B19000C0693840B84201D1012000E00020694672
:10B1A000097988421DD10020C0438642EFD0002E8D
:10B1B00005D003F065FB0299401A8642E7D2206869
:10B1C0000168794A0A40026020688168012291433F
:10B1D000816020006830202141708170057003205B
:10B1E000FEBD0020FEBD000000FDFFFF00FD0F00C2
:10B1F00001680A68C0239A430A60202169228154A9
:10B20000704701680A68694B13400B6001688A68DF
:10B2100001239A438A6020216A22815470470000EA
:10B220000024F40000127A000048E801F0FF00005A
:10B2300080B50100886A0968096889060DD4002173
:10B240005222815201688A6880239A438A6000688A
:10B25000016840220A43026001BDFCF7C9F801BD44
:10B2600080B5806A03F01EFE01BD38B50100886A12
:10B27000202209680968114013D101005A310023C6
:10B280000B8003681C684A4D25401D6003689C685C
:10B290000125AC439C6003689C684025AC439C60DE
:10B2A0000A74FCF7B1F831BDFFFFFDFFFFFFFEFFA1
:10B2B000FFFFFBFFFF7FFFFFFFEFFFFFFFDFFFFF52
:10B2C00080B5806A03F0EFFD01BD70B5846A25008A
:10B2D00052350026E87D212807D1206880680006C5
