:020000040800F2
:10000000200500202DC0000855B8000857B800088A
:1000100000000000000000000000000000000000E0
:100020000000000000000000000000005BB80008B5
:1000300000000000000000005DB800085FB8000884
:10004000875700084F8B00086BB80008AFB2000854
:1000500073B3000875B8000877B300087FB80008CC
:100060000000000057B6000897B80008A7B80008BD
:10007000B3B70008FBB7000800000000C3B80008D1
:100080000000000033BC0008000000000000000079
:10009000CDB8000800000000D7B80008B1C40008BF
:1000A000B3C40008B5C40008B7C40008E1B800082C
:1000B000F1B8000801B900080000000000000000CD
:1000C00000B5BFF34F8F8B48A4490860BFF34F8F33
:1000D00000BFFDE780B503F0F7F900F0A3F802F0E8
:1000E0008BFA03F001FA03F07BFA03F09BFA03F0BA
:1000F0004BFB03F06EFE03F0A3FE03F06CFB03F07A
:1001000094FB03F051FF02F025FA00F0F5F800F03F
:1001100059F905F077F9924805F01AFBFA204000EA
:1001200005F024FB01228F49002005F049FB8D4892
:1001300001788D4805F00CFB01208A4908708B4836
:100140000078002802D102F0BFFEF8E78748007867
:100150000128F4D186480078002830D185A005F028
:10016000F7FAE54805F002FB02F03EF9032005F03E
:1001700053FB814800780100C907C90F0029F8D056
:100180007D4842887D497E4806F08EFC7A4800789A
:10019000FE2101407848017006227A49774807F02D
:1001A00059FA79490870784800780028E1D0012090
:1001B0006F490870754805F0CBFA02F033F97448BE
:1001C00005F0C6FA00F008FF724803F0D5FC72484B
:1001D00003F0D2FC6A4803F0CFFC03F007F902F009
:1001E00061FA00F035FADB4800780028AED16948A2
:1001F00003F054FB684803F051FB614803F04EFBE9
:10020000664805F0A5FAD34800780028EBD102F043
:1002100045FB07F047FC02F0DFFE01F04FF802F06B
:1002200053FEF0E700B599B05D4800685D490140B4
:100230008020000108435A4908605B48006859491A
:1002400001405948016006200C90802040000E902B
:1002500001200F9010201090022015900020169081
:100260008020C0021790C020000418900CA807F04E
:100270005FFC002803D04D49B74803F023F90F2055
:100280000790032008900020099000200A90002089
:100290000B90002107A807F0F5FE002803D0444981
:1002A000AD4803F00FF927200090002002900020B5
:1002B000039000200490802040020190684608F0DE
:1002C00015F9002803D03B49A34803F0FBF808F0D8
:1002D00019F8FA21890008F038FB08F00EFC042018
:1002E00008F011FC002200210020C04308F0EDFBC3
:1002F00019B000BD0400FA05FA202F490870D1207A
:100300002D49487001202C49887002202A49C87064
:100310002A4800218172090AC172294800782749B8
:1003200008702648B421C9004170090A8170234829
:10033000B421C900C170090A017164201F49C87144
:10034000FF201E490872964801210171090A417176
:10035000934801218170090AC17070470CED00E0DB
:100360008CBD0008611D00209CBD00085E1D0020A2
:10037000591D0020313100002005002024050020F7
:1003800008180020B0C200085A1D0020B8C200089A
:10039000ACBD00082817002098170020C0C2000834
:1003A00000700040FFE7FFFF5010024031020000E4
:1003B0003F0200004A0200005C1B0020DC1B002002
:1003C0001C01002080B57748006803F0C9FC0120BB
:1003D00075490860484874494860744872498860A3
:1003E000022073490860C82071494860714870490B
:1003F0008860802040007049086096206E494860FF
:100400006E486D49886008206D4908606D486C49E8
:1004100048606D486A49886010206C490860FA207D
:1004200080006A4948606A486849886080204001C5
:100430006849086068486749486068486549886055
:1004400040206749086067486549486066486449D4
:100450008860802065490860FA20C00063494860D0
:100460006348624988608020800062490860624871
:100470006049486061485F4988608020C0006049E9
:100480000860FA20C0005E4948605E485C498860A8
:10049000802000015C490860C82080005A494860FB
:1004A0005A485949886004205949086059485849B0
:1004B0004860594856498860802080015749086043
:1004C0005748564948605748544988608020C001C1
:1004D00055490860C8208000534948605348524934
:1004E000886080200002524908603B4850494860BB
:1004F00050484F4902E000BFB80B000088608020E0
:1005000040024D490860FA2080004B4948604B4842
:10051000494988608020C0024949086049484849E3
:100520004860494846498860802000034749086080
:10053000C82080004549486095484449886080202B
:100540004003AF4908603F48AD4948609148AC4915
:10055000886001BD621D00207CBB000810B504004E
:10056000200080B200F06AFC10BD00B501688A4A24
:100570001268914202D10421A24A11600168874A9F
:100580001268914202D108219E4A11600168844A92
:100590001268914202D110219A4A116000BD0000F8
:1005A000E81C002014000020EC1B0020610600085D
:1005B0007C1C0020A5070008F81B0020AD070008E0
:1005C000041C002060EA00006D080008881C002060
:1005D0006F080008B81C002030750000890C000866
:1005E000AC1C002070170000D9140008101C00205B
:1005F0007D0D0008701C0020C8AF0000850D0008AC
:10060000A01C00208D0D00081C1C0020B52B00082C
:10061000941C0020E8FD0000B92C0008281C0020D4
:1006200010270000492D0008341C0020512D00081F
:10063000401C0020D12D00084C1C0020752E000805
:10064000C41C00208813000009320008581C002038
:1006500080B50121012008F07BFA01F0DFFF01BD28
:1006600080B569488078002813D168480078002850
:1006700071D167480078012803D1012065490870CD
:1006800069E061480078052865DA01206149087051
:1006900061E05D48807801285DD15C4800780028E1
:1006A00014D10120594908705B480078002805D111
:1006B00057480078012801D102F0DCFC544800784A
:1006C000012848D1554807F033F944E04F480078F5
:1006D000012840D15048007801283CD1504800788A
:1006E000012804D14F4807F0F1F802F039FD4E48D7
:1006F0000078012813D14D4807F0E8F84C4807F07E
:10070000E5F84C4807F0E2F84B4807F0DFF84B48B3
:1007100007F0DCF800204449087005F07BF8012060
:100720004749087001204749087001204649087070
:1007300001204649887146480078464908700120E2
:1007400043490870012041490870642033494860DA
:10075000324807F0EDF800202B49087000203E4990
:1007600008702A480078012811D12F480078002805
:100770000DD12B480078002809D131480078002895
:1007800005D1364804F0E4FF01202249087001BD7C
:100790001132000869340008581A0020901A00200D
:1007A000C81A002080B500F097FB01BD80B500F0AD
:1007B00021FD2B480078022820DA29480078401CC7
:1007C0002749087014480078012814D0254800787B
:1007D000002806D1002280214900234808F07AFB36
:1007E00009E020480078012805D1002210211E4888
:1007F00008F070FBFFE7B04807F09AF801BD000071
:10080000641C0020101D0020081D00204E1D00202B
:10081000611D0020621D0020641D00207C1C002042
:100820006D1D0020B81C00206C1D0020AC1C002099
:10083000941C0020C41C0020881C0020701C002078
:10084000741D0020551D0020561D0020DC1B0020BB
:100850001C010020571D0020431D002054C000082B
:100860004B1D00206E1D002000040050704700B595
:10087000BDB09248007801286ED191480078401CA4
:100880008F49087016208F490870D3208E49487010
:100890008D488E49C97C152251432D310171090AB9
:1008A00041718B480078002807D100208749C8741F
:1008B000864801214174090A8174864907A8D32218
:1008C00008F03EFB814902A8142208F039FB7E495A
:1008D00084B06846172208F033FB0FBC04F01CF903
:1008E0007948017942791206120C114389B27A488B
:1008F00004F02EFF72480078052829DB002070499B
:10090000087000206D49087071480078002802D1F5
:10091000FFF7D6FBCDE06E480078012800D0C8E094
:100920006E4804F015FF6E4806F0D0FF6D4806F0E3
:10093000CDFF6D4806F0CAFF6C4806F0C7FF04F013
:1009400069FF00206A49086001206A490870B0E028
:10095000C74806F0EDFFACE067480078002813D1E7
:10096000664804F0F5FE1620564908700121112052
:1009700004F052FF6248BE494860BD4806F0D8FF07
:1009800001206049087094E05B480078012800D09D
:100990008FE05D4804F0DCFE5C48007801280CD153
:1009A00000205A4908704A480078012803D1584865
:1009B00006F0BEFF7DE0FFF783FB0020554908737A
:1009C00054485449097B15225143491C8172090A34
:1009D000C17200203D49C8743C4801214174090A94
:1009E0008174D1203849487037484A49097B15221B
:1009F000514331310171090A4171162031490870A2
:100A0000454908A8D32208F09BFA424904A80D22C0
:100A100008F096FA2C4982B06846172208F090FA3E
:100A20000CBC0021112004F0F7FE924804F090FE67
:100A300091480078401C9049087031488C494860C2
:100A40008D480078052831DB00208B49087020484C
:100A5000007800280ED189480078401C874908702A
:100A600086480078052824DB002084490870FFF7B9
:100A700027FB1EE01648007801281AD1804804F0B0
:100A800067FE174806F022FF164806F01FFF1648BB
:100A900006F01CFF154806F019FF04F0BBFE00200D
:100AA0001349086001201349087002E0704806F0FD
:100AB0003FFF3DB000BD0000F81B00207E1D002060
:100AC0007F1D00201D0100205C1B0020C81B002092
:100AD000641D00205416002034BC0008BCBD000872
:100AE000AC1C0020941C0020C41C0020701C0020A2
:100AF000201D0020621D0020671D002060C000082E
:100B000088130000661D0020C8C20008E81C0020F1
:100B1000281C0020DC1B00208015002010B50400DC
:100B2000200008F09FFA89490860200008F0CCFBFB
:100B300054490860534800680078012840D184482F
:100B4000007850490968C978884209D24D48006840
:100B5000C0787F4908707E4801787E4804F0F8FD2F
:100B60007D48007800282BD179480078002827D0CC
:100B700002F0F6FA012079490870002073490968EB
:100B8000C870774804F0E4FD012073490870012221
:100B90007149002004F0F8FD724806F097FE724893
:100BA00006F094FE714806F091FE01F0CBFF0022A2
:100BB00010216F4808F08EF96E4806F0B9FE55E036
:100BC00062480068C1786C4804F0C2FD5F48006864
:100BD000C07801284AD18F480078012805D16348A0
:100BE00006F074FE00208B4908708B4800780028BE
:100BF0003CD10120884908708848007800281FD11E
:100C00008749C8780A791206120C104380B27928F5
:100C100012DA84480078012803D08348007801283C
:100C200006D100208049087080488149486015E05D
:100C300080487F49486011E07E487D4948600DE06A
:100C40007D480078002806D101207B49087077484C
:100C50007749486002E0774875494860744806F073
:100C600067FE73484168984804F072FD10BD0000AB
:100C7000881C0020D0C20008681D00205D1D0020D7
:100C8000CCBD0008041D002010B500246548007884
:100C9000012803D064480078012802D1062004000E
:100CA00001E00320040089480088401C874908802F
:100CB00086480088012823D12548007802281FDAB9
:100CC000834804F045FD00200400234800780028F4
:100CD00016D102F045FA7F4804F03AFD214806F0AB
:100CE000F5FD214806F0F2FD01F02CFF00228021E5
:100CF00049001F4808F0EEF81E4806F019FE24E0EF
:100D0000724800882100C9B289B288421AD30020F3
:100D10004449087000204449087000203D4908708B
:100D20009B4804F015FD0020684908809948007828
:100D300001280AD100203749087002F011FA02F0A8
:100D400099F902E0094806F0F3FD10BD0C1D0020E2
:100D5000421D00204CBC0008611D0020641D0020C5
:100D6000DCBD00087C1C0020F81B0020B81C002003
:100D700000040050641C0020ECBD000880B501F0A8
:100D800033FB01BD80B501F001FC01BD00B5BDB074
:100D900081480078002839D180480088401C7F496C
:100DA00008807E4800880C282BDA7D481C49097B86
:100DB0001522514331310171090A4171794908A85D
:100DC000D32208F0BDF8164904A80D2208F0B8F89F
:100DD000734982B06846172208F0B2F80CBC0021B3
:100DE000112004F019FD16206F4908706B48008827
:100DF000032802DB6D486E4948606D4806F098FD97
:100E000004E0002065490880FFF75AF93DB000BDB5
:100E100000000000451D0020471D00207C1D002013
:100E2000DC1B0020481D00206B1D002030750000D9
:100E3000401C0020B80B0000521D002010B504001B
:100E4000A4B2012C1BD15B480078012817D10121E5
:100E5000A020C00508F030F8002806D1012056492E
:100E6000086000205549087009E00121A020C00554
:100E700008F022F8012802D102204F490860A4B2EC
:100E8000402C20D14021A020C00508F015F80028F2
:100E900009D101204A490870002280214900A24856
:100EA00008F018F80FE04021A020C00508F004F871
:100EB000012808D100204249087001228021490000
:100EC000994808F007F810BD6CC000083C1D0020D0
:100ED000C4BC0008FCBD000880B53A480078092869
:100EE00037DA39480078002833D1364800780028AE
:100EF00001D100F07FF935480078022803D033484B
:100F0000007800280FD132480078012804D1102140
:100F1000304807F0E9FF10E080210902A020C00559
:100F200007F0E2FF09E029480078012805D1802177
:100F30000902A020C00507F0D7FF22480078401C16
:100F400020490870C82079494860784806F0F0FCCC
:100F50001CE000201B49087001201B4908707448E0
:100F6000007800F0F1F87348007801280ED10020D5
:100F7000704908706D4806F0A9FC00206E490860B1
:100F800001206E490870A54804F0E2FB01BD000095
:100F90000CBE00086D1D0020641D0020381D0020BF
:100FA0005C1B0020801500201D0100201027000080
:100FB000A01C0020591D0020101D0020621D0020D3
:100FC0004C1D00204A1D0020631D00201C01002034
:100FD000611D00200004005080B500F00BF9584856
:100FE000007801280AD157480078002806D100224D
:100FF000802149004C4807F06DFF0CE05048007814
:10100000012808D14F480078012804D1002210217E
:10101000454807F05FFF75480078002818D17448EC
:101020000078002808D17E4948788A781206120C88
:1010300010437C4908800BE06D480078012807D1F7
:101040007749C8780A791206120C1043754908804E
:1010500003F084F874484078002802D000207349D7
:10106000087072480178724804F072FB6D4801887C
:10107000704804F06DFB304801686F4804F068FB6D
:101080006E4801786E4804F063FB6E4801786E4844
:1010900004F05EFB6D4804F05BFB15206C490870A2
:1010A00001206C49087000206B49087000206B49D2
:1010B000087000202149087000206949087000204C
:1010C0006849087000206749487000206649087028
:1010D00000206649087000206549087000206549B5
:1010E00008700020644908700020644908700020DE
:1010F0006349087000206349087000206249087045
:101100000020624908700020614908700020614990
:10111000087000206049087000205C4908700020B9
:101120005E49087001BD0000000400507C1C0020D6
:101130001B010020541D0020201D00204F1D0020F9
:101140004C1D00204D1D002010B5040000F052F889
:1011500000205349087053480078002808D15248AD
:101160005249486001F0DEFC514806F0E1FB3CE0EA
:1011700050480078012811D100204E490870002203
:1011800080210902A020C00507F0A4FEFA20C000BB
:10119000B7494860B64806F0CBFB26E046480078E1
:1011A000012822D1002044490870C82080003F490E
:1011B00048600F480078012807D1002280210902E9
:1011C000A020C00507F086FE08E009480078002846
:1011D00004D100221021A74807F07CFEC82080001F
:1011E000A3494860A24806F0A3FB10BD7C1D002067
:1011F0001C01002080B50122802149009D4807F094
:1012000069FE012210219B4807F064FE0122802123
:101210000902A020C00507F05DFE01BD1CBE00084C
:10122000DC1B0020401D0020B41B0020841D00207A
:1012300064BC00082CBE0008D8BC0008811D00203A
:10124000F8BB0008791D00203CBE00084CBE000819
:101250001D010020621D0020651D00206E1D002064
:101260006C1D0020081D0020461D0020821D00204E
:101270007D1D0020831D0020661D0020751D00209F
:10128000741D0020711D00207F1D0020681D00209E
:10129000501D00205F1D0020671D00205B1D0020E9
:1012A0004B1D0020641D0020B80B00007C1C00209A
:1012B000F81B0020561D0020491D002000B5BDB0C0
:1012C0006D48007801281BD100206B4908706B48DD
:1012D000007801280AD16A480078002810D16948AE
:1012E000007800280CD101F00DFF09E06348007878
:1012F000002805D163480078002801D101F0BAFE2A
:1013000061480078012800D0AFE0604800780128EB
:1013100000D0AAE05E480078002800D0A5E00120B7
:101320005B4908705B480078012856D15A4800781C
:10133000012800D099E01620584908705848807953
:10134000012803D102205749087103E04B48007877
:1013500054490871D3205449487053485149C97CB5
:10136000152251432D310171090A41714F4907A8D6
:10137000D32207F0E5FD4B4902A8142207F0E0FD57
:10138000494984B06846172207F0DAFD0FBC03F024
:10139000C3FB4548017942791206120C114389B208
:1013A000434804F0D5F94348007805F0F1F9424983
:1013B000C8780A791206120C104380B2002802D1B4
:1013C00001203E49087000203D49087000203D4939
:1013D00008703D4806F0ACFA47E02F480078002836
:1013E00034D116202D4908702F482D49097B15222C
:1013F000514331310171090A41712B480179427918
:101400001206120C114389B2304804F0A1F9304998
:1014100008A8D32207F094FD214904A80D2207F063
:101420008FFD214982B06846172207F089FD0CBC68
:101430000021112004F0F0F900202149087000205B
:1014400020490870204806F073FA0EE0214804F0A5
:101450007FF916201149087000200090FF23C4482E
:1014600042780021D52003F079FC3DB000BD00009A
:101470001C1C0020000400504F1D00201C010020F7
:101480006D1D00206C1D00206E1D0020641D0020BD
:10149000651D0020791D00207C1D00201D010020FD
:1014A000DC1B0020C81B00205C1B00205416002001
:1014B00034BC0008811D0020F01C00207D1D002090
:1014C000761D0020771D0020C41C00205CBE000893
:1014D00080150020D8C2000880B5A64800780128F1
:1014E00000D11CE1A44800783B2800DB11E1A248B0
:1014F0000078401CA0490870A048007803280CD14F
:10150000032004F089F986489D4948609C4806F00C
:101510000FFA9C4804F01CF901E19848007808286B
:101520000CD1082004F078F9974895494860944810
:1015300006F0FEF9954804F00BF9F0E08F480078CA
:101540000E2809D10E2004F067F98F488C494860B5
:101550008B4806F0EDF9E2E088480078042809D1CC
:10156000042004F059F9884885494860844806F009
:10157000DFF9D4E081480078062809D1062004F07C
:101580004BF97F4806F0D4F981A004F0E1F8C6E0F9
:101590007A4800780C2809D10C2004F03DF97D48E8
:1015A00077494860764806F0C3F9B8E07348007898
:1015B0000A2809D10A2004F02FF9764870494860BA
:1015C0006F4806F0B5F9AAE06C480078102809D1F8
:1015D000102004F021F96C4869494860684806F019
:1015E000A7F99CE0654800780B2809D10B2004F08E
:1015F00013F9654862494860614806F099F98EE040
:101600005E48007818280BD120226349634805F012
:101610004BFA5D485A494860594806F089F97EE01E
:101620005648007817280BD11C225D495B4805F00D
:101630003BFA554852494860514806F079F96EE046
:101640004E480078162816D156480078012866D1F1
:10165000554804F07DF800200090FF23444842786C
:101660000121D42003F07AFB4748454948604448AB
:1016700006F05EF953E0414800781C280BD1232284
:101680004A49464805F010FA3F483D4948603C4801
:1016900006F04EF943E0394800781B280BD10E22A2
:1016A00043493E4805F000FA374835494860344818
:1016B00006F03EF933E0314800781D280BD10B22AB
:1016C0003C49364805F0F0F92F482D4948602C4830
:1016D00006F02EF923E0294800780B2809D10920CB
:1016E00004F09AF8284826494860254806F020F971
:1016F00015E0224800781E2811D109222E492748DA
:1017000005F0D2F920481E4948601D4806F010F93E
:1017100005E000201749087000201749087001BD36
:101720007017000080B52548007801280FD10020EF
:101730001149087000200F490870032004F06CF86C
:101740000F4806F0F5F803200C4908700EE01B481E
:10175000007800280AD1072008490870184803F0CB
:10176000F7FF00F05FFE174806F0E2F801BD000049
:10177000281D0020761D0020771D00201D0100205F
:10178000AC1C002078C00008B80B000084C0000822
:101790004E52420088130000340000202817002019
:1017A00018000020751D002090C000086400002073
:1017B00054000020880000209CC000081801002070
:1017C000A8C00008101C0020FEB50400D8A003F03B
:1017D000BFFFD8480078032803D0D64800780828EF
:1017E00042D10622D449200005F034FF002801D060
:1017F00000F02EFD0120D14908700020D04908706A
:10180000CC48007803281BD1CE4806F05FF8CE48BC
:1018100003F09EFF1B20C74908700E22CB49CC481D
:1018200005F042F90020C54908700020C44908703D
:10183000DF48C4494860C34806F07AF800F008FD64
:10184000BC480078082801D000F002FDBD4806F031
:101850003DF8092003F0E0FF0920B6490870B948B7
:1018600006F066F800F0F4FCB24800781D281CD1A0
:101870000622B149200005F0EDFE002801D000F05D
:10188000E7FC0020AE490870AE4806F01FF8C948D2
:1018900003F05EFF092003F0BFFF0920A54908708F
:1018A000A84806F045F800F0D3FCA24800781B28B1
:1018B00015D10020A2490870A24806F007F8D448C4
:1018C00003F046FF1C209B4908702322D149A04801
:1018D00005F0EAF89B4806F02BF800F0B9FC9548B3
:1018E00000781C281FD106229349200005F0B2FE83
:1018F000002801D000F0ACFC924805F0E7FF002082
:101900008F49087000208D490870042003F084FF7F
:101910000420884908708B4806F00AF8BE4803F096
:1019200017FF00F095FC8348007804283AD108227C
:10193000D849200005F08EFE002801D000F088FC78
:1019400001207E49087000207D4908707D4805F01F
:10195000BDFFD1A12000083007F0FEFD05002800E2
:1019600007F022FE0F2801D000F072FC0F222900A0
:10197000CA4807F0A1FE00207149087000206F4995
:101980000870062003F048FF06206A4908706D4879
:1019900005F0CEFF0020D7490870D74803F0D8FEE5
:1019A00000F056FC63480078062815D10822D34978
:1019B000200005F04FFE002801D000F049FC072070
:1019C0005C490870CE4803F0C3FE00F02BFDCD4803
:1019D00005F0AEFF00F03CFC5648007807281CD10B
:1019E000C949200007F04CFF0500002D01D100F08F
:1019F0002FFC08204F490870002050490870002033
:101A00004F4908706A484F4948604E4805F090FFBA
:101A1000D74803F09DFE00F01BFC464800780928DB
:101A20001ED106224449200005F014FE002801D0F2
:101A300000F00EFC1E203F4908700922CD494448A1
:101A400005F032F800203D49087000203C4908703C
:101A5000C9483C4948603B4805F06AFF00F0F8FB84
:101A6000344800781E281CD1C4484288DB49DC4831
:101A700005F01AF80B202F4908702E48007803F063
:101A8000CBFE00202D49087000202D490870BA486F
:101A90002C4948602B4805F04BFFD24803F058FE14
:101AA000D6E3244800780B281ED1062222492000C4
:101AB00005F0D0FD002800D0CAE3224805F006FF5B
:101AC00000201E49087000201D4908701D4805F0BF
:101AD0002FFF0C20174908701648007803F09CFE71
:101AE000CF4803F035FEB3E3124800780C2831D11B
:101AF00006221149200005F0ADFD002800D0A7E323
:101B0000104805F0E3FE00200C49087000200C4945
:101B100008700C4805F00CFF0E20064908700548B7
:101B2000007803F079FEBF4803F012FE90E300BF97
:101B3000520D0A001D010020B0C20008761D0020D1
:101B4000771D0020AC1C00206CBE00085400002053
:101B500028170020B44800780E282DD187484288E5
:101B60009E499F4804F0A0FF0122B0A120000C3044
:101B700005F070FD002808D00122ACA1200018302B
:101B800005F068FD002800D062E3D04803F0E0FDD6
:101B9000CF4805F09BFE0020CE4908700020CE49BA
:101BA00008700F20A04908700F2003F035FE4FE3A6
:101BB000B80B00007CBE00089B4800780F282DD190
:101BC0000120C44908700020C3490870C04805F0CE
:101BD0007DFE0025200000F06DFB0500EDB2012D1B
:101BE00000D035E3BA4805F071FE10208E49087028
:101BF000102003F011FE0020B64908700020B649FD
:101C00000870C348B2494860B14805F091FE1FE32F
:101C10008CBE000864000020E0C200088248007802
:101C2000102873D10B22BB49200005F013FD0028BA
:101C300000D00DE3B84803F08BFD15207A490870F9
:101C40000120A44908700020A3490870A04805F0AD
:101C50003DFEC34805F03AFE0020C249087001204D
:101C6000C1490870C1480078002819D1C04803F064
:101C70006FFD01206C4908700020BE4908700020EB
:101C8000B94908700020BC49087003F0C3FD01F099
:101C900039FADDE2B4C000080D0A0000621B002022
:101CA000B648007800281BD116205F490870B44858
:101CB00003F04EFD0120B14908700120AD490870C4
:101CC0000120B04948710120AF49087003F0A2FD1E
:101CD00087204001AD4908600120AD490870B7E296
:101CE000A6480078012800D0B2E2AA4805F020FEFC
:101CF000AEE200BF18010020E8C20008C0C0000822
:101D0000CCC00008101C0020F0C200084648007833
:101D1000162800D046E1A04803F01AFD0025002651
:101D20009E49200007F0ACFD0500002D28D0684832
:101D300005F0CCFD8A4805F0C9FD994805F0C6FDBF
:101D4000944805F0C3FD07F07AF90020CB490870EC
:101D500000208949087003F05DFD00208B49086070
:101D600001208B490870C64803F0F2FC70E200BF06
:101D7000F8C200089CC0000888130000200500205D
:101D80001322C049200005F065FC002806D011226E
:101D9000BD49200005F05EFC002849D1BB48007811
:101DA000401CBA490870B948007803281CDA0120A1
:101DB0001D49087000206C49087000206D490870AA
:101DC000434805F083FD764805F080FD714805F035
:101DD0007DFDAF4805F0ACFD3AE200BF24050020D0
:101DE0000818002000C300080020A84908703848DF
:101DF00005F06CFD674805F069FD594805F066FD82
:101E0000674805F063FDA34805F060FD03F002FD9F
:101E100000205E49086001205D49087018E200BF9B
:101E2000D8C000089CBE00081D0100202C00000046
:101E3000002D53D1C2A003F08BFC0120254908706E
:101E4000002025490870564805F040FD4B480078B1
:101E5000012812D1BB48007801280ED10020B949D1
:101E60000870B9480078002807D1B848007846497A
:101E700008704548007843490870B5480078012843
:101E80006AD1D04803F064FCCF480078002811D014
:101E90000020CD490870CD484078022803D10120A8
:101EA000CB49087002E0012074490870794805F0B8
:101EB0003FFD51E0C5484078022803D10120C449C4
:101EC000087049E001206D49087045E008C300082A
:101ED000AC1C0020761D0020771D0020BD4803F0BB
:101EE00037FC9B480078012836D1B7480078401C61
:101EF000B5490870B448007803282DDB0020B249AA
:101F000008701E480078002808D1FEF7D9F823E0B1
:101F1000B80B0000E4C00008F0C0000817480078C3
:101F2000012819D1CB4803F013FCCB4805F0CEFCB7
:101F30000B4805F0CBFC1A4805F0C8FC554805F0E5
:101F4000C5FC144805F0C2FC03F064FC00200F49F6
:101F5000086001200E4908701220C049087077E11E
:101F6000941C0020601D00206E1D0020611D0020BB
:101F7000FCC00008651D00206C1D0020641D0020B1
:101F800008C10008DC1B00201C010020201D0020CF
:101F9000621D0020701C002010C30008B0C20008A1
:101FA000C41C0020AD480078122822D10922AC4977
:101FB000200005F04FFB002800D049E10020A9498E
:101FC0000870A94803F0C4FBA8480078012802D192
:101FD000A74805F07BFC7E480078012802D12D48F7
:101FE00005F074FC132003F017FC13209B490870C4
:101FF0002EE19A480078132800D088E000260025BA
:10200000002000909B49200007F03AFC06009A4906
:10201000200007F035FC05009849200007F030FC4F
:1020200000900098002862D1002E35D1002D33D0C9
:1020300001208C490870924803F08AFB06229149DE
:10204000200005F007FB002803D18F4803F080FB38
:102050000FE08E4803F07CFBA01C03F0BBFE8C4815
:102060000290002001908B4F019A0299380007F0EE
:102070000FFC002088490870EAE000BF671D0020BF
:1020800014C10008ECBC000800BD00085F1D002062
:10209000581C0020881C0020002E1ED07E4800788E
:1020A000401C7D4908707D4803F052FB00F0BAF9EE
:1020B000A01C03F08FFE7A480078012800D0C7E00A
:1020C000002077490870774803F042FB132003F0A3
:1020D000A3FB132061490870BAE0002D00D0B7E0DF
:1020E000132003F099FB13205C490870B0E06E48A0
:1020F00003F02EFB6D48428866496D4804F0D4FC1D
:10210000132003F089FB132054490870A0E05348C2
:102110000078192800D07CE006225A49200005F0FA
:1021200099FA002816D1AA4803F012FB0020AA4908
:1021300008701A20494908700F2003F06DFB87E0F2
:10214000530D0A00741D00207C1D0020571D002027
:10215000661D002009229F49200005F07BFA002817
:102160003AD19E4803F0F4FA01203C4908709C489B
:1021700005F0ACFB9B4805F0A9FB374805F0A6FB32
:102180000020A14908700020C14908709F480078CC
:10219000401C9E4908709D480078032808DB0020F9
:1021A0009A49087000209A490860012099490870EE
:1021B00001220421984806F08DFE984805F0B8FBEE
:1021C00046E000BF18C30008691D0020E81C00207D
:1021D0007E1D002020C100087F480078401C7E49F9
:1021E00008707D480078032809DA8D4803F0B0FABA
:1021F000132003F011FB19201849087028E0002073
:10220000754908701A20154908700F2003F004FB67
:102210001EE0124800781A281AD10025200000F08C
:1022200049F80500EDB2012D09D1A74803F090FA55
:1022300016200A49087001209549087008E0A34853
:1022400003F086FA162005490870012090490870AD
:10225000F7BD00BFACBE0008AC1C00201D01002073
:102260002CC10008701D002038C10008801D00200E
:10227000D01C002044C1000850C1000820C3000841
:1022800028C30008B0C2000830C30008BCBE000864
:102290004C040000240500206F1D002014BD000820
:1022A000731D002038C3000840C30008200500202B
:1022B00008180020F8B507000222AEA1380005F08A
:1022C000C9F9002800D080E00024AAA1B81C07F0BA
:1022D00043F90500002D73D00D229D49280005F01B
:1022E000B9F9002813D1002628000D3007F0FAFABA
:1022F0000A2106F027FB06009F48310089B2090A2F
:1023000032020A430270120A4270641C52E0082230
:102310009A49280005F09EF900280BD100262800D4
:10232000083007F0DFFA06009549300007F0E0FAC0
:10233000641C3FE004229349280005F08BF9002833
:1023400008D10026281D07F0CDFA06008A4806713C
:10235000641C2FE004228C49280005F07BF900283A
:1023600012D10026281D07F0BDFA0A2106F0EAFA6C
:1023700006008148310089B2090A32020A4382709C
:10238000120AC270641C15E005229A49280005F063
:1023900061F900280ED10026681D07F0A3FA060097
:1023A0007548310089B2090A32020A434271120AA1
:1023B0008271641C6FA1002007F0CEF8050089E748
:1023C000E4B2052C01D1012000E00020F2BD0000A4
:1023D00048C300085CC10008511D002068C1000806
:1023E000701C0020C41C002080B58A4A8A49AC4871
:1023F00004F0AFFBAA480068006810210143A84818
:102400000068016001BD0000651D0020501D002016
:10241000201D0020621D002000040050581C0020D8
:1024200050C3000880B5A5480078012801D10220DA
:102430002DE00120A1490870994804F01FFC98483C
:10244000006800681021884395490968086094482D
:10245000406E00680068012188439149496E09680F
:10246000086000209649088000208D49496E09685F
:1024700048608B48406E006800680121014388482D
:10248000406E0068016000208C490870002002BD89
:102490006E1D002080B58B48406E006800680121E9
:1024A00001438848406E006801605A4A5A4985488D
:1024B00004F04FFB83480068006810210143814805
:1024C0000068016001BD000074C10008CCBE0008B6
:1024D00080B57D480078012801D1022023E0012049
:1024E00079490870774804F0C9FB764800680068AD
:1024F000102188437349096808607248406E00687B
:102500000068012188436F49496E0968086000200E
:102510006E49088000206B49496E096848600020B8
:1025200069490870002002BD00B501685C4A126864
:10253000914202D10121664A117000BD00B50168C7
:10254000574A1268914201D100BFFFE700BD000069
:10255000DCBE000880B5FEF74DFE01228021090196
:10256000A020C00506F0B6FC00220121594806F063
:10257000B1FC01BD0D0A0000DC1C002080C1000878
:10258000E31C002058C3000860C3000880B552480F
:102590000078002816D151480078002808D14F480B
:1025A0000078401C4D4908704D4805F0C1F920E005
:1025B0004A48007801281CD1002048490870FDF7DE
:1025C0007FFD16E0474805F081F9474805F07EF9A0
:1025D000464805F07BF9464805F078F9454803F090
:1025E000B7F803F017F90020434908600120934928
:1025F000087001BD68C3000880B507F08BF907F0CB
:1026000081F98F4800688021090201438C480160EC
:1026100001BD00004C0400002405002000B593B06B
:102620008848006880214905014386480160864842
:102630000068864901408020000108438249086003
:10264000684605F081FE06200090012003901020CE
:1026500004908020400002900220099000200A90FF
:102660008020C0020B90C02000040C90684605F04A
:102670005FFA002803D07649764800F023FF012056
:102680000D9001200E9001210DA805F0FBFC002803
:1026900003D071496F4800F015FF13B000BD000072
:1026A0002817002080B56D4807F0CCF90022A02142
:1026B00009026A4807F038F901BD000090170020B0
:1026C000801700209817002000180020F017002025
:1026D000731D002000040050641D00205C1D0020BC
:1026E000701C0020AC1C0020C41C0020881C002092
:1026F000941C00208CC10008201D002010B504008F
:1027000051480068042101434F4801605448007853
:10271000012800D090E053480068401C51490860EF
:102720005148007800282AD150480078002808D164
:102730004F4948788A781206120C10434D49088098
:102740003CE04A480078012838D14B480068401CDA
:102750004949086048480068B4214900884205D3C7
:102760000020454908600120444908704049C87864
:102770000A791206120C10433E4908801EE03A48BE
:10278000007801281AD139480078012810D13A4838
:102790000068401C3849086037480068B421490087
:1027A000884205D30020344908600120334908706D
:1027B00033480078002801D100F0EEFC2D48008855
:1027C00000281BD027480068032817D3002025497C
:1027D000086000202649887100202A49C8702A48CC
:1027E0000078002806D129480078002802D101206D
:1027F000274908700020114908701DE02248007820
:10280000002819D121480078002815D121480078E6
:10281000002811D120480088401C1F4908801E480C
:1028200000885A2808DB00201B490880012019492C
:10283000087000200149087010BD0000621D0020D2
:102840000C1002403810024000700040FFE7FFFF0C
:102850001B0C00007CBB0008240C0000381B00206F
:10286000641D0020201D00207C1D00201C01002074
:10287000DC1B0020401D00201C1D0020481D0020E6
:10288000821D0020C81B00206D1D00206C1D002033
:102890004F1D0020190100203A1D002080B5AE48D0
:1028A0000078C00737D5AD484078012829D00120ED
:1028B000AA4948709948007800280BD1012097490F
:1028C00008700120A5498870954805F031F8A448A2
:1028D00002F03EFF91480078012812D1A14800780B
:1028E00000280ED101209F49087008219E4807F05A
:1028F00077F90120C0439C49096808619A4807F0AC
:1029000047F9954800680121414093480160924889
:10291000006880B201E190480078800713D57F48B5
:102920000078012805D1864802F012FF00208B496B
:1029300088708948006802214140874801608648C4
:10294000006880B2E9E08448007840070BD505F0C4
:1029500055F881480068042141407F4801607E4865
:10296000006880B2D9E07C480078000700D4C3E05A
:102970007A484078012800D0B1E00121A020C005AC
:1029800006F09AFA002800D0A6E074480078401CAF
:102990007249087075480078012815D15F480078A1
:1029A000012811D17248007800280DD16B480078B9
:1029B000012809D16F480078002805D101206C4911
:1029C00008706D4804F0B4FF64480078052800D012
:1029D00082E06A480078002808D1694802F0B8FE11
:1029E00000F048FB674804F0A3FF75E05F480078FB
:1029F000012871D16448007800286DD1484804F05E
:102A000065FF0020454908706048007801280AD118
:102A10005F4804F05BFF00205E4908705E4802F0EA
:102A200097FE00F09DFB5D48007801281FD15C48AF
:102A300004F04CFF5B4804F049FF5B4804F046FF9C
:102A40005A4804F043FF5A4804F040FF924802F00D
:102A50007FFE01209149087000204E490870002037
:102A60008F49087000204D49087002F0D3FE002005
:102A70003A49087001203F4908708A4800780028C8
:102A800003D101208749087016E0864800780128A4
:102A900012D10020834908700020834908708248C1
:102AA00000788249087381488049097B1522514387
:102AB000491C8172090AC1727A4800787B49087002
:102AC00000207B49087000207A490870C8202D49F1
:102AD00048602C4804F02CFF00202049487000205A
:102AE000204908701C480068082141401A480160CC
:102AF0001948006880B210E017480078C0060BD56E
:102B0000FEF7EAF9144800681021414012480160BC
:102B10001148006880B200E0002002BD431D002083
:102B2000EC1B002080B50821CF4807F059F80120A0
:102B3000C043CD4909680861CB4807F029F801BDB9
:102B400070C3000880B50120C043C7490968086107
:102B5000C54807F02CF801BD101D0020081D0020FD
:102B6000ECBE0008441D0020901A0020641D0020C7
:102B7000461D0020541D0020341C0020611D002033
:102B800078C300087C1C00207C1D00206D1D0020E7
:102B9000B81C0020651D002080C300086C1D0020AB
:102BA000AC1C0020941C0020C41C0020881C0020A9
:102BB000701C002080B5FEF71DFB7A4800780128C4
:102BC0000AD179480078002806D1002280214900E6
:102BD000764806F07FF90CE072480078012808D1A9
:102BE00071480078012804D1002210216F4806F0B6
:102BF00071F96F48007801280FD100206C490870E6
:102C000000206C49086001206B49087000206B4966
:102C100008706B4802F09CFD3CE06A48007815287B
:102C200027DA69480078002811D1684802F090FD41
:102C30000022802149005D4806F04CF96248007886
:102C4000401C61490870894804F072FE22E00020AF
:102C50005D4908708648007800281BD18A480078B2
:102C6000002817D1894802F073FD012053490870EC
:102C700010E07F480078002809D1834800780028B8
:102C800005D1834802F064FD01204C490870CA4810
:102C900002F05EFD01BD000088C300081D01002098
:102CA0006E1D00201C01002080150020DC1B002070
:102CB000631D00204A1D002080B57648007800285A
:102CC00008D174480078401C72490870724804F0BA
:102CD0002FFE38E06F480078052834DB00206D496E
:102CE00008706E48007800281BD16D4800780028D5
:102CF00014D16C4802F02CFD6B4804F0E7FD6B48E2
:102D000004F0E4FDFFF71EFF002280214900274860
:102D100006F0E0F8664804F00BFE14E0FDF7D0F989
:102D200011E05E48007801280DD1624802F010FDE4
:102D300001206149087002F06DFD00201D49086006
:102D400001201E49087001BD80B5FDF7B9F901BD2C
:102D500080B500205949087059A002F0F9FC594883
:102D6000807800281DD157480178944802F0F0FC83
:102D700054480078012814D191A002F0E9FC002009
:102D8000504908708F4804F0A1FD00208E4908705A
:102D900001208E490870C82043494860424804F029
:102DA000C7FD01BD4C1D00204D1D0020000400503A
:102DB000551D0020201D00204F1D0020621D0020F9
:102DC00090C300081B010020531D002098C100087B
:102DD00080B57F48006806F0F3F800207C49086061
:102DE00000207C490870994840689949884202D17E
:102DF000002098490870984802F0AAFC00F0B0F949
:102E000096480078002816D19548007895490873AF
:102E100094489449097B15225143491C8172090A3F
:102E2000C17291488F49097B15225143313101719B
:102E3000090A417114E08D480078C649C874C54834
:102E4000C449C97C15224A434274120A82748648D6
:102E5000C049C97C152251432D310171090A4171C4
:102E600000F008F901BD0000C81A00201C1C002059
:102E70006C1D002080B501207D490870BE4802F01D
:102E800067FCFFF707FB01BD6D1D0020A4C1000812
:102E9000B0C100085B1D0020941C0020641D0020B0
:102EA000611D0020FCBE00087C1C0020F81B0020D7
:102EB000641C00200CBF0008601D0020461D00207F
:102EC0002E2E2E00081D002080B58648007801288F
:102ED00052D1854807F07CF9FA21834807F0B8F908
:102EE000814807F085FA800519D57F4807F020FA58
:102EF0007E4908607D4800687D494843000B7B4956
:102F000008607A480068A8214843642105F01DFD47
:102F10009149086090480168764802F019FC002346
:102F200075480278754801788B48006800F0E5FB29
:102F300073490870724800784A49C871704800782F
:102F4000844908746E4800786C4908706C480178B0
:102F5000824802F0FDFB0020624908708748007833
:102F6000002809D186480078002805D1854802F05C
:102F7000EFFB012084490870774800685C4988426B
:102F800015D282480078012805D100207F490870B9
:102F9000FDF796F80EE07EA002F0DAFB0020A949CA
:102FA0000870012078490870FDF752FB02E001200B
:102FB000A449087001BD0000BCC1000828BD00087C
:102FC00021000000EC1B0020431D0020491D0020B3
:102FD0000C1D0020471D002070B56E4800780100D0
:102FE000C907C90F002930D06A480078FE21014086
:102FF000684801706248007801280BD05F4800786B
:10300000012807D1FFF70EFA8F48FEF7DDFBFFF727
:10301000EBF91AE05A480078012816D114480078D4
:1030200001280BD1002012490870764C0025864EED
:103030002A002100300006F02BFC06E0FFF748FADA
:103040008148FDF76BFDFFF725FA70BD401C00209D
:1030500030750000481D00201CBF00087C1D0020AA
:1030600080150020DC1B00205C1B00205416002073
:10307000581D002080B5FFF7B7F901203F490870BF
:1030800072480078002807D102F0B6FBFEF74AFB31
:103090006F4804F04DFC20E06E480078212805D1EF
:1030A00020206C4908706C4802F052FB6B48007895
:1030B000012806D16A4802F04BFB6A4804F038FC4C
:1030C0000BE0192068490870132002F0A5FB67483F
:1030D00067494860664804F02BFCBE4802F038FBA4
:1030E00001BD00001901002078180020181D0020E3
:1030F000B80B0000C8C100084C1D00201A010020B8
:103100001B01002070B5142500245A4E220029000E
:10311000300006F0BDFB05F041FF012018490870A2
:10312000002055490880012054490870544804F093
:10313000FFFB544804F0FCFB4D4804F0C7FB0020A3
:1031400051490870002051490870C24802F000FB44
:1031500070BD0000C81B0020141D0020D4C1000851
:1031600080B5FFF7B5F905F022FF0020044908708B
:10317000BF4802F0EDFA01BD2CBF00086C1D002015
:103180006D1D0020E0C10008621D00204E1D0020C2
:10319000534C00002005002080B58F480068009047
:1031A0008E48807801F002F8009068464078012847
:1031B00018D100208A4908708A480078002811D167
:1031C0000120884908700020874908700020A24922
:1031D00008600020A14988710120A14908700020E1
:1031E000A449087068460078012809D19D480078F4
:1031F00003F0CEFA00209849086001209D4908702C
:1032000001BD00004C04000080B500F041F801BD94
:1032100080B500220421984805F05CFE0020974903
:103220000870002096490870032002F0F5FA9548CE
:1032300004F07EFB03200C490870054804F078FB7D
:1032400001BD00005E1D002024050020641D00203B
:10325000941C0020911700203CBF0008601D002036
:1032600098C30008581C00201D010020C8AF0000B2
:10327000701C00208C1B00203C1D0020451D0020E0
:103280004C1C0020B81C0020581D0020421D0020AE
:1032900000B5BDB001207C4908707C480078012849
:1032A00000D094E016207A4908707548007800280C
:1032B00000D08CE07148007805286FDA6F480078FC
:1032C000401C6E4908704648007801283CD171487E
:1032D000007801285ED116206D4908705F4880791A
:1032E000012803D102206C49087103E03E480078B0
:1032F00069490871D3206949487068486649C97CA2
:10330000152251432D310171090A4171644907A801
:10331000D32205F015FE604902A8142205F010FE24
:103320005E4984B06846172205F00AFE0FBC01F022
:10333000F3FB5A48017942791206120C114389B203
:10334000584802F005FA25E052480078002821D1BB
:1033500016204F4908705148017942791206120C23
:10336000114389B2504802F0F3F9504908A8D3221A
:1033700005F0E6FD394904A80D2205F0E1FD4749B5
:1033800082B06846172205F0DBFD0CBC002111203D
:1033900002F042FA464804F0CBFA18E0002038491F
:1033A00008700020354908704248007801280ED185
:1033B00000204049087037480078002807D13E486F
:1033C00000780949087008480078244908703DB021
:1033D00000BD0000ECC10008A8C40008281D0020A2
:1033E000791D0020821D00201C01002000B587B03F
:1033F0003248006802210143304801602F480068CC
:10340000022108400090009800228021C9001A483B
:1034100005F060FD01222A49174805F05BFD802078
:10342000C000019001200290002003900020049031
:1034300001A9114805F0B0FB21480190012002903C
:10344000012003900020049001A90B4805F0A4FB83
:1034500007B000BDF8C10008201D0020DC1B0020C3
:103460004F1D0020811D002080B5FCF729FE01BD05
:1034700004C20008621D002000040050771D0020D7
:10348000761D0020AC1C00206C1D0020641D002057
:103490001D0100207C1D0020C81B00205C1B00209B
:1034A000541600207CBC00084CBF0008801500208A
:1034B000C41C0020741D0020571D00202C10024049
:1034C0000208000000B5FEE780B50648006840210C
:1034D000014304480160002006F0F0FF07F002F805
:1034E000002002BD0020024000B587B038480068C7
:1034F0000121014336480160354800680100C907D1
:10350000C90F0091009832480068022101433048F9
:1035100001602F48006802210840009000980022B6
:1035200081210901A020C00505F0D4FC0022294911
:10353000294805F0CFFC882000020190012002906C
:10354000002003900020049001A9A020C00505F0F0
:1035500023FBFF20123001900120029000200390F5
:103560000020049001A91C4805F016FB26200190BC
:10357000002002900020039001A9174805F00CFBE1
:1035800001200190154802900120039001A9A0207C
:10359000C00505F001FB602001901048029000205A
:1035A000039001A9A020C00505F0F6FA0022002131
:1035B000052005F08AFA052005F091FA0022002185
:1035C000072005F082FA072005F089FA07B000BD50
:1035D0002C10024001810000000400500000311056
:1035E00080B50F480068012101430D4801600C4877
:1035F00000680100C907C90F00910098002200214E
:103600000A2005F062FA0A2005F069FA002200217A
:103610000B2005F05AFA0B2005F061FA01BD00BF3E
:103620003010024000B583B0504851490860002076
:103630004F490864902080034D49486000204C4960
:10364000886003204A49C863012049490861002075
:103650004749C86000204649086200204449486242
:1036600000204349C862FF20C230414988620020DF
:103670003F49086304203E49486100203C494863B3
:1036800000203B498861002039498863002038497F
:10369000C861374806F096FC002803D05121354810
:1036A000FFF710FF344800908020400101906946E8
:1036B0002F4806F040FE002803D05A212D48FFF77E
:1036C00001FF07BD10B586B0040020682749884275
:1036D00011D12A48006880218900014327480160F0
:1036E0001020009003200190002002906946A02045
:1036F000C00505F051FA06B010BDF0B50400642015
:103700000026F6B20A2E2EDA1D4D2D88A54202D2D1
:103710006425280027E01A4D6D8AA54202D30025B2
:10372000280020E0164DF6B202277743ED5BAC424D
:1037300017D2134DF6B202277743ED196D88A542D3
:103740000FD26425F6B2761C0A277E43AD1B2800F3
:10375000C0B20A2804D10B4DAC4201D20525280085
:1037600001E0761CCDE7C0B2F0BD000000240140AE
:1037700078180020D4B9000810000010341002405E
:1037800000000020D30D000080B53D483D49086091
:10379000962080013B49486000203A49886000201B
:1037A0003849C8600020374908610C203549486114
:1037B00000203449886100203249086200203149E4
:1037C0004862304803F0B8F8002803D04D212E4855
:1037D000FFF778FE01BD80B52C482D490860962082
:1037E00080012B4948600020294988600020284931
:1037F000C8600020264908610C2025494861002046
:103800002349886100202249C861002020490862BC
:1038100000201F4948621E4803F08EF8002803D09C
:1038200062211948FFF74EFE01BD80B519481A49BB
:103830000860962080011849486000201649886079
:1038400000201549C8600020134908610C20124966
:10385000486100201049886100200F49C86100209C
:103860000D49086200200C4948620B4803F064F8D7
:10387000002803D077210448FFF724FE01BD000093
:103880000048004028170020B8BA0008003801405E
:1038900098170020004400400818002010B586B09A
:1038A00004002068AD4988426ED1AD48006880218F
:1038B000C9020143AA480160C02000010090022013
:1038C0000190012002900320039004200490694697
:1038D000A44805F061F9A448A44908600520A3495B
:1038E00048600020A14988600020A049C86080206D
:1038F0009E49086100209D49486100209B498861DC
:1039000000209A49C861002098490862974806F04B
:103910000FFE002803D0A021BE48FFF7D3FD934837
:1039200060669248846292489249086005209149F5
:10393000486010208F49886000208E49C860802030
:103940008C49086100208B494861002089498861C1
:1039500000208849C861002086490862854806F031
:10396000E7FD002803D0B121AA48FFF7ABFD81484D
:10397000206680488462002200211D2005F0A5F801
:103980001D2005F0ACF8E7E02068A34988426FD11C
:10399000A24800688021C9010143A0480160C020FD
:1039A000C0000090022001900120029003200390AB
:1039B000042004906946A020C00505F0EDF8984861
:1039C000984908600320974948600020954988601D
:1039D00000209449C86080209249086100209149E4
:1039E000486100208F49886100208E49C86100200D
:1039F0008C4908628B4806F09BFD002803D0DD212E
:103A00008448FFF75FFD8748606686488462864881
:103A100086490860032085494860102083498860F2
:103A200000208249C86080208049086100207F49C9
:103A3000486100207D49886100207C49C8610020E0
:103A40007A490862794806F073FD002803D0EE2118
:103A50007048FFF737FD754820667448846200227D
:103A600000211B2005F031F81B2005F038F873E029
:103A70002068A84988426FD13948006880218902AE
:103A80000143374801600C20009002200190012082
:103A9000029003200390042004906946A020C005F2
:103AA00005F07AF89C489D49086004209B494860CD
:103AB00000209A49886000209849C8608020974972
:103AC00008610020954948610020944988610020E0
:103AD0009249C861002091490862904806F028FD8B
:103AE000002804D08D2149004A48FFF7EBFC8B48A1
:103AF00060668A4884628A488A4908600420894945
:103B0000486010208749886000208649C86080206E
:103B10008449086100208349486100208149886107
:103B200000208049C86100207E4908627D4806F077
:103B3000FFFC002804D0FF212C313648FFF7C2FCDF
:103B40007848206677488462002200211C2004F017
:103B5000BCFF1C2004F0C3FF06B010BD00480040AD
:103B6000381002400004005030000240D8180020F5
:103B70001C0002401819002010B5040020686A4992
:103B8000884214D16948006869490140674801606A
:103B9000C0210901674805F0E8F8606E06F08EFD67
:103BA000206E06F08BFD1D2004F0A0FF31E02068A0
:103BB0001949884215D1194800685F4901401748E2
:103BC0000160C021C900A020C00505F0CEF8606EDC
:103BD00006F074FD206E06F071FD1B2004F086FFD8
:103BE00017E020684B49884213D150480068534978
:103BF00001404E4801600C21A020C00505F0B5F839
:103C0000606E06F05BFD206E06F058FD1C2004F08F
:103C10006DFF10BDB8BA00080038014034100240F2
:103C20005800024058190020440002409819002012
:103C300038B5040020684249096888421FD12068CD
:103C4000C069C0061BD510203D49096808623C4880
:103C500002F0DBFF3A48406E0068406805003948D2
:103C60002900401A3849488037480078012101432B
:103C700035480170334A3549314802F06AFF2068FF
:103C80003349096888421FD12068C069C0061BD526
:103C900010202F49096808622D4802F0B6FF2C4811
:103CA000406E00684068050026482900401A2649F1
:103CB0004880254800780121014323480170214AAA
:103CC0002249234802F045FF2068224909688842BA
:103CD0001FD12068C069C0061BD510201D49096886
:103CE00008621C4802F091FF1A48406E0068406864
:103CF000050014482900401A1749488016480078E2
:103D000001210143144801700E4A1449114802F080
:103D100020FF31BD004400406C000240D819002053
:103D200080000240181A002000480040381002406D
:103D3000FFFFFBFF00040050FFBFFFFFFFFFFDFF81
:103D4000281700204C040000200500202405002036
:103D50009817002008180020001B0020041B0020DA
:103D600010B586B004008020C005854908608548EC
:103D700083494860002082498860601E8049C8608D
:103D800000207F4908617E4805F0CAFE002803D064
:103D900040217D48FFF796FB80204001029002A958
:103DA000774805F0E8FF002803D046217648FFF762
:103DB00089FB00200090002001906946704807F0C0
:103DC00005F8002803D04D216F48FFF77BFB06B0B4
:103DD00010BD00B587B06D486D49086069486C49F1
:103DE000486000206A49886095206949C8600020C1
:103DF00067490861664805F093FE002803D05E21FC
:103E00006148FFF75FFB80204001029002A96048F3
:103E100005F0B1FF002803D064215B48FFF752FB97
:103E200000200090002001906946594806F0CEFF1E
:103E3000002803D06B215448FFF744FB07B000BDB6
:103E400000B587B05348544908604E48524948600D
:103E500000205149886051484F49C86000204E49B0
:103E600008614D4805F05CFE002803D07C214648DF
:103E7000FFF728FB80204001029002A9464805F088
:103E80007AFF002803D082213F48FFF71BFB002068
:103E900000900020019069463F4806F097FF0028F7
:103EA00003D089213848FFF70DFB07B000BD10B5DE
:103EB000040020688021C90588420ED13848006876
:103EC0000121014336480160002200210F2004F047
:103ED000FCFD0F2004F003FE24E020682B498842FB
:103EE0000ED130480068042101432E4801600022B1
:103EF0000021142004F0E9FD142004F0F0FD11E08D
:103F00002068244988420DD12648006820210143B9
:103F10002448016000220021162004F0D6FD16205E
:103F200004F0DDFD10BD10B5040020688021C90536
:103F3000884209D11A48006801218843184908605D
:103F40000F2004F0D3FD1AE020681049884209D1FF
:103F5000144800680421884312490860142004F0C2
:103F6000C5FD0CE020680B49884208D10D48006867
:103F7000202188430B490860162004F0B7FD10BDCE
:103F8000581A00207F3E00006CBA0008000801406B
:103F9000901A002000140140C81A0020B70B00003E
:103FA000381002403410024080B51C481C4908609B
:103FB00000201B4948607F2019498860FF2018496C
:103FC000C86000201649086100201549486100209A
:103FD0001349886100201249C861114806F024FF86
:103FE000002803D043210F48FFF76CFA01BD10B53C
:103FF00004002068094988420ED10B4800688021DE
:10400000C90201430848016000220021022004F097
:104010005CFD022004F063FD10BD0000002800409C
:10402000381B002020BA00085010024000B5BFF332
:104030004F8F5D48AF490860BFF34F8F00BFFDE76A
:10404000F9B581B00C0015000A9E0027E4B2042CDB
:1040500002D0E4B2062C04D1EDB21F2D01DB00200A
:104060007BE0E4B2092C02D0E4B20B2C04D1EDB217
:104070001F2D01DB002070E068460079042104F068
:1040800061FC002907D0E4B2022C0CD1EDB21D2D49
:1040900009DB002061E0E4B2022C04D1EDB21E2D58
:1040A00001DB002059E0E4B2002C1CD0E4B20D2C5E
:1040B00019DAEDB2002D16D0EDB2202D13DA6846D4
:1040C000007A18280FDA08A800783C280BDA09A82B
:1040D00000783C2807DAF6B2002E04D0F6B2082E9B
:1040E00001DA01200700FFB2012F35D16846007ABE
:1040F0008F49087008A800788D49487009A8007891
:104100008B49887000208A49C8600020884908616E
:1041100000228749874806F0E3FE002804D086483D
:1041200001F016FB002018E08448067083484470B4
:1041300082488570684600798049C87000227F49AE
:104140007C4806F09BFF002804D07D4801F000FB6E
:10415000002002E0012000E00020FEBD10B5012497
:1041600000227349734806F051FF002808D100224D
:104170007249704807F00CF8002801D100200400B3
:10418000E4B2002C09D16A488378694842786848CB
:1041900001786C4801F0DCFA02E06B4801F0D8FAD3
:1041A0002000C0B210BD00000400FA0510B582B0B6
:1041B0000400664800680090FFF7D0FF002800D098
:1041C00093E05B48007800285AD15948407800288D
:1041D00056D157488078002852D0554880783C28DE
:1041E0004EDA5B48007800284AD15A480078012806
:1041F00002D101205649087057480078012804D19F
:10420000564803F063FBFEF7ABFF554800780128E2
:1042100013D1544803F05AFB534803F057FB53485B
:1042200003F054FB524803F051FB524803F04EFB9D
:1042300000204B49087001F0EDFA01206946087032
:10424000E4B2012C04D01BD3032C14D00ED317E0FE
:1042500049480078401C4949C97804F073FB464836
:104260000170454800786946887009E033488078D5
:104270006946887004E03148807869468870FFE7B5
:104280002B4800780B2833D1294840783B282FD180
:104290002748807828282BDB254880783B2827DA98
:1042A0000120694648702C480078012804D12B4829
:1042B00003F00CFBFEF754FF29480078012817D1C2
:1042C000284803F003FB284803F000FB274803F0CD
:1042D000FDFA274803F0FAFA264803F0F7FA00201F
:1042E0001F49087001F096FA02E001206946C87083
:1042F000009816BD0CED00E080B5FFF72FFF0F48CA
:104300000078072811D10A48007817280DD10848ED
:1043100040783B2809D106488078142805DB0448FA
:1043200080783C2801DA012000E0002002BD000076
:10433000B41B0020381B0020CCBF0008241D002027
:10434000DCBF000864BD000878BD0008ACC40008EC
:10435000841D0020641D00206D1D0020B81C00205D
:104360006C1D0020AC1C0020941C0020C41C0020EC
:10437000881C0020701C0020811D0020281D0020AA
:10438000F3B58BB02F2069468871302069460872DA
:10439000FF2500206946087400206946C8730CA8F0
:1043A0000078401E040006A8DA494170090A8170AD
:1043B00001206946087600200700FFB2182F15DAA1
:1043C0003800D5490978C0B288420DD1D24840782A
:1043D0001E2805DBFFB202207843401C050002E0E6
:1043E00002207843050001E07F1CE6E7002007007B
:1043F000FFB2182F3BDAC948E4B278216143401874
:10440000FFB2052179434018807800282DD028007C
:10441000C249E4B2782262438918FFB205227A4386
:1044200089184978C0B288421FD2BC48E4B27821CA
:1044300061434018FFB2052179434018407869462E
:104440008979884211D2012069460874B348E4B2E0
:10445000782161434018FFB2052179434018407824
:10446000694688716846877501E07F1CC0E70020B7
:104470000700FFB2182F3BDAA848E4B27821614365
:104480004018FFB2052179434018807800282DD0CC
:104490002800A249E4B2782262438918FFB20522BB
:1044A0007A4389188978C0B288421FD26846007A58
:1044B0009A49E4B2782262438918FFB205227A430E
:1044C00089188978884211D301206946C8739348B6
:1044D000E4B2782161434018FFB2052179434018C6
:1044E0008078694608726846477101E07F1CC0E722
:1044F0006846894909783C225143874A527889188D
:1045000081826846C07B012800D009E1EDB22F2DE1
:1045100002D0EDB22E2D68D18048E4B278216143FB
:10452000401869464979052251434118C8780A79EB
:104530001206120C10437949E4B2782262438918BA
:104540006A46527905235A438A18D17813791B0693
:104550001B0C194380B2000A090201430E006F4888
:10456000E4B27821614340186946497905225143F4
:10457000401840781E2141436846818106A800907A
:104580006846808A69468989401AB6B2310004F0CB
:10459000D9F9401C70436946898A401A694689895D
:1045A000411800984170090A81705C48E4B2782192
:1045B000614340186946497905225143405C694688
:1045C00008765648E4B27821614340186946497933
:1045D000052251434118C8780A791206120C10437B
:1045E00006A9C870000A0871A8E068468079694683
:1045F000097A884224D26846007C012820D1684686
:10460000694689791E224A43828106A869468989BA
:104610006A46928A891A4170090A81703F48E4B259
:104620007821614340186946897D05225143405CE9
:104630006946087606A80021C170090A01717DE06B
:104640003648E4B278216143401869464979052229
:1046500051434118C8780A791206120C10432F49A9
:10466000E4B27822624389186A46527905235A4394
:104670008A18D17813791B061B0C194380B2000AE3
:10468000090201430E002548E4B278216143401835
:104690006946497905225143401840781E2141431B
:1046A0006846818106A800906846808A69468989A3
:1046B000401AB6B2310004F045F9401C7043694617
:1046C000898A401A69468989411800984170090A07
:1046D00081701248E4B278216143401869464979F3
:1046E00005225143405C694608760C48E4B27821C3
:1046F0006143401869464979052251434118C878F9
:104700000A791206120C104306A9C870000A087133
:1047100014E000BFFFFF0000B41B0020700D00205C
:1047200001206946087606A8B421C9004170090A2B
:10473000817006A80021C170090A01712F2630205E
:104740006946C8710020694688730020694648722E
:1047500008A899494170090A8170012008A90870C8
:1047600000200700FFB2182F3ADA9448E4B278210B
:1047700061434018FFB20521794340188078002832
:104780002CD028008D49E4B2782262438918FFB208
:1047900005227A4389184978C0B288421ED28748D8
:1047A000E4B2782161434018FFB2052179434018F3
:1047B00040783100C9B2884210D20120694688731E
:1047C0007E48E4B2782161434018FFB20521794365
:1047D0004018407806006846477401E07F1CC1E736
:1047E00000200700FFB2182F3BDA7448E4B27821AA
:1047F00061434018FFB205217943401880780028B2
:104800002DD028006D49E4B2782262438918FFB2A6
:1048100005227A4389188978C0B288421FD2684637
:10482000C0796649E4B2782262438918FFB2052252
:104830007A4389188978884211D3012069464872E1
:104840005E48E4B2782161434018FFB20521794304
:10485000401880786946C8716846077101E07F1C7E
:10486000C0E76846AB4909783C225143A94A5278CF
:10487000891841826846407A012800D00CE1EDB2E7
:104880002F2D02D0EDB22E2D6BD14C48E4B2782101
:104890006143401869460979052251434118C87897
:1048A0000A791206120C10434449E4B2782262439A
:1048B00089186A46127905235A438A18D1781379E0
:1048C0001B061B0C19436A4680B2000A0902014309
:1048D00011853A48E4B27821614340186946097964
:1048E00005225143401840781E21414368464181CA
:1048F00008A800906846408A69464989401A694676
:10490000098D04F01FF8401C6946098D484369462B
:10491000498A401A69464989411800984170090A34
:1049200081702648E4B278216143401869460979CC
:1049300005225143405C08A908702048E4B2782160
:104940006143401869460979052251434118C878E6
:104950000A791206120C104308A9C870000A0871DF
:10496000A8E030006946C979C0B2884228D26846BA
:10497000807B012824D16846F6B21E217143418113
:1049800008A8694649896A46528A891A4170090A03
:1049900081700A48E4B27821614340186946497C35
:1049A00005225143405C08A9087008A80021C17085
:1049B000090A01717EE000BFFFFF0000B81000206F
:1049C000E348E4B278216143401869460979052239
:1049D00051434118C8780A791206120C1043DC4979
:1049E000E4B27822624389186A46127905235A4351
:1049F0008A18D17813791B061B0C19436A4680B2BA
:104A0000000A090201431185D148E4B278216143CB
:104A100040186946097905225143401840781E2103
:104A200041436846418108A800906846408A69462B
:104A30004989401A6946098D03F084FF401C694684
:104A4000098D48436946498A401A6946498941188F
:104A500000984170090A8170BD48E4B27821614331
:104A600040186946097905225143405C08A908703D
:104A7000B748E4B2782161434018694609790522B4
:104A800051434118C8780A791206120C104308A93C
:104A9000C870000A08710DE0012008A9087008A874
:104AA000B421C9004170090A817008A80021C170B1
:104AB000090A017106A948788A781206120C104377
:104AC00008AA517893781B061B0C194380B289B24F
:104AD000884217D308A948788A781206120C104326
:104AE00006A94870000A887008A800786946087608
:104AF00008A9C8780A791206120C104306A9C870D2
:104B0000000A08710B9806A9052204F019FA0DB0E5
:104B1000F0BD0000B41B00200FB4FEB56846008F46
:104B2000694608878B4806F0B7FB11908A480079E0
:104B30000EA948720EA8884909884171090A817135
:104B4000854948798A791206120C10430EA94881CA
:104B50000EA881494988C171090A017208A8808894
:104B600080B2000A08A989880902014308A8818047
:104B700017206946887014206946487015206946D8
:104B8000C8700EA9487C8A7C1206120C1043694634
:104B900089786A46527889180818801C6946C88046
:104BA0000EA9487C8A7C1206120C10430EAA517C76
:104BB000937C1B061B0C19430EAA80B2000A090243
:104BC00001435174090A91740EA8C07C002808D1D1
:104BD00068466946C988891E0181042069460871B2
:104BE0000BE00EA8C07C002807D068466946C9883B
:104BF000491E01810220694608716846008901F05A
:104C000083F806006846F6B26946C9880222514315
:104C100071182B31418100240027F6B23000273073
:104C20000400300027300700AA48FFB2C2196846C6
:104C3000817889B208A804F097FDA4B2684680780C
:104C4000022148432418A348A4B2021968464178B7
:104C500089B20EA804F088FDA4B26846407802210B
:104C600048432418002069460870002528000EA932
:104C7000C97CC0B2884225D29648A4B202196846BF
:104C8000C17889B213A8EDB215236B43C018401C3C
:104C900004F06AFDA4B26846C07802214843241893
:104CA0006846C17889B213A8EDB215226A4380180C
:104CB000401C04F0D9FC6946097808186946087058
:104CC0006D1CD3E768468078411E89B208A8401C55
:104CD00004F0CAFC694609780818694608706846F5
:104CE000417889B20EA804F0BFFC6946097808181B
:104CF000694608707748A4B202190121684604F099
:104D000033FDFA20694648717248A4B20019821C2A
:104D1000012101A8401C04F027FDA41C02226EA161
:104D20006C48A4B20019801C04F0C6FC6846408997
:104D300069460979421A92B26649684801F0B4FEA0
:104D4000C64800F005FD03B00498F0BC05B000476C
:104D5000B8100020E31C0020DC1C0020FEB588B049
:104D600006000025002701A8182104F0B9FDFA204B
:104D700069460871012001A98870022001A9C87044
:104D800001A8B749098889B2090AB54A12881202EE
:104D90000A434275120A82750F22B24901A8801D8A
:104DA00004F08AFCF6B2D42E05D1D42001A94870B3
:104DB0001B20050007E0F6B2D52E04D1D52001A9AD
:104DC00048701B200500EDB2280201A98880EDB2D1
:104DD000681E80B200F098FF69468870EDB202202C
:104DE00068432B3007000024684680782730040091
:104DF000172101A804F038FC69460870684600785D
:104E0000801D694608703348E4B20219172101A8D1
:104E100004F0AAFC2E34F6B2D52E17D168460078DD
:104E20000AA909784018694608702A48E4B20219AC
:104E300001210AA804F098FCA41C2648E4B2021937
:104E4000012110A804F090FCA41C1FE0F6B2D42E9F
:104E50001CD10120AA4908706846007808A9097881
:104E600009AA127889184018694608701948E4B2EE
:104E70000219012109A804F077FCA41C1548E4B22A
:104E80000219012108A804F06FFCA41C1148E4B227
:104E900002190121684604F067FCA41CFA20694647
:104EA00048700C48E4B20219012100A8401C04F02B
:104EB0005BFCA41C022208A10648E4B2001904F01D
:104EC000FBFB3A0092B20349044801F0EDFD0BB040
:104ED000F0BD0000700900200D0A00002817002016
:104EE000F3B585B00024002700206946087410221D
:104EF0008449059804F0A0FB1034824948798A79E6
:104F00001206120C10437F4A517993791B061B0C31
:104F100019437C4A80B2000A090201435171090A0F
:104F2000917179480078401C69464870754800794D
:104F30006946C8707348C07869468870714880783F
:104F4000002802D1012069460874002630006D490E
:104F5000C979C0B288426ED2062203A90598A4B2CC
:104F6000001904F069FBA41D0025280003A9897815
:104F7000C0B288425DD20A2201A90598A4B20019E4
:104F800004F05AFB0A340020070001A8407801A968
:104F90008978884211D201A8407830280DDA01A81A
:104FA0008078002809D001A88078312805DA684681
:104FB0000079022801DA01200700FFB2002F04D196
:104FC000002069460870009846E04E4801784F4836
:104FD00000F0BEFB4B480078002814D1D94800F0FF
:104FE000B7FB052201A9D84884466846037B782090
:104FF00043436046C018EDB205236B43C0187838B0
:1050000004F05AFB13E0DA4800F0A2FB052201A9E4
:10501000D84884466846037B782043436046C018DE
:10502000EDB205236B43C018783804F045FB6D1CC6
:105030009BE7761C8AE76846007C012808D101209E
:10504000694608702F484078CB49C870009803E043
:10505000AA2069460870009807B0F0BD88C400080F
:105060003E1D0020621B0020F0B587B004000D003B
:105070000E2205A9200004F0DFFA05A8007904F04B
:10508000C8FB6946087405A8407904F0C2FB69466C
:10509000C87305A8807904F0BCFB07006846007D52
:1050A00004F0B7FB060005A8407804F0B2FB69469F
:1050B000887305A8807804F0ACFB6946487368469D
:1050C00005A9C97801736846007B02906846407B59
:1050D00001906846807B00903300DBB23A00D2B288
:1050E0006846C17B6846007CFEF7AAFF012801D014
:1050F000002003E0C94800F02BFB012007B0F0BD01
:10510000751D0020F81C00206F1D0020ECBF00085A
:105110000FB4FEB508A8808880B2000A08A9898863
:105120000902014308A881800EA948788A781206EE
:10513000120C10430EAA517893781B061B0C1943CE
:105140000EAA80B2000A090201435170090A917047
:105150000EA9C8780A791206120C10430EAAD1784B
:1051600013791B061B0C19430EAA80B2000A090210
:105170000143D170090A11710EA8408980B2000A5A
:105180000EA94989090201430EA8418117206946E9
:1051900008710D206946C8701520694688700B207B
:1051A00069464870684600796946C97840180EA972
:1051B000097B6A46927851434018694649784018FD
:1051C000401C6946C8806846C08800F09DFD060006
:1051D0006846F6B26946C9880222514371182B31DC
:1051E000018100240027F6B230002730040030008F
:1051F000273007008A48FFB2C2196846017989B290
:1052000008A804F0B1FAA4B2684600790221484324
:1052100024188348A4B202196846417889B247A885
:1052200004F0A2FAA4B26846407802214843241848
:105230007B48A4B202196846C17889B20EA804F06E
:1052400093FAA4B26846C07802214843241800208B
:1052500069460870002528000EA9097BC0B2884263
:1052600025D26F48A4B202196846817889B212A883
:10527000EDB215236B43C018401C04F075FAA4B2BC
:10528000684680780221484324186846817889B2AC
:1052900012A8EDB215226A438018401C04F0E4F90C
:1052A000694609780818694608706D1CD3E7684696
:1052B0000079411E89B208A8401C04F0D5F969465E
:1052C00009780818694608706846C17889B20EA83E
:1052D00004F0CAF9694609780818694608706846F2
:1052E000417889B247A804F0BFF9694609780818DF
:1052F000694608704A48A4B202190121684604F0C0
:1053000033FAFA20694648714548A4B20019821C54
:10531000012101A8401C04F027FAA41C022241A18B
:105320003F48A4B20019801C04F0C6F968460289FF
:105330003B493D4801F0B8FB03B00498F0BC05B010
:105340000047000090C40008700D002080B50020C8
:1053500036490870364802F0EBFA00200090FF232F
:10536000344842780021D520FFF7F8FC01BD000049
:1053700098C40008B8100020C81B002080B52B4836
:105380000078022818DA29480078401C274908705C
:1053900029480078002834D100200090FF232548B8
:1053A00042780021D520FFF7D9FC16202349087048
:1053B0001F4802F0BDFA24E0214800F0C9F900209E
:1053C0001A4908701F480078012818D100201E498A
:1053D00008601E4802F07AFA1D4802F077FA1D486C
:1053E00002F074FA1C4802F071FA1C4802F06EFADE
:1053F00001201B4908701B4800F0AAF901E0FEF7E4
:1054000015FE01BD80208002094908601648084940
:10541000486016480649886070470000FCBF0008D5
:10542000700900200D0A000028170020781D0020B8
:10543000D01C0020281D00207A1D00201D01002006
:105440000CC00008641D0020201D0020AC1C0020A2
:10545000941C0020C41C0020881C0020701C00200C
:10546000621D00207CC20008881300007D530008E4
:1054700013B50400002C06D001982168087020683C
:10548000401C206005E0AF4B012201A9AE4801F0AD
:1054900095FA13BDF9B581B00E0014000025202740
:1054A000012C12DB002031000A78002A02D0401CB7
:1054B000491CF9E7A04202DB0022140000E0241A94
:1054C000029A920701D5302217000298C00708D42B
:1054D000012C06DB39000198FFF7CAFF6D1C641E22
:1054E000F6E73078002806D031780198FFF7C0FF42
:1054F0006D1C761CF5E7012C06DB39000198FFF7DF
:10550000B7FF6D1C641EF6E72800FEBDFFB587B02F
:10551000109E129F0020039000200290089C089883
:1055200000280CD1302069460874002004A9487076
:10553000119B320004A90798FFF7ACFF49E00A98D5
:1055400000280AD009980A2807D10898002804D50D
:1055500001200390089841420C0004A80B3005007C
:1055600000202870002C16D02000099903F0EDF9D6
:10557000019101980A2804DB019938003A3808188B
:1055800001906D1E0198303028702000099903F0B9
:10559000DCF90400E6E70398002810D0002E0BD0B9
:1055A0001198800708D52D210798FFF761FF029811
:1055B000401C0290761E02E06D1E2D20287002997C
:1055C0000091119B320029000798FFF763FF0099B3
:1055D00008180BB0F0BDF1B586B00D00140000271F
:1055E0002878002800D1A2E02878252800D097E06C
:1055F0006D1C00200390039806002878002800D135
:1056000095E02878252800D18AE028782D2802D135
:105610006D1C012003902878302805D16D1C03985B
:10562000022101430391F6E72878302809DB287826
:105630003A2806DA0A2046432878303836186D1C96
:10564000F2E72878732810D12068241D0090009874
:10565000002801D0009900E03C49039B32000698E5
:10566000FFF718FF381807005FE0287864280ED18C
:105670002168241D61200290039801900096012367
:105680000A220698FFF742FF381807004DE02878F5
:1056900078280ED12168241D612002900398019082
:1056A0000096002310220698FFF730FF38180700F5
:1056B0003BE0287858280ED12168241D4120029013
:1056C000039801900096002310220698FFF71EFF12
:1056D0003818070029E0287875280ED12168241D84
:1056E0006120029003980190009600230A220698F8
:1056F000FFF70CFF3818070017E02878632814D14B
:105700002068241D69460874002004A94870039B82
:10571000320004A90698FFF7BDFE3818070004E020
:1057200029780698FFF7A4FE7F1C6D1C58E70698A1
:10573000002803D00020069909680870380007B0D7
:10574000F0BD0000FFFF00000818002080C4000822
:105750000EB430B5040003A805002A002100002083
:10576000FFF739FF029930BC04B0084711B581B08A
:10577000002405F09DFD040005F09AFD001B019931
:105780008842F9D313BDFEE770B504000D00160082
:1057900005F094FD11482418002E0ED010488442C4
:1057A00002D305F09AFD0AE02A782100002005F0D6
:1057B0009FFD641C6D1C761EEEE705F08EFD70BD2E
:1057C00000B5064BC018002A05D003780B70401CAA
:1057D000491C521EF7E700BD000000000000080849
:1057E0000008080800B5BFF34F8F07480749086055
:1057F000BFF34F8F00BFFDE780B5012201210448B0
:1058000003F068FB01BD00000400FA050CED00E0A8
:1058100000040050704700000FB4F0B5FFB084A83A
:1058200000783EA908703EA80078032803D03EA85F
:105830000078082825D100240B2004003EA8007819
:10584000032808D1D2A00090D2A3D34AB2A1042049
:1058500003F040FF0DE03EA80078082808D1CCA056
:105860000090CEA3CC4AACA1042003F033FF00E0AB
:1058700089E1E4B2220092B2C949CA4801F014F9A0
:1058800081E13EA80078052812D1002415200400EB
:10589000BFA00090C44BC54A9FA1042003F01AFF8B
:1058A000E4B2220092B2BE49BE4801F0FDF86AE1BE
:1058B0003EA80078042812D100240B200400B4A0D4
:1058C0000090B6A3BA4A94A1042003F003FFE4B207
:1058D000220092B2B249B34801F0E6F853E13EA883
:1058E0000078062810D1002408200400A8A3B1A243
:1058F00089A1032003F0EEFEE4B2220092B2A8498F
:10590000A84801F0D1F83EE13EA80078092812D15C
:1059100000240B2004009EA00090A0A3A64A7EA114
:10592000042003F0D7FEE4B2220092B29C499D48C5
:1059300001F0BAF827E13EA800780A2814D1002423
:105940001B20040092A001909C48009093A39C4AC5
:1059500071A1052003F0BEFEE4B2220092B290498C
:10596000904801F0A1F80EE13EA800780B2812D172
:1059700000240B20040086A0009088A3914A66A111
:10598000042003F0A7FEE4B2220092B284498548C5
:1059900001F08AF8F7E03EA800780C2812D1002424
:1059A0000C2004007AA000907CA3874A5AA104200E
:1059B00003F090FEE4B2220092B27949794801F0F6
:1059C00073F8E0E03EA800780D2812D100240C20E6
:1059D00004006FA0009071A37C4A4FA1042003F043
:1059E00079FEE4B2220092B26D496E4801F05CF893
:1059F000C9E03EA800780E2810D100240C20040035
:105A000063A3734A44A1032003F064FEE4B22200BE
:105A100092B26349634801F047F8B4E03EA80078C9
:105A20000F2810D100240D20040059A3694A3AA17F
:105A3000032003F04FFEE4B2220092B258495948C5
:105A400001F032F89FE03EA80078102814D100241D
:105A50001A2004004EA001905F4800905F4B604AFE
:105A60002DA1052003F036FEE4B2220092B24C498B
:105A70004C4801F019F886E03EA8007811284DD175
:105A800085A804002068241D0500002D3CD168462F
:105A90002100172203F054FA183443A8694617224C
:105AA00003F04EFA684621000D2203F049FA103443
:105AB0003FA869460D2203F043FA68462100D3222D
:105AC00003F03EFAD43449A86946D32203F038FAE9
:105AD00044493BA80B2203F033FA49A906A8D42273
