:020000040800F2
:100000008803002049C0000811BB000813BB00088A
:1000100000000000000000000000000000000000E0
:1000200000000000000000000000000017BB0008F6
:10003000000000000000000019BB00081BBB000806
:10004000472D00083743000827BB00084B54000821
:10005000FB9D000831BB0008DBB000083BBB00087B
:10006000000000003FB1000853BB000863BB00085C
:1000700043B1000883B50008000000007FBB000802
:1000800000000000A7B90008000000000000000008
:1000900089BB00080000000093BB000833BA0008C9
:1000A000BDC10008BFC10008C1C100089DBB000858
:1000B000ADBB0008BDBB0008000000000000000050
:1000C00000B5BFF34F8F814881490860BFF34F8F60
:1000D00000BFFDE780B501F045FF00F056F801F0E4
:1000E000DFFA01F04FFF01F0D5FF01F0F5FF02F05C
:1000F000C5F802F0FAFB02F02FFC02F0E6F802F07D
:100100000EF902F0DDFC02F01DFD01F09DFA00F099
:10011000A5F801F03BFA00F0F5F802F07FFD0323AB
:1001200002220021032002F091FD00BFFA204000CE
:1001300002F0FCFD01F002FE00206649087000207C
:1001400065490870002065490870002064490870FE
:10015000002064490870002062494870624802F03B
:1001600085FA00F027FE02F0EFFD01205F490870DC
:10017000B74800780028DFD103F000F901F01CFE39
:1001800001F028FB00F036FEF2E700B599B05848C0
:100190000068584901408020000108435449086024
:1001A00055480068534901405348016006200C90AF
:1001B000802040000E9001200F901020109002200F
:1001C0001590002016908020C0021790C0200004D7
:1001D00018900CA803F010F9002803D047499D4857
:1001E00001F0BEFE0F200790032008900020099028
:1001F00000200A9000200B90002107A803F0A6FB26
:10020000002803D03E49934801F0AAFE2720009021
:1002100000200290002003900020049080204002E3
:100220000190684603F056FD002804D08B21890018
:10023000884801F095FE03F0C9FCFA21890003F01B
:1002400078FF04F04EF8042004F051F80022002159
:100250000020C04304F02DF819B000BDFA207E49FB
:100260000870D1207C49487001207B49C8707B48C8
:1002700000218172090AC1727948007877490870B3
:100280007648B421C9004170090A81707348B421CD
:10029000C900C170090A017164207049C871FF204A
:1002A0006E4908726F4801210171090A41716D4858
:1002B00001218170090AC17068206B4908704120D2
:1002C0006949487011206849887070470400FA0530
:1002D0000CED00E0BE1C0020AD1C0020A91C00207D
:1002E000B41C0020641C002058160020B51C0020FF
:1002F00000700040FFE7FFFF5010024013020000B3
:100300002102000080B55948006802F0B5FA0120CA
:1003100057490860574856494860574854498860CB
:10032000022056490860C82054494860544853493F
:1003300088608020400053490860962051494860F9
:1003400051485049886008205049086050484F493A
:10035000486050484D49886010204F490860FA2095
:1003600080004D4948604D484B49886080204001DD
:100370004B4908604B484A4948604B4848498860A7
:1003800040204A4908604A48484948604948474926
:100390008860802048490860FA20C00046494860CB
:1003A0004648454988608020800045490860FA2019
:1003B0008000434948604348414988608020C0002C
:1003C0004149086041484049486041483E49886089
:1003D000802000013F490860C82080003D494860F6
:1003E00094483C4988600420934908602848924911
:1003F0004860924890498860802080019049086058
:10040000FA20C0008E4948608E488D49886080205F
:10041000C0018D490860C82080008B4948608B4826
:100420008949886080200002894908601D48884900
:100430004860884886498860802040028649086074
:10044000FA2080008449486084488349886001BD5F
:10045000BB1C0020CCBC0008EC1A0020681B00204C
:10046000830100204C1C0020541C0020140000209C
:10047000781B0020B80B000089060008081C00202B
:10048000D5070008841B0020DD0700089C1B002006
:1004900060EA00005D080008141C00205F080008E6
:1004A000901B0020307500004D0A0008A81B00209A
:1004B00070170000F50E0008B41B0020B50A0008F4
:1004C000FC1B0020BD0A00082C1C00201027000087
:1004D000C50A0008C01B002010B50400200080B22F
:1004E00000F046FB10BD10B5040020685C490968A7
:1004F000884201D102F00CFF20685A4909688842FD
:1005000000D08EE058484078012800D086E00121D4
:10051000A020C00504F0A0F800287CD15248007843
:10052000401C5149087051480078012815D15048A5
:100530000078012811D14F48007800280DD14A4891
:100540000078012809D14C480078002805D1012005
:10055000484908703C4802F059FE43480078052895
:1005600059D142480078012855D1444802F01BFE79
:1005700000203F49087042480078012804D14148D2
:1005800002F011FE01F0A8FC8D48007801280AD184
:100590008C4802F008FE284802F005FE0020884939
:1005A000087004F0A4F800202F4908700120324997
:1005B000087085480078002803D10120824908701E
:1005C00016E081480078012812D100207E49087089
:1005D00000207E4948707D4840787D4908737C48FA
:1005E0007B49097B15225143491C8172090AC1725A
:1005F0000120774988717448007875490870002097
:100600008B49087000208B490870C8208A494860CF
:10061000894802F0FBFD00201349487000208749FB
:100620000870206886490968884201D100F016FBED
:1006300010BD0000A5180008201C0020211C000887
:10064000CC1B00204B1C0008D81B00207D1C000880
:10065000E41B0020CD1C0008F01B0020291D000811
:10066000B4190020EC190020641C0020BD1C0020DF
:100670009E1C0020A11C0020AF1C0020781B002025
:10068000B51C0020901B002080B56E4880780028A3
:1006900007D16D480078002878D10120AF49087053
:1006A00074E068488078012870D167480078002895
:1006B00030D101206449087064480078002825D1B1
:1006C00001F0CAFB13206249C8700120604908711B
:1006D00001206049487105225D495E4804F0EAFD49
:1006E0005B480179491D89B25A4804F0BBFD5A495B
:1006F0000870594800785749554A12798918487145
:1007000016205449524A1279891888714A4802F0D1
:100710007DFD3BE04C480078012837D14B480078FC
:10072000012833D18E480078012804D18D4802F089
:100730003AFD01F0D1FB2248007801280AD1214876
:1007400002F031FD884802F02EFD00201C4908709F
:1007500003F0CDFF0120854908700120844908700D
:1007600001208449087001201949887116480078D1
:10077000814908700120144908700120144908704B
:1007800064202D4948602C4802F040FD00202D498E
:1007900008700020794908702B48007801280ED194
:1007A0000748007800280AD16D480078002806D153
:1007B0006E480078002802D101206849087001BD08
:1007C000B41C0020A81B0020830100201415002069
:1007D000681B002080B500F041FA01BD80B500F033
:1007E000E9FA97480078022820DA95480078401CFA
:1007F0009349087015480078012814D09148007872
:10080000002806D10022802149008F4803F032FFE2
:1008100009E08C480078012805D1002210218A487F
:1008200003F028FFFFE7C74802F0F0FC01BD00001D
:10083000BC1C0020A51C0020081C00209F1C0020C0
:10084000241A0020641C0020A81C0020BD1C0020CD
:10085000541C00205C1A0020B81C0020704700B512
:10086000BDB08D480078002810D116208B49087043
:100870000121112003F044FFB34802F0C7FC01201E
:100880008749087001208449087065E08248007833
:10089000012861D18348007801280AD100208149CC
:1008A000087081480078012803D1804802F0AEFC2E
:1008B00052E000207E4908737D487D49097B15225E
:1008C0005143491C8172090AC172A0487849097BC9
:1008D0001522514326310171090A417116206F49D1
:1008E00008709B4908A8D42204F0B0FD704904A800
:1008F0000D2204F0ABFD954982B06846172204F042
:10090000A5FD0CBC0021112003F0FAFE91480078EF
:10091000401C9049087090488B4948608D48007889
:10092000062816DB00208B4908705F4800780028F5
:1009300002D1FFF7C5FB0FE05B48007801280BD11F
:1009400003F0D5FE002085490860012003490870A6
:1009500002E07D4802F05AFC3DB000BDBB1C002007
:10096000B51C0020901B0020201C0020B01C002083
:10097000B11C0020B21C0020B31C00209E1C0020D3
:1009800010B5BCB00400200002F021FA74490860E0
:1009900073480068C178734804F086FD70480068A9
:1009A000C078012849D1704804F07EFDA74800783E
:1009B000012805D1A64802F0F6FB0020A3490870E3
:1009C0006748006802F0D2F9162034490870D32035
:1009D0005E4948705E4840789E49C8749D48C07C16
:1009E000002808D09B489B49C97C15224A43427481
:1009F000120A827404E0974801214174090A817443
:100A000052489449C97C152251432D310171090A7C
:100A100041714F4907A8D42204F018FD8D4902A85E
:100A2000142204F027FD494984B06846172204F0D7
:100A30000DFD0FBC04F04AFD00BF3CB010BD00002E
:100A4000A61C0020AD1C00200004005080B5824888
:100A50000088401C804908807F480088002817D003
:100A600000207A49087000207B490880A04800785F
:100A7000012810D100207549087000F0ABFD01F08D
:100A80002BFA9C4804F010FD01203849087002E060
:100A90006F4802F0BBFB01BDC01C00208401002098
:100AA000BF1C00204C1C0020BD1C0020CC1B0020C3
:100AB000681B002080B500F01FFD01BD80B500F06F
:100AC000D7FD01BD00B5BDB08B480078002835D1F9
:100AD000C2480088401CC1490880C04800880628D8
:100AE00027DA1A488549097B1522514326310171BD
:100AF000090A4171164908A8D42204F0A7FC7F49CD
:100B000004A80D2204F0A2FC104982B06846172206
:100B100004F09CFC0CBC0021112003F0F1FD162018
:100B2000774908700C48A2494860A14802F06EFB62
:100B300004E00020A9490880FFF7C2FA3DB000BDDB
:100B400000000000841B0020141C0020EC1A002070
:100B500014150020C11C002010270000741C002068
:100B6000681C0020C8BF0008D8BF0008BB1C0020BC
:100B700010B50400A4B2012C17D10121A020C0059A
:100B800003F06AFD002806D1012095490860002085
:100B90009449087009E00121A020C00503F05CFD24
:100BA000012802D102208E490860A4B2402C25D130
:100BB00000208C49087000F0FDF88B4802F0F3FA31
:100BC0004021A020C00503F047FD002806D10022E7
:100BD00080214900BA4803F04DFD0FE04021A020DC
:100BE000C00503F039FD012808D1804800780128AC
:100BF00004D100221021B24803F03CFDA4B2202C05
:100C000019D10020774908702021A020C00503F0E9
:100C100023FD002803D10120744908700BE0202136
:100C2000A020C00503F018FD012804D100F0C2F88F
:100C300000206E490870A4B2202C05D1002069491B
:100C4000087001209F49087010BD0000A01C002002
:100C5000901B0020441B0020961C002080B5644897
:100C60000078092826DA98480078002822D1974889
:100C70000078022803D095480078002804D110217C
:100C80008F4803F001FD09E090480078012805D164
:100C900080210902A020C00503F0F6FC544800782A
:100CA000401C53490870C8204F4948604E4802F024
:100CB000ADFA1CE000204E490870012082490870FE
:100CC0008348007800F01EF88248007801280ED191
:100CD000002080490870444802F065FA00207E49EF
:100CE000086001207D49087000203E49087001BD60
:100CF000B51C002058C00008BD1C0020681B002047
:100D00008401002010B504003848007801284ED036
:100D100000F050F8002072490870724800780028EE
:100D200008D171483049486000F0A5FD6F4802F0D5
:100D30006DFA3CE06E480078012811D100206C4922
:100D40000870002280210902A020C00503F092FC57
:100D5000FA20C000AD494860AC4802F057FA26E0DE
:100D600097480078012822D1002095490870C820B2
:100D700080001D49486055480078012807D10022AD
:100D800080210902A020C00503F074FC08E04F4850
:100D90000078002804D100221021494803F06AFCA1
:100DA000C820800099494860984802F02FFA10BD89
:100DB0002C1C002080B5012280214900404803F00E
:100DC00059FC012210213E4803F054FC01228021ED
:100DD0000902A020C00503F04DFC01BD921C0020BB
:100DE0006C1C0020BB1C0020081C0020A71C00203D
:100DF000A51C002000B5BDB03848007801281BD1E3
:100E00000020364908703148007801280AD180480E
:100E10000078002810D17F48007800280CD101F01C
:100E200031F809E029480078002805D17948007890
:100E3000002801D101F010F87748007801283DD151
:100E400028480078012839D174480078002835D125
:100E50000120724908701620714908707148724962
:100E6000097B1522514326310171090A41716F49ED
:100E700008A8D42204F0EAFA6B4904A80D2204F071
:100E8000E5FA684982B06846172204F0DFFA0CBC24
:100E90000021112003F034FC6548007801280AD1B4
:100EA00000206349087063480078084908700748C3
:100EB00000785D490870604802F0A8F93DB000BDB7
:100EC00000040050B91C0020BC1C0020830100203D
:100ED00082010020AF1C0020741C0020A91C0020EF
:100EE000A61C0020BD1C0020B80B0000841B0020A5
:100EF000B21C002080B55148007801285FD05048CE
:100F000000780B2855DA4E480078401C4C49087090
:100F100043480078032809D1032003F0F1FB494836
:100F200049494860484802F071F948E03C48007877
:100F3000082809D1082003F0E3FB424842494860F1
:100F4000414802F063F93AE0354800780E2809D1AB
:100F50000E2003F0D5FB3D483B4948603A4802F07B
:100F600055F92CE02E480078062806D1062003F01B
:100F7000C7FB354802F04AF921E0294800780A28E1
:100F800009D10A2003F0BCFB31482F4948602E48A4
:100F900002F03CF913E02248007810280FD110200D
:100FA00003F0AEFB294828494860274802F02EF993
:100FB00005E000202149087000202149087001BD8A
:100FC000A41C002080B52348007801280FD1002000
:100FD0001B490870002019490870032003F090FB9A
:100FE000194802F013F903200D4908700CE0194864
:100FF0000078002808D1082003F082FB0820084967
:101000000870114802F002F901BD0000C01B002069
:10101000B51C0020B41C0020AD1C0020BE1C00200C
:1010200084010020EC1A0020681B00201415002009
:10103000B01C0020B31C0020FC1B0020AB1C0020B7
:10104000AC1C002070170000A81B0020B80B00008B
:1010500088130000AA1C002030B5BDB00400BE48B3
:101060000078032803D0BC48007808282AD106223B
:10107000BA49200004F0DCFB002800D02CE201205B
:10108000CE4908700020CE490870B3480078032884
:1010900009D1B34802F087F8002003F031FB0020AB
:1010A000AD49087018E2AC480078082800D013E277
:1010B000AB4802F078F8042003F022FB0420A64994
:1010C000087009E2A4480078002817D1A5A12000E3
:1010D0000B3004F0C3FB0500280004F0E7FBCE4909
:1010E0000870CD4802782900CC4804F0E3F80420C9
:1010F00003F006FB042098490870EDE1964800785B
:10110000042821D10822C649200004F091FB0028C0
:1011100000D0E1E193A12000083004F09FFB05001E
:10112000280004F0C3FB0F2800D0D5E10F222900CE
:10113000CE4804F0BFF80922CD49CE4804F076FC31
:10114000052085490870C7E183480078052816D135
:101150000F22C949C94804F0ADF815207E4908702E
:101160000622C749200004F063FB002803D0D348BF
:1011700002F04CF8B0E1D24804F096F9ACE17648C0
:101180000078062810D10D22D449200004F050FB2D
:10119000002800D0A0E107206F49087000F0C0F9D6
:1011A000CF4802F033F897E16B480078072817D151
:1011B000CC49200005F010FA0500002D00D18BE18C
:1011C00008206549087000207C49087000207C498F
:1011D0000870C54862494860614802F017F87BE131
:1011E0005D48007809281AD106225C49200004F0E5
:1011F0001FFB002800D06FE10A20574908700A2021
:1012000003F07EFA00206D49087000206C490870D8
:10121000B84853494860524801F0F8FF5CE14E4835
:1012200000780A2818D106224C49200004F000FB5F
:10123000002800D050E1012060490870002060497A
:101240000870474801F0AFFF0B204349087042483F
:10125000007803F055FA3FE13F4800780B280FD1A2
:1012600006223E49200004F0E3FA002800D033E1D2
:101270000C20394908703848007803F041FA2BE116
:10128000354800780C281BD106223449200004F090
:10129000CFFA002800D01FE10E202F4908702E48F9
:1012A000007803F02DFA00204449087000204449DA
:1012B000087099482A494860294801F0A7FF0BE1C6
:1012C000254800780E2823D1012294A120000C305B
:1012D00004F0AEFA002808D0012290A120001830B6
:1012E00004F0A6FA002800D0F6E001203349087087
:1012F0000020334908701A4801F055FF0F201649A5
:1013000008700F2003F0FCF9154801F07FFFE3E0BF
:10131000114800780F2827D10125200000F0E6F8B9
:101320000500EDB2012D00D0D6E00D4801F03BFFE5
:10133000102009490870102003F0E2F900201F492D
:10134000087000201E490870734805494860044829
:1013500001F05CFFC0E000BF84010020FCC0000879
:10136000A81B00200D0A000091480078102843D1E6
:101370000B228E49200004F05BFA002800D0ABE07D
:1013800015208B49087001200C49087000200C4979
:101390000870884801F007FF874801F004FF01202A
:1013A0008649087086480078002800D094E0854976
:1013B00008A8D42204F04AF8834903E0AB1C0020BB
:1013C000AC1C002004A80D2204F040F87F4982B034
:1013D0006846172204F03AF80CBC0021112003F0F3
:1013E0008FF9162072490870FA20C00078494860C9
:1013F000774801F00BFF6FE06D480078162811D197
:1014000000259949200005F0E7F80500002D63D07C
:101410001220674908705FE0BA1C0020CC1A002037
:1014200064C000086248007812282BD1092285493F
:10143000200004F0FDF900284ED1132003F060F9DC
:1014400013205B49087089480088401C8749088040
:101450005E488649098889B2090A844A12881202BC
:101460000A434275120A827536E000BFF21A002064
:1014700070C00008E8150020AE1A0020581B00209C
:101480007CC000084A480078132825D100258349EC
:10149000200005F0A1F80500002D13D000F040F861
:1014A00015208649087072B6A01C03F0DDFC62B6F8
:1014B000824800783E4908700EE000BFCC1B002037
:1014C00004C100086849200005F086F80500002DD9
:1014D00002D0132003F014F93DB030BDE8BF00087E
:1014E000B41B00200CC1000870170000010001208F
:1014F000704700008813000080B5C822920071492F
:10150000714804F0E8FA704800680068102101434F
:101510006D480068016001BDB80B00002C000000A0
:1015200080B56B480078012801D102202DE0012010
:1015300067490870644804F063FB6348006800680A
:10154000102188436049096808605F48406E006860
:101550000068012188435C49496E096808600020E1
:101560005A49088000205849496E09684860564821
:10157000406E00680068012101435348406E0068D6
:101580000160002052490870002002BD80B5C822C9
:1015900092005049504804F09EFA4F480068006895
:1015A000102101434C480068016001BD88C000085B
:1015B00084010020A81B0020201C0020AD1C00205E
:1015C000BD1C002014150020681B0020EC1A002010
:1015D0002C1C002080B57C480078012801D1022015
:1015E00023E00120784908703C4804F009FB3B489F
:1015F0000068006810218843384909680860374846
:10160000406E00680068012188433449496E0968CA
:10161000086000203249088000203049496E09687E
:101620004860002068490870002002BD7047000033
:1016300000B50168244A1268914201D100BFFFE75A
:1016400000BD000094C0000880B5FFF7B3FB012285
:1016500080210901A020C00503F00CF8002201211F
:101660008C4803F007F801BDFCC000089A1C00205C
:1016700080B513480078012801D101F09EFB534842
:1016800001F091FD03F033F800205149086001207A
:1016900081490870FEF714FD01BD0000A0C00008DC
:1016A00080B504F0A9FF04F09FFF7C48006880210A
:1016B000090201437948016001BD0000B61C002009
:1016C00083010020AC1A0020E815002040160020FD
:1016D000501600201C0E0020C816002058160020AE
:1016E000B016002010B56E49096804220A436C49FF
:1016F0000A6091490978012964D135490968491C72
:10170000334A116000218D4A1278002A07D18C4B90
:101710005A789C782406240C224311001BE0874A47
:101720001278012A17D1874A1268521C854B1A6019
:10173000844A1268B4235B009A4205D30022814B8D
:101740001A600122804B1A707D4BDA781C792406CE
:10175000240C224311001E4A126889B203234B4312
:101760009A4214D300221A4B1A600022744B9A71C9
:10177000764A1278002A06D1754A1278002A02D1D8
:101780000122744B1A700022434B1A701AE06F4A00
:101790001278002A16D16E4A1278002A12D16E4AA7
:1017A0001278002A0ED16D4A1288521C6B4B1A8097
:1017B0006A4A12885A2A05DB0022684B1A800122E5
:1017C000654B1A7010BD0000C0160020A81B002039
:1017D000741C002080B562480078C00734D5614889
:1017E0004078012826D001205E4948705E48007884
:1017F000002808D101205C490870012059498870EF
:101800005A4801F003FD58480078012812D1584881
:10181000007800280ED1012055490870082155484C
:1018200004F054FF0120C04352490968086151483F
:1018300004F024FF4A480068012141404848016003
:101840004748006880B215E045480078800710D509
:1018500045480078012802D100204249887040485C
:101860000068022141403E4801603D48006880B266
:1018700000E0002002BD80B508213F4804F026FFAB
:101880000120C0433C49096808613B4804F0F6FE6A
:1018900001BD000000040050BB1C00200C100240E1
:1018A0000070004080B535480078002843D1FFF72C
:1018B00081FA3348007801280CD1002030490870A3
:1018C00000203049086001202249087000202E497C
:1018D000087030E02D480078152821DA2C4800786F
:1018E00000280ED10022802149002A4802F0C2FEC1
:1018F00027480078401C26490870274801F086FCDC
:1019000019E000202249087011480078002812D1FF
:101910000E48007800280ED101201B4908700AE00B
:101920000B480078002806D108480078002802D12A
:1019300001201549087001BDBD1C00208301002055
:10194000681B0020701C0020A31C0020B51C002078
:10195000B41C0020A91C002080010020941C002041
:101960006C1C0020641C00209E1C0020781B0020A2
:101970009F1C0020EC190020241A0020A71C002026
:10198000B11C0020741C0020BB1C00208201002020
:10199000AE1C002000040050C01B002038B505001C
:1019A000B4484088002800D139E1002408222900E9
:1019B000B14803F07FFCAF484088811E89B22800FF
:1019C00003F050FC04002000AB498979C0B2884282
:1019D00000D024E1A848C078042800D1C3E00E2834
:1019E00000D1F2E0202807D021283AD0222862D066
:1019F000232800D18BE012E12020B049C8700320D9
:101A0000AE490871AE48008880B2000AAD494871FD
:101A1000AB480088AB498871AB480078A949C871C8
:101A20000522A649A74803F045FCA4480179491DB1
:101A300089B2A44803F016FC0400A2489F49097922
:101A40004018447116209F499C4A12798918887160
:101A50009A480279D21D92B29A49D34803F0E6FF20
:101A6000DDE021209549C8700120944908710120CA
:101A70009449487105229149924803F01BFC8F4814
:101A80000179491D89B28F4803F0ECFB04008D48B1
:101A90008A4909794018447116208A49874A12797F
:101AA0008918887185480279D21D92B28549BE484D
:101AB00003F0BCFFB3E022208049C8700F207F49AB
:101AC00008710F229A499B4803F0F4FB05227B49D9
:101AD0007C4803F0EFFB79480179491D89B27948C8
:101AE00003F0C0FB04007748744909794018447139
:101AF00016207449714A1279891888716F480279E1
:101B0000D21D92B26F49A84803F090FF87E02320CE
:101B10006A49C8700F20694908710F2286498548B3
:101B200003F0C8FB05226549664803F0C3FB634820
:101B30000179491D89B2634803F094FB04006148B0
:101B40005E4909794018447116205E495B4A127952
:101B50008918887159480279D21D92B25949924820
:101B600003F064FF5BE004205449C870012053492E
:101B7000087101205349487105225049514803F02A
:101B800099FB4E480179491D89B24E4803F06AFB22
:101B900004004C48494909794018447116204949C4
:101BA000464A12798918887144480279D21D92B246
:101BB00044497D4803F03AFF01F0CFF800207B490B
:101BC00008707B4801F022FB29E00E203B49C870D9
:101BD00001203A490871774800783A49487105224E
:101BE0003649384803F066FB34480179491D89B20B
:101BF000344803F037FB0400324830490979401873
:101C0000447116202F492D4A1279891888712B4862
:101C10000279D21D92B22B49634803F007FF31BD10
:101C200080B58A480078002802D1FEF749FA0BE017
:101C300086480078012807D102F059FD0020844928
:101C400008600120A849087001BD80B502F04FFD71
:101C5000002080490870FFF7ADF801207B4908702B
:101C600016480279D21D92B216494F4803F0DEFEA3
:101C700001BD0000180E0020441C002080B500208B
:101C80007B4908707B488078002815D17948007816
:101C9000012811D1002077490870774801F083FAB4
:101CA000002076490870012075490870C8208F49C6
:101CB00048608E4801F0AAFA01BD0000541C0020C3
:101CC000901C00205C1A00208201002080B5814811
:101CD000006801F04BF800207E490860002084492C
:101CE0000870844840688449884202D100208349B2
:101CF000087000F0F1F88248407882490873814802
:101D00008049097B15225143491C8172090AC1721D
:101D10007D487C49097B1522514326310171090A0E
:101D2000417100F099F801BD0120784908707047B1
:101D3000F21A0020611A0020581B002080B5744858
:101D400004F0BCFFFA21724804F0F8FF704805F077
:101D5000C5F8800514D56E4805F060F86D49088017
:101D60006C4800886C49414308136A4908806948F7
:101D70000188A8204843642102F0D8F96749088007
:101D8000002367480278674801786448008800F0BB
:101D90000EFA65490870644800785A49C87162486B
:101DA00000786049087001BDC8160020B51C0020ED
:101DB000FC1B0020B91C002080B55C4800780100A5
:101DC000C907C90F00292BD058480078FE210140CF
:101DD0005648017056480078012809D0FFF7A0FB4B
:101DE00072B65448FFF738F962B6FFF785FB17E083
:101DF0004F480078012813D144480078012808D1C1
:101E00000020424908701C224B494C4803F00EFE4A
:101E100006E0FFF7DFFB72B64648FEF7B1FD62B69B
:101E2000474800780100C907C90F00290CD0444871
:101E30000078FE2101404248017041484088002856
:101E400002D04048FFF7AAFD01BD0000BD1C0020E4
:101E5000741C0020B41C002080B5FFF74DFB02F07D
:101E60003FFC012038490870FFF7ACF801BD0000C5
:101E7000A11C0020641C0020781B00209E1C002058
:101E8000A41C0020F8B51420009000262F4C32002E
:101E90000099200005F088F88025AD000024254F2A
:101EA00022002900380005F07FF800F04DFF0120E6
:101EB0001F49087000202649088001202549087024
:101EC000254801F0A3F9254801F0A0F900200F49A9
:101ED0000870F1BD681C002080B500F03EFF0020B6
:101EE0001349087001BD0000BB1C0020081C002025
:101EF000A21C0020E41B002030750000A31C002061
:101F000014150020681B0020EC1A0020B71C0020CC
:101F100038170020981C0020B80B0000901C0020EF
:101F2000A71C00208101002082010020A81A0020A7
:101F3000B51C0020AC1A0020180000205816002004
:101F4000180E00201C0E0020B41C00201C1B0020BA
:101F5000961C0020A01C0020F01B0020901B0020DD
:101F600000B5FEE780B506480068402101430448FB
:101F70000160002005F042F805F054F8002002BD91
:101F80000020024000B587B03D48006801210143B0
:101F90003B4801603A4800680100C907C90F009139
:101FA00000983748006802210143354801603448F1
:101FB0000068022108400090009800228121090158
:101FC000A020C00502F056FB00222E492E4802F048
:101FD00051FB882000020190012002900020039014
:101FE0000020049001A9A020C00502F0A5F9FF205F
:101FF00012300190012002900020039000200490F4
:1020000001A9214802F098F92620019000200290B1
:102010000020039001A91C4802F08EF920200190B5
:102020001A4802900020039001A9174802F084F991
:1020300001200190164802900120039001A9A020E0
:10204000C00502F079F9402001901148029000206B
:10205000039001A9A020C00502F06EF90022002122
:10206000052002F026F9052002F02DF900220021BA
:10207000072002F01EF9072002F025F907B000BD85
:102080002C100240018100000004005000002110CB
:102090000000311080B50F480068012101430D4850
:1020A00001600C4800680100C907C90F0091009841
:1020B000002200210A2002F0FCF80A2002F003F9B5
:1020C000002200210B2002F0F4F80B2002F0FBF8B4
:1020D00001BD00BF3010024000B583B060486149C7
:1020E000086000205F490864902080035D494860D3
:1020F00000205C49886003205A49C863012059497F
:10210000086100205749C860002056490862002035
:102110005449486200205349C862FF20C2305149E7
:10212000886200204F49086304204E49486100201E
:102130004C49486300204B49886100204949886325
:1021400000204849C861474804F0B2FC002803D089
:1021500051214548FFF704FF44480090802040018A
:10216000019069463F4804F05CFE002803D05A21E4
:102170003D48FFF7F5FE07BD10B586B004002068A6
:102180003749884211D13A480068802189000143CB
:102190003748016010200090032001900020029039
:1021A0006946A020C00502F0C7F806B010BDF0B522
:1021B000040064200025EDB20A2D39DA2D4E368850
:1021C0002700BFB2BE4202D26425280030E0294E6B
:1021D000768A2700BFB2BE4202D30025280027E03E
:1021E0002700BC46234FEDB202266E43BE5B674616
:1021F000BFB2B7421AD21F4EEDB202276F43F61993
:1022000076882700BFB2BE4210D26426EDB26D1CA4
:102210000A277D43751B2800C0B20A2805D1A4B245
:10222000154DAC4201DA0525280001E06D1CC2E71E
:10223000D2B2002A07D10D000600EDB2F6B2B542C7
:102240000BD2080009E0D2B2012A06D105000E0027
:10225000EDB2F6B2B54200D20800C0B2F0BD000047
:1022600000240140381700206CBD00081000001049
:102270003410024000000020E80D000080B53D4809
:102280003D490860962080013B49486000203A495A
:10229000886000203849C8600020374908610C2058
:1022A000354948610020344988610020324908627C
:1022B000002031494862304803F000FB002803D079
:1022C0004D212E48FFF74CFE01BD80B52C482D490D
:1022D0000860962080012B494860002029498860C9
:1022E00000202849C8600020264908610C202549A3
:1022F000486100202349886100202249C8610020EC
:102300002049086200201F4948621E4803F0D6FA9F
:10231000002803D062211948FFF722FE01BD80B5D5
:1023200019481A4908609620800118494860002021
:102330001649886000201549C860002013490861CB
:102340000C201249486100201049886100200F4983
:10235000C86100200D49086200200C4948620B4802
:1023600003F0ACFA002803D077210448FFF7F8FD0A
:1023700001BD000000480040E81500201CBD000819
:10238000003801405816002000440040C8160020C4
:1023900010B586B004002068AD4988426ED1AD48C2
:1023A00000688021C9020143AA480160C0200001E1
:1023B000009002200190012002900320039004204D
:1023C00004906946A44801F0B7FFA448A4490860F6
:1023D0000520A34948600020A14988600020A04949
:1023E000C86080209E49086100209D494861002006
:1023F0009B49886100209A49C86100209849086279
:10240000974804F035FE002803D0A021C448FFF708
:10241000A7FD93486066924884629248924908609A
:1024200005209149486010208F49886000208E491E
:10243000C86080208C49086100208B4948610020D9
:102440008949886100208849C8610020864908625E
:10245000854804F00DFE002803D0B121B048FFF7F5
:102460007FFD8148206680488462002200211D2073
:1024700001F01FFF1D2001F026FFE7E02068A949B9
:1024800088426FD1A84800688021C9010143A6484D
:102490000160C020C0000090022001900120029045
:1024A00003200390042004906946A020C00501F099
:1024B00043FF9E489E49086003209D4948600020D4
:1024C0009B49886000209A49C8608020984908612B
:1024D000002097494861002095498861002094496F
:1024E000C861002092490862914804F0C1FD0028AB
:1024F00003D0DD218A48FFF733FD8D4860668C48A4
:1025000084628C488C49086003208B494860102005
:102510008949886000208849C86080208649086110
:102520000020854948610020834988610020824954
:10253000C8610020804908627F4804F099FD0028A6
:1025400003D0EE217648FFF70BFD7B4820667A48E2
:102550008462002200211B2001F0ABFE1B2001F051
:10256000B2FE73E02068B14988426FD139480068F3
:10257000802189020143374801600C20009002202D
:1025800001900120029003200390042004906946EA
:10259000A020C00501F0D0FEA548A649086004208F
:1025A000A44948600020A34988600020A149C86070
:1025B0008020A049086100209E49486100209D4973
:1025C000886100209B49C86100209A4908629948A7
:1025D00004F04EFD002804D08D2149005048FFF73B
:1025E000BFFC9448606693488462934893490860AE
:1025F00004209249486010209049886000208F494B
:10260000C86080208D49086100208C494861002005
:102610008A49886100208949C86100208749086289
:10262000864804F025FD002804D0FF212C313C48C9
:10263000FFF796FC814820668048846200220021D2
:102640001C2001F036FE1C2001F03DFE06B010BD3E
:1026500000480040381002400004005030000240A2
:10266000341800201C0002407418002010B504002B
:1026700020687349884214D1724800687249014049
:1026800070480160C0210901704801F03EFF606E92
:1026900004F0B4FD206E04F0B1FD1D2001F01AFE1F
:1026A00031E020681F49884215D11F4800686849F9
:1026B00001401D480160C021C900A020C00501F0F3
:1026C00024FF606E04F09AFD206E04F097FD1B203D
:1026D00001F000FE17E020685449884213D15948A0
:1026E00000685C490140574801600C21A020C005EA
:1026F00001F00BFF606E04F081FD206E04F07EFDA2
:102700001C2001F0E7FD10BD11B581B00C00524B4B
:10271000012201A9514803F013F9019816BD0000E8
:102720001CBD00080038014034100240580002402F
:10273000B418002044000240F418002038B504000A
:10274000206847490968884221D12068C069C006CD
:102750001DD51020424909680862414803F017FA64
:102760003F48406E006840680500C820800029008E
:10277000401A3C4948803B480078012101433948D0
:102780000170C82292003849354803F0A4F9206846
:1027900036490968884221D12068C069C0061DD524
:1027A0001020324909680862304803F0F0F92F48D8
:1027B000406E006840680500C82080002900401A6B
:1027C00028494880274800780121014325480170A5
:1027D000C82292002449254803F07DF920681F494A
:1027E0000968884221D12068C069C0061DD5102023
:1027F0001A4909680862194803F0C9F91748406E78
:10280000006840680500C82080002900401A184967
:102810004880174800780121014315480170C822FB
:10282000920014490D4803F056F931BD00440040B0
:102830006C0002403419002080000240741900200E
:102840000048004038100240FFFFFBFF000400502A
:10285000FFBFFFFFFFFFFDFFFFFF0000C8160020C6
:10286000E8150020A81A0020AC1A002058160020F5
:10287000180E00201C0E002010B586B00400802029
:10288000C005854908608548834948600020824921
:102890008860601E8049C86000207F4908617E48CA
:1028A00003F0B4FE002803D040217D48FFF758FB19
:1028B00080204001029002A9774803F0D2FF00284F
:1028C00003D046217648FFF74BFB00200090002004
:1028D00001906946704805F019F8002803D04D2191
:1028E0006F48FFF73DFB06B010BD00B587B06D48DF
:1028F0006D49086069486C49486000206A498860F1
:1029000095206949C860002067490861664803F05E
:102910007DFE002803D05E216148FFF721FB802067
:102920004001029002A9604803F09BFF002803D0F9
:1029300064215B48FFF714FB002000900020019009
:102940006946594804F0E2FF002803D06B2154483F
:10295000FFF706FB07B000BD00B587B053485449E8
:1029600008604E48524948600020514988605148EB
:102970004F49C86000204E4908614D4803F046FEAB
:10298000002803D07C214648FFF7EAFA8020400166
:10299000029002A9464803F064FF002803D0822178
:1029A0003F48FFF7DDFA00200090002001906946C3
:1029B0003F4804F0ABFF002803D089213848FFF7D7
:1029C000CFFA07B000BD10B5040020688021C9050A
:1029D00088420ED138480068012101433648016021
:1029E000002200210F2001F064FC0F2001F06BFC9D
:1029F00024E020682B4988420ED130480068042129
:102A000001432E48016000220021142001F051FCF6
:102A1000142001F058FC11E02068244988420DD1AF
:102A2000264800682021014324480160002200213B
:102A3000162001F03EFC162001F045FC10BD10B53B
:102A4000040020688021C905884209D11A4800681D
:102A500001218843184908600F2001F03BFC1AE06F
:102A600020681049884209D114480068042188432D
:102A700012490860142001F02DFC0CE020680B497D
:102A8000884208D10D480068202188430B4908601E
:102A9000162001F01FFC10BDB41900207F3E00007D
:102AA00050BE000800080140EC190020001401404D
:102AB000241A0020B70B00003810024034100240E6
:102AC00080B51C481C49086000201B4948607F20D5
:102AD00019498860FF201849C8600020164908611C
:102AE00000201549486100201349886100201249DF
:102AF000C861114804F038FF002803D043210F4873
:102B0000FFF72EFA01BD10B504002068094988427C
:102B10000ED10B4800688021C902014308480160BA
:102B200000220021022001F0C4FB022001F0CBFBB7
:102B300010BD000000280040841A002004BE0008D8
:102B40005010024080B52F482F4908602F482E4969
:102B5000486000202C49886001202B49C860002073
:102B600029490861002028494861002026498861D8
:102B700000202549C861002023490862224804F04A
:102B800071FF002803D042212148FFF7E9F9002115
:102B90001D4805F025FB002803D049211C48FFF7FC
:102BA000DFF90021184805F04EFB002803D0502122
:102BB0001748FFF7D5F901BD10B586B004002068AD
:102BC000104988421CD1C0200090122001900120A1
:102BD0000290032003900120049069460D4801F003
:102BE000ABFB0D4800688021890301430A4801605E
:102BF00000220021172001F05CFB172001F063FB8D
:102C000006B010BD00540040E81700205B3D3000C6
:102C1000B8BD0008000400503810024080B5002004
:102C200069460870684605F05CFB68460078332802
:102C300003D000203B49087007E005F00CFD0020A0
:102C400005F07DFB01203749087001BDF8B504008F
:102C50000F0015001E0033480078002832D005F020
:102C6000FAFC2000C0B205F048FBFFB2002F03D1F0
:102C7000012005F064FB02E0022005F060FB072064
:102C800005F0D8FB002005F05DFC012005F039FCC3
:102C9000002005F079FC402005F09DFC2800C0B222
:102CA00005F0EBFB012005F00AFC002005F0B1FC6B
:102CB0003000C0B205F010FD022005F01FFD152008
:102CC00005F0E9FCF1BD3EB504000D0010200290B6
:102CD0000120019000950123E4B2220092B231213B
:102CE000114805F00FF8002801D0002000E0012075
:102CF0003EBD12B583B00400102002900120019067
:102D000003A800900123E4B2220092B230210648C9
:102D100004F014FF002801D0002000E0012004B0DE
:102D200010BD00009D1C0020E817002011B581B0E7
:102D3000002405F0F5FC040005F0F2FC001B0199ED
:102D40008842F9D313BDFEE780B500228021090136
:102D5000A020C00501F08EFC01BD80B501228021BC
:102D60000901A020C00501F085FC01BD38B50500B2
:102D700000249E4840780400142229009B48E4B2B5
:102D800015236343C018C01C02F094FA9748E4B2BC
:102D9000152161434018847094484078401C0B28EA
:102DA00002DB01209149087090484078401C0A21BC
:102DB00001F0BCF98D48417031BD70B5D4240025B7
:102DC0008A4E2A002100300004F0EEF870BDF1B503
:102DD0008CB000240026002501A8282104F00CF95D
:102DE000C822920082490C9802F00EFB04002600D3
:102DF000002C00D1F6E00020694648700027002032
:102E0000694648800020694608706846C8218900E4
:102E10000C9AA21A891A41800020C0B269464988DA
:102E2000891E88420CDA31782A2903D101206946AB
:102E3000087005E0390037784F40761C401CECE7FD
:102E400068460078012810D1022200A9491C701C94
:102E500002F0F0F9684640783900C9B2884201D0E2
:102E60006448C0E00020050001E06248BBE0207833
:102E70002A2800D1B6E020782C2800D0B0E06D1CC4
:102E8000EDB2012D0CD10A22611C01A8401C02F0F8
:102E900011FA0622584901A8401C02F0CBF99FE024
:102EA000EDB2022D15D10122611C01A802F002FA37
:102EB00068460079412803D101205049C8708FE04D
:102EC00068460079562800D08AE000204B49C87037
:102ED00086E0EDB2032D12D10922611C01A80B304E
:102EE00002F0E8F90422464901A80B3002F0A2F9E9
:102EF0000422444901A8103002F09CF970E0EDB2C0
:102F0000042D1BD10122611C01A8143002F0D2F95A
:102F100001A8007D4E2806D13848407B022101439C
:102F2000364841735CE001A8007D532858D13348EE
:102F3000407BFD2101403148417351E0EDB2052D48
:102F400014D10A22611C01A8153002F0B3F9042241
:102F500001A801001B3101A81A3002F0ABF90A22C6
:102F6000294901A8153002F065F939E0EDB2062DC6
:102F70001BD10122611C01A81F3002F09BF901A89E
:102F8000C07F572806D11D48407B012101431B48C3
:102F9000417325E001A8C07F452821D11748407B17
:102FA000FE210140154841731AE0EDB2072D17D0FC
:102FB000EDB2082D14D0EDB2092D0CD10622611C02
:102FC00001A8203002F076F90622104901A820302D
:102FD00002F030F904E0EDB20A2D01D0EDB20B2D74
:102FE000641C44E705480DB0F0BD00001415002036
:102FF000F4C00008301B00202A1B00201C1B0020EE
:10300000251B0020271B0020201B00202D1B00203B
:1030100010B50400002C11D07B4803F013FB2000F6
:10302000FFF72AFC0821784803F050FB0120C04339
:10303000754909680861744803F020FB10BD80B52C
:10304000714803F02AFB01BD80B505F069FB02BDA4
:1030500000B50200914202D2531A180001E08B1A07
:10306000180000BD00B501000020A84A1268100039
:10307000002804D002688A4201D0C068F8E700BD89
:1030800000B501000020A14A12681000002805D0F8
:1030900002680B689A4201D0C068F7E700BD00B52E
:1030A00000209A4A12681100984A126810000028FD
:1030B00007D0B14A126803681340002B01D0C068E2
:1030C000F5E70100CA68002A0FD0CA685268436851
:1030D0009A4208D2A84A1268CB681B681340002B9A
:1030E00001D1CA681000C968ECE74268002A01D122
:1030F0000122426000BD00B584490968002909D059
:103100004A68904202D24A68121A00E000224A60DD
:10311000C968F3E700BD00B57C480168002901D10A
:10312000002005E0C868002801D0C968FAE7080057
:1031300000BD70B50400002674480068050073489F
:103140000068002801D100202CE070480068006869
:10315000216888420FD16D480068C06806006B483E
:10316000006806F053FB69480660684800689D499E
:103170000860012016E0E868002812D0E8680068BE
:10318000216888420BD1E868C0680600E86806F04C
:103190003DFBEE60FFF7BFFF9249086001E0ED687C
:1031A000E9E7012070BD70B504002000FFF768FF5B
:1031B0000500002D01D1002024E0134803F06DFA32
:1031C000FFF742FF88490968FFF742FF0600002E1B
:1031D00000D100263000FFF78EFF2000FFF7A9FF87
:1031E00000F0EEF800280CD0FFF759FF40687F4947
:1031F0000860FFF729FF7C4908607C480068FFF7FA
:1032000007FF012070BD0000B4190020F8B50400CC
:103210002068002802D06068002801D1002072E0F8
:103220003A480068002820D1102006F073F9374989
:10323000086036480068002801D1002063E00C25B2
:10324000324806682A002100300002F0FFF8002012
:103250002E490968C8602D480068624908602B48FB
:1032600000684068614908603DE02000FFF708FF02
:1032700000900098002836D1102006F04BF9060087
:1032800058480068C66057480068C06855490860DB
:103290001E480068002801D1002034E00C25514868
:1032A00007682A002100380002F0D0F800204D49BC
:1032B0000968C860FFF7C8FE4B490968FFF7C8FEF8
:1032C000002800D100201149096800290BD04A6864
:1032D000904202D24A68121A00E000224A60C9688D
:1032E000CA68002AF1D1FFF7DAFE40683F4908605A
:1032F000FFF7AAFE3C490860FFF7A1FE3B480068C3
:10330000FFF786FE0120F2BD000000007C1C0020BB
:1033100038B53748046835480568002C15D0606812
:10332000002810D06068854202D26068401B00E02F
:10333000002060606068002805D10F48006821689F
:1033400001430D480160E468E7E700F039F8002820
:103350000DD0FFF7A4FE406824490860FFF774FE13
:103360002149086021480068FFF752FE03E0002071
:10337000C0431E49086031BD881C002070B51D483F
:10338000006800281BD00024E4B2202C17DA19486A
:103390000068E040C00710D50120A040FFF762FEA2
:1033A0000500AE682800FFF7C4FE1248006801213E
:1033B000A14088430F490860B047641CE4E770BD32
:1033C00000B50B4801680020002908D0094A12689E
:1033D0000B681340002B00D1401CC968F4E7C0B251
:1033E00000BD0000801C0020841C0020380000204C
:1033F0007C1C0020881C002070B582B004000025D1
:103400002078C0076BD5B44800680C21014008291A
:1034100009D0B14800680C2101400C290CD1AE48FC
:103420000068C00308D5AD480068800357D56068C0
:10343000002854D1012078E2606880214902884246
:1034400007D1A6480068802149020143A3480160D2
:1034500026E06068A021C90288420ED19F4800681A
:103460008021C90201439D4801609C480068802179
:10347000490201439948016012E098480068C54933
:103480000140964801609548006880214902084043
:103490000090009891480068BF4901408F48016042
:1034A000606800280DD005F03BF905008B480068E6
:1034B000800314D405F034F9401B6528F6D30320AB
:1034C00033E205F02DF9050084480068800306D535
:1034D00005F026F9401B6528F6D3032025E2207865
:1034E000800759D57C4800680C210140042909D087
:1034F000794800680C2101400C2916D176480068F3
:10350000C00312D475480068400704D5E06801285C
:1035100001D0012009E2BA480068BA490140206997
:1035200000020843B649086036E0E06800281FD072
:103530006A48006809218843E168014367480160DF
:1035400005F0EEF8050065480068400706D405F070
:10355000E7F8401B0328F6D30320E6E1A8480068FB
:10356000A8490140206900020843A549086013E00A
:103570005A480068012188435849086005F0D0F88E
:10358000050056480068400706D505F0C9F8401BFD
:103590000328F6D30320C8E12078C00600D49FE0BA
:1035A0004D4800680C210140002957D14B48006864
:1035B000800504D5A069002801D10120B5E190481B
:1035C0000068E02109020140206A814218D2206A85
:1035D00000F024FB002801D00120A6E18848006803
:1035E000A0490140206A0843854908608448006872
:1035F0000002000AE169090601438148016017E001
:103600007F48006897490140206A08437C49086068
:103610007B4800680002000AE16909060143784816
:103620000160206A00F0FAFA002801D001207CE154
:103630000120216A490B491C884080210902484326
:10364000BA49254A126812091207120F895CC8404C
:10365000B7490860002003F0D1FC41E0A0690028D0
:1036600026D01E4800688021490001431B480160A4
:1036700005F056F8050019480068800506D405F0E5
:103680004FF8401B0328F6D303204EE15C48006846
:1036900074490140206A0843594908605848006845
:1036A0000002000AE169090601435548016017E07C
:1036B0000A4800689F4901400848016005F030F859
:1036C00005000648006880050AD505F029F8401B6A
:1036D0000328F6D3032028E10C100240001002401A
:1036E000207800072AD56069002813D09248006826
:1036F000012101439048016005F012F805008E4851
:10370000006880071AD405F00BF8401B0328F6D395
:1037100003200AE18848006801218843864908603F
:1037200004F0FEFF050084480068800706D504F019
:10373000F7FF401B0328F6D30320F6E0207840076C
:1037400000D49AE000267D480068C00008D47B4879
:103750000068802149050143784801600120060086
:1037600077480068C00519D4754800688021490071
:1037700001437348016004F0D3FF050070480068FE
:10378000C0050BD404F0CCFF401B6528F6D3032002
:10379000CBE000BFFFFFFEFFFFFFFBFFA068802123
:1037A0004900884207D164480068802149000143EC
:1037B0006148016034E0A06800280CD15E480068D0
:1037C0005C4901405C4801605B4800685D4901401C
:1037D0005948016024E0A068A021C900884213D1A3
:1037E000554800688021C900014353480160524890
:1037F00000688021490001434F48016010E000BF8C
:1038000004100240FFE0FFFF4B48006849490140B7
:1038100049480160484800684A49014046480160FB
:10382000A06800280ED004F07BFF05004248006825
:10383000800519D404F074FF401B43498842F5D336
:10384000032072E004F06CFF05003B48006880052F
:103850000AD504F065FF401B3B498842F5D303209D
:1038600063E000BFFF1FFFFFF6B2012E05D1334812
:103870000068A149014031480160606A002853D0C6
:103880009E4800680C2101400C294BD0606A022838
:1038900034D19D4800689A4901409B48016004F07A
:1038A0003FFF050098480068800106D504F038FF06
:1038B000401B0328F6D3032037E090480068914965
:1038C0000140A06A0843E16A0143206B08438B4929
:1038D00008608D4800688021490401438A480160DE
:1038E00004F01EFF05008848006880011CD404F025
:1038F00017FF401B0328F6D3032016E08248006818
:103900007F4901408048016004F00AFF05007E48BD
:103910000068800108D504F003FF401B0328F6D39C
:10392000032002E0012000E0002076BD38C000083E
:1039300034000020FFFEFFFF50100240381002400C
:1039400000700040FFFBFFFF8913000070B5050009
:103950000C0000266D4800680100C907C90FA1428C
:103960000FD26A48006801218843204367490860F4
:10397000664800680100C907C90FA14201D00120B3
:10398000B8E02878800707D55C480068F0218843B4
:10399000A9680143594801602878C0076CD5686858
:1039A000022805D158480068800319D40120A1E0FD
:1039B0006868032805D154480068800110D40120AC
:1039C00098E06868012805D14F480068400707D48F
:1039D00001208FE04C480068800501D4012089E077
:1039E00046480068032188436968014343480160F1
:1039F00004F096FE0600686802280DD13F48006872
:103A00000C210140082937D004F08AFE801B7D4933
:103A10008842F3D303206DE0686803280DD137484E
:103A200000680C2101400C2926D004F079FE801B8F
:103A300074498842F3D303205CE0686801280DD103
:103A40002E4800680C210140042915D004F068FEBE
:103A5000801B6C498842F3D303204BE02748006861
:103A60000C210140002907D004F05AFE801B654953
:103A70008842F3D303203DE0244800680100C907D1
:103A8000C90F8C420FD2214800680121884320438E
:103A90001E4908601D4800680100C907C90FA142FE
:103AA00001D0012026E02878400707D51348006898
:103AB00055490140E8680843104908602878000724
:103AC00008D50E480068514901402869C0000843E4
:103AD0000A49086000F01CF84D49084A12681209AA
:103AE0001207120F895CC8404A490860002003F0A1
:103AF00085FA002070BD0000FFFFFFEF0C100240B0
:103B0000FFFFFFFEFFFF02FF001002400020024007
:103B1000FCB5002000900024002500260020019024
:103B200000273D480068009000980C2101400429BE
:103B300004D008290CD00C290DD037E05A48006871
:103B4000C00602D55948070001E0594807003BE08C
:103B50005848070038E058480099890C0907090FB0
:103B6000405C04000098800D8007800F401C050019
:103B700029480068C00306D54E486043290000F07C
:103B8000D8FA060010E048480068C00606D5474845
:103B90006043290000F0CDFA060005E04448604388
:103BA000290000F0C6FA060037000DE0434800681F
:103BB000400B4007400F019001200199491C8840AB
:103BC00080210902484307003800F6BD114800680B
:103BD000704780B5FFF7FAFF3949324A1268120A76
:103BE0005207520F895CC84002BD80B5FFF7EEFF57
:103BF00033492C4A1268D20A5207520F895CC840D6
:103C000002BD000089130000FFF8FFFFFFC7FFFFA0
:103C100038C00008340000200C10024010B501002C
:103C2000002200231F480068F0240440002C27D104
:103C300025480068C00006D524480068C0246401F7
:103C40000440220012E020480068802464050443F8
:103C50001D4804601D480068C0246401044022001F
:103C6000194800681A4C044017480460C0204001FD
:103C7000824205D1C0200002814201D1012003000F
:103C8000104800680124A04318430E4C20600D48E2
:103C900000680400E407E40F9C4201D0012000E02A
:103CA000002010BD0C1002400010024000093D0031
:103CB0000024F40000127A00DCC000080410024066
:103CC000B4C10008002002403810024000700040DB
:103CD000FFFFFFEFF8B504000025002620788006DE
:103CE00000D49DE02078800600276A480068C00064
:103CF00008D468480068802149050143654801608F
:103D00000120070064480068C00514D462480068B8
:103D10008021490001436048016004F001FD050075
:103D20005D480068C00506D404F0FAFC401B652815
:103D3000F6D30320ACE059480068C0218903014054
:103D40000E006068C021890301408E420DD060687A
:103D5000C02189020140C0208002814205D14F4824
:103D60000068800301D5012092E04D480068C02121
:103D7000890201400E00002E2DD06068C02189020A
:103D800001408E4227D02078800624D54448006820
:103D9000444901400E004248006880210903014364
:103DA0003F4801603E4800683F4901403C4801608F
:103DB0003B480660F0050ED504F0B2FC050038481B
:103DC0000068800507D404F0ABFC401B37498842EB
:103DD000F5D303205CE06068C02189020140C02067
:103DE000800281420AD12D48006831490140606853
:103DF000C022920302400A43284802602848006813
:103E00006168C02292020A40024325480260FFB264
:103E1000012F05D11F480068264901401D48016057
:103E20002078C00707D52448006803218843A1688B
:103E30000143214801602078800707D51E480068AB
:103E40000C218843E16801431B480160207840074A
:103E500007D51948006819490140206908431649E7
:103E600008602078000707D513480068144901400E
:103E700060690843104908602078000607D50E489D
:103E8000006810490140A06908430B490860002000
:103E9000F2BD0000381002400070004000100240E7
:103EA00050100240FFFFFCFFFFFFF7FF89130000E7
:103EB000FFFFCFFFFFFFFFEF4C100240FFF3FFFFBC
:103EC000FFCFFFFFFFFFF3FFF1B500240027002520
:103ED00000260098012853D0022878D0042800D169
:103EE0009CE0082800D1C7E0102800D1E6E0202897
:103EF00000D0EEE079480068040078480068C021EE
:103F0000890201400E0080204002864205D1A005B2
:103F100003D580200002050031E080208002864227
:103F200004D1A00702D56E48050028E0C020800219
:103F3000864222D16B48006880031ED5694800681C
:103F4000C021890301400F003800802149038842C5
:103F50000DD080218903884206D0C0218903884280
:103F600008D1614805000AE06048050007E06048A4
:103F7000050004E05F48050001E000200500A8E01E
:103F8000554800688007800F0600002E03D1FFF718
:103F90002CFE05001AE0022E06D1524800684007A8
:103FA00002D55548050011E0012E03D1FFF7B0FD01
:103FB00005000BE0032E07D148480068800503D5B3
:103FC00080200002050001E00020050081E0424859
:103FD00000680C2101400E00002E03D1FFF7F9FD0F
:103FE00005001AE0082E06D13E480068400702D5B9
:103FF0004148050011E0042E03D1FFF789FD0500BB
:104000000BE00C2E07D135480068800503D58020D1
:104010000002050001E0002005005AE02E4800687B
:10402000C021090101400E00002E03D1FFF7D1FD90
:10403000050020E080200001864206D12948006862
:10404000400702D52C48050015E08020C0008642BC
:1040500003D1FFF75DFD05000DE0C02000018642A1
:1040600007D11E480068800503D5802000020500A6
:1040700001E0002005002CE017480068C0218901FC
:1040800001400E00002E03D1FFF7A3FD050014E050
:1040900080208001864206D112480068400702D580
:1040A0001548050009E080204001864203D1FFF752
:1040B0002FFD050001E0002005000AE00F48006820
:1040C000400203D5FFF785FD050001E00020050053
:1040D000FFE72800F2BD00004C10024050100240E3
:1040E000889000000010024020A1070040420F000D
:1040F00080841E0000093D000024F40038100240B6
:10410000F446002804D4494200F013F840426047C6
:104110004042002905D45FD000F00BF840424942EC
:104120006047494200F005F84942604703460B43A7
:10413000E6D40022030A8B420BD203098B4219D228
:1041400043088B422ED2411A00D2014652411046FA
:104150007047FF2209023FD012068B4205D312128C
:1041600009028B4201D31212090203098B4219D3AF
:1041700000E0090AC3098B4201D3CB01C01A5241A6
:1041800083098B4201D38B01C01A524143098B42F0
:1041900001D34B01C01A524103098B4201D30B01D9
:1041A000C01A5241C3088B4201D3CB00C01A5241FE
:1041B00083088B4201D38B00C01A524143088B42C3
:1041C00001D34B00C01A5241884200D3401A5241D9
:1041D000CFD201461046704708B505F003FE08BD72
:1041E0000121C206D20E91404B4A11607047012155
:1041F000C206D20E9140494A11607047F0B540B2F4
:10420000002821D5464C40B20207120F083A950803
:1042100004225543424A40B203071B0F083B9B0848
:1042200004267343D258FF238607B60F08277E4320
:10423000B3409A438B01DBB28607B60F08277E4353
:10424000B340134363511AE0364A40B28308042452
:104250006343D258FF238407A40F08256C43A3406F
:104260009A438B01DBB28407A40F08256C43A3405B
:1042700013432C4A40B2840804256C431351F0BD0B
:1042800010B50400601E80214904884201D301203A
:104290000EE0601E2449086003210020C043FFF7A0
:1042A000ADFF002021490860072021490860002057
:1042B00010BD70B504000D0016002900200040B2AA
:1042C000FFF79CFF70BD10B50400200040B2FFF75F
:1042D00087FF10BD10B50400200040B2FFF787FF34
:1042E00010BD10B504002000FFF7CAFF10BD00B5D7
:1042F000042806D10E49096804220A430C490A60C1
:1043000005E00B49096804229143094A116000BD88
:1043100080B500F00FF801BD00E100E080E100E0B1
:104320001CED00E000E400E014E000E018E000E034
:1043300010E000E07047FEE7F0B502000023002423
:1043400000250868D840002800D1DDE00868012673
:104350009E4006403400002C00D1D3E0486802287B
:1043600002D0486812281BD1D808042670431018C0
:10437000006A05000F201E007607760F04277E4393
:10438000B040854308691E007607760F04277E43F8
:10439000B04028430500D808042670431018056271
:1043A0004868012808D04868022805D048681128C4
:1043B00002D0486812281CD19068050003201E0016
:1043C00002277E43B0408543C8681E0002277E4313
:1043D000B0402843050095605068050001209840D2
:1043E000854348680600F606F60F9E402E433500CA
:1043F00055601068050003201E0002277E43B04070
:10440000854308798007800F1E0002277E43B04055
:10441000284305001560D068050003201E00022710
:104420007E43B040854388681E0002277E43B0402B
:1044300028430500D5604868C00063D59D480068E2
:10444000012606439B4806609B489E0804277E433E
:10445000805905000F201E00B607B60F04277E43C3
:10446000B0408543A020C005824201D1002014E065
:104470009248824201D101200FE09148824201D14D
:1044800002200AE08F48824201D1032005E08E48D5
:10449000824201D1052000E006201E00B607B60FBB
:1044A00004277E43B0402843050083489E08042724
:1044B0007E438551854800680500A5434868C003D0
:1044C00000D5254381480560814800680500A54363
:1044D0004868800300D525437D4805607D48006815
:1044E0000500A5434868C00200D52543794805600A
:1044F000794800680500A5434868800200D5254337
:10450000754805605B1C1CE7F0BDF8B50022002370
:1045100000240D00D540002D00D19CE001259540E0
:104520000D402B00002B00D193E006680327BC460A
:10453000150002277D436746AF4037430760D50823
:104540000426754345190095D50804267543451979
:104550002F6A0F25AC4615006E07760F04256E43B3
:104560006546B540AF43009D2F6286680327BC4671
:10457000150002277D436746AF40BE43866045680D
:1045800001269640B5434560C6680327BC46150022
:1045900002277D436746AF40BE43C660464D96083E
:1045A00004277E43AD592C000F251600B607B60F21
:1045B00004277E43B54025402C00A025ED05A842E8
:1045C00001D1002514E03D4DA84201D101250FE0A5
:1045D0003B4DA84201D102250AE03A4DA84201D143
:1045E000032505E0384DA84201D1052500E0062548
:1045F0001600B607B60F04277E43B540AC4228D15B
:104600000F251600B607B60F04277E43B5402C00D1
:10461000294D960804277E43AE59A643264FBC4633
:10462000950804277D4367467E51284D2D689D439C
:10463000264E3560264D2D689D43254E3560254D0F
:104640002D689D43234E3560234D2D689D43224E9A
:104650003560521C5DE7F1BD00B50200136989B2F7
:104660000B40002B02D00123180001E000231800AA
:10467000C0B200BD00B5D2B2002A02D089B28161B9
:1046800001E089B2816200BD426989B24A4042615B
:10469000704710B5040011480068A4B220400028FB
:1046A00006D0A4B20D480460200080B2FBF714FFCE
:1046B00010BD00003410024008000140000400500A
:1046C00000080050000C0050001C00500004014085
:1046D00004040140080401400C040140140401409A
:1046E00080B5012201210548FFF7C4FF01BD80B557
:1046F000002201210148FFF7BDFF01BD0004005069
:104700000EB4F0B5FAB007003D00EDB2032D02D0B3
:10471000EDB2082D23D100240B200400EDB2032DAF
:1047200008D1C3A00090C3A3C34AC4A1042000F0D1
:10473000CFFD0CE0EDB2082D08D1BDA00090C0A3C4
:10474000BD4ABEA1042000F0C3FD00E06BE1E4B26D
:10475000220092B2BB49BC4801F068F963E1EDB2B6
:10476000052D12D1002415200400B1A00090B74BF4
:10477000B74AB2A1042000F0ABFDE4B2220092B22D
:10478000B049B14801F052F94DE1EDB2042D12D11A
:1047900000240B200400A6A00090A9A3AD4AA7A165
:1047A000042000F095FDE4B2220092B2A549A6488B
:1047B00001F03CF937E1EDB2062D10D100240820BC
:1047C00004009BA3A4A29DA1032000F081FDE4B2FC
:1047D000220092B29B499C4801F028F923E1EDB2F6
:1047E000092D12D100240B20040091A0009094A365
:1047F0009A4A92A1042000F06BFDE4B2220092B22A
:104800009049914801F012F90DE1EDB20A2D14D151
:1048100000241B20040086A001909148009088A3EA
:10482000904A86A1052000F053FDE4B2220092B226
:104830008449854801F0FAF8F5E0EDB20B2D12D16C
:1048400000240B2004007AA000907DA3864A7BA15F
:10485000042000F03DFDE4B2220092B279497A488A
:1048600001F0E4F8DFE0EDB20C2D12D100240C20B1
:1048700004006FA0009072A37C4A70A1042000F095
:1048800027FDE4B2220092B26E496F4801F0CEF8E3
:10489000C9E0EDB20D2D12D100240C20040064A05B
:1048A000009067A3724A65A1042000F011FDE4B2F4
:1048B000220092B26349644801F0B8F8B3E0EDB267
:1048C0000E2D10D100240C20040059A3694A5BA1CD
:1048D000032000F0FDFCE4B2220092B259495A488C
:1048E00001F0A4F89FE0EDB20F2D10D100240D20AF
:1048F00004004FA3604A51A1032000F0E9FCE4B298
:10490000220092B24F49504801F090F88BE0EDB28E
:10491000102D14D100241A20040045A001905748FE
:104920000090574B574A45A1052000F0D1FCE4B256
:10493000220092B24349444801F078F873E0EDB2A6
:10494000112D45D17FA804002068241D0600002EEB
:1049500037D168462100172200F078FD18343FA8AF
:104960006946172200F072FD684621000D2200F012
:104970006DFD10343BA869460D2200F067FD6846C6
:104980002100D42200F062FDD43445A86946D42227
:1049900000F05CFD45A906A8D42200F06BFD3BA801
:1049A00002AA0AC80AC20AC80AC21038103A3FA9A5
:1049B00084B06846182200F05DFD0FBC00F064F87A
:1049C00031E0012E2FD1AD48007800F061F92AE0E6
:1049D000EDB2132D14D100240F20040014A0019077
:1049E000A748009013A3A74A14A1052000F070FC6B
:1049F000E4B2220092B21349134801F017F812E012
:104A0000EDB2002D0FD100240920040008A39E4A16
:104A10000AA1032000F05CFCE4B2220092B2094932
:104A2000094801F003F87AB00498F0BC04B00047DC
:104A30000D0A00003D30000014C1000841542B0055
:104A40003D3100003C110020E8150020F8BF0008AF
:104A50001CC1000824C100084E5242002CC10008AD
:104A600008C0000834C100083CC1000844C1000867
:104A70004CC1000854C10008ACC00008B8C0000810
:104A800064C100085CC100080FB4F0B583B008A889
:104A9000808880B2000A08A989880902014308A811
:104AA00081800EA948788A781206120C10430EAA4B
:104AB000517893781B061B0C19430EAA80B2000A8A
:104AC000090201435170090A91700EA9C8780A7948
:104AD0001206120C10430EAAD17813791B061B0C78
:104AE00019430EAA80B2000A09020143D170090AD3
:104AF00011710EA8408980B2000A0EA949890902E5
:104B000001430EA8418117206946C8700D206946EF
:104B100088701520694648706846C078694689786B
:104B200040189C49097B6A46527851434018401C02
:104B3000694608716846007900F02EF9060068465B
:104B4000F6B26946097902224A43B1182931C18077
:104B500000240027300025300400300025300700F5
:104B6000C048FFB2C2196846C17889B208A800F0EF
:104B700017FCE4B26846C078022148432418B948BB
:104B8000E4B202196846817889B20EA800F008FCE8
:104B9000E4B2684680780221484324180020694620
:104BA0000870002528007B49097BC0B2884225D2C5
:104BB000AC48E4B202196846417889B212A8EDB255
:104BC00015236B43C018801C00F0EAFBE4B2684672
:104BD00040780221484324186846417889B212A8D7
:104BE000EDB215226A438018801C00F03BFB694639
:104BF00009780818694608706D1CD3E76846C078C4
:104C0000411E89B208A8401C00F02CFB69460978B7
:104C10000818694608706846817889B20EA800F0C5
:104C200021FB694609780818694608708D48E4B286
:104C300002190121684600F0B3FBFA206946487169
:104C40008848E4B20019821C012101A8401C00F030
:104C5000A7FBA41C02220DA18248E4B20019801C0B
:104C600000F028FB6846C2887E49AA4800F0DEFEB4
:104C700003B00498F0BC05B000470000C21C00203F
:104C800074C100086CC100087CC100080D0A000056
:104C9000F1B588B0002500261A20050001A81821CA
:104CA00002F0AAF9FA2069460871D22001A94870D9
:104CB000002001A98870012001A9C870EDB2280266
:104CC00001A9888001A894490988491E89B2090A66
:104CD000914A1288521E12020A434275120A8275C4
:104CE0000F228E4901A8801D00F0E4FA681EC0B2B0
:104CF00000F052F80700EDB20220684329300600A8
:104D00000024380025300400172101A800F0AAFA79
:104D10006946087068460078801D694608706846D4
:104D2000007808A909784018694608704D48E4B22F
:104D30000219172101A800F033FB2E344948E4B2D0
:104D40000219012108A800F02BFBA41C4548E4B27D
:104D500002190121684600F023FBA41CFA206946D1
:104D600048704048E4B20219012100A8401C00F03C
:104D700017FBA41C02226AA13A48E4B2001900F011
:104D800099FA320092B23749624800F04FFE09B0FA
:104D9000F0BD0000681B00203EB504000025E4B211
:104DA000652C02DB042005000AE0E4B20B2C02DBD8
:104DB0000320050004E0E4B2002C01D0022005002D
:104DC00058480290584801905848009058A3594AB2
:104DD00059A1062000F07CFA641CE4B2652C23DBA8
:104DE000E4B220006421FFF7A1F93030A94908702E
:104DF000E4B220006421FFF799F908000A21FFF7C7
:104E000095F93030A4490870E4B220006421FFF71E
:104E10008DF908000A21FFF789F930319F480170A8
:104E20002C209F4908701AE0E4B220006421FFF7AB
:104E30007DF908000A21FFF779F9303095490870AB
:104E4000E4B220006421FFF771F908000A21FFF79E
:104E50006DF93031904801702C209049087028007D
:104E6000C0B23EBD3C110020F1B582B0002400204C
:104E700069464870002069460870002602980500BF
:104E80002878302807D10120694648706846407864
:104E900001283ED100E03CE00020040028780D28E5
:104EA00004D1B6B280208000864232DA28782C28DD
:104EB0002CD1641CE4B2012C28D0E4B2022C25D001
:104EC000E4B2032C16D10027681C0700A0A138000B
:104ED00000F0C4FC0190019800F0E8FC694688707D
:104EE0002C20694689787854019804F07CFF694643
:104EF00008700BE0E4B2042C06D16846017889B250
:104F0000280000F01BF804E0E4B2052C6D1C761CB0
:104F1000C4E7F7BDE81500209A1C0020F21A002013
:104F20000D0A000094C100088CC1000818C00008D8
:104F30003D30000084C1000841542B00FEB505003F
:104F40000C0000270026A4B2052C00DAA0E0210006
:104F5000083989B2A81C00F097F90700A4B22819F3
:104F6000001F00F027F9060038003100C0B2C9B2B6
:104F700088420AD0FFB23900764800F095FAF6B2BE
:104F80003100754800F090FA82E007206946087009
:104F9000684600780222424392B201A9280000F03C
:104FA00049F968460079FA2872D101A84078C028EA
:104FB00039D16A4800F078FA69480078002831D180
:104FC00000206849087068480078012860D10020F6
:104FD0006549087001206249087001206349087022
:104FE000012063494871634800F05EFA6248FEF7A9
:104FF000DAF86248FEF7D7F861480078012801D155
:10500000FDF7DBFE00205F490870FFF770FB5E488C
:1050100000F04AFA872040015C49086001205C49A1
:10502000087035E034E001A84078C1281FD1A4B24F
:10503000002C2DD04A480078002802D15548FEF7B0
:10504000B2F8554800F030FA06216846007802228E
:1050500050432818401C00F025F850490870FA20E9
:105060008000454948604448FEF7D0F810E001A8A8
:105070004078C22809D14A484088002808D04848CA
:105080004188484800F048FB02E001A84078C32866
:10509000F7BD0000611100206211002063110020A3
:1050A00064110020F0B5FFB082B005000C000222B0
:1050B000624392B26946280000F0BCF8A4B2220014
:1050C0006946394800F0F6F837484078022801DB95
:1050D00001203AE03448407829490870284800788F
:1050E000234908703048808880B2000A2E49898898
:1050F000090201430F002C48408880B2000A2A4967
:105100004988090201430E00BFB2284887421BDAD2
:10511000B6B22648864217DA15483900C170090A26
:105120000171134831004170090A81701049C87833
:105130000A791206120C104380B2792802DA012093
:105140001B490870002000E001207FB002B0F0BDD4
:105150002C000000C4C00008D0C000089CC100089A
:10516000BD1C0020C11C0020BF1C0020BE1C002054
:10517000681B002028C00008141C0020FC1B002015
:1051800083010020C01C0020A4C10008741C002062
:10519000BB1C00202C1C0020ACC10008C21C00203D
:1051A000180E00202A0E00204C1C0020A105000033
:1051B000C31C002000B5010000200A78302A06DB5D
:1051C0000A783A2A03DA0A78303A100012E00A78AC
:1051D000612A06DB0A78672A03DA0A78573A100050
:1051E00008E00A78412A05DB0A78472A02DA0A78B9
:1051F000373A100000014A78302A06DB4A783A2A0A
:1052000003DA4A78303A801812E04A78612A06DBDD
:105210004A78672A03DA4A78573A801808E04A78C9
:10522000412A05DB4A78472A02DA4A78373A801859
:10523000C0B200BDF2B50400170000250026300002
:10524000390080B289B2884209D2B6B2A019FFF7FC
:10525000B1FF0099ADB248556D1CB61CEFE72800B0
:1052600080B2F2BD30B502000020002423001C00F3
:105270000D00A4B2ADB2AC4204D29BB2D45C001912
:105280005B1CF4E7C0B230BDF8B504000F00002588
:1052900000263800310080B289B2884207D3B6B206
:1052A000A019FFF787FF28180500B61CF1E72800B2
:1052B000C0B2F2BD30B503000C00180015006A1E24
:1052C000002D04D025780570641C401CF6E730BD25
:1052D0000EB4FCB50700002069460871FFB2022F2A
:1052E00003DA002004F085FD34E0002507A804005F
:1052F0000020050028003900C0B2C9B288420ED291
:105300002068241D0600684601790091300000F0F5
:10531000CDFA00990818694608716D1CEAE707A8DC
:1053200004000020050028003900C0B2C9B288423C
:1053300010D22068241D0600EDB2002D04D13100EA
:10534000074804F05BFD03E03100054804F05EFD12
:105350006D1CE8E702B00498F0BC04B00047000000
:105360003C11002000B502000020D2B2002A06D075
:10537000D2B20A2A03DA1100303108000EE0D2B2AC
:105380000A2A06DBD2B2102A03DA110037310800EC
:1053900004E0D2B2002A01D130210800C0B200BD21
:1053A000F2B582B0070016006846694609890222F4
:1053B0005143C180002400252000C0B26946C9883D
:1053C00080B288421FD2EDB2785D1021FEF7AEFEAA
:1053D0006946087168460079FFF7C4FFE4B23055AA
:1053E00068460090EDB2785D1021FEF79FFE0098B0
:1053F000017168460079FFF7B5FFE4B231194870D2
:10540000A41C6D1CD8E7F7BD70B503000025087813
:10541000002818D01878002813D092B2954210DADC
:1054200000200400185D0E5DB04207D108194078D5
:10543000002801D1180007E0641CF3E75B1C6D1C19
:10544000E8E7002000E0180070BDFEE7124207D038
:105450008B0706D00B78491C0370401C521EF7D8EE
:105460007047830706D00B78491C0370401C521EFE
:10547000F9D1704770B4103A03D378C9103A78C0A4
:10548000FBD2530701D318C918C001D508C908C0F9
:10549000D20704D30B880380891C801C002A01D505
:1054A0000B78037070BC70470EB400B582B003A9CE
:1054B00000916B4602000121034878440A3004F051
:1054C000B3FC029906B00847DB6A00000FB4FEB5D2
:1054D0006846008F80B2000A6946098F09020143BD
:1054E00068460187894805F0F9FD119088480079E0
:1054F0000EA948720EA8864909884171090A81716E
:10550000834948798A791206120C10430EA9488102
:105510000EA87F494988C171090A017208A88088CC
:1055200080B2000A08A989880902014308A881807D
:10553000172069468870142069464870152069460E
:10554000C8700EA9487C8A7C1206120C104369466A
:1055500089786A46527889180818801C694608714B
:105560000EA9487C8A7C1206120C10430EAA517CAC
:10557000937C1B061B0C19430EAA80B2000A090279
:1055800001435174090A91740EA8C07C002808D107
:10559000684669460979891E817104206946487107
:1055A0000BE00EA8C07C002807D068466946097940
:1055B000491E817102206946487168468079FFF76B
:1055C000EBFB06006846F6B26946097902224A43B7
:1055D000B1182931018100240027F6B230002530AE
:1055E00004003000253007004A48FFB2C21968465F
:1055F000817889B208A8FFF7D3FEA4B26846807804
:105600000221484324184348A4B20219684641784D
:1056100089B20EA8FFF7C4FEA4B268464078022102
:1056200048432418002069460870002528000EA968
:10563000C97CC0B2884225D23648A4B20219684655
:10564000C17889B213A8EDB215236B43C018801C32
:10565000FFF7A6FEA4B26846C0780221484324188A
:105660006846C17889B213A8EDB215226A43801842
:10567000801CFFF7F7FD694609780818694608702D
:105680006D1CD3E768468078411E89B208A8401C8B
:10569000FFF7E8FD6946097808186946087068460A
:1056A000417889B20EA8FFF7DDFD69460978081830
:1056B000694608701748A4B2021901216846FFF72D
:1056C0006FFEFA206946C8711248A4B20019821C04
:1056D000012101A8C01CFFF763FEA41C022250A1F7
:1056E0000C48A4B20019801CFFF7E4FD684600894D
:1056F00069464979421A92B206494A4800F096F939
:1057000003B00498F0BC05B0004700003F1C002027
:10571000381C00203C110020F3B585B00024002780
:1057200000206946087210223F490598FFF782FD64
:1057300010343D4948798A791206120C10433A4ACE
:10574000517993791B061B0C1943374A80B2000A22
:10575000090201435171090A917133488078002888
:1057600002D1012069460872002630002E49C9790D
:10577000C0B288424AD2062203A90598A4B20019F1
:10578000FFF758FDA41D0025280003A98978C0B2A1
:10579000884239D20A2269460598A4B20019FFF757
:1057A00049FD0A3400200700684640786946897838
:1057B000884211D26846407830280DDA68468078F1
:1057C000002809D068468078312805DA68460078D4
:1057D000022801DA01200700FFB2002F01D10020CA
:1057E0001BE005226946114884466846037BF02089
:1057F00043436046C018EDB205236B43C018F03830
:10580000FFF758FD6D1CBFE7761CAEE76846007ACF
:10581000012801D1012000E0AA2007B0F0BD00005E
:105820000D0A0000C81600205C1C0020880700201C
:1058300010B402E0401C491C521E002A0BD00B7809
:1058400004789C4205D002D20020C04304E001202D
:1058500002E0002CEED1002010BC704770B50500AE
:105860000E00114805F045FC0400002D09D0310060
:10587000280005F03FFC2D182878002806D120606C
:1058800070BD2568002DF2D1002070BD31002800C8
:1058900005F042FC28180178002902D0002101708F
:1058A000401C2060280070BD7C000020010000E04A
:1058B000491C0A78002AFBD1081A704710B5040069
:1058C000002C01D1012037E0A0690028FFD1692018
:1058D000205C002805D10020682160542000FCF7DE
:1058E00057FD242069216054206800680121884305
:1058F00021680860606A002802D0200000F03EFCA9
:10590000200000F061FA012801D1012014E0206894
:1059100040680A49014020684160206880682A2167
:10592000884321688860206800680121014320685D
:105930000160200000F094FC10BD0000FFB7FFFFE5
:10594000F7B505000C001F0000266920285C202800
:105950006AD1002C03D068460089002801D10120BB
:1059600063E0A86880214901884207D1286900289E
:1059700004D12000C00701D5012056E06820285C32
:10598000012801D1022050E0012068216854002044
:10599000E86621206921685402F0C2FE06006846CC
:1059A000008950216852684600895221685252206D
:1059B000285A002825D05220285A401E52216852C9
:1059C0000097330000228021280000F083FC00288B
:1059D00001D0032029E0A8688021490188420BD129
:1059E0002869002808D1019401980088C005C00DDD
:1059F00029688862A41CDAE7207829688862641C18
:105A0000D5E70097330000224021280000F062FC17
:105A1000002801D0032008E02020692168540020DC
:105A200068216854002000E00220FEBD70B504002B
:105A30000E0015006920205C202849D1002E02D0DC
:105A4000ADB2002D01D1012043E0A06880214901C1
:105A5000884207D12069002804D13000C00701D551
:105A6000012036E06820205C012801D1022030E0CE
:105A7000012068216054E6645020255252202552AE
:105A80000020E0662120692160545A48216EC862D6
:105A90005948216E08635948216E48630020216EE1
:105AA0008863ADB22B00206802002832E16C206EC2
:105AB00001F0D6FC40202168086200206821605473
:105AC000206880688021014320688160002000E018
:105AD000022070BD000070B504000E0015006A20A1
