:020000040800F2
:1000000088030020B5AB000845A7000847A70008F3
:1000100000000000000000000000000000000000E0
:100020000000000000000000000000004BA70008D6
:1000300000000000000000004DA700084FA70008C6
:10004000032A00082B3D00085BA70008F34C0008BA
:100050002F8A000865A700080F9D00086FA70008F9
:1000600000000000739D000887A7000897A70008FC
:10007000779D0008B7A1000800000000B3A70008A2
:1000800000000000DBA500080000000000000000E8
:10009000BDA7000800000000C7A7000867A6000869
:1000A00029AD00082BAD00082DAD0008D1A7000830
:1000B000E1A70008F1A70008000000000000000010
:1000C00000B5BFF34F8F7A487A490860BFF34F8F6E
:1000D00000BFFDE780B501F0FDFE00F047F801F03C
:1000E000C1FA01F007FF01F081FF01F0A1FF02F06A
:1000F00071F802F04CFB02F081FB02F092F802F082
:10010000BAF802F02FFC01F081FA00F098F801F043
:100110001FFA00F0E3F8FA20400002F065FC01F05D
:10012000C7FD002064490870002064490870002061
:100130006349087000206349087000206249087014
:1001400000206149487000F019FEB7480078002887
:10015000E7D1B54800780028F7D102F009FE01F098
:10016000E1FD01F019FB00F027FEF2E700B599B0C0
:100170005648006856490140802000010843534911
:100180000860544800685249014052480160062006
:100190000C90802040000E9001200F9010201090B5
:1001A00002201590002016908020C0021790C020D9
:1001B000000418900CA802F019FE002804D0972122
:1001C00089009A4801F084FE0F20079003200890D0
:1001D0000020099000200A9000200B90002107A821
:1001E00003F0AEF8002803D03B49904801F070FEC0
:1001F000272000900020029000200390002004900F
:10020000802040020190684603F05EFA002803D087
:100210008749864801F05CFE03F0D2F9FA21890093
:1002200003F081FC03F057FD042003F05AFD002287
:1002300000210020C04303F036FD19B000BDFA20B4
:100240007C490870D1207B49487001207949C870E9
:10025000794800218172090AC1727848007876498C
:1002600008707548B421C9004170090A817072484C
:10027000B421C900C170090A017164206E49C871B6
:10028000FF206D4908726E4801210171090A417110
:100290006B4801218170090AC170682069490870A2
:1002A00041206849487011206649887070470000F5
:1002B0000400FA050CED00E06F1C00205F1C00201C
:1002C0005B1C0020661C0020181C002000700040F1
:1002D000FFE7FFFF501002406A02000080B55A4855
:1002E000006802F01BFA0120584908605848574935
:1002F0004860584855498860022057490860C8201E
:100300005549486055485449886080204000544908
:100310000860962052494860524851498860082038
:100320005149086051485049486051484E498860D9
:10033000102050490860FA2080004E4948604E481D
:100340004C498860802040014C4908604C484B492A
:1003500048604C484949886040204B4908604B48F8
:10036000494948604A4848498860802049490860AE
:10037000FA20C000474948604748464988608020C5
:10038000800046490860FA2080004449486044489B
:10039000424988608020C000424908604248414983
:1003A000486042483F498860802000014049086019
:1003B000C82080003E4948603E483D49886004208E
:1003C0009449086029489349486093489149886056
:1003D0008020800191490860FA20C0008F49486060
:1003E0008F488E4988608020C0018E490860C820EF
:1003F00080008C4948608C488A49886080200002CF
:100400008A4908601E488949486089488749886048
:100410008020400287490860FA20800085494860B2
:1004200085488449886001BD6C1C0020E4A900084F
:1004300075020000A01A00201C1B00208301002070
:10044000001C0020081C0020140000202C1B002091
:10045000B80B000065060008BC1B0020B1070008AF
:10046000381B0020B9070008501B002060EA00007C
:1004700039080008C81B00203B080008441B002066
:1004800030750000290A00085C1B0020701700006E
:10049000B90E0008681B0020910A0008B01B00205C
:1004A000990A0008E01B002010270000A10A00089C
:1004B000741B00206918000810B50400200080B2E9
:1004C00000F03EFB10BD10B5040020685B490968D0
:1004D000884201D102F016FC206859490968884217
:1004E00000D08EE057484078012800D086E00121F6
:1004F000A020C00503F003FD00287CD151480078FE
:10050000401C5049087050480078012815D14F48C8
:100510000078012811D14E48007800280DD14948B3
:100520000078012809D14B480078002805D1012026
:10053000474908703B4802F063FB424800780528B1
:1005400059D141480078012855D1434802F025FB94
:1005500000203E49087041480078012804D14048F5
:1005600002F01BFB01F06EFC8C48007801280AD1D8
:100570008B4802F012FB274802F00FFB002087494E
:10058000087003F008FD00202E4908700120314951
:10059000087084480078002803D101208149087040
:1005A00016E080480078012812D100207D490870AB
:1005B00000207D4948707C4840787C4908737B481E
:1005C0007A49097B15225143491C8172090AC1727B
:1005D00001207649887173480078744908700020BA
:1005E0008A49087000208A490870C82089494860F3
:1005F000884802F005FB0020124948700020864917
:100600000870206885490968884201D100F008FB1C
:1006100010BD0000D41B0020951B0008801B00208B
:10062000BF1B00088C1B0020F11B0008981B00203A
:10063000411C0008A41B0020A11C00086819002010
:10064000A0190020181C00206E1C0020501C002047
:10065000531C0020611C00202C1B0020671C002064
:10066000441B002080B56E488078002807D16D4873
:100670000078002878D10120AF49087074E06848FC
:100680008078012870D167480078002830D1012097
:100690006449087064480078002825D101F092FB75
:1006A00013206249C8700120604908710120604927
:1006B000487105225D495E4804F050FA5B480179B3
:1006C000491D89B25A4804F021FA5A49087059481C
:1006D00000785749554A12798918487116205449AB
:1006E000524A1279891888714A4802F089FA3BE027
:1006F0004C480078012837D14B480078012833D185
:100700008E480078012804D18D4802F046FA01F0A5
:1007100099FB2248007801280AD1214802F03DFACD
:10072000884802F03AFA00201C49087003F033FCB4
:1007300001208549087001208449087001208449FE
:10074000087001201949887116480078814908709D
:1007500001201449087001201449087064202D49B3
:1007600048602C4802F04CFA00202D490870002007
:10077000794908702B48007801280ED10748007885
:1007800000280AD16D480078002806D16E4800780C
:10079000002802D101206849087001BD661C0020B4
:1007A0005C1B002083010020141500201C1B00206E
:1007B00080B500F035FA01BD80B500F0DFFA97484A
:1007C0000078022820DA95480078401C9349087088
:1007D00015480078012814D091480078002806D1E7
:1007E0000022802149008F4803F097FB09E08C48E4
:1007F0000078012805D1002210218A4803F08DFBE2
:10080000FFE7C74802F0FCF901BD00006D1C0020A5
:10081000571C0020BC1B0020511C0020D8190020B0
:10082000181C00205A1C00206E1C0020081C0020F0
:10083000101A00206A1C0020704700B5BDB08D481A
:100840000078002810D116208B4908700121112052
:1008500003F0AAFBB34802F0D3F9012087490870DE
:1008600001208449087065E082480078012861D140
:100870008348007801280AD1002081490870814806
:100880000078012803D1804802F0BAF952E0002034
:100890007E4908737D487D49097B15225143491CD7
:1008A0008172090AC172A0487849097B1522514317
:1008B00026310171090A417116206F4908709B4960
:1008C00008A8D42204F016FA704904A80D2204F0F6
:1008D00011FA954982B06846172204F00BFA0CBC55
:1008E0000021112003F060FB91480078401C9049E2
:1008F000087090488B4948608D480078062816DBC0
:1009000000208B4908705F480078002802D1FFF76B
:10091000D7FB0FE05B48007801280BD103F03BFBCD
:1009200000208549086001200349087002E07D48E5
:1009300002F066F93DB000BD6C1C0020671C002071
:10094000441B0020D41B0020621C0020631C0020DC
:10095000641C0020651C0020501C002010B5BCB099
:100960000400200004F037FAA7490860A648006890
:10097000C178A64804F050FBA3480068C07801285D
:1009800049D1A34804F048FBA2480078012805D1CA
:10099000A14802F002F900209E4908709A480068B8
:1009A00004F0E8F9162034490870D3205E494870F5
:1009B0005E4840789949C8749848C07C002808D09F
:1009C00096489649C97C15224A434274120A827499
:1009D00004E0924801214174090A817452488F4908
:1009E000C97C152251432D310171090A41714F49CA
:1009F00007A8D42204F07EF9884902A8142204F042
:100A00008DF9494984B06846172204F073F90FBC88
:100A100004F014FB00BF3CB010BD0000581C0020C7
:100A20005F1C00200004005080B5A2480088401CD4
:100A3000A04908809F480088002817D000207549E9
:100A4000087000209B4908809B480078012810D13D
:100A500000207049087000F09FFD01F0F3F99748FD
:100A600004F0DAFA01203549087002E06A4802F021
:100A7000C7F801BD711C002084010020701C0020FB
:100A8000001C00206E1C0020801B00201C1B00206E
:100A900080B500F013FD01BD80B500F0CBFD01BDB8
:100AA00000B5BDB086480078002835D1BD48008823
:100AB000401CBC490880BB480088062827DA1A4831
:100AC0008049097B1522514326310171090A417180
:100AD000164908A8D42204F00DF97A4904A80D2279
:100AE00004F008F9104982B06846172204F002F9B0
:100AF0000CBC0021112003F057FA16209D49087004
:100B00000C489D4948609C4802F07AF804E00020B7
:100B1000A4490880FFF7D4FA3DB000BD00000000F2
:100B2000381B0020C81B0020A01A0020141500202C
:100B3000721C002010270000281C00206C1C0020C4
:100B400010B50400A4B2012C17D10121A020C005CA
:100B500003F0D5F9002806D1012093490860002050
:100B60009249087009E00121A020C00503F0C7F9EF
:100B7000012802D102208C490860A4B2402C25D162
:100B800000208A49087000F0F9F8894802F005F859
:100B90004021A020C00503F0B2F9002806D10022B0
:100BA00080214900B74803F0B8F90FE04021A020A8
:100BB000C00503F0A4F9012808D1B3480078012842
:100BC00004D100221021AF4803F0A7F9A4B2202CD1
:100BD00019D10020754908702021A020C00503F01C
:100BE0008EF9002803D10120A74908700BE02021CD
:100BF000A020C00503F083F9012804D100F0BEF85D
:100C00000020A149087010BD1C1C002034AB000856
:100C100044AB0008521C0020441B0020F81A00209E
:100C200080B564480078092826DA984800780028BA
:100C300022D197480078022803D0954800780028F0
:100C400004D110218F4803F072F909E09048007830
:100C5000012805D180210902A020C00503F067F911
:100C600054480078401C53490870C82050494860D7
:100C70004F4801F0C5FF1CE000204E4908700120DC
:100C8000824908708348007800F01EF88248007896
:100C900001280ED1002080490870454801F07DFFF1
:100CA00000207E49086001207D49087000203F49EE
:100CB000087001BD4A1C0020671C0020C4AB00085E
:100CC0006E1C00201C1B002010B504006E4800782C
:100CD00001284ED000F052F8002072490870724886
:100CE0000078002808D171483149486000F0A5FD1E
:100CF0006F4801F085FF3CE06E480078012811D173
:100D000000206C490870002280210902A020C00543
:100D100003F003F9FA20C000AD494860AC4801F087
:100D20006FFF26E097480078012822D100209549DE
:100D30000870C82080001E49486055480078012886
:100D400007D1002280210902A020C00503F0E5F8A8
:100D500008E04F480078002804D1002210214948BB
:100D600003F0DBF8C820800099494860984801F0FA
:100D700047FF10BD84010020E01B002080B5012248
:100D8000802149003F4803F0C8F8012210213D4866
:100D900003F0C3F8012280210902A020C00503F05E
:100DA000BCF801BD461C0020201C00206C1C00204B
:100DB000BC1B0020571C002000B5BDB0384800788F
:100DC00001281BD1002036490870314800780128DD
:100DD0000AD180480078002810D17F480078002888
:100DE0000CD101F005F809E029480078002805D168
:100DF00079480078002801D100F0E4FF77480078B6
:100E000001283DD128480078012839D1744800785C
:100E1000002835D1012072490870162071490870E8
:100E200071487249097B1522514326310171090A23
:100E300041716F4908A8D42203F05CFF6B4904A8F4
:100E40000D2203F057FF684982B06846172203F06D
:100E500051FF0CBC0021112003F0A6F86548007872
:100E600001280AD1002063490870634800780849C6
:100E70000870074800785D490870604801F0C0FEBE
:100E80003DB000BD00040050591C00206D1C002026
:100E90008301002082010020611C0020281C00200A
:100EA0005B1C0020581C00206E1C0020B80B0000AA
:100EB000381B0020641C002080B5514800780128B0
:100EC0005FD0504800780B2855DA4E480078401C17
:100ED0004C49087043480078032809D1032003F0E7
:100EE00063F8494849494860484801F089FE48E0AC
:100EF0003C480078082809D1082003F055F84248FA
:100F000042494860414801F07BFE3AE035480078AC
:100F10000E2809D10E2003F047F83D483B494860B0
:100F20003A4801F06DFE2CE02E480078062806D1E4
:100F3000062003F039F8354801F062FE21E0294827
:100F400000780A2809D10A2003F02EF831482F49E9
:100F500048602E4801F054FE13E022480078102823
:100F60000FD1102003F020F829482849486027486D
:100F700001F046FE05E000202149087000202149CB
:100F8000087001BD561C002080B523480078012858
:100F90000FD100201B490870002019490870032058
:100FA00003F002F8194801F02BFE03200D490870E8
:100FB0000CE019480078002808D1082002F0F4FF5E
:100FC000082008490870114801F01AFE01BD000010
:100FD000741B0020671C0020661C00205F1C002082
:100FE0006F1C002084010020A01A00201C1B002080
:100FF00014150020621C0020651C0020B01B00207E
:101000005D1C00205E1C0020701700005C1B00208F
:10101000B80B0000881300005C1C002030B5BDB088
:101020000400BE480078032803D0BC480078082894
:101030002AD10622BA49200004F0B2F9002800D0D3
:101040002CE20120CE4908700020CE490870B34838
:101050000078032809D1B34801F09FFD002002F079
:10106000A3FF0020AD49087018E2AC4800780828BA
:1010700000D013E2AB4801F090FD042002F094FF91
:101080000420A649087009E2A4480078002817D176
:10109000A5A120000B3004F099F90500280004F008
:1010A000BDF9CE490870CD4802782900CC4803F03C
:1010B00055FD042002F078FF042098490870EDE106
:1010C00096480078042821D10822C649200004F05F
:1010D00067F9002800D0E1E193A12000083004F076
:1010E00075F90500280004F099F90F2800D0D5E122
:1010F0000F222900CE4803F031FD0922CD49CE4808
:1011000004F04CFA052085490870C7E1834800784F
:10111000052816D10F22C949C94803F01FFD152023
:101120007E4908700622C749200004F039F90028DA
:1011300003D0D34801F064FDB0E1D24803F06CFF66
:10114000ACE176480078062810D10D22D449200061
:1011500004F026F9002800D0A0E107206F490870AC
:1011600000F0C0F9CF4801F04BFD97E16B480078E3
:10117000072817D1CC49200004F0E6FF0500002D18
:1011800000D18BE108206549087000207C49087077
:1011900000207C490870C54862494860614801F0F8
:1011A0002FFD7BE15D48007809281AD106225C49B1
:1011B000200004F0F5F8002800D06FE10A2057491C
:1011C00008700A2002F0F0FE00206D49087000202F
:1011D0006C490870B84853494860524801F010FD06
:1011E0005CE14E4800780A2818D106224C492000BC
:1011F00004F0D6F8002800D050E1012060490870C2
:10120000002060490870474801F0C7FC0B204349A3
:1012100008704248007802F0C7FE3FE13F4800787E
:101220000B280FD106223E49200004F0B9F800280F
:1012300000D033E10C20394908703848007802F0BA
:10124000B3FE2BE1354800780C281BD10622344927
:10125000200004F0A5F8002800D01FE10E202F493F
:1012600008702E48007802F09FFE00204449087064
:1012700000204449087099482A494860294801F0EB
:10128000BFFC0BE1254800780E2823D1012294A150
:1012900020000C3004F084F8002808D0012290A12E
:1012A0002000183004F07CF8002800D0F6E001207F
:1012B000334908700020334908701A4801F06DFC6A
:1012C0000F20164908700F2002F06EFE154801F03D
:1012D00097FCE3E0114800780F2827D10125200072
:1012E00000F0E6F80500EDB2012D00D0D6E00D4883
:1012F00001F053FC102009490870102002F054FE40
:1013000000201F49087000201E49087073480549D5
:101310004860044801F074FCC0E000BF8401002074
:1013200068AC00085C1B00200D0A000091480078A2
:10133000102843D10B228E49200004F031F80028F8
:1013400000D0ABE015208B49087001200C490870D3
:1013500000200C490870884801F01FFC874801F004
:101360001CFC01208649087086480078002800D0BF
:1013700094E0854908A8D42203F0BCFC834903E02B
:101380005D1C00205E1C002004A80D2203F0B2FCAE
:101390007F4982B06846172203F0ACFC0CBC0021E8
:1013A000112002F001FE162072490870FA20C000D8
:1013B00078494860774801F023FC6FE06D48007879
:1013C000162811D100259949200004F0BDFE050022
:1013D000002D63D01220674908705FE06B1C00206D
:1013E000801A0020D0AB00086248007812282BD168
:1013F00009228549200003F0D3FF00284ED1132095
:1014000002F0D2FD13205B49087089480088401C17
:10141000874908805E488649098889B2090A844A52
:10142000128812020A434275120A827536E000BF22
:10143000A61A0020DCAB0008E8150020621A002084
:101440000C1B0020E8AB00084A480078132825D17F
:1014500000258349200004F077FE0500002D13D0FD
:1014600000F040F815208649087072B6A01C03F001
:101470004FF962B6824800783E4908700EE000BF1E
:10148000801B002070AC00086849200004F05CFE5E
:101490000500002D02D0132002F086FD3DB030BDC6
:1014A00054AB0008681B002078AC000870170000DF
:1014B00001000120704700008813000080B5C82299
:1014C00092007149714804F0BEF8704800680068E5
:1014D000102101436D480068016001BDB80B000098
:1014E0002C00000080B56B480078012801D1022053
:1014F0002DE0012067490870644804F039F9634819
:1015000000680068102188436049096808605F48E6
:10151000406E00680068012188435C49496E096893
:10152000086000205A49088000205849496E09681F
:1015300048605648406E00680068012101435348E6
:10154000406E00680160002052490870002002BD12
:1015500080B5C82292005049504804F074F84F48B2
:1015600000680068102101434C480068016001BD1B
:10157000F4AB0008840100205C1B0020D41B002079
:101580005F1C00206E1C0020141500201C1B002076
:10159000A01A0020E01B002080B57C4800780128BC
:1015A00001D1022023E00120784908703C4804F072
:1015B000DFF83B4800680068102188433849096813
:1015C00008603748406E006800680121884334494C
:1015D000496E0968086000203249088000203049BF
:1015E000496E09684860002068490870002002BD03
:1015F0007047000000B50168244A1268914201D189
:1016000000BFFFE700BD000000AC000880B5FFF799
:10161000B5FB012280210901A020C00502F07DFC5C
:10162000002201218C4802F078FC01BD68AC000862
:101630004E1C002080B513480078012801D103F02A
:10164000C0FB534801F0A9FA02F0A5FC0020514963
:101650000860012081490870FEF732FD01BD0000DD
:101660000CAC000880B504F07FFD04F075FD7C48EB
:1016700000688021090201437948016001BD000032
:10168000681C002083010020601A0020E81500205B
:1016900040160020501600201C0E0020C816002006
:1016A00058160020B016002010B56E4909680422B3
:1016B0000A436C490A6091490978012964D1354986
:1016C0000968491C334A116000218D4A1278002AAA
:1016D00007D18C4B5A789C782406240C22431100A5
:1016E0001BE0874A1278012A17D1874A1268521CD8
:1016F000854B1A60844A1268B4235B009A4205D372
:101700000022814B1A600122804B1A707D4BDA78DF
:101710001C792406240C224311001E4A126889B247
:1017200003234B439A4214D300221A4B1A6000221F
:10173000744B9A71764A1278002A06D1754A12784B
:10174000002A02D10122744B1A700022434B1A70F6
:101750001AE06F4A1278002A16D16E4A1278002ACF
:1017600012D16E4A1278002A0ED16D4A1288521C8C
:101770006B4B1A806A4A12885A2A05DB0022684B92
:101780001A800122654B1A7010BD0000C01600209F
:101790005C1B0020281C002080B562480078C00730
:1017A00034D561484078012826D001205E49487030
:1017B0005E480078002808D101205C4908700120AB
:1017C000594988705A4801F01BFA58480078012896
:1017D00012D15848007800280ED1012055490870D0
:1017E0000821554804F02AFD0120C04352490968E8
:1017F0000861514804F0FAFC4A4800680121414060
:10180000484801604748006880B215E045480078C4
:10181000800710D545480078012802D100204249B0
:10182000887040480068022141403E4801603D48C0
:10183000006880B200E0002002BD80B50821D148D8
:1018400004F0FCFC0120C043CE4909680861CD4882
:1018500004F0CCFC01BD0000000400506C1C002012
:101860000C1002400070004080B534480078002819
:1018700043D1FFF783FA3248007801280CD10020C9
:101880002F49087000202F49086001202249087064
:1018900000202D49087030E02C480078152821DA06
:1018A000B948007800280ED1002280214900B748AD
:1018B00002F033FBB4480078401CB3490870B448C8
:1018C00001F09EF919E00020AF4908701148007836
:1018D000002812D10E48007800280ED101201A49A4
:1018E00008700AE00B480078002806D10848007804
:1018F000002802D101201449087001BD6E1C00208F
:10190000830100201C1B0020241C0020551C0020EB
:10191000671C0020661C00205B1C0020800100204A
:10192000481C0020201C0020181C0020501C0020F7
:101930002C1B0020511C0020A0190020591C002045
:10194000631C0020281C00206C1C00208201002049
:1019500038B50500A4484088002800D110E10024D3
:1019600008222900A14803F0F9F89F484088811E09
:1019700089B2280003F0CAF8040020009B49897945
:10198000C0B2884200D0FBE09848C078042800D15B
:10199000C5E0202807D021283AD0222862D0232869
:1019A00000D18BE0ECE02020A149C8700320A049C1
:1019B0000871A048008880B2000A9F4948719D487C
:1019C00000889D4988719D4800789B49C87105220F
:1019D0009749994803F0C2F895480179491D89B2A1
:1019E000954803F093F80400934891490979401809
:1019F0004471162090498E4A1279891888718C4852
:101A00000279D21D92B28C49A44803F0C7FDB7E019
:101A100021208749C8700120854908710120864925
:101A2000487105228249844803F098F8804801797A
:101A3000491D89B2804803F069F804007E487C495A
:101A400009794018447116207B49794A127989181E
:101A5000887177480279D21D92B277498F4803F096
:101A60009DFD8DE022207249C8700F2070490871D9
:101A70000F228D498D4803F071F805226C496E489C
:101A800003F06CF86A480179491D89B26A4803F08D
:101A90003DF80400684866490979401844711620E9
:101AA0006549634A12798918887161480279D21DA3
:101AB00092B26149794803F071FD61E023205C49ED
:101AC000C8700F205A4908710F229449774803F0D3
:101AD00045F805225649584803F040F85448017922
:101AE000491D89B2544803F011F804005248504986
:101AF00009794018447116204F494D4A12798918C6
:101B000088714B480279D21D92B24B49634803F069
:101B100045FD03F01DF901208149087030E00420E3
:101B20004349C87001204249087101204249487167
:101B300005223F49404803F011F83D480179491D0D
:101B400089B23D4802F0E2FF04003B483849097978
:101B50004018447116203849354A1279891888711D
:101B600033480279D21D92B233494C4803F016FD36
:101B700003F0F7F800206A490870B14801F040F816
:101B800031BD0000D8190020601C00200004005066
:101B9000741B002080B588480078002802D1FEF729
:101BA0008FFA0BE084480078012807D102F0F3F99E
:101BB0000020824908600120A649087001BD80B557
:101BC00002F0E9F900207E490870FFF7D7F80120FC
:101BD0007949087016480279D21D92B216492F48E9
:101BE00003F0DCFC01BD0000180E0020F81B0020F3
:101BF00080B500207949087079488078002815D18F
:101C000077480078012811D100207549087075487F
:101C100000F0C3FF00207449087001207349087068
:101C2000C8208D4948608C4800F0EAFF01BD0000E3
:101C3000081C0020441C0020101A002082010020F3
:101C400080B58648006803F095F800208349086055
:101C5000002083490870834840688349884202D144
:101C600000208249087000F0EDF8814840788149F1
:101C7000087380487F49097B15225143491C8172B2
:101C8000090AC1727C487B49097B152251432631E0
:101C90000171090A417100F095F801BDC8160020D4
:101CA0000120764908707047A61A0020151A0020F6
:101CB00080B5734804F0BAFDFA21714804F0F6FDCE
:101CC0006F4804F0C3FE800514D56D4804F05EFE35
:101CD0006C4908806B4800886B4941430813694987
:101CE000088068480188A8204843642101F018FF53
:101CF0006649088000236648027866480178634890
:101D0000008800F000FA6449087063480078594977
:101D1000C871614800785F49087001BD0C1B002044
:101D2000671C002080B55D4800780100C907C90F15
:101D300000292BD059480078FE21014057480170F6
:101D400057480078012809D0FFF7CCFB72B65548F8
:101D5000FFF764F962B6FFF7B1FB17E0504800786F
:101D6000012813D145480078012808D100204349B3
:101D700008701C224C494D4803F010FC06E0FFF7A8
:101D80000BFC72B64748FEF7E9FD62B6484800789A
:101D90000100C907C90F00290CD045480078FE2171
:101DA00001404348017042484088002802D0414821
:101DB000FFF7CEFD01BD00006E1C0020281C002096
:101DC000661C002080B5FFF779FB02F0DDF80120EA
:101DD00039490870FFF7D8F801BD0000531C0020F6
:101DE000181C00202C1B0020501C0020561C00201A
:101DF000F8B5142000900026304C320000992000E5
:101E000004F08AFE8025AD000024264F2200290020
:101E1000380004F081FE02F09BFF01202049087089
:101E2000002027490880012026490870264800F034
:101E3000E7FE264800F0E4FE002010490870F1BDDE
:101E4000B01B002080B502F08CFF00201449087000
:101E500001BD00006C1C0020BC1B00201C1C0020CD
:101E6000541C0020981B002030750000551C0020D9
:101E7000141500201C1B0020A01A0020691C002043
:101E8000381700204C1C0020B80B0000441C002018
:101E9000591C002081010020820100205C1A0020D2
:101EA000671C0020601A002018000020581600202F
:101EB000180E00201C0E0020661C0020D01A0020E6
:101EC0004A1C0020521C0020A41B0020441B0020A0
:101ED00000B5FEE780B5064800684021014304488C
:101EE0000160002004F042FE04F054FE002002BD18
:101EF0000020024000B587B0384800680121014346
:101F000036480160354800680100C907C90F0091D3
:101F100000983248006802210143304801602F4890
:101F200000680221084000900098002281210901E8
:101F3000A020C00501F0F1FF00222949294801F045
:101F4000ECFF882000020190012002900020039005
:101F50000020049001A9A020C00501F0E7FEFF20A9
:101F60001630019001200290002003900020049080
:101F700001A91C4801F0DAFE222001900020029005
:101F80000020039001A9174801F0D0FE0120019024
:101F9000154802900120039001A9A020C00501F07E
:101FA000C5FE60200190104802900020039001A916
:101FB000A020C00501F0BAFE00220021052001F09A
:101FC00072FE052001F079FE00220021072001F0B9
:101FD0006AFE072001F071FE07B000BD2C10024020
:101FE00005810000000400500000311080B50F484A
:101FF0000068012101430D4801600C4800680100A0
:10200000C907C90F00910098002200210A2001F0A1
:102010004AFE0A2001F051FE002200210B2001F0AF
:1020200042FE0B2001F049FE01BD00BF301002400E
:1020300000B583B060486149086000205F490864CA
:10204000902080035D49486000205C49886003203F
:102050005A49C86301205949086100205749C8609E
:102060000020564908620020544948620020534924
:10207000C862FF20C2305149886200204F4908637E
:1020800004204E49486100204C49486300204B49D8
:10209000886100204949886300204849C861474851
:1020A00004F0BEFA002803D051214548FFF710FF85
:1020B0004448009080204001019069463F4804F068
:1020C00068FC002803D05A213D48FFF701FF07BDF7
:1020D00010B586B0040020683749884211D13A48CB
:1020E000006880218900014337480160102000907A
:1020F00003200190002002906946A020C00501F055
:1021000015FE06B010BDF0B5040064200025EDB248
:102110000A2D39DA2D4E36882700BFB2BE4202D2D0
:102120006425280030E0294E768A2700BFB2BE42DF
:1021300002D30025280027E02700BC46234FEDB23C
:1021400002266E43BE5B6746BFB2B7421AD21F4E2D
:10215000EDB202276F43F61976882700BFB2BE4260
:1021600010D26426EDB26D1C0A277D43751B280032
:10217000C0B20A2805D1A4B2154DAC4201DA05253A
:10218000280001E06D1CC2E7D2B2002A07D10D0081
:102190000600EDB2F6B2B5420BD2080009E0D2B2A9
:1021A000012A06D105000E00EDB2F6B2B54200D20A
:1021B0000800C0B2F0BD0000002401403817002024
:1021C000B0A90008100000103410024000000020E8
:1021D000E80D000080B53D483D490860962080012B
:1021E0003B49486000203A49886000203849C8606F
:1021F0000020374908610C203549486100203449E6
:102200008861002032490862002031494862304824
:1022100003F00CF9002803D04D212E48FFF758FE9B
:1022200001BD80B52C482D490860962080012B49BE
:10223000486000202949886000202849C8600020A3
:10224000264908610C2025494861002023498861FE
:1022500000202249C86100202049086200201F494F
:1022600048621E4803F0E2F8002803D062211948B2
:10227000FFF72EFE01BD80B519481A490860962067
:1022800080011849486000201649886000201549DF
:10229000C8600020134908610C20124948610020E1
:1022A0001049886100200F49C86100200D4908626B
:1022B00000200C4948620B4803F0B8F8002803D00E
:1022C00077210448FFF704FE01BD000000480040EC
:1022D000E815002078A900080038014058160020B1
:1022E00000440040C816002010B586B004002068E5
:1022F000AD4988426ED1AD4800688021C9020143D2
:10230000AA480160C0200001009002200190012035
:10231000029003200390042004906946A44801F031
:1023200005FDA448A44908600520A3494860002091
:10233000A14988600020A049C86080209E490861AA
:1023400000209D49486100209B49886100209A49EE
:10235000C861002098490862974804F041FC0028B1
:1023600003D0A0219D48FFF7B3FD934860669248D3
:102370008462924892490860052091494860102083
:102380008F49886000208E49C86080208C49086190
:1023900000208B49486100208949886100208849D4
:1023A000C861002086490862854804F019FC0028AD
:1023B00003D0B1218948FFF78BFD81482066804812
:1023C0008462002200211D2001F06DFC1D2001F01F
:1023D00074FCE7E02068824988426FD18148006838
:1023E0008021C90101437F480160C020C0000090E6
:1023F0000220019001200290032003900420049009
:102400006946A020C00501F091FC77487749086033
:102410000320764948600020744988600020734991
:10242000C86080207149086100207049486100201F
:102430006E49886100206D49C86100206B490862BF
:102440006A4804F0CDFB002803D0DD216348FFF784
:102450003FFD664860666548846265486549086076
:102460000320644948601020624988600020614967
:10247000C86080205F49086100205E4948610020F3
:102480005C49886100205B49C861002059490862A5
:10249000584804F0A5FB002803D0EE214F48FFF771
:1024A00017FD5448206653488462002200211B20F7
:1024B00001F0F9FB1B2001F000FC73E020688A4961
:1024C00088426FD13948006880218902014337482A
:1024D00001600C2000900220019001200290032056
:1024E0000390042004906946A020C00501F01EFC62
:1024F0007E487F49086004207D49486000207C496F
:10250000886000207A49C8608020794908610020ED
:102510007749486100207649886100207449C86184
:10252000002073490862724804F05AFB002804D066
:102530008D2149002948FFF7CBFC6D4860666C4847
:1025400084626C486C49086004206B494860102024
:102550006949886000206849C86080206649086130
:102560000020654948610020634988610020624974
:10257000C8610020604908625F4804F031FB002810
:1025800004D0FF212C311548FFF7A2FC5A482066E1
:1025900059488462002200211C2001F084FB1C2089
:1025A00001F08BFB06B010BD00480040381002401F
:1025B0000004005030000240E81700201C000240D8
:1025C0002818002011B581B00C004C4B012201A944
:1025D0004B4802F06DFF019816BD000078A9000875
:1025E00000380140341002405800024068180020B2
:1025F00044000240A818002038B504002068414972
:102600000968884221D12068C069C0061DD5102004
:102610003C49096808623B4803F071F83948406E4C
:10262000006840680500C82080002900401A36492B
:102630004880354800780121014333480170C822A1
:10264000920032492F4802F0FEFF206830490968A5
:10265000884221D12068C069C0061DD510202C49B0
:10266000096808622A4803F04AF82948406E006861
:1026700040680500C82080002900401A224948808F
:1026800021480078012101431F480170C8229200AF
:102690001E491F4802F0D7FF20681949096888427F
:1026A00021D12068C069C0061DD5102014490968D1
:1026B0000862134803F023F81148406E0068406830
:1026C0000500C82080002900401A1249488011489E
:1026D0000078012101430F480170C82292000E4981
:1026E000074802F0B0FF31BD004400406C000240DA
:1026F000E81800208000024028190020FFFF000099
:10270000C8160020E81500205C1A0020601A00207E
:1027100058160020180E00201C0E002010B586B0A0
:1027200004008020C00585490860854883494860C9
:10273000002082498860601E8049C86000207F496F
:1027400008617E4803F01AFD002803D040217D482F
:10275000FFF7BEFB80204001029002A9774803F0FA
:1027600038FE002803D046217648FFF7B1FB002051
:102770000090002001906946704804F03FFD002859
:1027800003D04D216F48FFF7A3FB06B010BD00B585
:1027900087B06D486D49086069486C494860002001
:1027A0006A49886095206949C860002067490861C6
:1027B000664803F0E3FC002803D05E216148FFF780
:1027C00087FB80204001029002A9604803F001FECF
:1027D000002803D064215B48FFF77AFB00200090BB
:1027E000002001906946594804F008FD002803D0F4
:1027F0006B215448FFF76CFB07B000BD00B587B0F4
:102800005348544908604E48524948600020514995
:10281000886051484F49C86000204E4908614D48C2
:1028200003F0ACFC002803D07C214648FFF750FBA6
:1028300080204001029002A9464803F0CAFD00280A
:1028400003D082213F48FFF743FB00200090002087
:10285000019069463F4804F0D1FC002803D089214B
:102860003848FFF735FB07B000BD10B504002068FD
:102870008021C90588420ED13848006801210143F2
:1028800036480160002200210F2001F00CFA0F20D1
:1028900001F013FA24E020682B4988420ED1304819
:1028A0000068042101432E48016000220021142009
:1028B00001F0F9F9142001F000FA11E02068244930
:1028C00088420DD126480068202101432448016038
:1028D00000220021162001F0E6F9162001F0EDF9A2
:1028E00010BD10B5040020688021C905884209D1B7
:1028F0001A48006801218843184908600F2001F038
:10290000E3F91AE020681049884209D114480068A8
:102910000421884312490860142001F0D5F90CE025
:1029200020680B49884208D10D480068202188435F
:102930000B490860162001F0C7F910BD6819002086
:102940007F3E00004CAA000800080140A0190020AA
:1029500000140140D8190020B70B000038100240C5
:102960003410024080B51C481C49086000201B49F7
:1029700048607F2019498860FF201849C8600020FE
:1029800016490861002015494861002013498861F3
:1029900000201249C861114804F05EFC002803D0F1
:1029A00043210F48FFF794FA01BD10B504002068D9
:1029B000094988420ED10B4800688021C9020143B1
:1029C0000848016000220021022001F06CF9022079
:1029D00001F073F910BD000000280040381A0020F3
:1029E00018AA00085010024011B581B0002404F06C
:1029F000B1FC040004F0AEFC001B01998842F9D33D
:102A000013BDFEE710B50400002C11D07B4803F085
:102A1000D1FB2000FFF782FE0821784803F00EFC6E
:102A20000120C043754909680861744803F0DEFB62
:102A300010BD80B5714803F0E8FB01BD80B504F01E
:102A400089FC02BD00B50200914202D2531A18005F
:102A500001E08B1A180000BD00B501000020A84A53
:102A600012681000002804D002688A4201D0C068B1
:102A7000F8E700BD00B501000020A14A126810006F
:102A8000002805D002680B689A4201D0C068F7E7B9
:102A900000BD00B500209A4A12681100984A1268D9
:102AA0001000002807D0B14A126803681340002BB9
:102AB00001D0C068F5E70100CA68002A0FD0CA68D3
:102AC000526843689A4208D2A84A1268CB681B68C9
:102AD0001340002B01D1CA681000C968ECE74268B6
:102AE000002A01D10122426000BD00B58449096875
:102AF000002909D04A68904202D24A68121A00E0BE
:102B000000224A60C968F3E700BD00B57C4801684F
:102B1000002901D1002005E0C868002801D0C9685B
:102B2000FAE7080000BD70B504000026744800688C
:102B3000050073480068002801D100202CE070488F
:102B400000680068216888420FD16D480068C0683D
:102B500006006B48006805F073FC69480660684829
:102B600000689D490860012016E0E868002812D03E
:102B7000E8680068216888420BD1E868C0680600F0
:102B8000E86805F05DFCEE60FFF7BFFF9249086062
:102B900001E0ED68E9E7012070BD70B50400200098
:102BA000FFF768FF0500002D01D1002024E0134845
:102BB00003F02BFBFFF742FF88490968FFF742FF4C
:102BC0000600002E00D100263000FFF78EFF200007
:102BD000FFF7A9FF00F0EEF800280CD0FFF759FF2F
:102BE00040687F490860FFF729FF7C4908607C48FE
:102BF0000068FFF707FF012070BD00006819002082
:102C0000F8B504002068002802D06068002801D1CF
:102C1000002072E03A480068002820D1102005F01A
:102C200093FA3749086036480068002801D100202F
:102C300063E00C25324806682A002100300002F0CB
:102C400059F800202E490968C8602D48006862497B
:102C500008602B4800684068614908603DE020003A
:102C6000FFF708FF00900098002836D1102005F0EB
:102C70006BFA060058480068C66057480068C0688C
:102C8000554908601E480068002801D1002034E042
:102C90000C25514807682A002100380002F02AF864
:102CA00000204D490968C860FFF7C8FE4B49096814
:102CB000FFF7C8FE002800D100201149096800294B
:102CC0000BD04A68904202D24A68121A00E00022F1
:102CD0004A60C968CA68002AF1D1FFF7DAFE406885
:102CE0003F490860FFF7AAFE3C490860FFF7A1FED4
:102CF0003B480068FFF786FE0120F2BD000000009F
:102D0000301C002038B53748046835480568002C69
:102D100015D06068002810D06068854202D26068D3
:102D2000401B00E0002060606068002805D10F486B
:102D30000068216801430D480160E468E7E700F09E
:102D400039F800280DD0FFF7A4FE40682449086038
:102D5000FFF774FE2149086021480068FFF752FE22
:102D600003E00020C0431E49086031BD3C1C002028
:102D700070B51D48006800281BD00024E4B2202C48
:102D800017DA19480068E040C00710D50120A040BC
:102D9000FFF762FE0500AE682800FFF7C4FE124888
:102DA00000680121A14088430F490860B047641CB6
:102DB000E4E770BD00B50B4801680020002908D089
:102DC000094A12680B681340002B00D1401CC968E7
:102DD000F4E7C0B200BD0000341C0020381C002005
:102DE00038000020301C00203C1C002070B582B050
:102DF000040000252078C0076BD5B44800680C217A
:102E00000140082909D0B14800680C2101400C2973
:102E10000CD1AE480068C00308D5AD4800688003F7
:102E200057D56068002854D1012078E2606880217D
:102E30004902884207D1A64800688021490201431F
:102E4000A348016026E06068A021C90288420ED133
:102E50009F4800688021C90201439D4801609C4849
:102E600000688021490201439948016012E09848B6
:102E70000068C54901409648016095480068802176
:102E8000490208400090009891480068BF490140FD
:102E90008F480160606800280DD004F05BFA0500DF
:102EA0008B480068800314D404F054FA401B652852
:102EB000F6D3032033E204F04DFA0500844800689D
:102EC000800306D504F046FA401B6528F6D303209C
:102ED00025E22078800759D57C4800680C21014004
:102EE000042909D0794800680C2101400C2916D129
:102EF00076480068C00312D475480068400704D5BE
:102F0000E068012801D0012009E2BA480068BA4906
:102F10000140206900020843B649086036E0E068D5
:102F200000281FD06A48006809218843E1680143EE
:102F30006748016004F00EFA050065480068400724
:102F400006D404F007FA401B0328F6D30320E6E179
:102F5000A8480068A8490140206900020843A54923
:102F6000086013E05A480068012188435849086006
:102F700004F0F0F9050056480068400706D504F053
:102F8000E9F9401B0328F6D30320C8E12078C006E6
:102F900000D49FE04D4800680C210140002957D122
:102FA0004B480068800504D5A069002801D10120A4
:102FB000B5E190480068E02109020140206A8142A1
:102FC00018D2206A00F024FB002801D00120A6E1DD
:102FD00088480068A0490140206A08438549086084
:102FE000844800680002000AE1690906014381483B
:102FF000016017E07F48006897490140206A084354
:103000007C4908607B4800680002000AE169090603
:10301000014378480160206A00F0FAFA002801D0E4
:1030200001207CE10120216A490B491C8840802154
:1030300009024843BA49254A126812091207120FB9
:10304000895CC840B7490860002003F08FFD41E06B
:10305000A069002826D01E4800688021490001434D
:103060001B48016004F076F90500194800688005E6
:1030700006D404F06FF9401B0328F6D303204EE179
:103080005C48006874490140206A08435949086057
:10309000584800680002000AE169090601435548E2
:1030A000016017E00A4800689F4901400848016034
:1030B00004F050F905000648006880050AD504F0C0
:1030C00049F9401B0328F6D3032028E10C100240E5
:1030D00000100240207800072AD56069002813D02C
:1030E00092480068012101439048016004F032F9E0
:1030F00005008E48006880071AD404F02BF9401BA5
:103100000328F6D303200AE1884800680121884398
:103110008649086004F01EF90500844800688007AD
:1031200006D504F017F9401B0328F6D30320F6E078
:103130002078400700D49AE000267D480068C0004F
:1031400008D47B4800688021490501437848016024
:103150000120060077480068C00519D4754800684A
:103160008021490001437348016004F0F3F8050031
:1031700070480068C0050BD404F0ECF8401B6528CB
:10318000F6D30320CBE000BFFFFFFEFFFFFFFBFFF6
:10319000A06880214900884207D1644800688021E6
:1031A000490001436148016034E0A06800280CD167
:1031B0005E4800685C4901405C4801605B4800680B
:1031C0005D4901405948016024E0A068A021C90080
:1031D000884213D1554800688021C90001435348F3
:1031E0000160524800688021490001434F48016056
:1031F00010E000BF04100240FFE0FFFF4B480068F2
:103200004949014049480160484800684A4901402D
:1032100046480160A06800280ED004F09BF8050025
:1032200042480068800519D404F094F8401B4349D3
:103230008842F5D3032072E004F08CF805003B4887
:10324000006880050AD504F085F8401B3B49884298
:10325000F5D3032063E000BFFF1FFFFFF6B2012E8E
:1032600005D133480068A149014031480160606AD6
:10327000002853D09E4800680C2101400C294BD0F7
:10328000606A022834D19D4800689A4901409B48F1
:10329000016004F05FF8050098480068800106D5D9
:1032A00004F058F8401B0328F6D3032037E0904879
:1032B000006891490140A06A0843E16A0143206B1C
:1032C00008438B4908608D48006880214904014308
:1032D0008A48016004F03EF80500884800688001D3
:1032E0001CD404F037F8401B0328F6D3032016E063
:1032F000824800687F4901408048016004F02AF854
:1033000005007E480068800108D504F023F8401BC2
:103310000328F6D3032002E0012000E0002076BD60
:10332000A4AB000834000020FFFEFFFF5010024055
:103330003810024000700040FFFBFFFF89130000BF
:1033400070B505000C0000266D4800680100C90733
:10335000C90FA1420FD26A48006801218843204367
:1033600067490860664800680100C907C90FA142A3
:1033700001D00120B8E02878800707D55C480068B4
:10338000F0218843A9680143594801602878C007A3
:103390006CD56868022805D158480068800319D4A4
:1033A0000120A1E06868032805D154480068800125
:1033B00010D4012098E06868012805D14F480068C2
:1033C000400707D401208FE04C480068800501D4F5
:1033D000012089E046480068032188436968014369
:1033E0004348016003F0B6FF0600686802280DD16B
:1033F0003F4800680C210140082937D003F0AAFF9C
:10340000801B7D498842F3D303206DE06868032860
:103410000DD1374800680C2101400C2926D003F05B
:1034200099FF801B74498842F3D303205CE06868ED
:1034300001280DD12E4800680C210140042915D027
:1034400003F088FF801B6C498842F3D303204BE0D4
:10345000274800680C210140002907D003F07AFFBB
:10346000801B65498842F3D303203DE0244800686F
:103470000100C907C90F8C420FD221480068012101
:10348000884320431E4908601D4800680100C907A1
:10349000C90FA14201D0012026E02878400707D5B6
:1034A0001348006855490140E8680843104908601E
:1034B0002878000708D50E4800685149014028695E
:1034C000C00008430A49086000F01CF84D49084A4A
:1034D000126812091207120F895CC8404A49086035
:1034E000002003F043FB002070BD0000FFFFFFEF52
:1034F0000C100240FFFFFFFEFFFF02FF0010024022
:1035000000200240FCB50020009000240025002689
:103510000020019000273D480068009000980C2191
:103520000140042904D008290CD00C290DD037E023
:103530005A480068C00602D55948070001E05948BA
:1035400007003BE05848070038E058480099890CCC
:103550000907090F405C04000098800D8007800F68
:10356000401C050029480068C00306D54E4860434A
:10357000290000F0D8FA060010E048480068C006AC
:1035800006D547486043290000F0CDFA060005E063
:1035900044486043290000F0C6FA060037000DE0F9
:1035A00043480068400B4007400F019001200199FB
:1035B000491C884080210902484307003800F6BDB5
:1035C00011480068704780B5FFF7FAFF3949324A61
:1035D0001268120A5207520F895CC84002BD80B5BA
:1035E000FFF7EEFF33492C4A1268D20A5207520FF6
:1035F000895CC84002BD000089130000FFF8FFFF8E
:10360000FFC7FFFFA4AB0008340000200C100240ED
:1036100010B50100002200231F480068F024044078
:10362000002C27D125480068C00006D52448006832
:10363000C02464010440220012E020480068802475
:10364000640504431D4804601D480068C0246401EB
:1036500004402200194800681A4C044017480460CE
:10366000C0204001824205D1C0200002814201D128
:1036700001200300104800680124A04318430E4CA9
:1036800020600D4800680400E407E40F9C4201D06C
:10369000012000E0002010BD0C100240001002408C
:1036A00000093D000024F40000127A0048AC000834
:1036B0000410024020AD00080020024038100240F3
:1036C00000700040FFFFFFEFF8B504000025002662
:1036D0002078800600D49DE02078800600276A4884
:1036E0000068C00008D4684800688021490501438B
:1036F000654801600120070064480068C00514D4D3
:10370000624800688021490001436048016003F07D
:1037100021FE05005D480068C00506D403F01AFECE
:10372000401B6528F6D30320ACE059480068C0214F
:10373000890301400E006068C021890301408E4268
:103740000DD06068C02189020140C0208002814202
:1037500005D14F480068800301D5012092E04D4813
:103760000068C021890201400E00002E2DD0606843
:10377000C021890201408E4227D02078800624D5BE
:1037800044480068444901400E00424800688021D6
:10379000090301433F4801603E4800683F4901403A
:1037A0003C4801603B480660F0050ED503F0D2FDB1
:1037B000050038480068800507D403F0CBFD401BA6
:1037C00037498842F5D303205CE06068C021890254
:1037D0000140C020800281420AD12D480068314951
:1037E00001406068C022920302400A4328480260F8
:1037F000284800686168C02292020A4002432548B6
:103800000260FFB2012F05D11F4800682649014020
:103810001D4801602078C00707D5244800680321AF
:103820008843A1680143214801602078800707D5BB
:103830001E4800680C218843E16801431B48016071
:103840002078400707D519480068194901402069C8
:103850000843164908602078000707D51348006818
:103860001449014060690843104908602078000647
:1038700007D50E48006810490140A06908430B496C
:1038800008600020F2BD00003810024000700040C7
:103890000010024050100240FFFFFCFFFFFFF7FF47
:1038A00089130000FFFFCFFFFFFFFFEF4C10024026
:1038B000FFF3FFFFFFCFFFFFFFFFF3FFF1B5002492
:1038C0000027002500260098012853D0022878D030
:1038D000042800D19CE0082800D1C7E0102800D1BE
:1038E000E6E0202800D0EEE079480068040078483F
:1038F0000068C021890201400E00802040028642FB
:1039000005D1A00503D580200002050031E080200C
:103910008002864204D1A00702D56E48050028E047
:10392000C0208002864222D16B48006880031ED5E9
:1039300069480068C021890301400F0038008021D8
:10394000490388420DD080218903884206D0C021D6
:103950008903884208D1614805000AE060480500F3
:1039600007E06048050004E05F48050001E0002032
:103970000500A8E0554800688007800F0600002E6B
:1039800003D1FFF72CFE05001AE0022E06D15248A3
:103990000068400702D55548050011E0012E03D10B
:1039A000FFF7B0FD05000BE0032E07D14848006883
:1039B000800503D580200002050001E000200500FD
:1039C00081E0424800680C2101400E00002E03D126
:1039D000FFF7F9FD05001AE0082E06D13E48006801
:1039E000400702D54148050011E0042E03D1FFF73E
:1039F00089FD05000BE00C2E07D1354800688005D5
:103A000003D580200002050001E0002005005AE0F7
:103A10002E480068C021090101400E00002E03D18C
:103A2000FFF7D1FD050020E080200001864206D18D
:103A300029480068400702D52C48050015E0802081
:103A4000C000864203D1FFF75DFD05000DE0C020F8
:103A50000001864207D11E480068800503D58020FA
:103A60000002050001E0002005002CE01748006876
:103A7000C021890101400E00002E03D1FFF7A3FDF4
:103A8000050014E080208001864206D112480068BB
:103A9000400702D51548050009E080204001864214
:103AA00003D1FFF72FFD050001E0002005000AE02B
:103AB0000F480068400203D5FFF785FD050001E0CF
:103AC00000200500FFE72800F2BD00004C10024076
:103AD00050100240889000000010024020A1070012
:103AE00040420F0080841E0000093D000024F400C5
:103AF00038100240F446002804D4494200F013F87C
:103B0000404260474042002905D45FD000F00BF8E6
:103B1000404249426047494200F005F84942604747
:103B200003460B43E6D40022030A8B420BD203095F
:103B30008B4219D243088B422ED2411A00D2014641
:103B4000524110467047FF2209023FD012068B42B5
:103B500005D3121209028B4201D312120902030982
:103B60008B4219D300E0090AC3098B4201D3CB0170
:103B7000C01A524183098B4201D38B01C01A5241B2
:103B800043098B4201D34B01C01A524103098B42B6
:103B900001D30B01C01A5241C3088B4201D3CB00A1
:103BA000C01A524183088B4201D38B00C01A524184
:103BB00043088B4201D34B00C01A5241884200D3C4
:103BC000401A5241CFD201461046704708B504F062
:103BD00023FF08BD0121C206D20E91404B4A11605D
:103BE00070470121C206D20E9140494A11607047C8
:103BF000F0B540B2002821D5464C40B20207120F62
:103C0000083A950804225543424A40B203071B0F65
:103C1000083B9B0804267343D258FF238607B60F40
:103C200008277E43B3409A438B01DBB28607B60F69
:103C300008277E43B340134363511AE0364A40B22B
:103C4000830804246343D258FF238407A40F082564
:103C50006C43A3409A438B01DBB28407A40F082571
:103C60006C43A34013432C4A40B2840804256C43A0
:103C70001351F0BD10B50400601E80214904884234
:103C800001D301200EE0601E2449086003210020BA
:103C9000C043FFF7ADFF00202149086007202149FC
:103CA0000860002010BD70B504000D00160029004A
:103CB000200040B2FFF79CFF70BD10B5040020004B
:103CC00040B2FFF787FF10BD10B50400200040B2DE
:103CD000FFF787FF10BD10B504002000FFF7CAFFF3
:103CE00010BD00B5042806D10E49096804220A4314
:103CF0000C490A6005E00B49096804229143094A0E
:103D0000116000BD80B500F00FF801BD00E100E0DA
:103D100080E100E01CED00E000E400E014E000E0E1
:103D200018E000E010E000E07047FEE7F0B50200A8
:103D30000023002400250868D840002800D1DDE0D9
:103D4000086801269E4006403400002C00D1D3E0D4
:103D50004868022802D0486812281BD1D8080426D7
:103D600070431018006A05000F201E007607760FBA
:103D700004277E43B040854308691E007607760F0E
:103D800004277E43B04028430500D808042670432A
:103D9000101805624868012808D04868022805D034
:103DA0004868112802D0486812281CD19068050084
:103DB00003201E0002277E43B0408543C8681E00D2
:103DC00002277E43B04028430500956050680500F7
:103DD00001209840854348680600F606F60F9E408D
:103DE0002E43350055601068050003201E00022791
:103DF0007E43B040854308798007800F1E0002276C
:103E00007E43B040284305001560D06805000320BC
:103E10001E0002277E43B040854388681E000227AB
:103E20007E43B04028430500D5604868C00063D594
:103E30004A480068012606434848066048489E08EC
:103E400004277E43805905000F201E00B607B60FD9
:103E500004277E43B0408543A020C005824201D1A3
:103E6000002014E03F48824201D101200FE03E488B
:103E7000824201D102200AE03C48824201D1032063
:103E800005E03B48824201D1052000E006201E00EB
:103E9000B607B60F04277E43B040284305003048DC
:103EA0009E0804277E438551324800680500A543DB
:103EB0004868C00300D525432E4805602E48006899
:103EC0000500A5434868800300D525432A480560BE
:103ED0002A4800680500A5434868C00200D525436C
:103EE00026480560264800680500A543486880020A
:103EF00000D52543224805605B1C1CE7F0BD00B5DA
:103F00000200136989B20B40002B02D00123180074
:103F100001E000231800C0B200BD00B5D2B2002AF3
:103F200002D089B2816101E089B2816200BD42693B
:103F300089B24A404261704710B5040011480068D8
:103F4000A4B22040002806D0A4B20E48046020008D
:103F500080B2FCF7B1FA10BD00000000341002403E
:103F6000080001400004005000080050000C005000
:103F7000001C0050000401400404014008040140FA
:103F80000C0401401404014080B5012201210548C0
:103F9000FFF7C3FF01BD80B5002201210148FFF7F3
:103FA000BCFF01BD000400500EB4F0B5FAB007002C
:103FB0003D00EDB2032D02D0EDB2082D23D1002437
:103FC0000B200400EDB2032D08D1C3A00090C3A3C1
:103FD000C34AC4A1042000F0CFFD0CE0EDB2082DCF
:103FE00008D1BDA00090C0A3BD4ABEA1042000F02E
:103FF000C3FD00E06BE1E4B2220092B2BB49BC48D1
:1040000001F0CCFA63E1EDB2052D12D100241520A8
:104010000400B1A00090B74BB74AB2A1042000F051
:10402000ABFDE4B2220092B2B049B14801F0B6FA59
:104030004DE1EDB2042D12D100240B200400A6A006
:104040000090A9A3AD4AA7A1042000F095FDE4B219
:10405000220092B2A549A64801F0A0FA37E1EDB2DC
:10406000062D10D10024082004009BA3A4A29DA12A
:10407000032000F081FDE4B2220092B29B499C48EB
:1040800001F08CFA23E1EDB2092D12D100240B20AE
:10409000040091A0009094A39A4A92A1042000F0F9
:1040A0006BFDE4B2220092B29049914801F076FA99
:1040B0000DE1EDB20A2D14D100241B20040086A0CE
:1040C00001909148009088A3904A86A1052000F0B5
:1040D00053FDE4B2220092B28449854801F05EFAB1
:1040E000F5E0EDB20B2D12D100240B2004007AA0D4
:1040F00000907DA3864A7BA1042000F03DFDE4B240
:10410000220092B279497A4801F048FADFE0EDB234
:104110000C2D12D100240C2004006FA0009072A37B
:104120007C4A70A1042000F027FDE4B2220092B284
:104130006E496F4801F032FAC9E0EDB20D2D12D18F
:1041400000240C20040064A0009067A3724A65A1BB
:10415000042000F011FDE4B2220092B263496448E9
:1041600001F01CFAB3E0EDB20E2D10D100240C20AA
:10417000040059A3694A5BA1032000F0FDFCE4B2EE
:10418000220092B259495A4801F008FA9FE0EDB274
:104190000F2D10D100240D2004004FA3604A51A11F
:1041A000032000F0E9FCE4B2220092B24F495048EB
:1041B00001F0F4F98BE0EDB2102D14D100241A2097
:1041C000040045A0019057480090574B574A45A11D
:1041D000052000F0D1FCE4B2220092B243494448E9
:1041E00001F0DCF973E0EDB2112D45D17FA8040098
:1041F0002068241D0600002E37D1684621001722B2
:1042000000F078FD18343FA86946172200F072FDCF
:10421000684621000D2200F06DFD10343BA8694670
:104220000D2200F067FD68462100D42200F062FDF7
:10423000D43445A86946D42200F05CFD45A906A8FF
:10424000D42200F06BFD3BA802AA0AC80AC20AC821
:104250000AC21038103A3FA984B06846182200F00C
:104260005DFD0FBC00F064F831E0012E2FD1AD48A8
:10427000007800F061F92AE0EDB2132D14D100248A
:104280000F20040014A00190A748009013A3A74A90
:1042900014A1052000F070FCE4B2220092B2134990
:1042A000134801F07BF912E0EDB2002D0FD100248C
:1042B0000920040008A39E4A0AA1032000F05CFC28
:1042C000E4B2220092B20949094801F067F97AB0D4
:1042D0000498F0BC04B000470D0A00003D30000017
:1042E00080AC000841542B003D3100003C110020FF
:1042F000E815002064AB000888AC000890AC00080A
:104300004E52420098AC000874AB0008A0AC000804
:10431000A8AC0008B0AC0008B8AC0008C0AC0008FD
:1043200018AC000824AC0008D0AC0008C8AC0008E9
:104330000FB4F0B583B008A8808880B2000A08A93D
:1043400089880902014308A881800EA948788A78E3
:104350001206120C10430EAA517893781B061B0C00
:1043600019430EAA80B2000A090201435170090ADA
:1043700091700EA9C8780A791206120C10430EAA81
:10438000D17813791B061B0C19430EAA80B2000AC0
:1043900009020143D170090A11710EA8408980B247
:1043A000000A0EA94989090201430EA8418117207C
:1043B0006946C8700D2069468870152069464870A6
:1043C0006846C0786946897840189C49097B6A46E6
:1043D000527851434018401C69460871684600797C
:1043E00000F02EF906006846F6B269460979022205
:1043F0004A43B1182931C1800024002730002530FC
:104400000400300025300700C048FFB2C2196846DA
:10441000C17889B208A800F017FCE4B26846C078F9
:10442000022148432418B948E4B202196846817849
:1044300089B20EA800F008FCE4B268468078022138
:1044400048432418002069460870002528007B494D
:10445000097BC0B2884225D2AC48E4B20219684652
:10446000417889B212A8EDB215236B43C018801CA5
:1044700000F0EAFBE4B26846407802214843241881
:104480006846417889B212A8EDB215226A438018B5
:10449000801C00F03BFB69460978081869460870E3
:1044A0006D1CD3E76846C078411E89B208A8401C3D
:1044B00000F02CFB694609780818694608706846C0
:1044C000817889B20EA800F021FB694609780818A6
:1044D000694608708D48E4B202190121684600F06F
:1044E000B3FBFA20694648718848E4B20019821C7F
:1044F000012101A8401C00F0A7FBA41C02220DA171
:104500008248E4B20019801C00F028FB6846C2888B
:104510007E49AA4801F042F803B00498F0BC05B007
:1045200000470000731C0020E0AC0008D8AC000875
:10453000E8AC00080D0A0000F1B588B0002500269F
:104540001A20050001A8182102F00EFBFA20694686
:104550000871D22001A94870002001A988700120AB
:1045600001A9C870EDB2280201A9888001A8944968
:104570000988491E89B2090A914A1288521E1202FC
:104580000A434275120A82750F228E4901A8801DC6
:1045900000F0E4FA681EC0B200F052F80700EDB275
:1045A000022068432930060000243800253004002A
:1045B000172101A800F0AAFA694608706846007839
:1045C000801D694608706846007808A90978401877
:1045D000694608704D48E4B20219172101A800F09D
:1045E00033FB2E344948E4B20219012108A800F037
:1045F0002BFBA41C4548E4B202190121684600F0D7
:1046000023FBA41CFA20694648704048E4B2021912
:10461000012100A8401C00F017FBA41C02226AA183
:104620003A48E4B2001900F099FA320092B23749E0
:10463000624800F0B3FF09B0F0BD00001C1B002071
:104640003EB504000025E4B2652C02DB0420050021
:104650000AE0E4B20B2C02DB0320050004E0E4B224
:10466000002C01D0022005005848029058480190C3
:104670005848009058A3594A59A1062000F07CFAE6
:10468000641CE4B2652C23DBE4B220006421FFF754
:1046900047FA3030A9490870E4B220006421FFF7DE
:1046A0003FFA08000A21FFF73BFA3030A4490870AE
:1046B000E4B220006421FFF733FA08000A21FFF773
:1046C0002FFA30319F4801702C209F4908701AE062
:1046D000E4B220006421FFF723FA08000A21FFF763
:1046E0001FFA303095490870E4B220006421FFF7CA
:1046F00017FA08000A21FFF713FA303190480170C9
:104700002C20904908702800C0B23EBD3C1100200A
:10471000F1B582B000240020694648700020694647
:1047200008700026029805002878302807D101205B
:10473000694648706846407801283ED100E03CE078
:104740000020040028780D2804D1B6B28020800013
:10475000864232DA28782C282CD1641CE4B2012C51
:1047600028D0E4B2022C25D0E4B2032C16D10027C5
:10477000681C0700A0A1380000F028FE01900198F5
:1047800000F04CFE694688702C2069468978785480
:10479000019804F042F9694608700BE0E4B2042C79
:1047A00006D16846017889B2280000F01BF804E0C1
:1047B000E4B2052C6D1C761CC4E7F7BDE81500209B
:1047C0004E1C0020A61A00200D0A000000AD0008B3
:1047D000F8AC000884AB00083D300000F0AC0008E5
:1047E00041542B00FEB505000C0000270026A4B2A2
:1047F000052C00DAA0E02100083989B2A81C00F0DD
:1048000097F90700A4B22819001F00F027F9060045
:1048100038003100C0B2C9B288420AD0FFB23900B4
:10482000764800F0F9FBF6B23100754800F0F4FB71
:1048300082E00720694608706846007802224243F9
:1048400092B201A9280000F049F968460079FA28D7
:1048500072D101A84078C02839D16A4800F0DCFB49
:1048600069480078002831D10020684908706848FC
:104870000078012860D10020654908700120624954
:10488000087001206349087001206349487163483A
:1048900000F0C2FB6248FEF780F96248FEF77DF93E
:1048A00061480078012801D100F08BFA00205F49AF
:1048B0000870FFF770FB5E4800F0AEFB87204001F8
:1048C0005C49086001205C49087035E034E001A8CB
:1048D0004078C1281FD1A4B2002C2DD04A480078BE
:1048E000002802D15548FEF758F9554800F094FBCE
:1048F000062168460078022250432818401C00F028
:1049000025F850490870FA2080004549486044481D
:10491000FEF776F910E001A84078C22809D14A488C
:104920004088002808D048484188484800F0ACFC3E
:1049300002E001A84078C328F7BD00006111002003
:10494000621100206311002064110020F0B5FFB057
:1049500082B005000C000222624392B26946280030
:1049600000F0BCF8A4B222006946394800F0F6F81D
:1049700037484078022801DB01203AE0344840788B
:1049800029490870284800782349087030488088F1
:1049900080B2000A2E498988090201430F002C4881
:1049A000408880B2000A2A494988090201430E0062
:1049B000BFB2284887421BDAB6B22648864217DAC9
:1049C00015483900C170090A01711348310041705E
:1049D000090A81701049C8780A791206120C10432E
:1049E00080B2792802DA01201B490870002000E01B
:1049F00001207FB002B0F0BD2C00000030AC0008F8
:104A00003CAC000808AD00086E1C0020721C0020A1
:104A1000701C00206F1C00201C1B002094AB0008A1
:104A2000C81B0020B01B002083010020711C002047
:104A300010AD0008281C00206C1C0020E01B00208A
:104A400018AD0008731C0020180E00202A0E00204C
:104A5000001C0020A1050000741C002000B501000E
:104A600000200A78302A06DB0A783A2A03DA0A7824
:104A7000303A100012E00A78612A06DB0A78672AC9
:104A800003DA0A78573A100008E00A78412A05DB71
:104A90000A78472A02DA0A78373A100000014A7881
:104AA000302A06DB4A783A2A03DA4A78303A801804
:104AB00012E04A78612A06DB4A78672A03DA4A78E4
:104AC000573A801808E04A78412A05DB4A78472A95
:104AD00002DA4A78373A8018C0B200BDF2B5040055
:104AE0001700002500263000390080B289B28842C4
:104AF00009D2B6B2A019FFF7B1FF0099ADB248557F
:104B00006D1CB61CEFE7280080B2F2BD30B5020084
:104B10000020002423001C000D00A4B2ADB2AC4262
:104B200004D29BB2D45C00195B1CF4E7C0B230BD68
:104B3000F8B504000F00002500263800310080B2CF
:104B400089B2884207D3B6B2A019FFF787FF2818A9
:104B50000500B61CF1E72800C0B2F2BD30B5030075
:104B60000C00180015006A1E002D04D02578057071
:104B7000641C401CF6E730BD0EB4FCB507000020F5
:104B800069460871FFB2022F03DA002003F04BFFE1
:104B900034E0002507A804000020050028003900A3
:104BA000C0B2C9B288420ED22068241D06006846F1
:104BB00001790091300000F031FC00990818694635
:104BC00008716D1CEAE707A8040000200500280012
:104BD0003900C0B2C9B2884210D22068241D060034
:104BE000EDB2002D04D13100074803F021FF03E0AE
:104BF0003100054803F024FF6D1CE8E702B004987B
:104C0000F0BC04B0004700003C11002000B50200D9
:104C10000020D2B2002A06D0D2B20A2A03DA11004A
:104C2000303108000EE0D2B20A2A06DBD2B2102AD6
:104C300003DA11003731080004E0D2B2002A01D1B2
:104C400030210800C0B200BDF2B582B007001600E6
:104C500068466946098902225143C1800024002523
:104C60002000C0B26946C98880B288421FD2EDB226
:104C7000785D1021FEF754FF694608716846007997
:104C8000FFF7C4FFE4B2305568460090EDB2785D9E
:104C90001021FEF745FF0098017168460079FFF783
:104CA000B5FFE4B231194870A41C6D1CD8E7F7BDFC
:104CB00070B5030000250878002818D0187800285F
:104CC00013D092B2954210DA00200400185D0E5DF8
:104CD000B04207D108194078002801D1180007E038
:104CE000641CF3E75B1C6D1CE8E7002000E0180083
:104CF00070BDFEE7124207D08B0706D00B78491C27
:104D00000370401C521EF7D87047830706D00B78FB
:104D1000491C0370401C521EF9D1704770B4103A00
:104D200003D378C9103A78C0FBD2530701D318C90E
:104D300018C001D508C908C0D20704D30B88038066
:104D4000891C801C002A01D50B78037070BC704749
:104D500080B5002280210901A020C005FFF7DDF801
:104D600001BD80B5012280210901A020C005FFF707
:104D7000D4F801BD38B5050000249E4840780400F1
:104D8000142229009B48E4B215236343C018C01CB9
:104D9000FFF7E4FE9748E4B21521614340188470A0
:104DA00094484078401C0B2802DB01209149087090
:104DB00090484078401C0A21FEF7B2FE8D484170B1
:104DC00031BD70B5D42400258A4E2A002100300060
:104DD00001F0A2FE70BDF1B58CB0002400260025C4
:104DE00001A8282101F0C0FEC822920082490C9837
:104DF000FFF75EFF04002600002C00D1F6E0002043
:104E000069464870002700206946488000206946AE
:104E100008706846C82189000C9AA21A891A418034
:104E20000020C0B269464988891E88420CDA317870
:104E30002A2903D101206946087005E03900377836
:104E40004F40761C401CECE768460078012810D1E2
:104E5000022200A9491C701CFFF740FE68464078FA
:104E60003900C9B2884201D06448C0E00020050082
:104E700001E06248BBE020782A2800D1B6E0207823
:104E80002C2800D0B0E06D1CEDB2012D0CD10A220F
:104E9000611C01A8401CFFF761FE0622584901A8C9
:104EA000401CFFF71BFE9FE0EDB2022D15D1012241
:104EB000611C01A8FFF752FE68460079412803D122
:104EC00001205049C8708FE068460079562800D00C
:104ED0008AE000204B49C87086E0EDB2032D12D164
:104EE0000922611C01A80B30FFF738FE0422464955
:104EF00001A80B30FFF7F2FD0422444901A810304D
:104F0000FFF7ECFD70E0EDB2042D1BD10122611C16
:104F100001A81430FFF722FE01A8007D4E2806D11B
:104F20003848407B02210143364841735CE001A8C8
:104F3000007D532858D13348407BFD210140314842
:104F4000417351E0EDB2052D14D10A22611C01A874
:104F50001530FFF703FE042201A801001B3101A850
:104F60001A30FFF7FBFD0A22294901A81530FFF787
:104F7000B5FD39E0EDB2062D1BD10122611C01A85F
:104F80001F30FFF7EBFD01A8C07F572806D11D4851
:104F9000407B012101431B48417325E001A8C07FEC
:104FA000452821D11748407BFE2101401548417317
:104FB0001AE0EDB2072D17D0EDB2082D14D0EDB2E6
:104FC000092D0CD10622611C01A82030FFF7C6FD77
:104FD0000622104901A82030FFF780FD04E0EDB261
:104FE0000A2D01D0EDB20B2D641C44E705480DB02D
:104FF000F0BD00001415002060AC0008E41A002089
:10500000DE1A0020D01A0020D91A0020DB1A002056
:10501000D41A0020E11A00200EB400B582B003A912
:1050200000916B4602000121034878440A3003F0E6
:1050300015FD029906B00847D75A00000FB4FEB517
:105040006846008F80B2000A6946098F0902014351
:1050500068460187894804F05BFE11908848007912
:105060000EA948720EA8864909884171090A817102
:10507000834948798A791206120C10430EA9488197
:105080000EA87F494988C171090A017208A8808861
:1050900080B2000A08A989880902014308A8818012
:1050A00017206946887014206946487015206946A3
:1050B000C8700EA9487C8A7C1206120C10436946FF
:1050C00089786A46527889180818801C69460871E0
:1050D0000EA9487C8A7C1206120C10430EAA517C41
:1050E000937C1B061B0C19430EAA80B2000A09020E
:1050F00001435174090A91740EA8C07C002808D19C
:10510000684669460979891E81710420694648719B
:105110000BE00EA8C07C002807D0684669460979D4
:10512000491E817102206946487168468079FFF7FF
:1051300087FA06006846F6B26946097902224A43B0
:10514000B1182931018100240027F6B23000253042
:1051500004003000253007004A48FFB2C2196846F3
:10516000817889B208A8FFF76FFDA4B268468078FD
:105170000221484324184348A4B2021968464178E2
:1051800089B20EA8FFF760FDA4B2684640780221FC
:1051900048432418002069460870002528000EA9FD
:1051A000C97CC0B2884225D23648A4B202196846EA
:1051B000C17889B213A8EDB215236B43C018801CC7
:1051C000FFF742FDA4B26846C07802214843241884
:1051D0006846C17889B213A8EDB215226A438018D7
:1051E000801CFFF793FC6946097808186946087027
:1051F0006D1CD3E768468078411E89B208A8401C20
:10520000FFF784FC69460978081869460870684603
:10521000417889B20EA8FFF779FC69460978081829
:10522000694608701748A4B2021901216846FFF7C1
:105230000BFDFA206946C8711248A4B20019821CFD
:10524000012101A8C01CFFF7FFFCA41C022250A1F1
:105250000C48A4B20019801CFFF780FC6846008946
:1052600069464979421A92B206494A4800F096F9CD
:1052700003B00498F0BC05B000470000F31B002009
:10528000EC1B00203C110020F3B585B00024002762
:1052900000206946087210223F490598FFF71EFC5E
:1052A00010343D4948798A791206120C10433A4A63
:1052B000517993791B061B0C1943374A80B2000AB7
:1052C000090201435171090A91713348807800281D
:1052D00002D1012069460872002630002E49C979A2
:1052E000C0B288424AD2062203A90598A4B2001986
:1052F000FFF7F4FBA41D0025280003A98978C0B29C
:10530000884239D20A2269460598A4B20019FFF7EB
:10531000E5FB0A3400200700684640786946897832
:10532000884211D26846407830280DDA6846807885
:10533000002809D068468078312805DA6846007868
:10534000022801DA01200700FFB2002F01D100205E
:105350001BE005226946114884466846037BF0201D
:1053600043436046C018EDB205236B43C018F038C4
:10537000FFF7F4FB6D1CBFE7761CAEE76846007ACA
:10538000012801D1012000E0AA2007B0F0BD0000F3
:105390000D0A0000C8160020101C002088070020FD
:1053A00010B402E0401C491C521E002A0BD00B789E
:1053B00004789C4205D002D20020C04304E00120C2
:1053C00002E0002CEED1002010BC704770B5050043
:1053D0000E00114804F0A7FC0400002D09D0310094
:1053E000280004F0A1FC2D182878002806D12060A0
:1053F00070BD2568002DF2D1002070BD310028005D
:1054000004F0A4FC28180178002902D000210170C2
:10541000401C2060280070BD7C000020010000E0DE
:10542000491C0A78002AFBD1081A704710B50400FD
:10543000002C01D1012037E0A0690028FFD16920AC
:10544000205C002805D10020682160542000FCF772
:105450004BFF2420692160542068006801218843A3
:1054600021680860606A002802D0200000F03EFC3D
:10547000200000F061FA012801D1012014E0206829
:1054800040680A49014020684160206880682A21FC
:1054900088432168886020680068012101432068F2
:1054A0000160200000F094FC10BD0000FFB7FFFF7A
:1054B000F7B505000C001F0000266920285C202895
:1054C0006AD1002C03D068460089002801D1012050
:1054D00063E0A86880214901884207D12869002833
:1054E00004D12000C00701D5012056E06820285CC7
:1054F000012801D1022050E00120682168540020D9
:10550000E86621206921685401F024FF06006846FE
:105510000089502168526846008952216852522001
:10552000285A002825D05220285A401E522168525D
:105530000097330000228021280000F083FC00281F
:1055400001D0032029E0A8688021490188420BD1BD
:105550002869002808D1019401980088C005C00D71
:1055600029688862A41CDAE7207829688862641CAC
:10557000D5E70097330000224021280000F062FCAC
:10558000002801D0032008E0202069216854002071
:1055900068216854002000E00220FEBD70B50400C0
:1055A0000E0015006920205C202849D1002E02D071
:1055B000ADB2002D01D1012043E0A0688021490156
:1055C000884207D12069002804D13000C00701D5E6
:1055D000012036E06820205C012801D1022030E063
:1055E000012068216054E664502025525220255243
:1055F0000020E0662120692160545A48216EC8626B
:105600005948216E08635948216E48630020216E75
:105610008863ADB22B00206802002832E16C206E56
:1056200001F0A4FB4020216808620020682160543A
:10563000206880688021014320688160002000E0AC
:10564000022070BD000070B504000E0015006A2035
:10565000205C202851D1002E02D0ADB2002D01D106
:1056600001204BE0A06880214901884207D12069D0
:10567000002804D13000C00701D501203EE0682099
:10568000205C012801D1022038E00120682160540B
:105690006665582025520020E06622206A21605469
:1056A0004A48616EC8624A48616E08632F48616E5D
:1056B00048630020616E8863ADB22B00626D206884
:1056C00001002431606E01F051FB0020682160541C
:1056D000206800688021490001432068016020683B
:1056E0008068012101432068816020688068402132
:1056F000014320688160002000E0022070BD10B5E9
:1057000004006920205C212812D1206880680006EE
:105710000ED5206880688021884321688860206ECB
:10572000002802D0206E01F058FB200000F0C2FBE0
:105730006A20205C222812D12068806840060ED59D
:10574000206880684021884321688860606E002856
:1057500002D0606E01F041FB200000F0B5FB00209C
:1057600010BD0000E95E00081F5F0008AF5F000881
:1057700010B50400206800681649014020680160E7
:1057800020688068012188432168886020688068DB
:1057900040060ED5206880684021884321688860D3
:1057A000606E002805D00020616E8863606E01F095
:1057B00014FB00205A2160520F202168086220202B
:1057C0006A216054002010BD000000002D5F000819
:1057D000A15F0008DFFEFFFFF8B504002068C5697F
:1057E000206806682807000F00900098002807D15D
:1057F000A80605D5B00603D5200000F056FC98E0B9
:105800002068806807000098002870D0F80704D44A
:10581000902040003040002869D0E80708D5F00506
:1058200006D5012021680862E06E01210143E1668E
:10583000A80708D5F80706D5022021680862E06E9F
:1058400004210143E166680708D5F80706D504205E
:1058500021680862E06E02210143E16628070AD54B
:10586000B00601D4F80706D5082021680862E06E6A
:1058700008210143E166E06E002837D0A80604D570
:10588000B00602D5200000F010FCE06E000703D443
:1058900020688068400624D5200000F015FB2068B1
:1058A0008068400619D520688068402188432168B7
:1058B0008860606E00280CD01E48616E8863606E40
:1058C00001F0B5FA002811D0606E616E896B8847CF
:1058D0000CE0200004F04CFA08E0200004F048FA44
:1058E00004E0200004F044FA0020E06621E0E80231
:1058F0000FD578020DD58020400321680862202052
:105900006921605420206A216054200004F032FA9A
:105910000FE0280605D5300603D5200000F07BFBFC
:1059200007E0680605D5700603D5200000F0ADFB42
:10593000FFE7F1BDFD5F0008F0B583B0040000256E
:10594000102600206946488000270020694608701C
:105950002068AE498842FFD0A06821690143606990
:105960000843E16901430D0020680068A84901402F
:1059700029432068016020684068A6490140E0682A
:10598000084321684860A069050020689F49884253
:1059900002D02800256A054320688068B849014084
:1059A0002943206881602068B64988421AD1B648E8
:1059B00000688007800F002805D0022806D008D391
:1059C000032809D00BE00120060051E00220060068
:1059D0004EE0042006004BE00820060048E01020BE
:1059E000060045E02068BE4988421BD1A6480068F1
:1059F0000C210140002906D004290AD0082905D02D
:105A00000C2909D00BE00020060031E0022006003E
:105A10002EE0042006002BE00820060028E01020DD
:105A2000060025E020687949884221D1964800681F
:105A3000C0210901014000290CD08020C000814212
:105A40000ED080200001814207D0C0200001814299
:105A500009D00BE0002006000AE00220060007E063
:105A60000420060004E00820060001E010200600E3
:105A70000220FDF723FF019020686449884259D134
:105A800000200500F6B23000002806D0022808D019
:105A9000042810D0082812D015E0FDF794FD050069
:105AA00014E090480068C00602D58F48050001E068
:105AB000C64805000AE0FDF725FD050006E0802048
:105AC0000002050002E0012069460870002D00D1A7
:105AD00002E1606803214843854205D36068802164
