:020000040800F2
:100000008803002001C4000805BF000807BF0008DE
:1000100000000000000000000000000000000000E0
:100020000000000000000000000000000BBF0008FE
:1000300000000000000000000DBF00080FBF000816
:100040001B2E0008234200081BBF00087F53000836
:10005000EFA1000825BF0008CFB400082FBF00089B
:100060000000000033B5000847BF000857BF000874
:1000700037B5000877B900080000000073BF00081A
:10008000000000009BBD0008000000000000000010
:100090007DBF00080000000087BF000827BE0008E1
:1000A00075C5000877C5000879C5000891BF00082C
:1000B000A1BF0008B1BF0008000000000000000060
:1000C00000B5BFF34F8F824882490860BFF34F8F5E
:1000D00000BFFDE780B501F0AFFF00F058F801F078
:1000E000E7FA01F0B9FF02F03FF802F05FF802F022
:1000F0002FF902F064FC02F099FC02F050F902F0D2
:1001000078F902F047FD02F087FD01F0A5FA00F052
:10011000A7F801F043FA00F0F3F802F0E9FD032339
:1001200002220021032002F0FBFD00BFFA20400064
:1001300002F066FE01F06CFE0120C4490870002048
:1001400065490870002065490870002064490870FE
:10015000002064490870002063490870002062494B
:100160004870624802F0ECFA00F02CFE01F0FAFA56
:1001700000F08AFAB54800780028DDD103F004F8D1
:1001800001F084FE01F07CFB00F03CFEF2E700B5DC
:1001900099B0574800685749014080200001084342
:1001A0005349086054480068524901405248016070
:1001B00006200C90802040000E9001200F9010200F
:1001C000109002201590002016908020C0021790F9
:1001D000C020000418900CA803F014F8002804D0E4
:1001E000852189009A4801F025FF0F200790032000
:1001F00008900020099000200A9000200B90002118
:1002000007A803F0A9FA002803D03C49904801F060
:1002100011FF272000900020029000200390002072
:100220000490802040020190684603F0C9FC002839
:1002300003D08849864801F0FDFE03F0CDFBFA218A
:10024000890003F0ECFE03F0C2FF042003F0C5FFB9
:10025000002200210020C04303F0A1FF19B000BD1F
:10026000FA207D490870D1207B49487001207A49E5
:10027000C8707A4800218172090AC17278480078F2
:10028000764908707548B421C9004170090A817027
:100290007248B421C900C170090A017164206F4914
:1002A000C871FF206D4908726E4801210171090A69
:1002B00041716C4801218170090AC17068206A4946
:1002C000087041206849487011206749887070475C
:1002D0000400FA050CED00E0BE1C0020AD1C00205F
:1002E000A91C0020B41C0020641C0020581600200B
:1002F00000700040FFE7FFFF5010024022020000A4
:1003000080B55A48006802F021FB01205849086076
:10031000584857494860584855498860022057490D
:100320000860C82055494860554854498860802075
:10033000400054490860962052494860524851494B
:100340008860082051490860514850494860514828
:100350004E498860102050490860FA2080004E49BC
:1003600048604E484C498860802040014C490860F4
:100370004C484B4948604C484949886040204B49AB
:1003800008604B48494948604A484849886080208D
:1003900049490860FA20C000474948604748464933
:1003A00088608020800046490860FA208000444927
:1003B00048604448424988608020C0004249086043
:1003C00042484149486042483F49886080200001D6
:1003D00040490860C82080003E4948603E483D4989
:1003E00088600420944908602948934948609348EC
:1003F000914988608020800191490860FA20C000FE
:100400008F4948608F488E4988608020C0018E499E
:100410000860C82080008C4948608C488A49886000
:10042000802000028A4908601E488949486089483E
:10043000874988608020400287490860FA20800050
:100440008549486085488449886001BDBB1C0020FF
:1004500084C000082D020000EC1A0020681B002058
:10046000830100204C1C0020541C0020140000209C
:10047000781B0020B80B000099060008081C00201B
:10048000E5070008841B0020ED0700089C1B0020E6
:1004900060EA00006D080008141C00206F080008C6
:1004A000901B0020307500005D0A0008A81B00208A
:1004B00070170000050F0008B41B0020C50A0008D3
:1004C000FC1B0020CD0A00082C1C00201027000077
:1004D000D50A0008C01B00206119000810B50400EF
:1004E000200080B200F04CFB10BD10B50400206865
:1004F0005B490968884201D102F010FE2068594921
:100500000968884200D08EE057484078012800D022
:1005100086E00121A020C00504F014F800287CD159
:1005200051480078401C5049087050480078012814
:1005300015D14F480078012811D14E480078002885
:100540000DD149480078012809D14B48007800288E
:1005500005D10120474908703B4802F05DFD424843
:100560000078052859D141480078012855D14348E1
:1005700002F01FFD00203E49087041480078012824
:1005800004D1404802F015FD01F010FD90480078BC
:1005900001280AD18F4802F00CFD274802F009FD1E
:1005A00000208B49087004F018F800202E490870CC
:1005B00001203149087088480078002803D10120C3
:1005C0008549087016E084480078012812D100207F
:1005D00081490870002081494870804840788049EE
:1005E00008737F487E49097B15225143491C81725B
:1005F000090AC17201207A498871774800787849E0
:10060000087000208E49087000208E490870C820AC
:100610008D4948608C4802F0FFFC00201249487068
:1006200000208A490870206889490968884201D1F8
:1006300000F01CFB10BD0000201C0020F51C000871
:10064000CC1B0020251D0008D81B0020551D0008CC
:10065000E41B0020A11D0008F01B0020FD1D000868
:10066000B4190020EC190020641C0020BD1C0020DF
:100670009E1C0020A11C0020AF1C0020781B002025
:10068000B51C0020901B002080B50121012004F042
:1006900007FD01F023F801BD80B56E488078002881
:1006A00007D16D480078002878D10120AF49087043
:1006B00074E068488078012870D167480078002885
:1006C00030D101206449087064480078002825D1A1
:1006D00001F02CFC13206249C870012060490871A8
:1006E00001206049487105225D495E4804F07CFDA7
:1006F0005B480179491D89B25A4804F04DFD5A49B9
:100700000870594800785749554A12798918487134
:1007100016205449524A1279891888714A4802F0C1
:100720007BFC3BE04C480078012837D14B480078EF
:10073000012833D18E480078012804D18D4802F079
:1007400038FC01F033FC2248007801280AD1214806
:1007500002F02FFC884802F02CFC00201C49087095
:1007600003F03BFF0120854908700120844908708F
:1007700001208449087001201949887116480078C1
:10078000814908700120144908700120144908703B
:1007900064202D4948602C4802F03EFC00202D4981
:1007A00008700020794908702B48007801280ED184
:1007B0000748007800280AD16D480078002806D143
:1007C0006E480078002802D101206849087001BDF8
:1007D000B41C0020A81B0020830100201415002059
:1007E000681B002080B500F041FA01BD80B500F023
:1007F000E9FA97480078022820DA95480078401CEA
:100800009349087015480078012814D09148007861
:10081000002806D10022802149008F4803F0A0FE65
:1008200009E08C480078012805D1002210218A486F
:1008300003F096FEFFE7C74802F0EEFB01BD0000A3
:10084000BC1C0020A51C0020081C00209F1C0020B0
:10085000241A0020641C0020A81C0020BD1C0020BD
:10086000541C00205C1A0020B81C0020704700B502
:10087000BDB08D480078002810D116208B49087033
:100880000121112003F0B2FEB34802F0C5FB0120A4
:100890008749087001208449087065E08248007823
:1008A000012861D18348007801280AD100208149BC
:1008B000087081480078012803D1804802F0ACFB21
:1008C00052E000207E4908737D487D49097B15224E
:1008D0005143491C8172090AC172A0487849097BB9
:1008E0001522514326310171090A417116206F49C1
:1008F00008709B4908A8D42204F042FD704904A85E
:100900000D2204F03DFD954982B06846172204F09F
:1009100037FD0CBC0021112003F068FE91480078DF
:10092000401C9049087090488B4948608D48007879
:10093000062816DB00208B4908705F4800780028E5
:1009400002D1FFF7BDFB0FE05B48007801280BD117
:1009500003F043FE00208549086001200349087028
:1009600002E07D4802F058FB3DB000BDBB1C0020FA
:10097000B51C0020901B0020201C0020B01C002073
:10098000B11C0020B21C0020B31C00209E1C0020C3
:1009900010B5BCB00400200004F063FD7449086089
:1009A00073480068C178734804F07CFE70480068A2
:1009B000C078012849D1704804F074FEA748007837
:1009C000012805D1A64802F0F4FA0020A3490870D6
:1009D0006748006804F014FD162034490870D320DD
:1009E0005E4948705E4840789E49C8749D48C07C06
:1009F000002808D09B489B49C97C15224A43427471
:100A0000120A827404E0974801214174090A817432
:100A100052489449C97C152251432D310171090A6C
:100A200041714F4907A8D42204F0AAFC8D4902A8BD
:100A3000142204F0B9FC494984B06846172204F036
:100A40009FFC0FBC04F040FE00BF3CB010BD000096
:100A5000A61C0020AD1C00200004005080B5824878
:100A60000088401C804908807F480088002817D0F3
:100A700000207A49087000207B490880A04800784F
:100A8000012810D100207549087000F0ABFD01F07D
:100A90008DFA9C4804F006FE01203849087002E0F7
:100AA0006F4802F0B9FA01BDC01C0020840100208B
:100AB000BF1C00204C1C0020BD1C0020CC1B0020B3
:100AC000681B002080B500F01FFD01BD80B500F05F
:100AD000D7FD01BD00B5BDB08B480078002835D1E9
:100AE000C2480088401CC1490880C04800880628C8
:100AF00027DA1A488549097B1522514326310171AD
:100B0000090A4171164908A8D42204F039FC7F492A
:100B100004A80D2204F034FC104982B06846172264
:100B200004F02EFC0CBC0021112003F05FFD162008
:100B3000774908700C48A2494860A14802F06CFA55
:100B400004E00020A9490880FFF7BAFA3DB000BDD3
:100B500000000000841B0020141C0020EC1A002060
:100B600014150020C11C002010270000741C002058
:100B7000681C002080C3000890C30008BB1C002034
:100B800010B50400A4B2012C17D10121A020C0058A
:100B900003F0D8FC002806D1012095490860002008
:100BA0009449087009E00121A020C00503F0CAFCA7
:100BB000012802D102208E490860A4B2402C25D120
:100BC00000208C49087000F0FDF88B4802F0F1F924
:100BD0004021A020C00503F0B5FC002806D100226A
:100BE00080214900BA4803F0BBFC0FE04021A0205F
:100BF000C00503F0A7FC012808D18048007801282F
:100C000004D100221021B24803F0AAFCA4B2202C87
:100C100019D10020774908702021A020C00503F0D9
:100C200091FC002803D10120744908700BE02021B9
:100C3000A020C00503F086FC012804D100F0C2F812
:100C400000206E490870A4B2202C05D1002069490B
:100C5000087001209F49087010BD0000A01C0020F2
:100C6000901B0020441B0020961C002080B5644887
:100C70000078092826DA98480078002822D1974879
:100C80000078022803D095480078002804D110216C
:100C90008F4803F06FFC09E090480078012805D1E7
:100CA00080210902A020C00503F064FC54480078AC
:100CB000401C53490870C8204F4948604E4802F014
:100CC000ABF91CE000204E490870012082490870F1
:100CD0008348007800F01EF88248007801280ED181
:100CE000002080490870444802F063F900207E49E2
:100CF000086001207D49087000203E49087001BD50
:100D0000B51C002010C40008BD1C0020681B00207A
:100D10008401002010B504003848007801284ED026
:100D200000F050F8002072490870724800780028DE
:100D300008D171483049486000F0F3FD6F4802F077
:100D40006BF93CE06E480078012811D100206C4915
:100D50000870002280210902A020C00503F000FCD9
:100D6000FA20C000AD494860AC4802F055F926E0D1
:100D700097480078012822D1002095490870C820A2
:100D800080001D49486055480078012807D100229D
:100D900080210902A020C00503F0E2FB08E04F48D3
:100DA0000078002804D100221021494803F0D8FB24
:100DB000C820800099494860984802F02DF910BD7C
:100DC0002C1C002080B5012280214900404803F0FE
:100DD000C7FB012210213E4803F0C2FB0122802103
:100DE0000902A020C00503F0BBFB01BD921C00203E
:100DF0006C1C0020BB1C0020081C0020A71C00202D
:100E0000A51C002000B5BDB03848007801281BD1D2
:100E10000020364908703148007801280AD18048FE
:100E20000078002810D17F48007800280CD101F00C
:100E300093F809E029480078002805D1794800781E
:100E4000002801D101F072F87748007801283DD1DF
:100E500028480078012839D174480078002835D115
:100E60000120724908701620714908707148724952
:100E7000097B1522514326310171090A41716F49DD
:100E800008A8D42204F07CFA6B4904A80D2204F0CF
:100E900077FA684982B06846172204F071FA0CBCF0
:100EA0000021112003F0A2FB6548007801280AD137
:100EB00000206349087063480078084908700748B3
:100EC00000785D490870604802F0A6F83DB000BDAA
:100ED00000040050B91C0020BC1C0020830100202D
:100EE00082010020AF1C0020741C0020A91C0020DF
:100EF000A61C0020BD1C0020B80B0000841B002095
:100F0000B21C002080B55148007801285FD05048BD
:100F100000780B2855DA4E480078401C4C49087080
:100F200043480078032809D1032003F05FFB4948B8
:100F300049494860484802F06FF848E03C4800786A
:100F4000082809D1082003F051FB42484249486073
:100F5000414802F061F83AE0354800780E2809D19E
:100F60000E2003F043FB3D483B4948603A4802F0FD
:100F700053F82CE02E480078062806D1062003F00E
:100F800035FB354802F048F821E0294800780A2866
:100F900009D10A2003F02AFB31482F4948602E4826
:100FA00002F03AF813E02248007810280FD1102000
:100FB00003F01CFB294828494860274802F02CF818
:100FC00005E000202149087000202149087001BD7A
:100FD000A41C002080B52348007801280FD10020F0
:100FE0001B490870002019490870032003F0FEFA1D
:100FF000194802F011F803200D4908700CE0194857
:101000000078002808D1082003F0F0FA08200849E9
:101010000870114802F000F801BD0000C01B00205C
:10102000B51C0020B41C0020AD1C0020BE1C0020FC
:1010300084010020EC1A0020681B002014150020F9
:10104000B01C0020B31C0020FC1B0020AB1C0020A7
:10105000AC1C002070170000A81B0020B80B00007B
:1010600088130000AA1C002030B5BDB00400BE48A3
:101070000078032803D0BC48007808282AD106222B
:10108000BA49200004F0D2FC002800D02CE2012054
:10109000CE4908700020CE490870B3480078032874
:1010A00009D1B34801F085FF002003F09FFA00202A
:1010B000AD49087018E2AC480078082800D013E267
:1010C000AB4801F076FF042003F090FA0420A64913
:1010D000087009E2A4480078002817D1A5A12000D3
:1010E0000B3004F0B9FC0500280004F0DDFCCE490B
:1010F0000870CD4802782900CC4804F075F8042027
:1011000003F074FA042098490870EDE196480078DD
:10111000042821D10822C649200004F087FC0028B9
:1011200000D0E1E193A12000083004F095FC050017
:10113000280004F0B9FC0F2800D0D5E10F222900C7
:10114000CE4804F051F80922CD49CE4804F06CFD98
:10115000052085490870C7E183480078052816D125
:101160000F22C949C94804F03FF815207E4908708C
:101170000622C749200004F059FC002803D0D348B8
:1011800001F04AFFB0E1D24804F08CFAACE17648B5
:101190000078062810D10D22D449200004F046FC26
:1011A000002800D0A0E107206F49087000F0C0F9C6
:1011B000CF4801F031FF97E16B480078072817D13D
:1011C000CC49200005F006FB0500002D00D18BE185
:1011D00008206549087000207C49087000207C497F
:1011E0000870C54862494860614801F015FF7BE11D
:1011F0005D48007809281AD106225C49200004F0D5
:1012000015FC002800D06FE10A20574908700A2019
:1012100003F0ECF900206D49087000206C4908705B
:10122000B84853494860524801F0F6FE5CE14E4828
:1012300000780A2818D106224C49200004F0F6FB59
:10124000002800D050E1012060490870002060496A
:101250000870474801F0ADFE0B2043490870424832
:10126000007803F0C3F93FE13F4800780B280FD125
:1012700006223E49200004F0D9FB002800D033E1CB
:101280000C20394908703848007803F0AFF92BE199
:10129000354800780C281BD106223449200004F080
:1012A000C5FB002800D01FE10E202F4908702E48F2
:1012B000007803F09BF9002044490870002044495D
:1012C000087099482A494860294801F0A5FE0BE1B9
:1012D000254800780E2823D1012294A120000C304B
:1012E00004F0A4FB002808D0012290A120001830AF
:1012F00004F09CFB002800D0F6E001203349087080
:101300000020334908701A4801F053FE0F20164997
:1013100008700F2003F06AF9154801F07DFEE3E044
:10132000114800780F2827D10125200000F0E6F8A9
:101330000500EDB2012D00D0D6E00D4801F039FED8
:10134000102009490870102003F050F900201F49AF
:10135000087000201E490870734805494860044819
:1013600001F05AFEC0E000BF84010020B4C40008B0
:10137000A81B00200D0A000091480078102843D1D6
:101380000B228E49200004F051FB002800D0ABE076
:1013900015208B49087001200C49087000200C4969
:1013A0000870884801F005FE874801F002FE012020
:1013B0008649087086480078002800D094E0854966
:1013C00008A8D42203F0DCFF834903E0AB1C002013
:1013D000AC1C002004A80D2203F0D2FF7F4982B08C
:1013E0006846172203F0CCFF0CBC0021112003F04B
:1013F000FDF8162072490870FA20C000784948604C
:10140000774801F009FE6FE06D480078162811D189
:1014100000259949200005F0DDF90500002D63D075
:101420001220674908705FE0BA1C0020CC1A002027
:101430001CC400086248007812282BD10922854973
:10144000200004F0F3FA00284ED1132003F0CEF868
:1014500013205B49087089480088401C8749088030
:101460005E488649098889B2090A844A12881202AC
:101470000A434275120A827536E000BFF21A002054
:1014800028C40008E8150020AE1A0020581B0020D0
:1014900034C400084A480078132825D10025834920
:1014A000200005F097F90500002D13D000F040F85A
:1014B00015208649087072B6A01C03F04BFC62B67A
:1014C000824800783E4908700EE000BFCC1B002027
:1014D000BCC400086849200005F07CF90500002D17
:1014E00002D0132003F082F83DB030BDA0C3000845
:1014F000B41B0020C4C400087017000001000120C4
:10150000704700008813000080B5C822920071491E
:10151000714804F0DEFB7048006800681021014348
:101520006D480068016001BDB80B00002C00000090
:1015300080B592480078012801D102202DE00120D9
:101540008E490870644804F059FC634800680068DC
:10155000102188436049096808605F48406E006850
:101560000068012188435C49496E096808600020D1
:101570007B49088000205849496E096848605648F0
:10158000406E00680068012101435348406E0068C6
:101590000160002079490870002002BD80B5C82292
:1015A00092007749774804F094FB76480068006819
:1015B0001021014373480068016001BD40C4000868
:1015C00084010020A81B0020201C0020AD1C00204E
:1015D000BD1C002014150020681B0020EC1A002000
:1015E0002C1C002080B5A3480078012801D10220DE
:1015F00023E001209F490870634804F0FFFB624824
:1016000000680068102188435F49096808605E48E7
:10161000406E00680068012188435B49496E096893
:10162000086000205949088000205749496E096820
:10163000486000208F490870002002BD70470000FC
:1016400000B50168244A1268914201D100BFFFE74A
:1016500000BD00004CC4000880B5FFF7B3FB0122B9
:1016600080210901A020C00502F07AFF002201219B
:10167000B34802F075FF01BDB4C400089A1C0020F5
:1016800080B513480078012801D103F0E0FE7A48C4
:1016900001F08FFC02F0A1FF0020784908600120D2
:1016A000A8490870FEF70CFD01BD000058C40008F1
:1016B00080B505F09FF805F095F8A34800688021F3
:1016C00009020143A048016001BD0000B61C0020D2
:1016D00083010020AC1A0020E815002000B593B06B
:1016E0009A4800688021490501439848016098485C
:1016F000006898490140802000010843944908602F
:10170000684602F08BF9062000900120039010201B
:1017100004908020400002900220099000200A904E
:101720008020C0020B90C02000040C90684601F09D
:1017300069FD002803D08849AE4800F07BFC0120F9
:101740000D9001200E9001210DA802F005F800284F
:1017500003D08249A74800F06DFC13B000BD000023
:101760004016002080B5A44805F0DCF80022A02136
:101770000902A14805F048F801BD000050160020FC
:101780001C0E0020C816002058160020B01600209D
:1017900010B56F49096804220A436D490A609749E8
:1017A0000978012964D135490968491C334A116017
:1017B0000021934A1278002A07D1924B5A789C78DC
:1017C0002406240C224311001BE08D4A1278012AC2
:1017D00017D18D4A1268521C8B4B1A608A4A1268C4
:1017E000B4235B009A4205D30022874B1A60012282
:1017F000864B1A70834BDA781C792406240C22431A
:1018000011001E4A126889B203234B439A4214D333
:1018100000221A4B1A6000227A4B9A717C4A127885
:10182000002A06D17B4A1278002A02D101227A4B83
:101830001A700022434B1A701AE0754A1278002A77
:1018400016D1744A1278002A12D1744A1278002AEA
:101850000ED1734A1288521C714B1A80704A12883A
:101860005A2A05DB00226E4B1A8001226B4B1A703C
:1018700010BD0000C0160020A81B0020741C002012
:1018800080B568480078C00734D56748407801289B
:1018900026D001206449487064480078002808D1A7
:1018A00001206249087001205F498870604801F09A
:1018B000B3FB5E480078012812D15E48007800280A
:1018C0000ED101205B49087008215B4805F0F8F84B
:1018D0000120C043584909680861574805F0C8F815
:1018E00050480068012141404E4801604D48006861
:1018F00080B215E04B480078800710D54B4800783F
:10190000012802D100204849887046480068022119
:101910004140444801604348006880B200E0002034
:1019200002BD80B50821454805F0CAF80120C04332
:10193000424909680861414805F09AF801BD000074
:1019400000040050BB1C00200C1002403810024064
:1019500000700040FFE7FFFF230900002C09000092
:1019600080B537480078002843D1FFF72BFA354877
:10197000007801280CD1002032490870002032493B
:10198000086001202449087000203049087030E0C8
:101990002F480078152821DA2E48007800280ED12B
:1019A0000022802149002C4802F0DAFD2948007805
:1019B000401C28490870294801F02EFB19E000203E
:1019C0002449087013480078002812D11048007884
:1019D00000280ED101201D4908700AE00D4800784A
:1019E000002806D10A480078002802D101201749B2
:1019F000087001BD84C00008841A0020BD1C0020AE
:101A000083010020681B0020701C0020A31C002004
:101A1000B51C0020B41C0020A91C0020800100205F
:101A2000941C00206C1C0020641C00209E1C0020C4
:101A3000781B00209F1C0020EC190020241A002095
:101A4000A71C0020B11C0020741C0020BB1C00201F
:101A500082010020AE1C002000040050C01B0020AA
:101A600038B50500AE484088002800D141E1002487
:101A700008222900B54803F0B7FBA9484088811E19
:101A800089B2280003F088FB04002000AF4989795F
:101A9000C0B2884200D02CE1AC48C078042800D104
:101AA000CBE00E2800D1FAE0202807D021283AD038
:101AB000222862D0232800D18BE01AE12020B549EA
:101AC000C8700320B3490871A148008880B2000A99
:101AD000B14948719E480088AF498871AF48007885
:101AE000AD49C8710522AB49AB4803F07DFBA9485D
:101AF0000179491D89B2A84803F04EFB0400A648AD
:101B0000A4490979401844711620A349A14A1279C1
:101B1000891888719F480279D21D92B29E49D74890
:101B200004F082F8E5E021209A49C8700120994923
:101B3000087101209849487105229649964803F09A
:101B400053FB94480179491D89B2934803F024FB63
:101B5000040091488F4909794018447116208E4934
:101B60008C4A1279891888718A480279D21D92B2FA
:101B70008949C24804F058F8BBE022208549C87062
:101B80000F20844908710F229E499F4803F02CFBC7
:101B900005228049804803F027FB7E480179491DD2
:101BA00089B27D4803F0F8FA04007B487949097945
:101BB0004018447116207849764A1279891888713C
:101BC00074480279D21D92B27349AC4804F02CF8E3
:101BD0008FE023206F49C8700F206E4908710F22D3
:101BE0008A49894803F000FB05226A496A4803F0E4
:101BF000FBFA68480179491D89B2674803F0CCFABD
:101C00000400654863490979401844711620624907
:101C1000604A127989188871032002F0E7FC5D4858
:101C20000279D21D92B25C49944803F0FDFF03F0A3
:101C3000D5FB0120924908705BE004205549C8702B
:101C40000120544908710120534948710522514926
:101C5000514803F0C9FA4F480179491D89B24E48ED
:101C600003F09AFA04004C484A4909794018447133
:101C700016204949474A12798918887145480279DE
:101C8000D21D92B244497D4803F0CEFF03F0AFFB72
:101C900000207B4908707B4801F0BEF929E00E2046
:101CA0003C49C87001203B490871774800783A499F
:101CB000487105223749384803F096FA35480179CA
:101CC000491D89B2344803F067FA040032483149AB
:101CD00009794018447116202F492E4A1279891823
:101CE00088712C480279D21D92B22B49634803F0C7
:101CF0009BFF31BD80B58A480078002802D1FEF7ED
:101D0000DFF90BE086480078012807D102F065FC76
:101D10000020844908600120A849087001BD000026
:101D2000180E002080B502F058FC00207E49087093
:101D3000FFF748F801207A49087016480279D21D49
:101D400092B215494D4803F06FFF01BD441C0020BD
:101D5000901C002080B500207A4908707A4880786D
:101D6000002815D178480078012811D10020764943
:101D70000870764801F01DF90020754908700120AF
:101D800074490870C8208E4948608D4801F044F9B4
:101D900001BD0000541C00205C1A002082010020BC
:101DA00080B58148006803F02BFB00207E49086065
:101DB000002084490870844840688449884202D1E0
:101DC00000208349087000F0F1F882484078824989
:101DD000087381488049097B15225143491C81724F
:101DE000090AC1727D487C49097B1522514326317D
:101DF0000171090A417100F099F801BD012078498B
:101E000008707047F21A0020611A0020581B002049
:101E100080B5744805F04CF9FA21724805F088F94C
:101E2000704805F055FA800514D56E4805F0F0F9B4
:101E30006D4908806C4800886C49414308136A4921
:101E4000088069480188A8204843642102F0E4F82A
:101E5000674908800023674802786748017864482A
:101E6000008800F00EFA65490870644800785A4905
:101E7000C871624800786049087001BDC81600202A
:101E8000B51C0020FC1B0020B91C002080B55C485C
:101E900000780100C907C90F00292BD058480078E5
:101EA000FE2101405648017056480078012809D0AB
:101EB000FFF73EFB72B65448FFF7D6F862B6FFF75D
:101EC00023FB17E04F480078012813D144480078DD
:101ED000012808D10020424908701C224B494C4877
:101EE00003F0A2FE06E0FFF77DFB72B64648FEF760
:101EF0004FFD62B6474800780100C907C90F0029A5
:101F00000CD044480078FE2101404248017041480D
:101F10004088002802D04048FFF7A2FD01BD000024
:101F2000BD1C0020741C0020B41C002080B5FFF7ED
:101F3000EBFA02F04BFB012038490870FFF74AF832
:101F400001BD0000A11C0020641C0020781B0020A3
:101F50009E1C0020A41C0020F8B514200090002630
:101F60002F4C32000099200005F018FA8025AD00B2
:101F70000024254F22002900380005F00FFA03F055
:101F80002DFA01201F4908700020264908800120F1
:101F900025490870254801F03FF8254801F03CF834
:101FA00000200F490870F1BD681C002080B503F0C7
:101FB0001EFA00201349087001BD0000BB1C002060
:101FC000081C0020A21C0020E41B0020307500002B
:101FD000A31C002014150020681B0020EC1A002010
:101FE000B71C002038170020981C0020B80B0000F8
:101FF000901C0020A71C00208101002082010020ED
:10200000A81A0020B51C0020AC1A002018000020DF
:1020100058160020180E00201C0E0020B41C0020B2
:102020001C1B0020961C0020A01C0020F01B002080
:10203000901B002000B5FEE780B5064800684021EF
:10204000014304480160002005F0D2F905F0E4F9ED
:10205000002002BD0020024000B587B03D48006866
:10206000012101433B4801603A4800680100C9076B
:10207000C90F009100983748006802210143354894
:102080000160344800680221084000900098002256
:1020900081210901A020C00502F062FA00222E4928
:1020A0002E4802F05DFA8820000201900120029083
:1020B000002003900020049001A9A020C00502F098
:1020C000B1F8FF201230019001200290002003900F
:1020D0000020049001A9214802F0A4F826200190D4
:1020E000002002900020039001A91C4802F09AF8F9
:1020F000202001901A4802900020039001A917485F
:1021000002F090F8012001901648029001200390FF
:1021100001A9A020C00502F085F8402001901148D7
:1021200002900020039001A9A020C00502F07AF8D7
:1021300000220021052002F032F8052002F039F8D3
:1021400000220021072002F02AF8072002F031F8CF
:1021500007B000BD2C1002400181000000040050B7
:10216000000021100000311080B50F4800680121E7
:1021700001430D4801600C4800680100C907C90F00
:1021800000910098002200210A2002F008F80A209D
:1021900002F00FF8002200210B2002F000F80B20C3
:1021A00002F007F801BD00BF3010024000B583B057
:1021B00060486149086000205F49086490208003FE
:1021C0005D49486000205C49886003205A49C86323
:1021D00001205949086100205749C860002056492C
:1021E000086200205449486200205349C862FF2019
:1021F000C2305149886200204F49086304204E498B
:10220000486100204C49486300204B498861002008
:102210004949886300204849C861474804F042FEA4
:10222000002803D051214548FFF704FF444800909F
:1022300080204001019069463F4804F0ECFF0028EF
:1022400003D05A213D48FFF7F5FE07BD10B586B013
:10225000040020683749884211D13A48006880213B
:10226000890001433748016010200090032001904D
:10227000002002906946A020C00501F0D3FF06B0FF
:1022800010BDF0B5040064200025EDB20A2D39DA46
:102290002D4E36882700BFB2BE4202D264252800E8
:1022A00030E0294E768A2700BFB2BE4202D3002515
:1022B000280027E02700BC46234FEDB202266E43DC
:1022C000BE5B6746BFB2B7421AD21F4EEDB20227BD
:1022D0006F43F61976882700BFB2BE4210D264263B
:1022E000EDB26D1C0A277D43751B2800C0B20A2879
:1022F00005D1A4B2154DAC4201DA0525280001E054
:102300006D1CC2E7D2B2002A07D10D000600EDB263
:10231000F6B2B5420BD2080009E0D2B2012A06D1CA
:1023200005000E00EDB2F6B2B54200D20800C0B210
:10233000F0BD0000002401403817002024C100082F
:10234000100000103410024000000020E80D0000D2
:1023500080B53D483D490860962080013B49486072
:1023600000203A49886000203849C8600020374979
:1023700008610C20354948610020344988610020FB
:1023800032490862002031494862304803F094FB2A
:10239000002803D04D212E48FFF74CFE01BD80B52B
:1023A0002C482D490860962080012B494860002068
:1023B0002949886000202849C86000202649086112
:1023C0000C202549486100202349886100202249CA
:1023D000C86100202049086200201F4948621E4849
:1023E00003F06AFB002803D062211948FFF722FEA0
:1023F00001BD80B519481A49086096208001184926
:10240000486000201649886000201549C8600020F7
:10241000134908610C201249486100201049886165
:1024200000200F49C86100200D49086200200C49B6
:1024300048620B4803F040FB002803D07721044892
:10244000FFF7F8FD01BD000000480040E81500203E
:10245000D4C0000800380140581600200044004055
:10246000C816002010B586B004002068AD49884227
:102470006ED1AD4800688021C9020143AA480160BD
:10248000C020000100900220019001200290032052
:102490000390042004906946A44801F0C3FEA448B8
:1024A000A44908600520A34948600020A14988602C
:1024B0000020A049C86080209E49086100209D49F5
:1024C000486100209B49886100209A49C86100202A
:1024D00098490862974804F0C5FF002803D0A0215E
:1024E000C448FFF7A7FD934860669248846292480B
:1024F0009249086005209149486010208F49886002
:1025000000208E49C86080208C49086100208B49DA
:10251000486100208949886100208849C8610020FD
:1025200086490862854804F09DFF002803D0B12148
:10253000B048FFF77FFD8148206680488462002212
:1025400000211D2001F02BFE1D2001F032FEE7E0EE
:102550002068A94988426FD1A84800688021C90134
:102560000143A6480160C020C000009002200190F5
:102570000120029003200390042004906946A020CB
:10258000C00501F04FFE9E489E49086003209D490A
:10259000486000209B49886000209A49C8608020DC
:1025A0009849086100209749486100209549886151
:1025B00000209449C861002092490862914804F0C3
:1025C00051FF002803D0DD218A48FFF733FD8D48F5
:1025D00060668C4884628C488C49086003208B4973
:1025E000486010208949886000208849C8608020A0
:1025F0008649086100208549486100208349886137
:1026000000208249C8610020804908627F4804F0A8
:1026100029FF002803D0EE217648FFF70BFD7B4809
:1026200020667A488462002200211B2001F0B7FD59
:102630001B2001F0BEFD73E02068B14988426FD1D4
:1026400039480068802189020143374801600C2025
:1026500000900220019001200290032003900420AA
:1026600004906946A020C00501F0DCFDA548A649FC
:1026700008600420A44948600020A3498860002025
:10268000A149C8608020A049086100209E49486196
:1026900000209D49886100209B49C86100209A491B
:1026A0000862994804F0DEFE002804D08D2149001C
:1026B0005048FFF7BFFC9448606693488462934893
:1026C000934908600420924948601020904988602E
:1026D00000208F49C86080208D49086100208C4906
:1026E000486100208A49886100208949C86100202A
:1026F00087490862864804F0B5FE002804D0FF210F
:102700002C313C48FFF796FC814820668048846263
:10271000002200211C2001F042FD1C2001F049FD97
:1027200006B010BD004800403810024000040050C0
:1027300030000240341800201C00024074180020B1
:1027400010B5040020687349884214D172480068AB
:102750007249014070480160C0210901704801F0D0
:102760004AFE606E04F044FF206E04F041FF1D201D
:1027700001F026FD31E020681F49884215D11F482D
:102780000068684901401D480160C021C900A020BF
:10279000C00501F030FE606E04F02AFF206E04F0E8
:1027A00027FF1B2001F00CFD17E0206854498842E8
:1027B00013D1594800685C490140574801600C2119
:1027C000A020C00501F017FE606E04F011FF206E1E
:1027D00004F00EFF1C2001F0F3FC10BD11B581B018
:1027E0000C00524B012201A9514803F0A7F90198AE
:1027F00016BD0000D4C0000800380140341002406B
:1028000058000240B418002044000240F418002090
:1028100038B50400206847490968884221D12068FA
:10282000C069C0061DD510204249096808624148A8
:1028300003F0ABFA3F48406E006840680500C820CE
:1028400080002900401A3C4948803B48007801211B
:10285000014339480170C82292003849354803F0D5
:1028600038FA206836490968884221D12068C06951
:10287000C0061DD51020324909680862304803F0AF
:1028800084FA2F48406E006840680500C820800028
:102890002900401A2849488027480078012101432F
:1028A00025480170C82292002449254803F011FAF6
:1028B00020681F490968884221D12068C069C00684
:1028C0001DD510201A4909680862194803F05DFAFD
:1028D0001748406E006840680500C8208000290045
:1028E000401A1849488017480078012101431548CB
:1028F0000170C822920014490D4803F0EAF931BD75
:10290000004400406C000240341900208000024066
:10291000741900200048004038100240FFFFFBFF00
:1029200000040050FFBFFFFFFFFFFDFFFFFF00009F
:10293000C8160020E8150020A81A0020AC1A0020B4
:1029400058160020180E00201C0E002010B586B06E
:1029500004008020C0058549086085488349486097
:10296000002082498860601E8049C86000207F493D
:1029700008617E4804F044F8002803D040217D48D7
:10298000FFF758FB80204001029002A9774804F02D
:1029900062F9002803D046217648FFF74BFB002060
:1029A0000090002001906946704805F0A9F90028C0
:1029B00003D04D216F48FFF73DFB06B010BD00B5B9
:1029C00087B06D486D49086069486C4948600020CF
:1029D0006A49886095206949C86000206749086194
:1029E000664804F00DF8002803D05E216148FFF727
:1029F00021FB80204001029002A9604804F02BF9DD
:102A0000002803D064215B48FFF714FB00200090EE
:102A1000002001906946594805F072F9002803D05A
:102A20006B215448FFF706FB07B000BD00B587B027
:102A30005348544908604E48524948600020514963
:102A4000886051484F49C86000204E4908614D4890
:102A500003F0D6FF002803D07C214648FFF7EAFAAE
:102A600080204001029002A9464804F0F4F80028B2
:102A700003D082213F48FFF7DDFA002000900020BC
:102A8000019069463F4805F03BF9002803D08921B1
:102A90003848FFF7CFFA07B000BD10B50400206832
:102AA0008021C90588420ED13848006801210143C0
:102AB00036480160002200210F2001F070FB0F203A
:102AC00001F077FB24E020682B4988420ED1304882
:102AD0000068042101432E480160002200211420D7
:102AE00001F05DFB142001F064FB11E02068244933
:102AF00088420DD126480068202101432448016006
:102B000000220021162001F04AFB162001F051FBA3
:102B100010BD10B5040020688021C905884209D184
:102B20001A48006801218843184908600F2001F005
:102B300047FB1AE020681049884209D11448006810
:102B40000421884312490860142001F039FB0CE08D
:102B500020680B49884208D10D480068202188432D
:102B60000B490860162001F02BFB10BDB4190020A2
:102B70007F3E000008C2000800080140EC19002058
:102B800000140140241A0020B70B00003810024046
:102B90003410024080B51C481C49086000201B49C5
:102BA00048607F2019498860FF201849C8600020CC
:102BB00016490861002015494861002013498861C1
:102BC00000201249C861114805F0C8F8002803D058
:102BD00043210F48FFF72EFA01BD10B5040020680D
:102BE000094988420ED10B4800688021C90201437F
:102BF0000848016000220021022001F0D0FA0220E2
:102C000001F0D7FA10BD000000280040841A00200F
:102C1000BCC100085010024080B52F482F49086001
:102C20002F482E49486000202C49886001202B49FC
:102C3000C860002029490861002028494861002017
:102C40002649886100202549C8610020234908627F
:102C5000224805F001F9002803D042212148FFF75E
:102C6000E9F900211D4805F0B5FC002803D04921F1
:102C70001C48FFF7DFF90021184805F0DEFC0028AA
:102C800003D050211748FFF7D5F901BD10B586B024
:102C900004002068104988421CD1C02000901220F6
:102CA00001900120029003200390012004906946C6
:102CB0000D4801F0B7FA0D480068802189030143EF
:102CC0000A48016000220021172001F068FA17204D
:102CD00001F06FFA06B010BD00540040E817002064
:102CE0005B3D300070C10008000400503810024005
:102CF00080B5002069460870684605F0ECFC68461F
:102D00000078332803D000203B49087007E005F025
:102D10009CFE002005F00DFD01203749087001BD23
:102D2000F8B504000F0015001E0033480078002895
:102D300032D005F08AFE2000C0B205F0D8FCFFB208
:102D4000002F03D1012005F0F4FC02E0022005F081
:102D5000F0FC072005F068FD002005F0EDFD0120E6
:102D600005F0C9FD002005F009FE402005F02DFE0C
:102D70002800C0B205F07BFD012005F09AFD00207F
:102D800005F041FE3000C0B205F0A0FE022005F0C3
:102D9000AFFE152005F079FEF1BD3EB504000D0033
:102DA000102002900120019000950123E4B222003E
:102DB00092B23321114805F09FF9002801D000207C
:102DC00000E001203EBD12B583B004001020029047
:102DD0000120019003A800900123E4B2220092B2E6
:102DE0003221064805F0A4F8002801D0002000E0B8
:102DF000012004B010BD00009D1C0020E817002039
:102E000011B581B0002405F085FE040005F082FEB6
:102E1000001B01998842F9D313BDFEE710B50400E9
:102E2000002C11D07B4803F007FE2000FFF78EFD39
:102E30000821784803F044FE0120C0437549096821
:102E40000861744803F014FE10BD80B5714803F0AA
:102E50001EFE01BD80B505F05DFE02BD00B502009D
:102E6000914202D2531A180001E08B1A180000BDDB
:102E700000B501000020A84A12681000002804D004
:102E800002688A4201D0C068F8E700BD00B50100C1
:102E90000020A14A12681000002805D002680B68C3
:102EA0009A4201D0C068F7E700BD00B500209A4AF9
:102EB00012681100984A12681000002807D0B14A21
:102EC000126803681340002B01D0C068F5E70100C9
:102ED000CA68002A0FD0CA68526843689A4208D26A
:102EE000A84A1268CB681B681340002B01D1CA683E
:102EF0001000C968ECE74268002A01D10122426053
:102F000000BD00B584490968002909D04A6890428B
:102F100002D24A68121A00E000224A60C968F3E748
:102F200000BD00B57C480168002901D1002005E002
:102F3000C868002801D0C968FAE7080000BD70B56C
:102F400004000026744800680500734800680028E3
:102F500001D100202CE07048006800682168884298
:102F60000FD16D480068C06806006B48006806F025
:102F700047FE69480660684800689D49086001206E
:102F800016E0E868002812D0E868006821688842E6
:102F90000BD1E868C0680600E86806F031FEEE6014
:102FA000FFF7BFFF9249086001E0ED68E9E7012003
:102FB00070BD70B504002000FFF768FF0500002D0C
:102FC00001D1002024E0134803F061FDFFF742FF28
:102FD00088490968FFF742FF0600002E00D100264D
:102FE0003000FFF78EFF2000FFF7A9FF00F0EEF89A
:102FF00000280CD0FFF759FF40687F490860FFF7B1
:1030000029FF7C4908607C480068FFF707FF012022
:1030100070BD0000B4190020F8B504002068002835
:1030200002D06068002801D1002072E03A480068B0
:10303000002820D1102006F067FC37490860364888
:103040000068002801D1002063E00C2532480668A2
:103050002A002100300002F093F900202E4909686F
:10306000C8602D480068624908602B4800684068C5
:10307000614908603DE02000FFF708FF00900098DC
:10308000002836D1102006F03FFC060058480068A2
:10309000C66057480068C068554908601E48006807
:1030A000002801D1002034E00C25514807682A008F
:1030B0002100380002F064F900204D490968C86019
:1030C000FFF7C8FE4B490968FFF7C8FE002800D18A
:1030D00000201149096800290BD04A68904202D2A9
:1030E0004A68121A00E000224A60C968CA68002AC9
:1030F000F1D1FFF7DAFE40683F490860FFF7AAFE0A
:103100003C490860FFF7A1FE3B480068FFF786FED8
:103110000120F2BD000000007C1C002038B53748BB
:10312000046835480568002C15D06068002810D068
:103130006068854202D26068401B00E00020606049
:103140006068002805D10F480068216801430D48D8
:103150000160E468E7E700F039F800280DD0FFF7D8
:10316000A4FE406824490860FFF774FE2149086006
:1031700021480068FFF752FE03E00020C0431E49CB
:10318000086031BD881C002070B51D48006800280B
:103190001BD00024E4B2202C17DA19480068E04064
:1031A000C00710D50120A040FFF762FE0500AE6801
:1031B0002800FFF7C4FE124800680121A14088439F
:1031C0000F490860B047641CE4E770BD00B50B48C8
:1031D00001680020002908D0094A12680B681340D2
:1031E000002B00D1401CC968F4E7C0B200BD00004C
:1031F000801C0020841C0020380000207C1C002043
:10320000881C002070B582B0040000252078C0071B
:103210006BD5B44800680C210140082909D0B14899
:1032200000680C2101400C290CD1AE480068C00395
:1032300008D5AD480068800357D56068002854D190
:10324000012078E2606880214902884207D1A648BF
:103250000068802149020143A348016026E06068BC
:10326000A021C90288420ED19F4800688021C9026E
:1032700001439D4801609C48006880214902014348
:103280009948016012E098480068C5490140964895
:10329000016095480068802149020840009000982C
:1032A00091480068BF4901408F480160606800286C
:1032B0000DD005F02FFC05008B480068800314D466
:1032C00005F028FC401B6528F6D3032033E205F007
:1032D00021FC050084480068800306D505F01AFC2F
:1032E000401B6528F6D3032025E22078800759D5B6
:1032F0007C4800680C210140042909D07948006805
:103300000C2101400C2916D176480068C00312D464
:1033100075480068400704D5E068012801D0012005
:1033200009E2BA480068BA4901402069000208432E
:10333000B649086036E0E06800281FD06A48006897
:1033400009218843E16801436748016005F0E2FB19
:10335000050065480068400706D405F0DBFB401B0C
:103360000328F6D30320E6E1A8480068A8490140F5
:10337000206900020843A549086013E05A48006824
:10338000012188435849086005F0C4FB05005648F0
:103390000068400706D505F0BDFB401B0328F6D3A7
:1033A0000320C8E12078C00600D49FE04D480068A3
:1033B0000C210140002957D14B480068800504D5F5
:1033C000A069002801D10120B5E190480068E02102
:1033D00009020140206A814218D2206A00F092FB63
:1033E000002801D00120A6E188480068A0490140DA
:1033F000206A084385490860844800680002000A82
:10340000E169090601438148016017E07F480068CF
:1034100097490140206A08437C4908607B4800685E
:103420000002000AE1690906014378480160206A48
:1034300000F068FB002801D001207CE10120216A16
:10344000490B491C8840802109024843BA49254A52
:10345000126812091207120F895CC840B749086048
:10346000002003F0C5FF41E0A069002826D01E48D7
:1034700000688021490001431B48016005F04AFBB8
:10348000050019480068800506D405F043FB401B81
:103490000328F6D303204EE15C48006874490140DC
:1034A000206A084359490860584800680002000A29
:1034B000E169090601435548016017E00A480068C0
:1034C0009F4901400848016005F024FB05000648BB
:1034D000006880050AD505F01DFB401B0328F6D3C4
:1034E000032028E10C100240001002402078000761
:1034F0002AD56069002813D0924800680121014351
:103500009048016005F006FB05008E4800688007C2
:103510001AD405F0FFFA401B0328F6D303200AE172
:1035200088480068012188438649086005F0F2FA5E
:10353000050084480068800706D505F0EBFA401BBB
:103540000328F6D30320F6E02078400700D49AE061
:1035500000267D480068C00008D47B4800688021B0
:10356000490501437848016001200600774800685A
:10357000C00519D47548006880214900014373488B
:10358000016005F0C7FA050070480068C0050BD45B
:1035900005F0C0FA401B6528F6D30320CBE000BF3E
:1035A000FFFFFEFFFFFFFBFFA0688021490088426C
:1035B00007D16448006880214900014361480160E7
:1035C00034E0A06800280CD15E4800685C490140E6
:1035D0005C4801605B4800685D49014059480160F2
:1035E00024E0A068A021C900884213D15548006892
:1035F0008021C9000143534801605248006880217E
:10360000490001434F48016010E000BF0410024030
:10361000FFE0FFFF4B48006849490140494801600D
:10362000484800684A49014046480160A0680028AF
:103630000ED005F06FFA050042480068800519D4E5
:1036400005F068FA401B43498842F5D3032072E035
:1036500005F060FA05003B48006880050AD505F0D2
:1036600059FA401B3B498842F5D3032063E000BF71
:10367000FF1FFFFFF6B2012E05D133480068A149B4
:10368000014031480160606A002853D09E480068BC
:103690000C2101400C294BD0606A022834D19D488E
:1036A00000689A4901409B48016005F033FA050023
:1036B00098480068800106D505F02CFA401B0328C5
:1036C000F6D3032037E09048006891490140A06A92
:1036D0000843E16A0143206B08438B4908608D4829
:1036E00000688021490401438A48016005F012FA0C
:1036F00005008848006880011CD405F00BFA401BC7
:103700000328F6D3032016E0824800687F49014071
:103710008048016005F0FEF905007E4800688001E0
:1037200008D505F0F7F9401B0328F6D3032002E083
:10373000012000E0002076BDF0C300083400002026
:10374000FFFEFFFF501002403810024000700040A2
:10375000FFFBFFFF8913000070B505000C00002679
:103760006D4800680100C907C90FA1420FD26A481D
:103770000068012188432043674908606648006863
:103780000100C907C90FA14201D00120B8E0287883
:10379000800707D55C480068F0218843A968014389
:1037A000594801602878C0076CD56868022805D19F
:1037B00058480068800319D40120A1E068680328F4
:1037C00005D154480068800110D4012098E0686851
:1037D000012805D14F480068400707D401208FE039
:1037E0004C480068800501D4012089E04648006803
:1037F00003218843696801434348016005F08AF961
:103800000600686802280DD13F4800680C2101407D
:10381000082937D005F07EF9801B7D498842F3D313
:1038200003206DE0686803280DD1374800680C213B
:1038300001400C2926D005F06DF9801B744988429F
:10384000F3D303205CE0686801280DD12E4800689E
:103850000C210140042915D005F05CF9801B6C494E
:103860008842F3D303204BE0274800680C21014035
:10387000002907D005F04EF9801B65498842F3D333
:1038800003203DE0244800680100C907C90F8C42AD
:103890000FD2214800680121884320431E49086057
:1038A0001D4800680100C907C90FA14201D00120CD
:1038B00026E02878400707D513480068554901409D
:1038C000E8680843104908602878000708D50E48C2
:1038D0000068514901402869C00008430A4908604E
:1038E00000F01CF88449084A126812091207120FE6
:1038F000895CC84081490860002003F079FD002000
:1039000070BD0000FFFFFFEF0C100240FFFFFFFE45
:10391000FFFF02FF0010024000200240FCB5002023
:103920000090002400250026002001900027744804
:103930000068009000980C210140042904D0082957
:103940000CD00C290DD037E091480068C00602D594
:103950009048070001E0904807003BE08F480700CF
:1039600038E08F480099890C0907090F405C040072
:103970000098800D8007800F401C0500604800689B
:10398000C00306D585486043290000F048FB0600C7
:1039900010E07F480068C00606D57E4860432900D5
:1039A00000F03DFB060005E07B486043290000F085
:1039B00036FB060037000DE07A480068400B4007F0
:1039C000400F019001200199491C88408021090283
:1039D000484307003800F6BD48480068704780B586
:1039E000FFF7FAFF7049694A1268120A5207520F2C
:1039F000895CC84002BD80B5FFF7EEFF6A49634AA3
:103A00001268D20A5207520F895CC84002BD0000FA
:103A100089130000FFF8FFFFFFC7FFFF00B51F215C
:103A200001605B490968490303D5A021C9024160CF
:103A300009E057490968C90303D58021490241605B
:103A400001E00021416052490968C90702D50121FE
:103A5000C16001E00021C16052490968090AC90634
:103A6000C90E01614A490968C90502D50121816170
:103A700001E0002181614B490968090EC161494992
:103A80000968E02212020A400262484909684905B1
:103A900003D5A021C900816009E044490968C9052E
:103AA00003D580214900816001E0002181603F4908
:103AB0000968C90702D50121416101E00021416186
:103AC00033490968C90102D50221416201E001219F
:103AD00041622E49096880225202114081622B49BD
:103AE0000968F02292030A40C26228490968C0228C
:103AF00012040A40026300BDF0C300083400002035
:103B00000C10024010B50100002200231F4800687D
:103B1000F0240440002C27D126480068C00006D5B8
:103B200025480068C02464010440220012E02148B6
:103B300000688024640504431E4804601E48006831
:103B4000C0246401044022001A4800681B4C044051
:103B500018480460C0204001824205D1C020000204
:103B6000814201D101200300114800680124A043D3
:103B700018430F4C20600E4800680400E407E40F6F
:103B80009C4201D0012000E0002010BD0C1002403A
:103B90000010024000093D000024F40000127A00E9
:103BA00094C40008041002406CC500085010024084
:103BB000002002403810024000700040FFFFFFEF7D
:103BC000F8B50400002500262078800600D49DE08A
:103BD0002078800600276A480068C00008D468483A
:103BE0000068802149050143654801600120070004
:103BF00064480068C00514D4624800688021490008
:103C000001436048016004F085FF05005D480068DD
:103C1000C00506D404F07EFF401B6528F6D30320C0
:103C2000ACE059480068C021890301400E0060687B
:103C3000C021890301408E420DD06068C0218902F5
:103C40000140C0208002814205D14F4800688003B6
:103C500001D5012092E04D480068C0218902014051
:103C60000E00002E2DD06068C021890201408E42D6
:103C700027D02078800624D5444800684449014074
:103C80000E00424800688021090301433F4801605B
:103C90003E4800683F4901403C4801603B4806609F
:103CA000F0050ED504F036FF0500384800688005A1
:103CB00007D404F02FFF401B37498842F5D3032077
:103CC0005CE06068C02189020140C020800281421E
:103CD0000AD12D480068314901406068C022920332
:103CE00002400A4328480260284800686168C022F0
:103CF00092020A40024325480260FFB2012F05D11B
:103D00001F480068264901401D4801602078C0070F
:103D100007D52448006803218843A168014321484E
:103D200001602078800707D51E4800680C21884371
:103D3000E16801431B4801602078400707D5194816
:103D40000068194901402069084316490860207835
:103D5000000707D51348006814490140606908430B
:103D6000104908602078000607D50E480068104901
:103D70000140A06908430B4908600020F2BD000023
:103D80003810024000700040001002405010024005
:103D9000FFFFFCFFFFFFF7FF89130000FFFFCFFFCE
:103DA000FFFFFFEF4C100240FFF3FFFFFFCFFFFFCD
:103DB000FFFFF3FFF1B5002400270025002600983F
:103DC000012853D0022878D0042800D19CE008288C
:103DD00000D1C7E0102800D1E6E0202800D0EEE0B6
:103DE00079480068040078480068C02189020140D1
:103DF0000E0080204002864205D1A00503D5802018
:103E00000002050031E080208002864204D1A00734
:103E100002D56E48050028E0C0208002864222D1EB
:103E20006B48006880031ED569480068C02189037B
:103E300001400F0038008021490388420DD08021C5
:103E40008903884206D0C0218903884208D161488D
:103E500005000AE06048050007E06048050004E04E
:103E60005F48050001E000200500A8E05548006813
:103E70008007800F0600002E03D1FFF7BCFD050070
:103E80001AE0022E06D152480068400702D5554874
:103E9000050011E0012E03D1FFF740FD05000BE006
:103EA000032E07D148480068800503D58020000212
:103EB000050001E00020050081E0424800680C2177
:103EC00001400E00002E03D1FFF789FD05001AE026
:103ED000082E06D13E480068400702D5414805003B
:103EE00011E0042E03D1FFF719FD05000BE00C2EA5
:103EF00007D135480068800503D580200002050001
:103F000001E0002005005AE02E480068C0210901A8
:103F100001400E00002E03D1FFF761FD050020E0F7
:103F200080200001864206D129480068400702D55A
:103F30002C48050015E08020C000864203D1FFF721
:103F4000EDFC05000DE0C0200001864207D11E48AF
:103F50000068800503D580200002050001E00020F4
:103F600005002CE017480068C021890101400E00BF
:103F7000002E03D1FFF733FD050014E080208001FF
:103F8000864206D112480068400702D51548050050
:103F900009E080204001864203D1FFF7BFFC050005
:103FA00001E0002005000AE00F480068400203D548
:103FB000FFF715FD050001E000200500FFE72800E0
:103FC000F2BD00004C1002405010024088900000EA
:103FD0000010024020A1070040420F0080841E0014
:103FE00000093D000024F40038100240F446002887
:103FF00004D4494200F013F840426047404200298F
:1040000005D45FD000F00BF8404249426047494276
:1040100000F005F84942604703460B43E6D400220E
:10402000030A8B420BD203098B4219D243088B42FD
:104030002ED2411A00D20146524110467047FF224B
:1040400009023FD012068B4205D3121209028B429D
:1040500001D31212090203098B4219D300E0090AA5
:10406000C3098B4201D3CB01C01A524183098B4251
:1040700001D38B01C01A524143098B4201D34B013A
:10408000C01A524103098B4201D30B01C01A52419D
:10409000C3088B4201D3CB00C01A524183088B4224
:1040A00001D38B00C01A524143088B4201D34B000D
:1040B000C01A5241884200D3401A5241CFD2014621
:1040C0001046704708B506F087F808BD0121C20602
:1040D000D20E91404B4A116070470121C206D20EA8
:1040E0009140494A11607047F0B540B2002821D58F
:1040F000464C40B20207120F083A95080422554375
:10410000424A40B203071B0F083B9B080426734337
:10411000D258FF238607B60F08277E43B3409A4341
:104120008B01DBB28607B60F08277E43B3401343EB
:1041300063511AE0364A40B2830804246343D258DC
:10414000FF238407A40F08256C43A3409A438B01E7
:10415000DBB28407A40F08256C43A34013432C4A09
:1041600040B2840804256C431351F0BD10B504001F
:10417000601E80214904884201D301200EE0601EA8
:104180002449086003210020C043FFF7ADFF002051
:1041900021490860072021490860002010BD70B542
:1041A00004000D0016002900200040B2FFF79CFF1C
:1041B00070BD10B50400200040B2FFF787FF10BDAE
:1041C00010B50400200040B2FFF787FF10BD10B506
:1041D00004002000FFF7CAFF10BD00B5042806D177
:1041E0000E49096804220A430C490A6005E00B499C
:1041F000096804229143094A116000BD80B500F0AE
:104200000FF801BD00E100E080E100E01CED00E0FE
:1042100000E400E014E000E018E000E010E000E05E
:104220007047FEE7F0B5020000230024002508686F
:10423000D840002800D1DDE0086801269E400640F5
:104240003400002C00D1D3E04868022802D048682E
:1042500012281BD1D808042670431018006A0500E4
:104260000F201E007607760F04277E43B04085435B
:1042700008691E007607760F04277E43B040284366
:104280000500D80804267043101805624868012804
:1042900008D04868022805D04868112802D048682C
:1042A00012281CD19068050003201E0002277E43BF
:1042B000B0408543C8681E0002277E43B0402843B3
:1042C00005009560506805000120984085434868C6
:1042D0000600F606F60F9E402E4335005560106826
:1042E000050003201E0002277E43B0408543087965
:1042F0008007800F1E0002277E43B0402843050040
:104300001560D068050003201E0002277E43B040E0
:10431000854388681E0002277E43B040284305007D
:10432000D5604868C00063D59D48006801260643F3
:104330009B4806609B489E0804277E4380590500E1
:104340000F201E00B607B60F04277E43B0408543FA
:10435000A020C005824201D1002014E09248824290
:1043600001D101200FE09148824201D102200AE0F0
:104370008F48824201D1032005E08E48824201D15C
:10438000052000E006201E00B607B60F04277E4376
:10439000B0402843050083489E0804277E4385518A
:1043A000854800680500A5434868C00300D525433B
:1043B00081480560814800680500A543486880037E
:1043C00000D525437D4805607D4800680500A5436C
:1043D0004868C00200D525437948056079480068DF
:1043E0000500A5434868800200D52543754805604F
:1043F0005B1C1CE7F0BDF8B50022002300240D0073
:10440000D540002D00D19CE0012595400D402B00AA
:10441000002B00D193E006680327BC461500022755
:104420007D436746AF4037430760D5080426754390
:1044300045190095D5080426754345192F6A0F259F
:10444000AC4615006E07760F04256E436546B540F1
:10445000AF43009D2F6286680327BC4615000227E4
:104460007D436746AF40BE4386604568012696405F
:10447000B5434560C6680327BC46150002277D4347
:104480006746AF40BE43C660464D960804277E434C
:10449000AD592C000F251600B607B60F04277E4332
:1044A000B54025402C00A025ED05A84201D10025EE
:1044B00014E03D4DA84201D101250FE03B4DA8423B
:1044C00001D102250AE03A4DA84201D1032505E0B9
:1044D000384DA84201D1052500E006251600B60793
:1044E000B60F04277E43B540AC4228D10F251600F5
:1044F000B607B60F04277E43B5402C00294D960819
:1045000004277E43AE59A643264FBC469508042790
:104510007D4367467E51284D2D689D43264E35606C
:10452000264D2D689D43254E3560254D2D689D43B4
:10453000234E3560234D2D689D43224E3560521C1D
:104540005DE7F1BD00B50200136989B20B40002B95
:1045500002D00123180001E000231800C0B200BD02
:1045600000B5D2B2002A02D089B2816101E089B2DD
:10457000816200BD426989B24A404261704710B50C
:10458000040011480068A4B22040002806D0A4B25C
:104590000D480460200080B2FBF7A0FF10BD0000B2
:1045A0003410024008000140000400500008005090
:1045B000000C0050001C00500004014004040140A5
:1045C000080401400C0401401404014080B501229C
:1045D00001210548FFF7C4FF01BD80B5002201217C
:1045E0000148FFF7BDFF01BD000400500EB4F0B557
:1045F000FAB007003D00EDB2032D02D0EDB2082D58
:1046000023D100240B200400EDB2032D08D1C3A058
:104610000090C3A3C34AC4A1042000F0F3FD0CE042
:10462000EDB2082D08D1BDA00090C0A3BD4ABEA127
:10463000042000F0E7FD00E06BE1E4B2220092B25A
:10464000BB49BC4801F0F0FA63E1EDB2052D12D18F
:10465000002415200400B1A00090B74BB74AB2A1C6
:10466000042000F0CFFDE4B2220092B2B049B1487C
:1046700001F0DAFA4DE1EDB2042D12D100240B2045
:104680000400A6A00090A9A3AD4AA7A1042000F0B1
:10469000B9FDE4B2220092B2A549A64801F0C4FADD
:1046A00037E1EDB2062D10D10024082004009BA3B1
:1046B000A4A29DA1032000F0A5FDE4B2220092B2C5
:1046C0009B499C4801F0B0FA23E1EDB2092D12D1CB
:1046D00000240B20040091A0009094A39A4A92A178
:1046E000042000F08FFDE4B2220092B2904991487C
:1046F00001F09AFA0DE1EDB20A2D14D100241B202D
:10470000040086A001909148009088A3904A86A159
:10471000052000F077FDE4B2220092B2844985487A
:1047200001F082FAF5E0EDB20B2D12D100240B203E
:1047300004007AA000907DA3864A7BA1042000F0AB
:1047400061FDE4B2220092B279497A4801F06CFA34
:10475000DFE0EDB20C2D12D100240C2004006FA07C
:10476000009072A37C4A70A1042000F04BFDE4B2DB
:10477000220092B26E496F4801F056FAC9E0EDB2DC
:104780000D2D12D100240C20040064A0009067A31A
:10479000724A65A1042000F035FDE4B2220092B215
:1047A0006349644801F040FAB3E0EDB20E2D10D138
:1047B00000240C20040059A3694A5BA1032000F0E7
:1047C00021FDE4B2220092B259495A4801F02CFA74
:1047D0009FE0EDB20F2D10D100240D2004004FA357
:1047E000604A51A1032000F00DFDE4B2220092B214
:1047F0004F49504801F018FA8BE0EDB2102D14D15A
:1048000000241A20040045A0019057480090574BFF
:10481000574A45A1052000F0F5FCE4B2220092B20F
:104820004349444801F000FA73E0EDB2112D45D13F
:104830007FA804002068241D0600002E37D168469A
:104840002100172200F09CFD18343FA8694617226A
:1048500000F096FD684621000D2200F091FD103415
:104860003BA869460D2200F08BFD68462100D4224A
:1048700000F086FDD43445A86946D42200F080FDBE
:1048800045A906A8D42200F08FFD3BA802AA0AC8B9
:104890000AC20AC80AC21038103A3FA984B0684652
:1048A000182200F081FD0FBC00F064F831E0012E09
:1048B0002FD1AD48007800F061F92AE0EDB2132D58
:1048C00014D100240F20040014A00190A7480090E8
:1048D00013A3A74A14A1052000F094FCE4B222001F
:1048E00092B21349134801F09FF912E0EDB2002D86
:1048F0000FD100240920040008A39E4A0AA1032026
:1049000000F080FCE4B2220092B20949094801F0AB
:104910008BF97AB00498F0BC04B000470D0A00008F
:104920003D300000CCC4000841542B003D31000054
:104930003C110020E8150020B0C30008D4C40008D2
:10494000DCC400084E524200E4C40008C0C30008A2
:10495000ECC40008F4C40008FCC4000804C5000846
:104960000CC5000864C4000870C400081CC5000819
:1049700014C500080FB4F0B583B008A8808880B2D1
:10498000000A08A989880902014308A881800EA9A4
:1049900048788A781206120C10430EAA5178937840
:1049A0001B061B0C19430EAA80B2000A0902014320
:1049B0005170090A91700EA9C8780A791206120C72
:1049C00010430EAAD17813791B061B0C19430EAAAB
:1049D00080B2000A09020143D170090A11710EA8C0
:1049E000408980B2000A0EA94989090201430EA834
:1049F000418117206946C8700D20694688701520CE
:104A0000694648706846C0786946897840189C496C
:104A1000097B6A46527851434018401C6946087128
:104A20006846007900F02EF906006846F6B269463D
:104A3000097902224A43B1182931C1800024002794
:104A4000300025300400300025300700C048FFB298
:104A5000C2196846C17889B208A800F03BFCE4B2EC
:104A60006846C078022148432418B948E4B20219C4
:104A70006846817889B20EA800F02CFCE4B2684642
:104A800080780221484324180020694608700025D8
:104A900028007B49097BC0B2884225D2AC48E4B2E9
:104AA00002196846417889B212A8EDB215236B430A
:104AB000C018801C00F00EFCE4B268464078022169
:104AC000484324186846417889B212A8EDB21522ED
:104AD0006A438018801C00F05FFB6946097808185B
:104AE000694608706D1CD3E76846C078411E89B2DC
:104AF00008A8401C00F050FB694609780818694670
:104B000008706846817889B20EA800F045FB6946B6
:104B100009780818694608708D48E4B20219012125
:104B2000684600F0D7FBFA20694648718848E4B22D
:104B30000019821C012101A8401C00F0CBFBA41C21
:104B400002220DA18248E4B20019801C00F04CFB47
:104B50006846C2887E49AA4801F066F803B0049806
:104B6000F0BC05B000470000C21C00202CC50008A6
:104B700024C5000834C500080D0A0000F1B588B04E
:104B8000002500261A20050001A8182102F02EFC9D
:104B9000FA2069460871D22001A94870002001A9B5
:104BA0008870012001A9C870EDB2280201A988808F
:104BB00001A894490988491E89B2090A914A1288B4
:104BC000521E12020A434275120A82750F228E4942
:104BD00001A8801D00F008FB681EC0B200F052F86A
:104BE0000700EDB202206843293006000024380097
:104BF00025300400172101A800F0CEFA694608709C
:104C000068460078801D694608706846007808A9E3
:104C100009784018694608704D48E4B20219172116
:104C200001A800F057FB2E344948E4B202190121D3
:104C300008A800F04FFBA41C4548E4B2021901216A
:104C4000684600F047FBA41CFA20694648704048BB
:104C5000E4B20219012100A8401C00F03BFBA41C97
:104C600002226AA13A48E4B2001900F0BDFA32000B
:104C700092B23749624800F0D7FF09B0F0BD00009A
:104C8000681B00203EB504000025E4B2652C02DB61
:104C9000042005000AE0E4B20B2C02DB032005002F
:104CA00004E0E4B2002C01D0022005005848029034
:104CB000584801905848009058A3594A59A10620D5
:104CC00000F0A0FA641CE4B2652C23DBE4B22000FF
:104CD0006421FFF7A1F93030A9490870E4B220003F
:104CE0006421FFF799F908000A21FFF795F93030A0
:104CF000A4490870E4B220006421FFF78DF9080090
:104D00000A21FFF789F930319F4801702C209F4913
:104D100008701AE0E4B220006421FFF77DF9080072
:104D20000A21FFF779F9303095490870E4B2200084
:104D30006421FFF771F908000A21FFF76DF930319E
:104D4000904801702C20904908702800C0B23EBDE8
:104D50003C110020F1B582B0002400206946487063
:104D6000002069460870002602980500287830283F
:104D700007D10120694648706846407801283ED135
:104D800000E03CE00020040028780D2804D1B6B2F1
:104D900080208000864232DA28782C282CD1641CAE
:104DA000E4B2012C28D0E4B2022C25D0E4B2032CCA
:104DB00016D10027681C0700A0A1380000F04CFEA7
:104DC0000190019800F070FE694688702C206946B9
:104DD00089787854019805F000FA694608700BE06C
:104DE000E4B2042C06D16846017889B2280000F0AC
:104DF0001BF804E0E4B2052C6D1C761CC4E7F7BD7B
:104E0000E81500209A1C0020F21A00200D0A00006C
:104E10004CC5000844C50008D0C300083D30000060
:104E20003CC5000841542B00FEB505000C000027CE
:104E30000026A4B2052C00DAA0E02100083989B2CE
:104E4000A81C00F0BBF90700A4B22819001F00F04D
:104E50004BF9060038003100C0B2C9B288420AD00E
:104E6000FFB23900764800F01DFCF6B231007548FB
:104E700000F018FC82E00720694608706846007858
:104E80000222424392B201A9280000F06DF968465F
:104E90000079FA2872D101A84078C02839D16A482F
:104EA00000F000FC69480078002831D100206849F2
:104EB000087068480078012860D1002065490870B2
:104EC000012062490870012063490870012063498C
:104ED0004871634800F0E6FB6248FEF76AF86248F2
:104EE000FEF767F861480078012801D100F0AFFAB9
:104EF00000205F490870FFF770FB5E4800F0D2FBAE
:104F0000872040015C49086001205C49087035E059
:104F100034E001A84078C1281FD1A4B2002C2DD0C4
:104F20004A480078002802D15548FEF742F8554813
:104F300000F0B8FB0621684600780222504328188A
:104F4000401C00F025F850490870FA2080004549BF
:104F500048604448FEF760F810E001A84078C22895
:104F600009D14A484088002808D048484188484824
:104F700000F0D0FC02E001A84078C328F7BD000093
:104F800061110020621100206311002064110020D3
:104F9000F0B5FFB082B005000C000222624392B26D
:104FA0006946280000F0E0F8A4B2220069463948BA
:104FB00000F01AF937484078022801DB01203AE076
:104FC00034484078294908702848007823490870F7
:104FD0003048808880B2000A2E498988090201433E
:104FE0000F002C48408880B2000A2A4949880902EB
:104FF00001430E00BFB2284887421BDAB6B22648EA
:10500000864217DA15483900C170090A0171134840
:1050100031004170090A81701049C8780A79120676
:10502000120C104380B2792802DA01201B49087063
:10503000002000E001207FB002B0F0BD2C00000095
:105040007CC4000888C4000854C50008BD1C0020AA
:10505000C11C0020BF1C0020BE1C0020681B0020BB
:10506000E0C30008141C0020FC1B0020830100206A
:10507000C01C00205CC50008741C0020BB1C002064
:105080002C1C002064C50008C21C0020180E002043
:105090002A0E00204C1C0020A1050000C31C00208B
:1050A00010B500220E4B1B681A0003239A430243DB
:1050B0000B4B1A600B4B1B6804241C43094B1C60F0
:1050C000C9B2012901D130BF02E040BF20BF20BFDB
:1050D000044B1B680424A343024C236010BD000052
:1050E0000070004010ED00E000B5010000200A78DB
:1050F000302A06DB0A783A2A03DA0A78303A1000B6
:1051000012E00A78612A06DB0A78672A03DA0A784D
:10511000573A100008E00A78412A05DB0A78472A46
:1051200002DA0A78373A100000014A78302A06DBA2
:105130004A783A2A03DA4A78303A801812E04A78F4
:10514000612A06DB4A78672A03DA4A78573A8018D8
:1051500008E04A78412A05DB4A78472A02DA4A7889
:10516000373A8018C0B200BDF2B504001700002520
:1051700000263000390080B289B2884209D2B6B226
:10518000A019FFF7B1FF0099ADB248556D1CB61CD0
:10519000EFE7280080B2F2BD30B502000020002405
:1051A00023001C000D00A4B2ADB2AC4204D29BB2ED
:1051B000D45C00195B1CF4E7C0B230BDF8B5040044
:1051C0000F00002500263800310080B289B28842E5
:1051D00007D3B6B2A019FFF787FF28180500B61C41
:1051E000F1E72800C0B2F2BD30B503000C00180092
:1051F00015006A1E002D04D025780570641C401C23
:10520000F6E730BD0EB4FCB5070000206946087112
:10521000FFB2022F03DA002004F0E5FF34E000259E
:1052200007A804000020050028003900C0B2C9B258
:1052300088420ED22068241D06006846017900913C
:10524000300000F031FC00990818694608716D1CA7
:10525000EAE707A804000020050028003900C0B2D2
:10526000C9B2884210D22068241D0600EDB2002D7C
:1052700004D13100074804F0BBFF03E031000548CA
:1052800004F0BEFF6D1CE8E702B00498F0BC04B067
:10529000004700003C11002000B502000020D2B2FF
:1052A000002A06D0D2B20A2A03DA110030310800EF
:1052B0000EE0D2B20A2A06DBD2B2102A03DA1100BB
:1052C0003731080004E0D2B2002A01D130210800B1
:1052D000C0B200BDF2B582B007001600684669464C
:1052E000098902225143C180002400252000C0B258
:1052F0006946C98880B288421FD2EDB2785D10211C
:10530000FEF78AFE6946087168460079FFF7C4FF18
:10531000E4B2305568460090EDB2785D1021FEF79A
:105320007BFE0098017168460079FFF7B5FFE4B293
:1053300031194870A41C6D1CD8E7F7BD70B5030087
:1053400000250878002818D01878002813D092B2C9
:10535000954210DA00200400185D0E5DB04207D1BE
:1053600008194078002801D1180007E0641CF3E711
:105370005B1C6D1CE8E7002000E0180070BDFEE734
:10538000124207D08B0706D00B78491C0370401CD3
:10539000521EF7D87047830706D00B78491C03705C
:1053A000401C521EF9D1704770B4103A03D378C92B
:1053B000103A78C0FBD2530701D318C918C001D5E1
:1053C00008C908C0D20704D30B880380891C801C3D
:1053D000002A01D50B78037070BC704780B500229D
:1053E00080210901A020C005FFF7BAF801BD80B5F2
:1053F000012280210901A020C005FFF7B1F801BDFD
:1054000038B5050000249E48407804001422290085
:105410009B48E4B215236343C018C01CFFF7E4FEA9
:105420009748E4B21521614340188470944840784D
:10543000401C0B2802DB01209149087090484078FD
:10544000401C0A21FEF7E8FD8D48417031BD70B562
:10545000D42400258A4E2A002100300001F09EFF4E
:1054600070BDF1B58CB000240026002501A82821CC
:1054700001F0BCFFC822920082490C98FFF75EFF42
:1054800004002600002C00D1F6E000206946487098
:105490000027002069464880002069460870684659
:1054A000C82189000C9AA21A891A41800020C0B232
:1054B00069464988891E88420CDA31782A2903D145
:1054C00001206946087005E0390037784F40761CA6
:1054D000401CECE768460078012810D1022200A9A0
:1054E000491C701CFFF740FE684640783900C9B27D
:1054F000884201D06448C0E00020050001E0624815
:10550000BBE020782A2800D1B6E020782C2800D0F3
:10551000B0E06D1CEDB2012D0CD10A22611C01A876
:10552000401CFFF761FE0622584901A8401CFFF706
:105530001BFE9FE0EDB2022D15D10122611C01A8D6
:10554000FFF752FE68460079412803D101205049F7
:10555000C8708FE068460079562800D08AE00020A5
:105560004B49C87086E0EDB2032D12D10922611CAF
:1055700001A80B30FFF738FE0422464901A80B3082
:10558000FFF7F2FD0422444901A81030FFF7ECFDBB
:1055900070E0EDB2042D1BD10122611C01A8143072
:1055A000FFF722FE01A8007D4E2806D13848407B37
:1055B00002210143364841735CE001A8007D532875
:1055C00058D13348407BFD2101403148417351E0BF
:1055D000EDB2052D14D10A22611C01A81530FFF788
:1055E00003FE042201A801001B3101A81A30FFF7B5
:1055F000FBFD0A22294901A81530FFF7B5FD39E066
:10560000EDB2062D1BD10122611C01A81F30FFF74E
:10561000EBFD01A8C07F572806D11D48407B012122
:1056200001431B48417325E001A8C07F452821D1D3
:105630001748407BFE210140154841731AE0EDB246
:10564000072D17D0EDB2082D14D0EDB2092D0CD1D5
:105650000622611C01A82030FFF7C6FD0622104972
:1056600001A82030FFF780FD04E0EDB20A2D01D043
:10567000EDB20B2D641C44E705480DB0F0BD0000F1
:1056800014150020ACC40008301B00202A1B002089
:105690001C1B0020251B0020271B0020201B002096
:1056A0002D1B00200EB400B582B003A900916B46FB
:1056B00002000121034878440A3004F0AFFD02994A
:1056C00006B00847976C00000FB4FEB56846008F1F
:1056D00080B2000A6946098F0902014368460187C2
:1056E000894805F0F5FE1190884800790EA94872A6
:1056F0000EA8864909884171090A81718349487950
:105700008A791206120C10430EA948810EA87F490F
:105710004988C171090A017208A8808880B2000A0C
:1057200008A989880902014308A8818017206946D1
:10573000887014206946487015206946C8700EA903
:10574000487C8A7C1206120C1043694689786A46A6
:10575000527889180818801C694608710EA9487C7F
:105760008A7C1206120C10430EAA517C937C1B06F5
:105770001B0C19430EAA80B2000A0902014351749E
:10578000090A91740EA8C07C002808D168466946B1
:105790000979891E81710420694648710BE00EA8C1
:1057A000C07C002807D0684669460979491E817186
:1057B00002206946487168468079FFF763FA06005F
:1057C0006846F6B26946097902224A43B11829317E
:1057D000018100240027F6B230002530040030009B
:1057E000253007004A48FFB2C2196846817889B25D
:1057F00008A8FFF76FFDA4B26846807802214843ED
:1058000024184348A4B202196846417889B20EA808
:10581000FFF760FDA4B2684640780221484324188F
:10582000002069460870002528000EA9C97CC0B276
:10583000884225D23648A4B202196846C17889B296
:1058400013A8EDB215236B43C018801CFFF742FD6F
:10585000A4B26846C0780221484324186846C1783B
:1058600089B213A8EDB215226A438018801CFFF795
:1058700093FC694609780818694608706D1CD3E7DF
:1058800068468078411E89B208A8401CFFF784FC56
:10589000694609780818694608706846417889B2EF
:1058A0000EA8FFF779FC6946097808186946087060
:1058B0001748A4B2021901216846FFF70BFDFA2030
:1058C0006946C8711248A4B20019821C012101A8BE
:1058D000C01CFFF7FFFCA41C022250A10C48A4B27C
:1058E0000019801CFFF780FC6846008969464979E9
:1058F000421A92B206494A4800F096F903B0049859
:10590000F0BC05B0004700003F1C0020381C002000
:105910003C110020F3B585B0002400270020694623
:10592000087210223F490598FFF71EFC10343D49CC
:1059300048798A791206120C10433A4A51799379C0
:105940001B061B0C1943374A80B2000A09020143A7
:105950005171090A917133488078002802D10120E1
:1059600069460872002630002E49C979C0B28842C3
:105970004AD2062203A90598A4B20019FFF7F4FB46
:10598000A41D0025280003A98978C0B2884239D215
:105990000A2269460598A4B20019FFF7E5FB0A340C
:1059A000002007006846407869468978884211D20D
:1059B0006846407830280DDA68468078002809D09B
:1059C00068468078312805DA68460078022801DACE
:1059D00001200700FFB2002F01D100201BE00522AB
:1059E0006946114884466846037BF020434360467D
:1059F000C018EDB205236B43C018F038FFF7F4FB75
:105A00006D1CBFE7761CAEE76846007A012801D11D
:105A1000012000E0AA2007B0F0BD00000D0A000040
:105A2000C81600205C1C00208807002010B402E08B
:105A3000401C491C521E002A0BD00B7804789C4253
:105A400005D002D20020C04304E0012002E0002C77
:105A5000EED1002010BC704770B505000E00114853
:105A600005F041FD0400002D09D03100280005F0AB
:105A70003BFD2D182878002806D1206070BD2568D0
:105A8000002DF2D1002070BD3100280005F03EFD50
:105A900028180178002902D000210170401C2060E4
:105AA000280070BD7C000020010000E0491C0A783D
:105AB000002AFBD1081A704710B50400002C01D150
:105AC000012037E0A0690028FFD16920205C002870
:105AD00005D10020682160542000FCF7C3FC24207D
