:020000040800F2
:20000000900E0020655400081D5200081F5200080000000000000000000000000000000071
:20002000000000000000000000000000215200080000000000000000235200082552000849
:200040000B170008F721000831520008FF250008E32600083B5200080F270008455200081C
:2000600000000000132700085552000865520008673600083F4D00080000000081520008BC
:20008000000000004354000800000000000000008B52000800000000955200084F54000842
:2000A000895400088B5400088D5400089F520008B5520008CB52000800000000000000005E
:2000C00038B5040001D1012032BD250068356878002804D100202870200000F083FD242022
:2000E000687020680168012291430160606A002802D0200000F04CFB200000F0E5F90128AD
:2001000001D1012032BD20684168084A0A404260206881682A229143816020680168012208
:200120000A430260200000F09BFB32BDFFB7FFFF38B5002801D1012032BD040068342421EB
:20014000617001680A6801239A430A60002501680D6001684D6001688D6000F0BBFE6560B3
:2001600028006070A070257032BDFCB583B006000C0035005035687E20285AD1002C0DD0E1
:20018000104600280AD0B06880214901884207D13069002804D12000C00701D5012049E0C5
:2001A000287E012845D0012028760027EF612120687600F007FF0190684680892880684672
:2001C0008089688005E02088C005C00D31688862A41C688800281BD06888401E68800498F7
:2001E0000090019B3A468021300000F06FFB002801D003201EE0B06880214901884202D16E
:2002000030690028DFD0207831688862641CE0E704980090019B3A464021300000F056FBF2
:20022000002801D0032005E0202068762F76384600E0022005B0F0BDF8B5060035005835A3
:20024000A87C202842D100290CD010000AD0B06880235B01984207D13069002804D10800C9
:20026000C00701D50120F2BD287C012801D10220F2BD01273800287471652A8000246C6134
:200280002220A8743D48E968C8623D48E96808633948E9684863E86884631300726D306881
:2002A00001002431E86801F019F82C74306801683A020A430260306881680F4387603068B8
:2002C000816840220A4382602046F2BD0220F2BD38B5040025006935287821280FD12068B9
:2002E000816809060BD58168802291438160206E002801D001F01DF8200000F018FB687856
:2003000022280FD12068816849060BD58168402291438160606E002801D001F00AF8200039
:2003200000F00EFB002032BD38B5040020680168144A0A4002602068816801229143816080
:20034000250064352068816849060BD581684022914381602868002804D00021816328681E
:2003600000F0E7FF00205A2160520F20216808622020A871002032BDDB090008690900086A
:20038000D1090008DFFEFFFF70B504002268D069116805072D0F07D1830605D58B0603D54F
:2003A000200000F088FB70BD9368002D68D001252B4203D1902676000E4061D00600F60708
:2003C00005D5CE0503D51562E26E1543E566820709D51A00D20706D5022225682A62E26E6C
:2003E00004251543E566420709D51A00D20706D5042225682A62E26E02251543E5660207DA
:2004000009D58A0601D4DA0705D5082223681A62E36E1A43E266E26E002A51D0800604D5BD
:20042000880602D5200000F046FB4025E06E000703D42068806828401CD0200000F080FA27
:20044000206881680D4011D08168402291438160606E00280AD01B498163606E00F098FF90
:2004600000282DD0606E816B884770BD200001F00BF970BD200001F007F90020E06670BDBB
:20048000C5020ED55B020CD58020400310622000693020210A0002704170200001F034F9BA
:2004A00070BD020605D50A0603D5200000F0C3FA70BD400604D5480602D5200000F0EEFA0F
:2004C00070BD0000230A0008F0B583B0070010242500002630466946087038680168A54AC7
:2004E0000A40B96811433A690A4379691143FA690A430260386841689F4A0A40F9681143D4
:200500004160B86939689D4A914202D00200386A10438A689A4B1340184388603868994906
:2005200088420CD19848C06C8007800F05D0022814D02BD303282BD02BE0012529E09349D5
:2005400088420DD19048C06C0C2101401CD004291CD0082902D00C291AD01AE0022518E041
:200560008649884215D18848C06CC021090101400AD0A001814209D040008142EED0C0201C
:200580000001814204D004E0354602E0042500E00825022001F064F929003D68774A954276
:2005A00044D13046002906D0022907D004290DD008290ED00FE001F024FD0FE07248006884
:2005C000044001D0A54809E0BD4807E001F0DAFC04E0D00B02E001216A461170002800D190
:2005E000C4E07A6851008918884202D31103814203D2012069460870B8E00021030E1943CA
:20060000000204000D005008002100196941002301F062FDAB494118AB4A914202D239688E
:20062000C860A3E00120694608709FE0D20BFB69934250D1002908D001290ED0022918D0F5
:20064000042928D0082930D037E0796840004A08801801F076FD060032E001F0E1FC7968F7
:200660000191400049084018019901F06AFD060026E079684808444A1268144005D0B74A9E
:20068000801801F05EFD06001AE0B54A801801F058FD060014E001F075FC796840004A08CA
:2006A000801801F04EFD06000AE0796848085200801801F046FD060002E0012069460870F7
:2006C0003000A8490140C0B240084007400F01433868C1604AE0002908D0012911D0022902
:2006E0001AD004292CD0082935D03CE001F089FC79684A08801801F024FD80B23968C86047
:2007000034E001F08DFC79684A08801801F019FD80B23968C86029E0796848081A4A126866
:20072000144006D04D4A801801F00BFD80B2E8601CE0634A801801F004FD80B2E86015E04B
:2007400001F020FC79684A08801801F0FAFC80B23968C8600AE079684808801801F0F1FC4E
:2007600080B2E86002E001206946087068460078FEBD0000F369FFEFFFCFFFFF0048004056
:20078000FFF4FFFF0038014000100240004400402421415CC90706D501684A68824B134051
:2007A000826A1A434A602421415C890706D501684A687E4B1340C26A1A434A602421415CAD
:2007C000490706D501684A68794B1340026B1A434A602421415C090706D501684A68754BA0
:2007E0001340426B1A434A602421415CC90606D501688A68704B1340826B1A438A60242184
:20080000415C890606D501688A686C4B1340C26B1A438A602421415C490612D501684A68C5
:20082000674B1340026C1A434A60016C80225203914206D101684A68624B1340426C1A430A
:200840004A602421415C090606D501684A685E4B1340806C184348607047000000093D001F
:20086000F8B505002F00683700247C6000F0AAFB06002868006800070AD554480090330020
:20088000224680218903280000F020F800280ED12868006840070CD54C48009033002246AD
:2008A0008021C903280000F011F8002801D00320F2BD20207870B8703C702046F2BD0000CE
:2008C0000024F40000FDFFFF00FD0F00F4B504000D001F00069E2068C0692840A84201D1A7
:2008E000012000E000206946097888421DD10020C0438642EFD0002E04D000F063FBC01B1A
:200900008642E8D220680168884A0A400260206881680122914381602000683020214170F3
:200920008170002101700320F2BD0020F2BD01680A68C0239A430A60202169228154704736
:2009400001680A687A4B13400B6001688A6801239A438A6020216A228154704700127A000E
:200960000048E801F0FF000038B50100886A202209680968114013D101005A3100230B80E4
:2009800003681C686B4D25401D6003689C680125AC439C6003689C684025AC439C600A7411
:2009A00001F026FC31BD0000FFFFFDFFFFFFFEFFFFFFFBFFFF7FFFFFFFEFFFFFFFDFFFFF05
:2009C000FFFFEFFFFFFF9FFFFFFFF7FFFFFFFF0180B5806A01F00DFC01BD38B5846A2500C6
:2009E0005235E87D212808D120688068000604D5002028802000FFF79AFF287E222808D15A
:200A000020688068400604D5002028812000FFF797FFE06E10210143E166200000F034FE86
:200A200031BD80B5806A0100523100220A810A8000F02AFE01BD01005231CA7D212A2BD106
:200A40000A88002A0BD101680A6880239A430A600068016840220A43026000207047826896
:200A600080235B019A420CD10269002A09D1C26C1288D205D20D03689A62C26C921CC26468
:200A800005E0C26C531CC3641278006882620888401E0880002070470220704780B5016813
:200AA0000A6840239A430A6020216922815401F0A1FB002002BD38B501005A314A88036857
:200AC0000C7C222C2BD15B6A846880256D01AC4209D10469002C06D11A40436D1A80426DF5
:200AE000921C426504E0446D651C45651A4022700A88521E0A8012040FD1026813680C4C36
:200B00001C401460026893680124A343936020220A7401F06DFB002032BD002032BD98696A
:200B2000082101439961022032BD00005FFEFFFFDFFEFFFFFFFEFFFF80B526482649016099
:200B400096218901416000218160C16001610C224261816101624162FFF7B2FA002803D0D8
:200B60004C21D54801F0C8FB01BD80B51B481C49016096218901416000218160C1600161B4
:200B80000C2242618161C16101624162FFF798FA002803D06121C84801F0AEFB01BD80B5D8
:200BA000C648C7490160E1214902416000218160C16001610C2242618161C1610162416268
:200BC000FFF77EFA002803D07621BB4801F094FB01BD00009419002000480040041A002041
:200BE00000380140F1B588B00068B649884257D1B54841688022D2020A434260C020000159
:200C000002900220039000240494032005900420069002A9AD4801F08DFBAD4FD24D3800F3
:200C20005030286005206860AC60EC6080262E616C61AC61EC612C62280000F0C9F900287B
:200C400003D09F21D1A001F057FB089845660898A862380064302864052068641020A864D3
:200C6000EC642E656C65AC65EC652C662800403000F0AEF9002804D0B02100BFC3A001F0BD
:200C80003BFB28004030089908660898A866224611461D2001F0F9FC1D2001F0FAFC09E1D9
:200CA000B249884200D07EE0874801688022D2010A430260000D02900225039501200490D2
:200CC0000320059004200690A026F60502A9300001F030FB280202900395002404940320B7
:200CE00005900420069002A9300001F023FB9E4D280080300090764F380014300099086026
:200D0000280084300190032001990860019844600198846080260198C6600198046101988B
:200D20004461019884610198C461009800F050F9002804D0E32100BF94A001F0DDFA0098AE
:200D4000089948660898019948620198C763032001990864102001994864019884640198E4
:200D6000C6640198046501984465019884650198C4652C00C034200000F02AF9002804D072
:200D8000F42100BF81A001F0B7FA08980466089801994866002211461B2001F076FC1B2078
:200DA00001F077FC86E04649884200D082E046484168802292020A434260042002900225A5
:200DC0000395002404940320059004200690A026F60502A9300001F0ADFA082002900395C7
:200DE00001200490032005900420069002A9300001F0A0FA364F5C4D38003C3029008431B6
:200E0000C8678220400028180090042000990860009844600098846080260098C660009818
:200E2000046100984461009884610098C46170002818019000F0CCF8002804D0FF2128316C
:200E400052A001F059FA019808994866089800994862380028300099C86304200099086414
:200E6000102000994864009884640098C6640098046500984465009884650098C465A02077
:200E800040002C18200000F0A3F8002805D09C21490000BF3DA001F02FFA089804660898C0
:200EA00000994866002211461C2001F0EEFB1C2001F0EFFB09B0F0BD8C0F0008741A00208E
:200EC000004400400048004034100240000400501C00024010B5040020682549884213D161
:200EE00024484168244A0A404260C0210901234801F0E7FA606E00F0F9F8206E00F0F6F840
:200F00001D2001F0CAFB10BD1849884214D1194801681B4A0A400260C021C900A020C005F7
:200F200001F0CFFA606E00F0E1F8206E00F0DEF81B2001F0B2FB10BD1249884212D10D4809
:200F40004168114A0A4042600C21A020C00501F0B8FA606E00F0CAF8206E00F0C7F81C2053
:200F600001F09BFB10BD000090140020003801400048004034100240FFFFFBFF0004005086
:200F8000FFBFFFFF00440040FFFFFDFF4A3A5C576F726B53706163655C53544D33325C5047
:200FA000726F6A656374436F64655C547261636B65725C626F6F745C5372635C757361725C
:200FC000742E630001480068704700BF781C002010B4002801D101207FE0010024314A78DB
:200FE000002A01D100220A7002224A70026813683B4C1C4083682343C4681C430369234305
:2010000044691C4383692343C4691C43036A234313600268334B9A4209D1334A13680F24D7
:20102000A3431360136840681843106052E014339A420AD12C4A1368F024A3431360136860
:20104000406800011843106044E014339A420AD1254A13689C4C1C40146013684068000233
:201060001843106036E014339A420AD11E4A1368964C1C401460136840680003184310600B
:2010800028E014339A420AD1174A1368904C1C401460136840680004184310601AE014338F
:2010A0009A420AD1104A13688A4C1C401460136840680005184310600CE014339A4209D122
:2010C000094A1368844C1C4014601368406800061843106001204870002010BC7047000032
:2010E0000FC0FFFF08000240A800024070B4002804D0010024314A78022A01D10120E1E0D7
:20110000026813680124A3431360002203681A6003685A6003689A600368DA600468994BE6
:201120009C4201D101251CE0974DAC4201D1102517E01435AC4201D19D0D12E01435AC4231
:2011400001D19D0C0DE01435AC4202D180256D0207E01435AC4202D180256D0301E080257D
:201160006D048A4C256005689D4201D102251DE0854EB54201D1202518E01436B54201D175
:201180005D0D13E01436B54202D18025AD010DE01436B54202D18025AD0207E01436B5420E
:2011A00002D18025AD0301E08025AD04256005689D4201D108251DE0734EB54201D18025D4
:2011C00018E01436B54201D1DD0C13E01436B54202D180252D020DE01436B54202D180259A
:2011E0002D0307E01436B54202D180252D0401E080252D05256005689D4201D104231DE06F
:2012000014339D4201D1402318E014339D4201D11B0D13E014339D4202D18023DB010DE003
:2012200014339D4202D18023DB0207E014339D4202D18023DB0301E08023DB042360006886
:20124000504B984205D1734803680F24A343036034E01433984205D16E480368F024A3437B
:2012600003602BE01433984205D16A480368164C1C40046022E01433984205D165480368B9
:20128000124C1C40046019E01433984205D1614803680F4C1C40046010E01433984205D12A
:2012A0005C4803680B4C1C40046007E01433984204D158480368084C1C4004608A61100011
:2012C00048700A7070BC7047FFF0FFFFFF0FFFFFFFFFF0FFFFFF0FFFFFFFFFF0F2B506006D
:2012E00024300178012901D10220F2BD012529000170022421004170306801682F46B9432A
:2013000001600099300000F0AFF9306801680C4304603068016804220A4302603068016880
:2013200008220A430260306801680D4305600020F2BD38B504002068016801229143016015
:20134000FFF740FE0500012021680968014010D0FFF738FE401B30498842F4D32100243111
:201360008869202202438A61002008700320487032BD2100243100220A704870104632BD99
:2013800000000000080002401C0002400400024070B500210C00020024325378022B03D0EA
:2013A00004209061012432E003681D680E26B5431D6003681D680126B5431D600368174DED
:2013C000AB4201D1334619E01435AB4201D1102314E01435AB4201D1AB0D0FE01435AB42C8
:2013E00001D1AB0C0AE01435AB4201D1330405E01435AB4201D1330500E03306084D2B601D
:2014000033465370117051690A0000D08847200070BD0000A8000240E9030000080002403F
:2014200004000240F8B504008C4D2968206802008B4EB24201D108221DE08A4B9A4201D178
:20144000802218E014339A4201D1DA0C13E014339A4202D1802212020DE014339A4202D195
:201460008022120307E014339A4202D18022120401E0802212050A4034D0082102680A405B
:2014800030D002680B469A4302602068B04219D07449884201D1802114E01431884201D120
:2014A000C90C0FE01431884201D119030AE01431884201D1190405E01431884201D119059F
:2014C00000E01906696020002430816901220A43826104214170002101700169080001D0E8
:2014E00020008847296820680200B24201D104221DE05C4B9A4201D1402218E014339A4227
:2015000001D11A0D13E014339A4202D18022D2010DE014339A4202D18022D20207E01433ED
:201520009A4202D18022D20301E08022D2040A4035D0042102680A4031D00268920603D42A
:2015400002680B469A4302602068B0421DD04549884201D1402118E01431884201D1090DB0
:2015600013E01431884202D18021C9010DE01431884202D18021C90207E01431884202D127
:201580008021C90301E08021C90469602000243005214170C168080001D0200088472968F9
:2015A00020680200B24201D102221DE02D4B9A4201D1202218E014339A4201D15A0D13E00B
:2015C00014339A4202D1802292010DE014339A4202D18022920207E014339A4202D1802248
:2015E000920301E0802292040A4036D0022102680A4032D020220368134003D103680F4680
:20160000BB4303602068B04219D01649884201D1110014E01431884201D1490D0FE014319B
:20162000884201D111020AE01431884201D1110305E01431884201D1110400E01105696082
:20164000200024308169816101214170002101708168080001D020008847F1BD0000024044
:20166000080002401C00024010B40468636003688468102C03D19A600068C16002E099600A
:201680000068C26010BC70477047F8B40168421843685908511800918168DB0701D54B46DF
:2016A000C918009B9A4202D10C30F2BC70471378521C032403261E4002D11678F61C521CD6
:2016C0001D090F2D07D115780F35521C03E01778521C0F70491C761EF9D1002DE1D0167803
:2016E000521C9B081C40032C01D11478521C2302F3185C420B19AD1CD3D01C785B1C0C709D
:20170000491C6D1ECDD0F8E77047FEE7F8B50400514D2078800670D5002680204005A96BF0
:20172000014003D1A96B0843A86301264B4F3868C00510D43868A90D01433960FFF742FCB9
:2017400000903868C00506D4FFF73CFC0099401A6528F6D338E02868C02189030140606825
:20176000C027BF023A010240914208D039000140B94204D12968890301D50120F2BD296DF6
:20178000394023D03840814220D0207880061DD5286D8A490140286D8022120302432A65D9
:2017A000286D874A02402A652965C8050ED5FFF709FC0090286D800508D4FFF703FC0099A5
:2017C000401A80498842F5D30320F2BD606839000140B94206D129687B4A0A403901014053
:2017E00011432960286D61680F4007432F65012E03D1A86B75490140A9632078C00705D527
:20180000E86C03218843A1680143E9642078800705D5E86C0C218843E1680143E964207834
:20182000400705D5E86C6A49014020690843E8642078000705D5E86C66490140606908434E
:20184000E8642078000605D5E86C63490140A0690843E8640020F2BD001002400070004012
:2018600038B50100002001293CD0022952D0042968D0082900D182E0102900D197E0202944
:2018800000D09AE055490C6DC0239B020A6D1A4080256D02AA4201D1A5056DD48025AD0285
:2018A000AA4203D1A40701D54D4832BD9A4200D083E00A68154000D17FE00968180108408B
:2018C00080214903884209D04900884204D01901884205D1434832BD434832BD434832BD69
:2018E000434832BD3D49CA6C9207920F02D100F097FB32BD022A02D10B685B074FD4012A12
:2019000002D100F03FFB32BD032A56D1096D890532D432BD3149CB6C0C221A4002D100F092
:2019200070FB32BD082A02D10B685B0737D4042A02D100F027FB32BD0C2A3ED1096D89051D
:201940001AD432BDC0231B012449CA6C1A4002D100F057FB32BDCC0CA24202D10C6864073C
:201960001DD40C0DA24202D100F00CFB32BD9A4223D1096D890520D58020000232BD174906
:20198000CB6CC02292011A4002D100F03AFB32BD80239B019A4204D10968490701D5154876
:2019A00032BD59088A4208D100F0ECFA32BD0B49896B490201D500F024FB32BDFFFFFCFF0D
:2019C000FFFFF7FF89130000FFFFCFFFFFFFFFEFFFF3FFFFFFCFFFFFFFFFF3FF00100240C1
:2019E0008890000020A1070040420F0080841E0000093D000024F400F0B583B00400B34D1A
:201A00002078C00750D50C21E8680840082808D080204002EA6811400C290AD1E96801404E
:201A200007D0286880033FD5606800283CD10120FEBD6168814203D129680843286016E015
:201A4000A022D2029142296806D182000A432A602968084328600AE0A64A0A402A602968B9
:201A60000840019001982868A349014029608027BF02606800280BD0FFF7A4FA0600286851
:201A8000384011D1FFF79EFA801B6528F7D3B4E1FFF798FA06002868384005D0FFF792FAEA
:201AA000801B6528F7D3A8E12078800718D50C21E8680840042806D0E86801400C2937D10A
:201AC000E868C00334D42868400702D5E0680128ADD16868B44901402069000208436860A2
:201AE0002078C00675D56F0DE8680C21014000D085E02868074002D0A069002897D0206A04
:201B00006968E02212020A4082423ED200F09CFA00288CD16868BB490140206A0843686003
:201B200068680002000AE1690906014369603EE0E0680427002818D02968092291430843E7
:201B40002860FFF73FFA06002868384005D1FFF739FA801B0328F7D34FE168689249014015
:201B60002069000208436860BAE72868012188432860FFF727FA060028683840B0D0FFF786
:201B800021FA801B0328F7D337E169689D4A0A401043686068680002000AE16909060143EC
:201BA0006960206A00F050FA002800D03FE70120216A490B491C8840C0039349EA68120941
:201BC0001207120F895CC84090490860002000F089FD2078000751D560690028286D3ED0AE
:201BE000012101432965FFF7EDF90600286D800744D4FFF7E7F9801B0328F7D3FDE0A0698F
:201C0000002828681CD0A90D01432960FFF7DAF906002868384005D1FFF7D4F9801B032867
:201C2000F7D3EAE0686877490140206A0843686068680002000AE169090601436960C8E7B1
:201C4000734901402960FFF7BDF9060028683840BFD0FFF7B7F9801B0328F7D3CDE00121B0
:201C600088432865FFF7AEF90600286D800705D5FFF7A8F9801B0328F7D3BEE020784007CF
:201C800075D500206946087080204005A96B014005D1A96B0843A863012069460870AF0D35
:201CA0005C480068384013D15A480068384359490860FFF787F9060056480068384007D15B
:201CC000FFF780F9801B6528F6D396E000100240A068B84203D1286D07432F6521E000286A
:201CE0000CD1286D4A4901402965286DA1490140296516E0FFFFFEFFFFFFFBFFA021C9004F
:201D00008842286D06D1290D01432965286D07432F6506E03E4901402965286D9549014022
:201D200029656F0DA06800280CD0FFF74BF90600286D384013D1FFF745F9801B8E498842EC
:201D4000F6D35AE0FFF73EF90600286D384006D0FFF738F9801B88498842F6D34DE0684669
:201D60000078012803D1A86B84490140A963606A002844D0E9680C220A400C2A00D156E6AF
:201D80008027BF047E490228286829D101402960FFF718F906002868384007D0FFF712F9A7
:201DA000801B0328F7D328E0FFE0FFFFE8689B490140A06A0843E16A0143206B0843E86037
:201DC0002868790801432960FFF7FCF806002868384014D1FFF7F6F8801B0328F7D30CE0E8
:201DE00001402960FFF7EEF806002868384006D0FFF7E8F8801B0328F7D30320FEBD0020F5
:201E0000FEBD0000FF1FFFFF7C53000850090020FFFEFFFF00700040F2B582B004000125ED
:201E2000854F3868284088420AD2386829468843029901433960386828400299884274D11C
:201E40007E4E2078800705D5F068F0218843A1680143F1602068284057D06068022803D10E
:201E6000316889030ED460E0032803D13168890108D45AE00128316802D1490702D454E0F4
:201E8000890552D5F168032291430843F060FFF799F80090606802280CD1F0680C210140F4
:201EA000082932D0FFF78EF80099401A32498842F3D328E003280CD1F0680C2101400C296A
:201EC00023D0FFF77FF80099401A2B498842F3D319E001280CD1F0680C210140042914D0D5
:201EE000FFF770F80099401A23498842F3D30AE0F0680C21014008D0FFF764F80099401AC8
:201F00001D498842F4D30320FEBD02983968294088420CD23868294688430299014339604E
:201F2000386805400298854201D00120FEBD2078400705D5F06842490140E0680843F060EE
:201F40002078000706D5F0683E4901402069C0000843F06000F016F85449F26812091207DA
:201F6000120F895CC84052490860002000F0BAFB0020FEBDFFFBFFFF89130000FFFFFFEF30
:201F8000FFFFFFFE00B52D4AD1680C200840042804D0082809D00C2809D026E01068C00613
:201FA00001D5454800BD454800BD454800BD45488B0C1B071B0FC05C890D8907890F491CBE
:201FC000D368DB0304D53E4A504300F0BAF800BD1268D20604D5384A504300F0B2F800BDFE
:201FE000364A504300F0ADF800BD5068400B4007400F0121401C8140C80300BD2C48006840
:20200000704780B5FFF7FAFF2F492A4A1268120A5207520F895CC84002BD0000FFFF02FFFE
:2020200080B5FFF7EBFF2849224A1268D20A5207520F895CC84002BD00200240001002403E
:20204000FFF8FFFFFFC7FFFF70B40021194A1368F0241C4019D1C0235B011D4C80256D058B
:20206000D66A2E4002D024681C4008E0D66A3543D56224681C40D56A164E2E40D6629C4212
:2020800003D1DA00904200D101211048026801239A430A43026000680200D207D20F8A426B
:2020A00001D0184600E0002070BC70477C530008500900200C10024000093D000024F40002
:2020C00000127A008C530008805400080020024000700040FFFFFFEF124224D0994228D98F
:2020E00070B500251B4202D00C00002109E00024012649186441944200D3A41A7641F8D317
:202100003100012601E0764109D2001864416D41A41A9D41F7D2A4185D41B619F5D3300003
:2021200022002B0070BD1B42D8D108B500F0EEFA08BD01D19042D3D202000B00002100202E
:2021400070470022030A8B420BD203098B4219D243088B422ED2411A00D2014652411046B6
:202160007047FF2209023FD012068B4205D3121209028B4201D31212090203098B4219D3EC
:2021800000E0090AC3098B4201D3CB01C01A524183098B4201D38B01C01A524143098B4267
:2021A00001D34B01C01A524103098B4201D30B01C01A5241C3088B4201D3CB00C01A5241C8
:2021C00083088B4201D38B00C01A524143088B4201D34B00C01A5241884200D3401A5241AD
:2021E000CFD201461046704708B500F091FA08BD704770477047FEE780B500F08BFA00F049
:2022000015F800F097FA00F02FFBFEF795FC00F049FB00F079FB00F0A9FBFEF7A6FCFEF7D8
:20222000BEFC00F091FC00F01DFDFEE710B59AB02E4C2F4801682140C20C0A43026000F041
:202240009DFD2C4801680C40046006200C90FA300E9001200F901020109002201590002452
:20226000169440041790C020000418900CA8FFF7C3FB002803D0A12120A000F03DF80F2004
:2022800007900320089009940A940B94214607A8FFF7C2FD002804D0AF2100BF17A000F015
:2022A0002BF8272000900294039404948020400201906846FFF72AFA002804D0BA2100BF8E
:2022C0000EA000F019F8FFF799FEFA218900FFF738FF00F0E6F9042000F0E7F9224611466F
:2022E0000020C04300F0D1F91AB010BDFFE7FFFF0070004050100240FEE700004A3A5C5718
:202300006F726B53706163655C53544D33325C50726F6A656374436F64655C547261636BD1
:2023200065725C626F6F745C5372635C6D61696E2E630000F2B483B0002128E00622BA407C
:202340003243029C2260A54A1468DE433440039D6D68ED0300D51C43146054683440039D0B
:202360006D68AD0300D51C43546094683440039D6D68ED0200D51C439460D4682640039CB3
:202380006468A40201D533431E00D660491C039A14682200CA4000D191E0012213008B403E
:2023A00001932340F2D0039C6468022C01D0122C13D1CC08A4000419266A0D00AD002F00CA
:2023C0001C253D400F27AF40BE43039F3F69BC462F006546BD4035432562039C6468012C5F
:2023E00005D0022C03D0112C01D0122C19D184680D006D006E46357003253678B540AC4358
:20240000039DED686E463678B540254385604668019CA643039C6468240914408C403443C0
:20242000446006680C0064006D462C7003242F782500BD40EF433D002E40B446039E776884
:2024400027406E463678B740664637430760C6683540039EB6686F463F78BE402E43C660CC
:20246000039D6D68ED0091D55D4D2E6816432E605C4D8E08B600AD1902952E680D00AD00CB
:202480000C272F400F25BD40AE43A025ED05A84201D1002253E7544DA84200D14FE7534A7A
:2024A000904201D102224AE7514A904201D1220045E7504A904200D040E705223FE7FFBC2B
:2024C0007047F2B485B00100002218E0062383409D4213D100980068B043009B1860039BFC
:2024E000D8433E4B1C6804401C605C6804405C609C6804409C60DC682040D860521C059805
:20250000D04056D001231800904002900598029C0440039403980028F0D0032410004000D7
:20252000250085400195086805430D60D00880000D18100080006E4630740F262F6ABC46C1
:202540006846007C1C2707403000B840674687432F62019DE8438D6805408D604D68029F51
:20256000BD434D60CD682840C8601E489508AD004019009005686846077C0C203840864048
:202580003540A027FF05B94201D100239FE7164FB9429CD0154B994201D1022397E7144BAA
:2025A000994201D1230092E7124B99428ED105238DE706B0F0BC7047002A01D081617047F2
:2025C0008162704701000C4A13680B4000D1704780B5116000F012F801BD00000004014019
:2025E00034100240080001400004005000080050000C0050001C0050140401407047FEE7A3
:202600000121C006C00E81403048016070470121C006C00E81402E480160704710B4C20028
:2026200018231340FF249C40E2438901C9B2994000280BD5274B0007000F08388008800032
:20264000181803681A401143016007E0224B80088000181803681A401143016010BC704747
:2026600010B5401E80214904884201D3012010BD1A4C606003210020C043FFF7CFFF00206C
:20268000A06007202060002010BD80B5FFF7C6FF01BD80B5FFF7B4FF01BD80B5FFF7B7FF7B
:2026A00001BD80B5FFF7DCFF02BD0C490428086803D1042202430A607047042290430860E5
:2026C000704780B500F00CF801BD000000E100E080E100E01CED00E000E400E010E000E0DD
:2026E0007047FEE710B5040007480068FA218900FFF727FDFFF7D5FF002221000020C043D0
:20270000FFF7C3FF002010BD500900207047FEE77047FEE780B50648016840220A43026066
:202720000020FFF7DFFF00F031FB002002BD000000200240F0B587B00124474801682143EB
:2027400001600168214005910599022102680A4302600268114005910599042102680A4313
:2027600002600068014005910598224688210902A020C005FFF720FF88277F002246390096
:202780003648FFF719FF002221463448FFF714FF00222102A020C005FFF70EFFE00300905F
:2027A000112601960025029503956946A020C005FFF7C0FD00970196029503956946274895
:2027C000FFF7B8FD20030090019502956946A020C005FFF7AFFD902000010090019402952B
:2027E00003956946A020C005FFF7A4FD262000900195029569461948FFF79CFD00940194AB
:202800000295039569461548FFF794FD00941448019002946946A020C005FFF78BFD6020AD
:2028200000901048019002956946A020C005FFF781FD2A4611460520FFF727FF0520FFF7BD
:2028400028FF2A4611460720FFF71FFF0720FFF720FF07B0F0BD00BF2C100240000400501E
:20286000000031100000111080B501200C490A6802430A60096808400090009800221146D0
:202880000A20FFF702FF0A20FFF703FF002211460B20FFF7FAFE0B20FFF7FBFE01BD00BFCC
:2028A0003010024030B587B0914C8020C0052060904860600025A560E5602561200000F01B
:2028C00085FA002803D0402191A0FFF715FD80204001029002A9200000F07CFB002804D043
:2028E000462100BF8AA0FFF707FD009501956946200000F061FC002803D04D2184A0FFF7C4
:20290000FBFC07B030BD000030B587B07A4C7B482060784860600025A5609520E0602561D2
:20292000200000F053FA002803D05E2178A0FFF7E3FC80204001029002A9200000F04AFB60
:20294000002804D0642100BF71A0FFF7D5FC009501956946200000F02FFC002803D06B21C3
:202960006BA0FFF7C9FC07B030BD000030B587B0634C644820605F4860600025A5606248BB
:20298000E0602561200000F021FA002803D07C215FA0FFF7B1FC80204001029002A92000CE
:2029A00000F018FB002804D0822100BF58A0FFF7A3FC009501956946200000F0FDFB00281F
:2029C00003D0892152A0FFF797FC07B030BD80B500688021C90588420DD14C484168012247
:2029E0000A434260002211460F20FFF74EFE0F20FFF74FFE01BD414988420DD143480168A8
:202A000004220A430260002211461420FFF73DFE1420FFF73EFE01BD3A4988420CD13B4832
:202A2000016820220A430260002211461620FFF72CFE1620FFF72DFE01BD80B5006880211A
:202A4000C905884208D1314841680122914341600F20FFF722FE01BD2849884208D12B48C1
:202A600001680422914301601420FFF716FE01BD2449884207D1254801682022914301603A
:202A80001620FFF70AFE01BD30B587B0184C8021C9052160174961600025A560E0602561C3
:202AA000200000F093F9002803D0FD2118A0FFF723FC80204001029002A9200000F08AFAE2
:202AC000002804D0FF21091D11A0FFF715FC009501956946200000F06FFB002805D0852105
:202AE000490000BF0AA0FFF707FC07B030BD0000481B00207F3E0000801B00200008014043
:202B0000B81B0020001401402F750000341002404A3A5C576F726B53706163655C53544D84
:202B200033325C50726F6A656374436F64655C547261636B65725C626F6F745C5372635C6A
:202B400074696D2E6300000070B586B0334D34482860344E0021280000F0E4FBB04245D01A
:202B600000246C607F20A860FF20E8602C616C61AC61EC61280000F0E5FB002803D044214B
:202B80002AA0FFF7B9FB01A821000180817004940594012201A9280000F027FC002804D050
:202BA000502100BF21A0FFF7A7FB0120694602000A704A708870CC70280000F090FC002886
:202BC00003D05A2119A0FFF797FB22461146280000F018FB002804D0612100BF13A0FFF796
:202BE0008BFB32002146280000F096FB06B070BD00680B49884200D0704780B50A4801682D
:202C00008022D2020A430260002211460220FFF73CFD0220FFF73DFD01BD0000201C002059
:202C200000280040F2320000501002404A3A5C576F726B53706163655C53544D33325C5096
:202C4000726F6A656374436F64655C547261636B65725C626F6F745C5372635C7274632EE3
:202C60006300000080B500F0FFFC00F007F800F05FF800F045FF00F039FDF8E730B585B048
:202C8000314D01F015F900281FD0002001F034F901F020F9012802D10120287001E00020A2
:202CA00028702878002812D0002001F01EF901F0DFF801F0ABF8002809D0002001F003F940
:202CC00001F0C0F801F07AF901E001F077F9A82109021E4801F0A3F904A8002101600C465E
:202CE00068468481042204A9082001F078FA022203A90C2001F073FA04A869468989029169
:202D0000C1780191817800914378027814A1104801F094FB0F482978002903D1047001F042
:202D200033FC03E00821017001F02EFC05B030BD10B5094C2068800705D500F0ACFE206805
:202D400002218843206010BDF01B002000580008380800201C020020741C002070470000A8
:202D600041542B4E4344503D25642E25642E25642E25642C25640D0A000000000248016804
:202D8000820D0A43026070470070004080B50E48016801220A4302604168802252050A43D9
:202DA0004260002211460420C043FFF76EFC002211460120C043FFF768FC002211460020E1
:202DC000C043FFF762FC01BD3410024038B5040001D1012032BD250034356878002804D11A
:202DE000002028702000FFF7F2FD02206870211D206800F06DF901206870002032BD10B533
:202E0000040034340221617001680A6A144B134003D10A6801239A430A60FFF70EFE0020F0
:202E200001006170207010BD01680122CB681343CB60006801680A43026000207047016863
:202E4000CA6801239A43CA600068016A044A0A4003D101681A469143016000207047000001
:202E60001111000070B504000D00002C01D1012070BD260034367078002804D10020307079
:202E8000200001F0D1FD02207070211D206800F01FF9206801680822914301602068016842
:202EA0000D43056001207070002070BD70B50400206802260169314017D0C168314014D0F6
:202EC0000221C94301610120207520688069800703D0200001F0A9FD05E0200001F0A6FD90
:202EE000200001F0A4FD00202075206804250169294018D0C168294015D00421C9430161F5
:202F0000267520688069C0218900014003D0200001F08BFD05E0200001F088FD200001F002
:202F200086FD00202075206808260169314016D0C168314013D00821C943016125752068AC
:202F4000C069800703D0200001F06FFD05E0200001F06CFD200001F06AFD0020207520685D
:202F6000102102690A4018D0C268114015D01021C943016126752068C069C021890001408D
:202F800003D0200001F051FD05E0200001F04EFD200001F04CFD002020752068012102699A
:202FA0000A4008D0C268114005D00121C9430161200001F04CFD2068402102690A4008D03F
:202FC000C268114005D04021C9430161200001F001FE70BD70B5040026003436307801280B
:202FE00001D1022070BD01252800307002207070226890684E4B034093600868002850D0B7
:20300000102853D0202856D0302859D040283ED0502828D0602830D070280CD02A03904285
:2030200003D05200904212D04EE02068816807229143816048E0CB684A688968206800F0C4
:20304000A6F821688868772202438A603CE0CB684A688968206800F09AF820688168AA0377
:203060000A43826030E0CA684968206800F062F85021206800F083F826E0CA684968206887
:2030800000F06AF86021206800F079F81CE0CA684968206800F04EF84021206800F06FF897
:2030A00012E00021206800F06AF80DE01021206800F065F808E02021206800F060F803E054
:2030C0003021206800F05BF875700020307070BD30B4026801239C07A04205D0314DA842CE
:2030E00002D0314DA84201D11D0000E00025002D04D07025AA4315004A682A43A04205D034
:20310000284CA04202D0284CA04201D11C0000E00024002C03D0254C1440CA682243026082
:203120008A68C26209688162436130BC704700008800FFFF30B4036A046A0125AC4304621E
:203140008469F025AC431201224382610A2293431943016230BC704730B4036A1024A34354
:2031600003628469036A124D254012032A438261A022934309011943016230BC7047826879
:2031800070239A430A43072111438160704730B48468084D254029430A43190211438160CB
:2031A00030BC70470008014000140140FFFCFFFFFF0FFFFFFF00FFFF70B4020034321378B5
:2031C000012B01D102201BE001231C00147002245470046865687026B54365600468656861
:2031E0000E682E4366600468A5688026B543A5600068846849682143816053700020107059
:2032000070BC7047F7B504002020205C012801D10220FEBD012738002021605402202121CE
:203220006054CA2021684862532021684862BD022068806828400DD0FDF7C4FE060020685F
:20324000C068400706D5FDF7BDFE801B38498842F5D318E020688168364A0A40826020682A
:20326000C16880221140344A0A43C260FDF7AAFE06002068C168490710D4FDF7A3FE801B8E
:203280002B498842F5D3FF20216848620320212160540020202160540320FEBD019941618E
:2032A0002068816807229143816020688168029A0A438260A80221490A6802430A608A685C
:2032C00010438860206881682A010A438260206881680D438560FF20216848622120275434
:2032E000002020216054FEBD10B504002068C068400509D5200001F06EFC2068C168802294
:2033000011400D4A0A43C260802040030C49086001202121605410BD006850308900401849
:2033200002607047006850308900401800687047E9030000FFFBFFFF7FFBFFFF00040140EB
:203340001404014038B5040001D1012032BD2120205C002805D10020202160542000FFF75B
:2033600047FC022021216054CA2021684862532021684862FF25200000F042F90028206810
:2033800005D04562042021216054012032BD81688A4A0A4082602068816862682369134381
:2033A000A2691A430A438260E0682168086120680169A26812040A4302612068C168802227
:2033C0009143C1602068C16C03229143C1642068C16CE269636913430B43C364206845625F
:2033E000012021216054002032BDF8B504000D002020205C012801D10220F2BD0127380001
:203400002021605402202121605420684021002A806815D1014001D10020E870287800F0A3
:203420000DF90604687800F009F9000230430600A87800F003F93043E9780E04064311E003
:20344000014003D0287800F004F901E00020E87028780004697809020143A8780843E978D2
:203460000E040643CA2021684862532021684862200000F0C5F800281DD1514830402168B9
:203480000860206881684F4A0A40826020688168EA682B6913430B4383602068C16880225D
:2034A0009143C1602068806880060FD4200000F08DF800280AD0FF202168486204202121EF
:2034C00060540020202160543846F2BDFF202168486221202754002020216054F2BDF8B577
:2034E00004000D002020205C012801D10220F2BD0126300020216054022021216054002AA5
:2035000006D16878C10603D5EF2101400A316970002A11D1E87800F091F80704687800F030
:203520008DF8000238430700A87800F087F8384329784D0305430FE0687800F08AF8A878DE
:2035400000F087F8E8780004697809020143A878084329784D030543CA2021684862532034
:2035600021684862200000F04BF8002811D116482840216848602068C16880229143C1607C
:203580002068806880060FD4200000F01FF800280AD0FF202168486204202121605400209D
:2035A000202160543046F2BDFF202168486221202654002020216054F2BD0000BFFF8FFFD4
:2035C0007F7F7F00FFFFFBFF3FFFFF0038B504002068C168A0229143C160FDF7F3FC0500F8
:2035E0002068C068800607D4FDF7ECFC401B03498842F5D3032032BD002032BDE903000098
:2036000070B5040020684025C168294011D10021C943C160FDF7D6FC06002068C0682840EE
:2036200007D1FDF7CFFC801B03498842F5D3032070BD002070BD0000E9030000002101E0EF
:20364000491C0A38C0B20A28FAD209010843C0B27047010009098A00511849000007000F70
:203660000818C0B27047FEE770B5614E614DAA8869693000FCF7E0FD3068102401682143FD
:203680000160306804625C4E2A89E9693000FCF7D3FD3068016821430160306804625749C5
:2036A000022000F083F85649002000F07FF870BD70B504000D00160020681021C2690A40B0
:2036C00013D001622000FCF703FE4A48710041188A882B685B68D31A8B8101218155B1002A
:2036E000401841692000FCF7A7FD70BDF8B500273C001FE03F4E30190178012919D1390039
:203700000170A0003518E86A00F017F82A6A60003618100002D0B189686990473800B0818B
:203720000246B188686901F057FA2100E86A00F02BF8641C032CDDDBF1BD70B506003400FB
:203740005834207C012801D1022070BD0125280020743000FCF7E8FD306801681022914306
:203760000160E068006801682A4691430160002001002180E16809684860E16809680A68DA
:2037800015430D60207470BD10B5040019484A00821892888900401841692000FCF74CFD94
:2037A0002068016810220A43026010BD114A800010180162704710B50023DB430D4C80006E
:2037C0002018C06AFCF7D1FC10BD0CB438B5050004AA0C4C200000F03AFE020092B2210093
:2037E0002800FFF7E8FF01B0029830BC03B0004794190020C4090020741A00205D2D000899
:20380000994900089418002038B5050011D0BB4C2000FFF7F4FA2800FFF736F9082120007E
:20382000FFF720FB0120C043216808612000FFF7FBFA31BD80B5B148FFF701FB01BD80B555
:20384000FDF7C0FB02BD814201D2401A7047081A704710B401000022100000E0521C130022
:20386000B54C2478DBB2A34209D2C04BD2B25400A418A4001B191C688C42EFD1180010BCF1
:20388000704730B40100002210000D6800E0521C1300A94C2478DBB2A34209D2B34BD2B224
:2038A0005400A418A4001B191C68AC42EFD1180030BC704730B40020C043002211000EE00B
:2038C0005500AD18AD006419DB6825681D4004D16368834201D218001100521CD2B2A34C35
:2038E000954B1D78AA42EBDB48004018800020184168022901D20221416030BC704710B477
:2039000000210A0003E00B006360521CD2B28A4B1B789A4209DA954B5400A418A4001C19E9
:2039200063689842EFD21B1AEEE710BC7047F1B5814C2178080031D000220B008B4D01E099
:20394000521CD2B29A4229DA50008018800028180668009F3F68BE42F2D15900C9188900B4
:203960006D180C3D591E8A4205D100220C21280001F032F90DE0991A491E4A005218920080
:2039800001000C3101F056F900220C21280001F023F92078401E20700120F2BD0020F2BD00
:2039A00038B50400FFF76DFF002801D1002032BD5248FFF744FAFFF742FF5F4DA968FFF7F3
:2039C00042FFFFF79CFF2000FFF7B1FF00F0B6F8002809D0FFF76EFF40686860FFF72FFFB9
:2039E000A8606868FFF710FF61480168022291430160012032BD38B505000C00FFF7D0FFAC
:203A00006C60280000F001F831BDF8B505002868002802D06868002801D10020F2BD464C74
:203A20002800FFF72EFF002827D127784F4E0C2229007800C0198000301801F0FBF87F1CF0
:203A40002770FFB2022F18DBFFF7F9FEA168FFF7FAFE00210A0003E00B006B60521CD2B240
:203A600023785B1E9A4208DA53009B189B00F5186B689842F0D21B1AEFE7FFF71BFF406894
:203A80006060FFF7DCFEA060FFF7D4FE6068FFF7BBFE0120F2BD38B5274C606800210A0034
:203AA00009E00D005D60002D03D1E5681B682B43E360521CD2B223789A420BDA2B4B5500B8
:203AC000AD18AD005B195D68002DF2D0A842E8D22D1AE7E700F032F800280AD0FFF7EAFE99
:203AE00040686060FFF7ABFEA0606068FFF78CFE31BD0020C043606031BD0000481B002035
:203B0000F8B50D4CE068002814D0002510E00127E068E84038400AD0AF403800FFF799FE98
:203B20008668FFF704FFE068B843E060B0476D1C202DECDBF1BD0000FC09002010B40021CF
:203B400008000AE0D268094BC9B24C006418A4001B59134000D1401C491C064A0B001478BE
:203B6000DBB2A342EED3C0B210BC704710160020741C0020FC090020BFF34F8FA248BB4984
:203B80000860BFF34F8F00BFFDE738B50C001500132806D025D3152814D00BD316281AD04C
:203BA00031BD002000F0CCFA012000F0B0FA00F019F831BDB248FFF7F3FE2900200000F07D
:203BC0003FF831BD00F022F900280AD12900200000F060F831BDAB484178002901D000216C
:203BE000417031BD38B5A84CFF202070FE2060700120A0701320E0700020A080A071112171
:203C0000E17120729F4D28000C3001F041F8020029000C312000093001F00CF81921200036
:203C200001F052F880B2C111090E09180912217160711921200000F01DFC00F075FC31BDDD
:203C400038B505008F4C1022290020001C3000F0F1FF287C0002697C4018E080A87C000287
:203C6000E97C4018A0800025E56200F0CFF8002806D1257000F0DFF8608900F063F831BDC7
:203C800000F0E0F8062000F08DF880497C48FFF7B2FE31BDF8B504000F002078002850D1FF
:203CA00060780002A1784518ADB2764EB088431E2A0000BF94A10220FFF787FD002D04D13C
:203CC000A8210902724800F0AAF97089854238D1F06AF91E4018F062FA1EB088401E85426A
:203CE00014DA92B2E11C2800C0B200F084F8002809D16D1C280070810021664A117080B267
:203D000000F020F8F1BDFFF737FFF1BD92B2E11C2800C0B200F06FF85F4C2000FFF740FEE2
:203D20002000FFF73DFE002000F03CF8002000F0EEF95A48FFF769FE002210215848FEF710
:203D40003BFCF1BD38B505004F4CFF202070FE2060700120A0701520E0700020A080A0714D
:203D60001220E07110224F492000083000F062FF2800000A207665761A21200000F0A4FFBC
:203D800080B2C111090E09180912217160711A21200000F06FFB00F0C7FB43493E48FFF7FA
:203DA0002AFE31BD10B500210122062803D1354B14005C70D962344CFF232370FE2363701E
:203DC0001300A3701623E3700B00A380A171E27120720921200000F077FF80B2C111090E41
:203DE00009180912217160710921200000F042FB00F09AFB10BD80B5224BDB885843244B4C
:203E0000C01800F036F902BD0400FA0510B500241C488188002900D10124C188002900D131
:203E2000022410223EA11C3000F055FF002800D10424200010BD80B528221C49202000F099
:203E4000B5F901BD10B500200E4C0100A180E180218160810246102120001C3000F0BCFE22
:203E60002822211D202000F0A1F910BD0CED00E080B528220D49202000F0B1F901BD0000DD
:203E800070090020F01B0020E41A0020204E0000005800086C0900207C0900208809002087
:203EA000000400500C1C002010270000F41B002080B50020694608700122102000F08FF9B9
:203EC0006846007802BD01B501226946102000F06DF901BD80B50020694608700122112061
:203EE00000F07DF96846007802BD01B501226946112000F05BF901BD01B501226946122002
:203F000000F054F901BD00007265637620626C6F636B207365713A25642F25640A000000DD
:203F2000000000000000000000000000000000000000000038B50400250000F0E0FE002875
:203F400002D0303D280032BD412D13DB473C1A2C10D37B2D0EDA280000F0D6FE002809D086
:203F6000280000F0E3FE002801D0373D00E0573D280032BD0020C04332BDF7B50400002569
:203F80002E0006E0A7193878FFF7D4FF3870761CB6B2684600898642F4DB09E068002018DB
:203FA0000178090140780818019948556D1CADB26846008940088542F0DBFEBD10B56D4C3D
:203FC000606800686C49014080208005814225D16A48FCF7ADF86A48FCF7AAF86948FCF7A8
:203FE000A7F86948FEF729FD6848FEF726FD6848FEF723FD00F0A4FE0A20FEF74EFB0B20A4
:20400000FEF747FB72B661680800001D0068A0602060086880F308882068804710BD70B5B7
:2040200082B00C0072B600260096050000F0A9FE200000F018F800900DE0280000F09AFF74
:20404000544801680822914301600168524A0A4002608035761CB6B200988642EDD300F08C
:20406000A3FE62B673BD0100C809490600D0401C7047F3B581B0160000F083FE701E8708D6
:204080007F1C002400E0641CBC4224D200200090A500781E844209D10322164206D03240BD
:2040A00002984119684600F0C5FD05E0042202984119684600F0BEFD01984519009A29009A
:2040C000022000F045FE002803D1286800998842D9D00120FEBD00F067FE0020FEBD10B522
:2040E00002002E4C2E4880214900002A08D00022FEF762FAC82149002000FFF77CFC10BDE2
:204100000122FEF759FA2000FFF74AFC10BD10B50200244CA020C00580210902002A08D0A1
:204120000022FEF749FAC82149002000FFF763FC10BD0122FEF740FA2000FFF731FC10BD4F
:2041400010B50100184C1648002909D000221021FEF732FAFA2189002000FFF74CFC10BD92
:2041600001221021FEF728FA2000FFF719FC10BD000000000C0A00200000FE2F94190020AC
:20418000041A0020741A0020481B0020801B0020B81B002004200240FFFDFFFF98090020E1
:2041A00000040050A8090020B809002070B505000C00160000F09CFE0F482D1807E0227806
:2041C0002900002000F0A7FE6D1C641C761E002E02D00A488542F2D300F096FE70BD064B84
:2041E000C018002A04E003780B70401C491C521EF9D1704700000000000008080008080809
:20420000002804D0026811700168491C01607047F1B50E00140000252027012C0EDB284619
:2042200001E0401C491C0A78002AFAD1A04201DB2C4600E0241A980700D53027D80708D491
:2042400005E039000098FFF7DBFF6D1C641E012CF7DA317808000BD00098FFF7D1FF6D1C5C
:20426000761CF6E739000098FFF7CAFF6D1C641E012CF7DA2800F2BDF5B585B000200190CF
:2042800000900E000C9D09D102A930220A7048700D9B2A000598FFF7BBFF3DE0002B07D090
:2042A000069A0A2A04D1002902D5012201924E4202A90C000B34C8720E9F002E10E03000E4
:2042C0000699FDF73EFF0A2902DB38003A380918641E3031217030000699FDF732FF0600C5
:2042E000EDD1019800280FD0002D0AD00D98800707D52D210598FFF783FF012000906D1EB2
:2043000002E0641E2D202070009E0D9B2A0021000598FFF77DFF301807B0F0BDF0B585B036
:2043200007000E001400002505E031783800FFF767FF6D1C761C3078010077D02528F4D1F0
:20434000761C00231A46307801006FD02528ECD02D2806D1761C012303E0761C18000223C3
:20436000034330783028F8D03178080030390A2906D29100891849000A18303A761CF3E797
:20438000732809D12168241D002900D132A13800FFF73EFF2D18CDE764280CD12168241D7A
:2043A000612002900193009201230A223800FFF763FF2D18BEE778280CD12168241D612032
:2043C000029001930092002310223800FFF754FF2D18AFE758280CD12168241D412002905A
:2043E00001930092002310223800FFF745FF2D18A0E775280CD12168241D61200290019319
:20440000009200230A223800FFF736FF2D1891E763288FD12168241D03A8017000214170F8
:2044200003A93800FFF7F4FE2D1883E7002F02D0002039680870280005B0F0BD0DB400B5C7
:2044400002AA01A8FFF76AFF009904B0084701B56846FFF763FF02BD286E756C6C29000085
:20446000BFF34F8F64489A490860BFF34F8F00BFFDE70000F1B586B00E0068461DA11422F6
:2044800000F0ECFB934D002280214900281D00F0B3FB002420002870320000BF1AA1281DA9
:2044A000FFF7CCFF281D00F0F3FB6B4610E0069909190F783F11DF5D1771401C097809072E
:2044C000090F595C80B22A181171401C641CA4B280B22A18B442EADB10A1101DFFF7AEFF37
:2044E000281D00F0D5FB28707B480178417007B0F0BD00003031323334353637383941423E
:20450000434445460000000041542B4D4C57554C4441544145583D25642C00002C3078308B
:204520003130300D0A00000080B50B206B49087700F02AF801BD80B50020010007E0684A81
:204540004B005B189B00D218137A5372491C0C29F5D3624908776348FFF722FA6248FFF7DD
:204560001FFA6248FFF71CFA6148FFF719FA6148FFF716FA6048FFF713FA6048FFF710FAB8
:204580005F48FFF70DFA01BD70B5544C544D1C2020564100081880002E58300000F078FBA7
:2045A000020092B231000020FFF705F91C2020564100081880002E58300000F069FB0200D1
:2045C00092B231000220FFF7F6F81C202056410008188000281841684248FFF70CFA1C2022
:2045E0002056002806D10120FFF779FDAA493E48FFF701FA70BD00000400FA0538B505002D
:20460000364C1C20205608280ED100BF3DA1280000F0CCFC00284AD0B1A1083000F0C6FC5C
:20462000002844D1002032BD092832D138A1280000F0BCFC002803D00D3000F0BBFC2082D0
:2046400037A1280000F0B2FC002803D0001D00F0B1FC608234A1280000F0A8FC002803D099
:20466000001D00F0A7FC207531A1280000F09EFC002803D0401D00F09DFCE0822EA1280037
:2046800000F094FC002812D0083000F093FCA0610DE001280BD100BF2AA1280000F086FCC2
:2046A000002804D00F22811D200000F0C3FA207F401C207740B20A2802DAFFF765FF05E091
:2046C00004D1A948FFF76CF900F00CF9012032BD0CED00E0901700204C090020000200207D
:2046E000C00800205409002060090020700900207C0900208809002098090020A80900204B
:20470000B80900202B43475041444452000000005369676E616C20706F7765723A000000B3
:20472000534E523A0000000045434C3A00000000525352513A00000043656C6C2049443A55
:20474000000000002B4347534E3A0000F2B582B00500864E9BA100F029FC002802D00120AB
:204760007077F7BD1C203056032805D099A1280000F01CFC002805D19AA1280000F016FC0F
:20478000002804D0FFF7D7FEFFF7FEFEF7BD00BF98A1280000F00AFC002807D0B07F401C0C
:2047A000B077C0B2062801DBFFF75AFE95A1280000F0FCFB00280BD06D4C2000FEF7BDFF36
:2047C0006C4800F0FDFB00212000FEF7DDFFF7BD1C2030560A280BD267A1280000F0E6FBA5
:2047E000002857D0684601892800FFF707FFF7BD50DB0B2815D160A1280000F0D7FB002803
:2048000004D05948FFF7CCF80A20307780A1280000F0CCFB002804D05348FFF7C1F80A2028
:204820003077009529E0A01D00F0C4FB0700BFB2C020C000874220D2082F1EDB28A12800D3
:2048400000F0B4FB441CFF22C021C9003000203000F0D2F93800420092B2310020312000F3
:20486000FFF78BFB0020B07739003000203000F057F82800201A80B22D18009869460989CB
:204880004018854206D200BF65A1280000F08EFB0400C8D1F7BD0000C0D4010080B5334825
:2048A0001C214156354A4B005B189B00D218437F002B04D000234377537A5B1C5372537AEE
:2048C0005B1E53721B0602D0FFF75EFE01BD0B2905D10A210177FFF72EFEFFF755FE01BDC1
:2048E0002C00000080B52648FFF75AF80020FFF7F6FB24480078012807D10120FFF707FC9B
:204900002148C088FFF71EFA01BD0120FFF718FC0620FFF747FA1D491D48FFF76CF801BDAF
:2049200038B50400207800026278801880B2194A904218D120790002627985180020207166
:204940006071200000F0C0F980B2ADB2A8420AD1A0790002E1794018020092B221000831FA
:20496000E078FFF712F931BD540900200002002094190020B80B00004F4B0000C00800203F
:2049800060090020F01B0020F41B0020204E000070090020FEFF000038B505000C00282CDE
:2049A00005DA220029000220FEF705FF04E0282229000220FEF7FFFE21002800FFF7C6FE44
:2049C00031BD00002B434D45204552524F523A20353000005245424F4F545F4341555345E5
:2049E0005F0000002B434D45204552524F523A20353139002B434D45204552524F523A20B1
:204A0000313539005245424F4F54494E470000004D4C57554C4441544153544154555300BF
:204A20002B4E4E4D493A00007047704770477047BFF34F8F5A485B490860BFF34F8F00BF76
:204A4000FDE780B5FFF777FDFFF79EFD01BD006855490968884204D15448016802220A43F8
:204A60000260704780B552480078002802D1FFF7B9F808E00020FFF74AFB0120FFF760FB7F
:204A80000620FFF78FF94B494B48FEF7B4FF01BD10B54A4C20780100491C2170042804DAF1
:204AA0004748C088FFF74EF910BD00202070FFF7C9F90020FFF72BFB0120FFF741FB0620F8
:204AC000FFF770F93B49201DFEF795FF10BD80B50120FFF711FA0020FFF7F5F9FFF7A8FF68
:204AE00001BD10B5374880214900374C2278002A08D10122FDF760FDFA218900201DFEF760
:204B00007AFF07E00022FDF757FDC8214900201DFEF771FF2078411E8941C90F217010BD00
:204B200010B5A020C00580210902284C2278002A08D10122FDF740FDFA218900201DFEF744
:204B40005AFF07E00022FDF737FDC8214900201DFEF751FF2078411E8941C90F217010BD20
:204B600010B518481A4C2178002909D101221021FDF722FDFA218900201DFEF73CFF08E0AE
:204B800000221021FDF718FDC8214900201DFEF732FF2078411E8941C90F217010BD00002D
:204BA0000400FA050CED00E0481B0020741C0020F11B0020204E0000700900206C0900201E
:204BC000F41B00200004005094090020A4090020B4090020704770471206130A1A43130CCC
:204BE0001A4300BF094205D083070BD00270401C491EF9D1704700001206130A1A43130CAD
:204C00001A4300BF130030B414001500103902D310393CC0FCD2490700D30CC000D504C09F
:204C2000890002D30280801C002900D5027030BC70470000124207D08B0706D00B78491C6A
:204C40000370401C521EF7D87047830706D00B78491C0370401C521EF9D1704770B4103A19
:204C600003D378C9103A78C0FBD2530701D318C918C001D508C908C0D20704D30B880380B2
:204C8000891C801C002A01D50B78037070BC7047010000E0491C0A78002AFBD1081A704763
:204CA00070B4002309E00512064CCE5C4640F0B24000245A280060405B1C9342F3DB70BC3D
:204CC000704700000000002080B50A0001000020FFF7E6FF02BD10B402E0401C491C521E2C
:204CE000002A09D00B7804789C42F6D002D20020C04302E0012000E0002010BC7047303829
:204D00000A288041C00F704710B50400012000F063F9200000F06AF910BD10B504000120BA
:204D200000F05AF9200000F06CF910BD10B50400012000F051F9200000F06DF910BDFEE7A2
:204D400002480168022291430160704710E000E0F2B51700334C207C012801D10220F2BD1B
:204D6000012020745A4D280000F025F80026010005D1666100980760280000F01CF8267419
:204D8000F2BD5448016889070CD50168C90703D551498160514981605149C1605149C16071
:204DA00000207047012070474A48016802220A4302600020704738B50400FCF703F90500BA
:204DC0004A480168C9070CD50020C0438442F7D0002C04D0FCF7F6F8401B8442F0D2032090
:204DE00032BD022102680A4000D001600168C90511D4016889050ED4016849050BD40168C8
:204E0000090508D40168890405D40168890302D40068C00303D500F007F8012032BD0020EC
:204E200032BD0000441C002030B400222E4880235B002E490C681C4004D042690224144346
:204E400044611A004B0D0C681C4006D0446901252543456114001A0022430B0D0C681C4039
:204E600006D0446908252543456114001A002243CB0C0C681C4006D0446904252543456180
:204E800014001A0022439B000C681C4006D0446910252543456114001A0022430B689B03AA
:204EA00006D5202344691C43446114001A00224380235B020C681C4006D044694025254370
:204EC000456110001A0002430A6030BC7047000050C3000004200240EFCDAB890504030239
:204EE000BFAE9D8C16151413441C0020182002401F480168C90705D52849816028498160B2
:204F000000207047012070471948016801220A43026000207047F3B581B01400134D287C7E
:204F2000012801D10220FEBD0127380028741D48FFF741FF0026010016D16E610199022960
:204F400002D102990C600AE0012902D102990C8005E0002902D102990C7000E03800010058
:204F600002D01048FFF727FF2E74FEBD441C00200420024010B40021074A51610A4A1368F1
:204F8000540D1C431460136808241C4314607F229043016010BC7047441C0020EFCDAB899B
:204FA0000504030250C300000420024080B500F037F802BD80B50A22002100F0DEF802BD50
:204FC00011B581B0FBF7FEFF0400FBF7FBFF001B01998842F9D313BD10B50400024800F0DD
:204FE000F9F8A100405810BD200A0020010061391A2901D20120704741381A288041C00F9C
:20500000704701000939052901D3202801D1012070470020704741381A288041C00F7047C9
:2050200070B40A78130008D114E05B1C1E78A6420AD001E0002C0CD0401C04789442F9D1BA
:20504000002806D003000D006D1C2C782600ECD100E0002070BC7047FAB585B0070016004E
:20506000002B01D0002018603C0000E0641C2078FFF753FE0028F9D120782D2801D02B281E
:2050800003D169460870641C02E02B2069460870002E41D4012E3FD0252E3DDA012E0ADB42
:2050A000102E16D12078302813D160782021014378290ED10AE02078302801D00A2608E057
:2050C000607820210143782902D11026A41C00E00826049400E0641C20783028FBD0002523
:2050E000039400BF27A06946487008E0029569464978401AC0B2019075432D18641C2078CB
:2051000000F069F8010032001EA000F06DF80028ECD10498A04205D10598002800D00760C3
:20512000002028E00398201A20A1895D401A17D4012808DA0198281A05D33100FDF701F8AA
:20514000029988420CD000F05BF8222101600698002802D00120069908600025ED4305E02D
:20516000684600782D2801D1684205000598002800D00460280007B0F0BD80B50023FFF760
:205180006BFF02BD303132333435363738396162636465666768696A6B6C6D6E6F7071726E
:2051A000737475767778797A0000000000002115110E0D0C0B0B0A0A09090909090808085E
:2051C0000808080807070707070707070707070707000000704710B504000120FFF7FCFEC3
:2051E000200000F015F810BDC9B201E0401C521E002A03D003788B42F8D170470020704701
:2052000080B50248FFF7E6FF02BD00008C0A0020010041391A2900D2203070477047FEE78C
:205220007047704780B500F075F8FDF74AFA01BD80B52B48FEF758F801BD80B50120FDF783
:20524000C1F901BD80B52020FDF7BCF94020FDF7B9F901BD80B52348FCF7E4F82248FCF728
:20526000E1F801BD80B52148FCF7DCF82048FCF7D9F82048FCF7D6F81F48FCF7D3F801BDFA
:2052800080B51E48FDF712FE01BD80B51C48FDF70DFE01BD80B51B48FDF708FE01BD10B546
:2052A000194C012210492000FEF702FA2000FBF76BF810BD10B5154C02220D492000FEF705
:2052C000F7F92000FBF760F810BD10B5104C002208492000FEF7ECF92000FBF755F810BDED
:2052E000201C00205015002010150020D01500209015002090140020D0140020481B002073
:20530000801B0020B81B0020041A0020741A00209419002002480168491C0160704700BF37
:20532000781C00200F480168820D0A430260C1680D4A0A40C26001680C4A0A40026081687B
:205340000122914381600168094A0A400260C168084A0A40C26000210161802000050649AF
:2053600008607047001002400C40FF88F6FFF6FEFFFFFBFFFFFF02FF08ED00E00000000034
:20538000000000000102030406070809030406080C1018203000000070B40121002213E0F1
:2053A0000468001D0C4202D04D466D1E64192260241D1B1F042BFAD225009E0701D522806F
:2053C000AD1C0B4000D02A700368001D002BE7D170BC704710B5074979441831064C7C44D4
:2053E000163404E0081D0A68891888470100A142F8D110BD08000000240000009DFFFFFF38
:20540000EC0D0000900E0020000000007FC2FFFF7E0000005A0600000000002000F00BF8A5
:20542000002801D0FFF7D6FF002000BF00BFFCF7E3FE00F002F80120704780B500F002F855
:2054400001BDFEE70746384600F002F8FBE7FEE780B500BF00BF024A11001820ABBEFBE79A
:20546000260002000148804701480047255300087554000800BF00BF00BF00BFFFF7CEFF54
:205480000000000001020304FEE7FEE7FEE700FE00002110422063308440A550C660E770F9
:2054A000088129914AA16BB18CC1ADD1CEE1EFF13112100273325222B5529442F772D6625C
:2054C000399318837BB35AA3BDD39CC3FFF3DEE36224433420040114E664C774A44485541C
:2054E0006AA54BB528850995EEE5CFF5ACC58DD55336722611163006D776F6669556B446DC
:205500005BB77AA719973887DFF7FEE79DD7BCC7C448E5588668A77840086118022823389B
:20552000CCC9EDD98EE9AFF9488969990AA92BB9F55AD44AB77A966A711A500A333A122A5B
:20554000FDDBDCCBBFFB9EEB799B588B3BBB1AABA66C877CE44CC55C222C033C600C411C1B
:20556000AEED8FFDECCDCDDD2AAD0BBD688D499D977EB66ED55EF44E133E322E511E700EDB
:205580009FFFBEEFDDDFFCCF1BBF3AAF599F788F00FE8891A981CAB1EBA10CD12DC14EF125
:2055A0006FE18010A100C230E3200450254046706760B9839893FBA3DAB33DC31CD37FE35C
:2055C0005EF3B1029012F322D2323542145277625672EAB5CBA5A89589856EF54FE52CD59C
:2055E0000DC5E234C324A01481046674476424540544DBA7FAB79987B8975FE77EF71DC71C
:205600003CD7D326F2369106B01657667676154634564CD96DC90EF92FE9C899E9898AB9DB
:20562000ABA94458654806782768C018E1088238A3287DCB5CDB3FEB1EFBF98BD89BBBAB5B
:205640009ABB754A545A376A167AF10AD01AB32A923A2EFD0FED6CDD4DCDAABD8BADE89D1B
:20566000C98D267C076C645C454CA23C832CE01CC10C1FEF3EFF5DCF7CDF9BAFBABFD98F1B
:20568000F89F176E367E554E745E932EB23ED10EF01EF20A0001F3FFFF0001F1FF01F1FF57
:2056A00001F1FF01F1FF01F1A101300941542B4346554E3D300D0A0C400347534E3D310C1A
:2056C00010144E4344503D31302E3134332E3133322E312C353638331CA10121284352421A
:2056E00015614C51407002434D45454C70014E4D49188004474154543D3134700447504170
:205700004444521030064E5545535441545311100720080020B80B0000050C922C0C92381A
:205720000C12600C4370170C926C1892780C92840C92900C12A00C2002881300006C52B0A4
:2057400018DE031807439417242130100380841E00010812FF0150039D480008020C20020E
:20576000434A00083752041012651052080C12910C12100C214452CF2852201C52E310525A
:20578000401043214B105280105261109003000608001098A00A900E00206C1C00205C1C84
:1B57A0000020AF400894190020041A0020741A182144A20001525850F16601CC
:20580000D807002031FA0008EDF70008EFF70008000000000000000000000000000000007C
:20582000000000000000000000000000F1F700080000000000000000F3F70008F5F7000892
:2058400013840008C7C3000801F800089BE3000823EA00080BF8000817EB000815F8000851
:2058600000000000DBEF00082DF800083DF8000823F1000843F200080000000059F800083A
:20588000000000004FF20008000000000000000063F80008000000006DF800082FFA0008BE
:2058A00055FA000857FA000859FA000877F800087DF800088FF8000800000000000000005A
:2058C000BFF34F8FA148B6490860BFF34F8F00BFFDE70000F8B502F09DFD62B602F0AAFDCB
:2058E00000F0E1F802F0B4FD02F0ACFD98480168802212020A43026002F0B2FD02F024FE3E
:2059000002F040FE02F0E0FE03F052F903F082F902F0F4FE02F00CFF03F02EFA03F080FA72
:2059200001F0BCFD00F016F900F068F903F0D0FF9C4804F010F9FA20400004F023F99A4D79
:2059400078202870EA2068701A20A870A720E8709648A88006222900082004F01FF9012216
:205960009349002004F033F9DB48017C914804F0F2F80120D84908740B228F498F4804F026
:2059800037F904F095FA04F047FB032302220021032004F056FB00BF894E8A4F8A4C02F014
:2059A000B9FC01E002F0EEF9687E0028FAD0687E0128F4D1687D002826D184A004F0CBF8ED
:2059C000834804F0DFF801F0F5FC032004F0A0FB2078C007FCD56288211D380005F045F9DA
:2059E0002078FE210140217006227A49201D05F0B3FDA875A87D0028EAD001206875764871
:205A000004F0A9F801F0D9FC74480078297B002916D10121297300213170002805D1AE48CF
:205A2000007C012801D102F069FAAB48007C01281CD16B4804F08FF86A4805F05BFE15E0F2
:205A4000012813D1684804F086F800F0B7FD674802F0BCFF664802F0B9FF380002F0B6FFE0
:205A600002F008FC01F078FD00F07CF9307800289DD15E4802F076FE5D4802F073FE3800DB
:205A800002F070FEB24804F066F830780028EDD101F060FE05F09FFE02F0EEF900F0C4FE60
:205AA00002F070F9F1E710B59AB0524852490A680240CB0C13430B60A6490A68104008600A
:205AC00006200C90FA300E9001200F9010201090022015900024169440041790C020000448
:205AE00018900CA805F0C8FE002800D0FEE70F2007900320089009940A940B94002107A887
:205B000006F0AAF8002800D0FEE727200090029403940494802040020190684606F038FA2B
:205B2000002800D0FEE706F085F9FA21890006F098FB06F019FC042006F02AFC0022002159
:205B40000020C04306F0FEFB1AB010BD0400FA050C1002408048FA210170D1214170012122
:205B600081700221C1707D4800218172C1727C49097801703C214170002181703C21C1706F
:205B8000002101716421C171FF21017291480121017100214171012181700021C1707047CC
:205BA0000CED00E098F200081402002033160000A8180020A8F20008B8F20008281C002063
:205BC000861D0020FC190020D807002031310000B80B0000C4F20008CCF20008D50200202E
:205BE000D4F20008281D0020DCF200081C1900208C190020FFE7FFFF0070004010B576486B
:205C000002F0A2FF344801214161FA2189008161724AC261724A02231360C8235360714B9E
:205C20009360802252000262962242626E4A82620822C2626D4A02636D4A42636D4A102371
:205C4000136051606C4B93606C4A80235B0113606B4B53606B4B93606B4A402313606B4BFB
:205C600053606B4B9360802282634A00C263694B0364694B8024A4001C60684C5C60684C1B
:205C80009C60684B8024E4001C605A60664A9A6062004264C82292008264644BC364644BFE
:205CA00004241C60634C5C60634C9C60634B8024A4011C60624C5C60624C9C608023DB0124
:205CC00003654265604B836580231B02C3655F4B03665F4B02E000BF9818002043668023C0
:205CE0005B028366C1665B4901675B4B8021C90219605A495960954C9C60954B80242403BC
:205D00001C605A60934A9A60620042678167A749C16710BD80B500F0A3FB01BD8E494A6A92
:205D200000688E4B1B68984202D1130004221A438B4B1B68984202D1130008221A439C4BD5
:205D40001B68984202D11000102202434A627047ECF2000850100240F0020020BC020020B1
:205D6000D402002010B592B00121012006F02CFB90480168802252050A4302608E4801689E
:205D80008E4A0A40C10C11430160684606F06CF8062000900124039410200490F03002906F
:205DA0000220099000200A90A0040B90C02000040C90684605F060FD002800D0FEE70D9431
:205DC0000E9401210DA805F047FF002800D0FEE712B010BDCC020020FFFF0000615E0008F0
:205DE000281D0020655F00086D5F000860EA000001600008E402002003600008401D0020FD
:205E0000983A0000F16200082803002070170000456A0008B5630008A41C0020C8AF000055
:205E2000BD630008101D0020C5630008317B0008341D0020E8FD0000E17B00084C1D0020C6
:205E400010270000617C0008697C000830750000BD7C0008317D0008B01C00208813000016
:205E6000F8B5574C207C3C4D297BA27801260027130009D1002955D1012802D020780528A5
:205E800050DABE490E704DE0012A4BD14D4A12780B000BD12E73002A03D1012801D102F04B
:205EA0002DF8207C01283DD1474839E0012939D1012A37D145480078012804D1444805F057
:205EC000E1FB02F09BF843480078012812D1424805F0D8FB414805F0D5FB414805F0D2FB67
:205EE000404805F0CFFB404805F0CCFB3948077004F00DF93D490E70EE732E743C488671A3
:205F00003C493D4A1278012A02D13C4A127800E00A786A740E70067064202B4948600846BB
:205F200005F0E8FB27702771287B01280DD1294800782649097801432C480078084304D187
:205F40008F4803F008FE8D480670F1BD818000081C1D00208980000814020020181B00207C
:205F6000501B002080B500F0C9FA01BD80B500F0FDFB8448417A022917DA491C41721148BF
:205F8000007801280ED08048017880480A0003D100228021490003E0012903D1002210215B
:205FA00006F077FBC84805F0A5FB01BD0D830008881B00203810024000700040FFE7FFFF9D
:205FC00098180020D5020020281D00208B1D0020401D00208A1D002028030020341D0020CD
:205FE000B01C0020E4020020A41C00208E1D0020BC020020D4020020DB020020811D002075
:206000007047F0B5BDB0012761480078002801D160490F700024604D604E61480078012883
:2060200042D160480078401C5E49087016205E490870D3207070E87C152148432D30307167
:20604000000A707152480078002802D1EC746F74AC74564907A8D32203F0CAFD290002A815
:20606000142203F0C5FD310084B06846172203F0BFFD0FBC03F054F9317970790006000C8A
:2060800001434B4803F067FD4648007805286CDB44490C7042490C703D480078010047D033
:2060A000012868D1894849E089480078012862D188480178012902D10470FFF701FC864963
:2060C0000C738F72CC72EC746F74AC74D120707000203130307174711620334908707F49D5
:2060E00008A8D32203F084FD7B4904A80D2203F07FFD310082B06846172203F079FD0CBCFE
:206100000021112004F004F8754803F024FD75480178491C0170744ACA4B5A60C9B2062929
:2061200023DB6B4A1470047019480078010002D1FFF7C6FB1FE001281DD16C4803F00BFD8B
:20614000934805F09FFA934805F09CFA924805F099FA924805F096FA03F0D9FF90480460A8
:20616000904804700548077005E05F48B5494860084605F0BFFA3DB0F0BD0000861D002084
:20618000F4F20008140200209A1C002000040050D50200209C1C0020F81C0020F00200209C
:2061A000951D0020961D0020D60200202817002000F30008F8B505007B4C2000803000900F
:2061C000280006F0BBFA00990860280006F098FB76490860002601250178012937D1C178E3
:2061E000734F3878884203D23970974803F0B3FC207C00282BD13878002828D001F0FEFEE7
:2062000000980068C670914803F0A5FC2574012221001031002003F0C1FC00F0A7FA8C4888
:2062200005F030FA2000203005F02CFA894805F029FA01F041FC00221021874806F029FA62
:206240002948A0672000743005F054FAF1BD00980068C178814803F07EFC00980068C0786A
:20626000012830D1A079012803D17A4805F00AFAA671207A002826D125729C489C499D4A0C
:206280001278002A10D1144BDA781D792D062D0C2A43792A0DDA984A637A012B02D0137877
:2062A000012B06D1167005E0627B002A01D1657300E00800206620005C3005F01BFA216E0C
:2062C000AF4803F048FCF1BDB818002018F30008DA020020CC020020BC020020541600208D
:2062E00028F30008891D00208813000030F3000870B5814D2C4C607A012802D028780128E6
:2063000001D10C2000E00620618A491C6182002689B2042923D12649097800291FD19948DA
:2063200003F019FC0020217C002918D101F066FE954803F010FC464805F0A4F920002030C5
:2063400005F0A0F901F0B8FB002280214900424806F09FF98D48A0672000743014E0618A68
:20636000814210D366722E70A671894803F0F3FB668288480078012808D1A67101F03EFEC2
:2063800001F0BCFD70BD334805F0B4F970BD000028030020341D0020B01C0020A41C002054
:2063A000781D00209B1C002098180020741D0020821D002080B500F0FDFF01BD80B501F00C
:2063C0008BF801BD74480078002800D0704770B5BEB0724C2088401C208080B2062829DA41
:2063E0006F4D704E287B1521484331303071000A70716D4908A8D32203F0FAFB290004A8BA
:206400000D2203F0F5FB310082B06846172203F0EFFB0CBC0021112003F07AFE16206349DC
:20642000087063482188032901DBAC49416005F061F903E000202080FFF742FA3EB070BDB3
:2064400000000000E402002040F3000858F30008281D0020401D00200004005068F300080F
:20646000F8B50024A027FF05524D0126012817D1687D012838D10121380006F004F900281D
:2064800005D1686A06436E62B6480470F1BD0121380006F0F8F8012826D1686A022121E0C5
:2064A000402816D14021380006F0EDF8002803D1AE720022310208E04021380006F0E3F856
:2064C000012811D1AC72012211023B4806F0E1F8F1BD202808D1687F002805D1A1480470FA
:2064E000686A202101436962F1BD000030750000B80B0000931D0020D7020020F8B5A54CFD
:20650000A17AA54F7648092923DA0278002A20D1002901D100F02AF972480278A020C00523
:2065200080210902022A01D0002A05D1227C012A04D11021204801E0012A01D106F0AFF800
:20654000A07A401CA072C8207860380005F0D2F8F1BD0025A572012606706348007800F062
:20656000C5F81448817B012909D18573380005F089F87D480560E672884803F0ECFAF1BD83
:2065800078F3000884F3000898F3000888130000A8F300088B1D0020D502002096180020AB
:2065A000BC020020F002002054160020D6020020101D00201402002000040050F8B500F0F5
:2065C000D5F80127764D774C4021A020C00506F05AF8002803D1A7720022390207E0A07A9F
:2065E000012807D1E07A012804D100221021280006F04FF86C4801786C483A4A6C4B002549
:206600001E78012E0BD11D70637C0B4307D115700570684B1B78012B01D1674B1D70674E15
:20662000674B1B7819430DD111780A0002D14178827803E0012905D1C17802791206120CF5
:206640001143318002F0D0FC5E484078002801D05D48057031885D4803F07DFA424801684B
:206660005B4803F078FA5B4801785B4803F073FAA16A5A4803F06FFA51480178584803F045
:206680006AFA58480178584803F065FA574803F062FA15205649087032480770554805704E
:2066A000554805703B48C57254490D700580C57153490D7053490D7053490D7053490D70D5
:2066C00053490D70C573E57452490D7052490D7005734574E5752576F1BD000010270000D5
:2066E000871D0020D40200204003002070B500F03DF82C4B00255D72264C274A47480078DE
:20670000002806D14648506001F0BEF92000203024E0A020C005802109021E7C012E07D14E
:206720001D74002205F0B5FFFA20C000A06413E01E7A012E14D11D72C825AD005560394A1F
:206740001278012A01D1002203E0002A03D11021134805F09EFFA5642000443004F0CAFF37
:2067600070BD0000861D0020781D002010B50C4C01221102200005F08CFF0122102120000D
:2067800005F087FF0122D103A020C00505F081FF10BD000098180020281D0020B8F30008D8
:2067A0000004005014020020931D0020BC0200208E1D0020DB020020811D0020E002002019
:2067C000801D0020FC1B0020121C0020C8F30008D8F30008921D0020ECF30008FCF3000834
:2067E00008F40008911D002020F4000838F40008D6020020981C00209A1C00208A1D00200E
:20680000971D0020941D0020981D0020881D00209D1C0020961D0020891D0020D5020020D0
:20682000B80B0000D4020020F0B5BDB00024774EF07A012811D1F472754800787549097855
:20684000012906D174490978084306D101F094FB03E0084301D101F051FB704800780128C1
:206860005FD16F48007801285BD16E490878002857D1012008706C4D6C4916226C4B1F7850
:20688000012F17D11C706B4B18700A70192028716C71694803F05FF9290084B068461722AD
:2068A00003F0A6F90FBC02F0CBFF6448B0673000743034E0624E9C4B1B78012B03D09B4B05
:2068C000DF7C012F2ED10A70D1206870307B1521484331302871000A687129796879000619
:2068E000000C01439A4803F036F99A4908A8D32203F07EF9310004A80D2203F079F92900B8
:2069000082B06846172203F073F90CBC0021112003F0FEFB90490C7090480470904804F08C
:20692000E9FE70E08F4F3F78012F31D10A708E4FB179012900D1F8708C48007803F0A0FE98
:20694000344800783871D3206870F87C152148432D302871000A6871854907A8D32203F05C
:2069600047F9390002A8142203F042F9290084B06846172203F03CF90FBC02F0D1FC2979F8
