:020000040800F2
:105800008008002001F90008BDF60008BFF6000876
:105810000000000000000000000000000000000088
:10582000000000000000000000000000C1F60008B9
:105830000000000000000000C3F60008C5F60008E4
:10584000D78300087FC20008D1F6000853E20008A1
:10585000DBE80008DBF60008CFE90008E5F6000801
:105860000000000093EE0008FDF600080DF70008A8
:10587000DBEF0008FBF000080000000029F700083B
:105880000000000007F10008000000000000000018
:1058900033F70008000000003DF70008FFF800089B
:1058A00025F9000827F9000829F9000847F700083A
:1058B0004DF700085FF7000800000000000000003E
:1058C000BFF34F8FA448A5490860BFF34F8F00BFB7
:1058D000FDE70000F8B502F07FFD62B602F08CFD36
:1058E00000F0C1F802F096FD02F08EFD9C480168C0
:1058F000802212020A43026002F094FD02F006FECA
:1059000002F022FE02F0C4FE03F038F903F068F959
:1059100002F0D8FE02F0F0FE03F016FA03F06AFA85
:1059200001F043FE00F0F2F800F040F903F021FF2F
:105930008C4804F056F8FA20400004F069F88A4DCB
:10594000752028703C2068709D20A8708920E87020
:105950008648A88006222900082004F065F8D34C68
:10596000012221001D31002004F077F8617F80487A
:1059700004F037F8012060770B227E497E4804F05E
:105980007DF804F0DDF904F08DFA032302220021F2
:10599000032004F09CFA00BF784E794F794C01E067
:1059A00002F014FAE87A0028FAD0E87A0128F9D14E
:1059B000687A002826D174A004F013F8734804F024
:1059C00027F801F075FD032004F0E8FA2078C007FD
:1059D000FCD56288211D380005F0A3F82078FE214F
:1059E0000140217006226A49201D05F011FDA872B0
:1059F000A87A0028EAD001206872664803F0F1FF17
:105A000001F060FD644803F0ECFF00F0AFFD634877
:105A100002F0C2FF624802F0BFFF380002F0BCFF94
:105A200002F054FC01F026FE00F068F930780028FE
:105A3000BBD15A4802F07AFE594802F077FE38008E
:105A400002F074FEA94803F0CCFF30780028EDD1B5
:105A500001F05CFF05F01BFE02F02EFA00F0D8FE0C
:105A600002F0B4F9F1E710B59AB04E484E490A6811
:105A70000240CB0C13430B60BC490A68104008601D
:105A800006200C90FA300E9001200F9010201090FC
:105A9000022015900024169440041790C0200004A2
:105AA00018900CA805F044FE002800D0FEE70F2057
:105AB00007900320089009940A940B94002107A8EA
:105AC00006F026F8002800D0FEE727200090029478
:105AD00003940494802040020190684606F0B4F9D3
:105AE000002800D0FEE706F001F9FA21890006F04F
:105AF00014FB06F095FB042006F0A6FB0022002113
:105B00000020C04306F07AFB1AB010BD7848FA2195
:105B10000170D1214170012181700321C17075484C
:105B200000218172C1727449097801703C21417071
:105B3000002181703C21C170002101716421C1717B
:105B4000FF2101728A480121017100214171012167
:105B500081700021C17070470400FA050CED00E06F
:105B60000C10024050F1000814030020331600000E
:105B700060F1000870F100084C1C0020B41D0020EA
:105B8000201A00208008002031310000B80B0000EE
:105B90007CF1000884F100088CF100084019002015
:105BA000B0190020FFE7FFFF00700040F8B5714812
:105BB00002F0B0FF3D4801214162C82189008162A5
:105BC0006D4AC2626D4A02231360C82353606C4B56
:105BD000936080225200026396224263694A826384
:105BE000694A08235360694B9360694CD460694DDE
:105BF00010242C60FA24A4006C60674EAE60674DE0
:105C0000802676012E609E086E60654EAE60654D02
:105C100040262E60644E6E60644EAE608025C56383
:105C200065000564624E4664624E8027BF0037609F
:105C30007360614BB360614B7E001E605D60604DC0
:105C40009D6073008364C1645E4B03655E4B0425F5
:105C50001D605E4D5D605E4D9D605E4BF5001D609C
:105C60005D4D5D605D4D9D603301136151615C4B25
:105C70009361730143655B4B83655B4BC365B30104
:105C8000D3611462594B5362594A33021360974BE4
:105C90005360974C94607202026641669549816632
:105CA0005100C1660367A9494167F1BD1402002094
:105CB00080B500F0A5FB01BD8F498A6F00688F4B4E
:105CC0001B68984202D1130004221A438C4B1B68B4
:105CD000984202D1130008221A439D4B1B68984238
:105CE00002D11000102202438A6770479CF100081D
:105CF0005C030020280300204003002010B592B070
:105D00000121012006F0BCFA924801688022520568
:105D10000A43026090480168904A0A40C10C11434E
:105D20000160684605F0FCFF062000900124039402
:105D300010200490F03002900220099000200A9078
:105D4000A0040B90C02000040C90684605F0F0FC05
:105D5000002800D0FEE70D940E9401210DA805F057
:105D6000D7FE002800D0FEE712B010BD5010024050
:105D700038030020FFFF0000F55D0008401D0020F3
:105D8000055F00080D5F0008941C002060EA000019
:105D90009D5F0008500300209F5F0008581D0020F1
:105DA0008962000894030020701700004D6A000803
:105DB00059630008C81C002061630008341D0020DE
:105DC000696300083D7B00084C1D0020E8FD0000D1
:105DD000117C0008641D002010270000AD7C000825
:105DE000B57C000830750000157D00088D7D000829
:105DF000D41C0020F8B5404C607F217BA27801259F
:105E00000026130009D100295CD1012802D0207896
:105E1000052857DAC0490D7054E0012A52D1504F7D
:105E20000A000CD125734F490978002903D10128B4
:105E300001D102F089F8607F012843D13FE00129B8
:105E400040D12000483005F079FB00F07DFC45484A
:105E50000078012836D144480078012804D143480D
:105E600005F06CFB02F0D2F841480078012812D10D
:105E7000404805F063FB404805F060FB3F4805F0F3
:105E80005DFB3F4805F05AFB3E4805F057FB38489C
:105E9000067004F082F83C490D706574A5743B48A7
:105EA00085713B493B4A1278012A02D13A4A12785D
:105EB00000E00A78E2740D700570642078603800A4
:105EC00005F074FB26702671207B01280DD128482F
:105ED00000782549097801432B480078084304D10C
:105EE0008E4803F07EFD8C480570F1BD88130000DC
:105EF000958000089D800008140200203C1B0020B3
:105F0000741B002080B500F0C9FA01BD80B500F017
:105F10001BFC83484178022917DA491C417011485B
:105F2000007801280ED07F4801787F480A0003D10D
:105F300000228021490003E0012903D10022102121
:105F400006F003FBC54805F031FB01BD4D83000899
:105F5000AC1B00203810024000700040FFE7FFFF3C
:105F6000401D002041030020B91D0020581D0020C5
:105F7000B81D0020940300204C1D0020D41C0020DC
:105F800050030020C81C0020BC1D00202803002056
:105F90004003002047030020AF1D00207047F0B5EC
:105FA000BDB0012761480078002801D160490F7019
:105FB0000024604D604E61480078012842D160485D
:105FC0000078401C5E49087016205E490870D32096
:105FD0007070E87C152148432D303071000A7071D3
:105FE00052480078002802D1EC746F74AC745649A2
:105FF00007A8D32203F042FD290002A8142203F0CF
:106000003DFD310084B06846172203F037FD0FBC18
:1060100003F06EF9317970790006000C01434B48AA
:1060200003F0DFFC4648007805286CDB44490C701F
:1060300042490C703D480078010047D0012868D1E2
:10604000874849E087480078012862D1864801786E
:10605000012902D10470FFF733FC84490C738F725D
:10606000CC72EC746F74AC74D1207070002031303D
:10607000307174711620334908707D4908A8D32205
:1060800003F0FCFC794904A80D2203F0F7FC310071
:1060900082B06846172203F0F1FC0CBC00211120ED
:1060A00003F07CFF734803F09CFC73480178491CA3
:1060B0000170724A9C4B5A60C9B2062923DB694AB7
:1060C0001470047019480078010002D1FFF7F8FB42
:1060D0001FE001281DD16A4803F083FC694805F0E0
:1060E0002DFA924805F02AFA914805F027FA9148CE
:1060F00005F024FA03F051FF8F4804608F480470C4
:106100000548077005E08E4887494860084605F055
:106110004DFA3DB0F0BD0000B41D0020A4F1000810
:106120003E190020BE1C0020000400504103002046
:10613000C01C00201C1D00205C030020C21D00208C
:10614000C31D002042030020D0170020B0F100083A
:10615000F8B504007B4F06F04DFA7860200006F099
:106160002BFB794908600026784C0125017801292C
:1061700038D1C17876480078884204D274480170DA
:10618000744803F02EFC607F00282BD17048007803
:10619000002827D001F03AFF7868C670924803F0D3
:1061A00020FC6577012221001D31002003F03CFC1A
:1061B00000F0CAFA8D4805F0C1F92000303005F032
:1061C000BDF98B4805F0BAF901F0A4FC00221021BA
:1061D000884806F0BAF92948206720006C3005F09D
:1061E000E5F9F1BD7868C178834803F0FAFB786877
:1061F000C078012830D1A079012803D17C4805F06E
:106200009DF9A671207A002826D125727B489F49E6
:106210009F4A1278002A10D1144BDA781D792D0686
:106220002D0C2A43792A0DDA9A4A637A012B02D07F
:106230001378012B06D1167005E03A78002A01D1B7
:106240003D7000E00800A0652000543005F0AEF974
:10625000A16DB34803F0C5FBF1BD0000440200206E
:10626000C8F100084603002038030020280300205E
:10627000FC160020D8F10008B71D0020881300008C
:10628000E0F1000894030020F8B5824F2F4C607AAB
:10629000012802D03878012801D10C2000E0062026
:1062A0007D4D6988491C6980002689B2022923D165
:1062B0002749097800291FD19A4803F092FB002052
:1062C000617F002918D101F0A1FE974803F089FBF6
:1062D000464805F033F92000303005F02FF901F081
:1062E00019FC002280214900424806F02EF98F480F
:1062F000206720006C3014E06988814210D36672F8
:106300003E70A6718A4803F06CFB6E808948007865
:10631000012808D1A67101F079FE01F015FEF1BD4A
:10632000334805F043F9F1BD500300204C1D002017
:10633000D41C0020C81C0020A41D0020BF1C00206D
:10634000102700007C1D0020A01D0020140200204A
:10635000B01D0020F0F1000880B501F0A9F801BDE2
:1063600080B501F03FF901BD73480078002800D0E6
:10637000704770B5BEB0714C2088401C208080B240
:10638000062829DA6E4D6F4E287B1521484331309F
:106390003071000A70716C4908A8D32203F06EFBBB
:1063A000290004A80D2203F069FB310082B0684681
:1063B000172203F063FB0CBC0021112003F0EEFD5B
:1063C00016206249087062482188032901DBBB4915
:1063D000416005F0EBF803E000202080FFF770FA41
:1063E0003EB070BD0000000008F20008401D002013
:1063F000581D00200004005018F2000830750000FD
:10640000F8B5544C0025A027FF050126012818D116
:106410005148407A012838D10121380006F08FF820
:10642000002805D1A06F0643A667C6480570F1BDD8
:106430000121380006F083F8012826D1A06F02213F
:1064400021E0402816D14021380006F078F80028D5
:1064500003D1A6720022310208E04021380006F084
:106460006EF8012811D1A572012211023B4806F0F5
:106470006CF8F1BD202808D1E07F002805D1B14893
:106480000570A06F20210143A167F1BDB80B00008A
:10649000C01D002043030020941C0020F8B5304CA0
:1064A0002178304F2B4D3048092923DA0278002A11
:1064B00020D1002901D100F047F981480278A020BD
:1064C000C00580210902022A01D0002A05D16A7F75
:1064D000012A04D11021214801E0012A01D106F04E
:1064E0003AF82078401C2070C8207860380005F009
:1064F0005DF8F1BD0026267001240470E87D00F0EF
:10650000E3F8287C012809D12E74380005F016F82C
:106510006C4806606C73964803F063FAF1BD0000A6
:1065200028F2000834F2000848F20008881300003E
:1065300058F20008B91D002041030020AC1D0020C6
:10654000280300205C030020FC16002042030020EA
:10655000341D002014020020140300200004005009
:10656000B31D0020401D0020B51D0020F8B500F02F
:10657000EBF801277F4D804C4021A020C00505F09D
:10658000DEFF002803D1A7720022390207E0A07ABB
:10659000012807D1E07A012804D100221021280027
:1065A00005F0D3FF75480078754E4549754A0025BA
:1065B0001378012B0BD11570E27C024307D10D70CB
:1065C0003570714A1278012A01D1704A1570704AEB
:1065D000127810431ED1087801000AD17178B07882
:1065E0000006000C01436B4803F0FBF97078B178AA
:1065F0000BE001280ED1F17830790006000C014340
:10660000654803F0EEF9F07831790906090C084382
:106610006249088002F0D4FC61484078002801D02B
:1066200060480570A17F604803F0DBF95B48018892
:106630005E4803F0D6F9234801685D4803F0D1F9BC
:106640005C4801785C4803F0CCF95C4801785C4810
:1066500003F0C7F9E16F5B4803F0C3F94C480178D8
:10666000594803F0BEF949480178584803F0B9F990
:10667000574803F0B6F9152056490870314807709D
:106680005548057055480570657355480570258057
:106690002571E571534805705348057053480570DE
:1066A00053480570534805706575A57552480570C7
:1066B00052480570E581E5762583F1BD102700007D
:1066C00040030020A41D002038B500F03DF84C4ADE
:1066D00000235370284C4B494B480078002806D1C2
:1066E0004A48486001F005FA200030300DE02148AA
:1066F000A57C012D0CD1A3740022102105F025FFEB
:10670000FA20C000E0642000483004F04FFF31BDA3
:106710001578012D14D11370C825AD004D60BA490C
:106720000978012905D1002280210902A020C00595
:1067300003E0002903D10022102105F006FFE564E3
:1067400031BD0000B41D002010B50A4C0122110219
:10675000200005F0FAFE01221021200005F0F5FED0
:106760000122D103A020C00505F0EFFE10BD0000FE
:1067700068F200080004005014020020C01D002030
:1067800028030020BC1D002047030020AF1D00206F
:10679000AE1D002078F200088CF200084C030020A7
:1067A000201C0020361C0020A0F20008B4F20008D3
:1067B000C4F20008351C0020D8F20008BF1D0020DC
:1067C000F4F2000804F3000810F3000828F30008AE
:1067D00040F3000842030020BC1C0020BE1C002027
:1067E000B81D0020C41D0020C11D0020C51D0020B3
:1067F000B61D0020C11C0020C31D0020B71D0020B5
:106800003E190020401D002041030020B80B00006D
:10681000F0B5BDB000247D4E707B012811D174739A
:106820007B48007878490978012906D179490978A7
:10683000084306D101F0C8FB03E0084301D101F091
:1068400083FB75480078012868D1744800780128D6
:1068500064D173490878002860D10120087016219E
:10686000704D714A1378012B21D114706F4B187041
:106870006F4A10706F480170192028716C716E4852
:1068800003F0AFF8290084B06846172203F0F6F849
:106890000FBC02F021FFAC490C70B6480470674889
:1068A00004F084FE6648306730006C3034E0654F99
:1068B000654A1278012A02D0B27D012A2FD15D48A3
:1068C0000170D1206870387B152148433130287120
:1068D000000A6871297968790006000C01439B4819
:1068E00003F07FF89A4908A8D32203F0C7F83900CB
:1068F00004A80D2203F0C2F8290082B068461722CE
:1069000003F0BCF80CBC0021112003F047FB8E49BA
:106910000C7098480470494804F048FE72E0964AAA
:106920001278012A32D1434A1170944EB979012963
:1069300000D1F0709248007803F0F4FD32480078FE
:106940003071D3206870F07C152148432D302871B8
:10695000000A68718B4907A8D32203F08FF8310031
:1069600002A8142203F08AF8290084B0684617228E
:1069700003F084F80FBC02F0BBFC297968790006AB
:10698000000C0143804803F02CF82FE0002A34D19A
:106990007E480078012803D1F07C002800D13C70AB
:1069A00024480170387B1521484331302871000A92
:1069B0006871297968790006000C0143744803F076
:1069C00010F8634908A8D32203F058F8390004A846
:1069D0000D2203F053F8290082B06846172203F015
:1069E0004DF80CBC0021112003F0D8FA56490C7068
:1069F00060490C70114804F0D9FD664801780229FD
:106A000000D104703DB0F0BD40030020140200200E
:106A1000B81D0020B91D0020BE1C0020410300202D
:106A2000BC1C00205C030020BD1D0020BE1D0020FA
:106A3000C21C00204203002050F30008D41C002098
:106A40003075000028030020AE1D00203E4801786C
:106A5000012900D1704710B546490A78132A6EDA29
:106A6000521C0A704C4801784C4C032906D1032073
:106A700003F094FA4A4860604A4816E0082906D1B3
:106A8000082003F08BFA4848606048480DE00E2962
:106A900001D10E2029E0042901D1042025E0062996
:106AA00006D1062003F07AFA41A002F09AFF42E0F4
:106AB0000A2901D10A2018E0102901D1102014E080
:106AC0000B2901D10B2010E03A483B4B182903D188
:106AD00020221900A0312CE0172903D11C22190013
:106AE000843126E0052903D1052003F057FA22E07E
:106AF0001C2902D1202231491BE01E2903D1232267
:106B00001900D03115E01D2903D10E221900C03122
:106B10000FE0202903D1002003F0CDF80BE021295C
:106B200003D10A221900F43103E0222903D10922FA
:106B3000234903F0F6FF200004F038FD10BD0022C9
:106B400002700A7010BD00004403002058F30008D2
:106B5000FC16002080B5002006490870194908700D
:106B6000032003F01BFA0D4804F020FD03200A491E
:106B7000087001BD45030020C01D00201C1D002021
:106B8000351C0020D0170020B0F10008BC1D0020EB
:106B90006CF3000838030020420300209403002017
:106BA000701700007CF30008B80B000088F30008A1
:106BB0004E524200401900201402002074030020AD
:106BC00094F3000844030020F0B5BDB005009548DB
:106BD0000178954802F005FF0126944F0024914862
:106BE0000078032803D08F48007808282AD106228D
:106BF000D449280004F00CFC00282DD1D24806709E
:106C0000D2490C708748007803280FD1D04804F08F
:106C100095FCD04802F0E5FE1D20824908700E2246
:106C20003900C031CC4803F07CFFD4E17D480078C6
:106C3000082811D1C64804F081FC092003F0AEF900
:106C4000092014E3774800781D2819D10622BD4990
:106C5000280004F0DDFB002800D0ADE3BB48047041
:106C6000BB4804F06BFCCA4802F0BBFE1E206D4915
:106C7000087023223900D031B74803F052FFE4E115
:106C8000684800781E2818D10622AE49280004F072
:106C9000BFFB002865D1AE4804F050FCAB490C7036
:106CA000A9480470042003F079F904205D490870B4
:106CB000A74804F07BFCB74852E25A480078042801
:106CC0002BD10822B449280004F0A2FB002848D1A7
:106CD0009D4806709D490C709D4804F02FFCAFA1A3
:106CE0002800083005F052FE050005F077FE0F2859
:106CF00037D10F222900AA4805F0D9FE93490C701C
:106D000091480470052003F049F9052045490870B1
:106D10008F4804F04BFCA34822E242480078052843
:106D200015D106228749280004F072FB002818D1EB
:106D300086490C7084480470062003F02FF9062061
:106D400038490870824804F031FCCE4808E23548E2
:106D50000078062812D10822CB49280004F058FBFD
:106D6000002800D028E307202E490870C74802F009
:106D700038FE00F0A7FB38003C304DE2294800788F
:106D8000072815D1C249280005F014FF002800D1BA
:106D900012E30820234908706B490C706B4804709B
:106DA000D3486B494860084604F000FCD148D7E15D
:106DB0001C480078092817D106226249280004F0EF
:106DC00027FB0028CDD10B201649087003F0E6F808
:106DD0005D490C705D480470C7485D4948600846CD
:106DE00004F0E4FBC548BBE10E4800780B281FD136
:106DF00006225449280004F00BFB0028B1D1534867
:106E00000470534804F09AFBD94802F0EAFD2120AF
:106E1000044908700A223900F4314F4803F081FE1A
:106E200013E100BF42030020A0F300081402002079
:106E3000D0480078212800D090E00922CE492800CF
:106E400004F0E6FA00288CD10222290009316846B4
:106E500005F02DFE082229000B3104A805F027FEBD
:106E600009222900133101A805F021FE0A22002180
:106E7000684605F04CFF05000A220021684605F02F
:106E800046FFBE492A04120E000210434871000A50
:106E900088710A22002104A805F039FF050E0A2294
:106EA000002104A805F033FF000AFF273F02074036
:106EB0002F430A22002104A805F029FF05000A2219
:106EC000002104A805F023FFAC492A02FF231B047C
:106ED00013403B430006184305F046FF0A220021F9
:106EE00001A805F014FF050E0A22002101A805F0F3
:106EF0000EFF000AFF273F0207402F430A2200210E
:106F000001A805F004FF05000A22002101A805F0F0
:106F1000FEFECD492A02FF231B0413403B4300061B
:106F2000184305F021FF0848067008480470084817
:106F300004F004FB0C208F49087003F02FF8C348BD
:106F40000EE100BF7CF1000844030020450300204F
:106F500094030020A8F30008401900208548007819
:106F60000C2821D10622C949280004F051FA002832
:106F700072D122207F4908700922CB49CB4803F007
:106F8000D0FDCB490C70CB4804705B4828E000BFB3
:106F9000B8F30008C8F30008D0F300080D0A000099
:106FA00062030020DCF300087248007822281BD11D
:106FB000B649280005F0FEFD002804D00F22A91CC8
:106FC000C14805F074FD0E206A49087002F0E6FF22
:106FD000BE4802F006FDB6490C70B648047044483D
:106FE000BB494860084617E1624800780E2834D152
:106FF000B84802F0F6FCB8A60122310028000C3097
:1070000004F006FA002807D00122310028001830C9
:1070100004F0FEF900281FD1CB4802F0E2FCAC4896
:1070200004F08CFAA2490C70A248047002F0C0FE71
:10703000C649087001280AD1C54802F0D2FC2020B8
:107040004C490870002002F036FEA148E4E00F2011
:107050004849087002F0A2FFAEE1464800782028B7
:1070600018D106228949280004F0D2F9002801D15C
:10707000B84875E0B8484288B849D04803F051FD97
:10708000FFE000BFE4F30008ECF30008F8F30008A9
:1070900004F40008374800780F2871D184490E7035
:1070A00084490C708A4804F049FA280000F0B0F9CD
:1070B000C34802F096FC15202E490870C14804F020
:1070C0003DFA3C77C0490E70787F002818D1BF4840
:1070D00002F087FC27480670BD490C70BA490C7055
:1070E000BC48047002F059FF00F06EFF64E100BF7D
:1070F000B80B00000CF400088813000014F400081A
:10710000B548007801002ED116201A490870B348FE
:10711000B349097B1522514331310171090A41718B
:10712000B04908A8D32202F0A9FCAD4904A80D2259
:1071300002F0A4FCA94982B06846172202F09EFC26
:107140000CBC0021112002F029FFFA200001A64901
:107150004860084604F02AFAA44804F027FAA44834
:1071600002F03FFC28E10128FCD1A04854E000BF18
:107170001CF400084203002024F40008701D0020C5
:107180009C480078162875D17348428873498B480B
:1071900003F0C7FC13229849280004F039F90028AD
:1071A00006D00922BE49280004F032F900280ED189
:1071B000787E401C7876C0B20328D3DB7C768D487D
:1071C000067081490C70824804708C4811E00622D8
:1071D0002E49280004F01CF900281FD1B87F05288B
:1071E0001DDBBC778348067077490C7078480470C3
:1071F000834802F0F6FB364804F0A0F9814804F019
:107200009DF9814804F09AF9784804F097F96D489F
:1072100004F094F93800603004F0C8F9CCE06E480E
:107220000078002814D1704804F088F9754804F0FB
:1072300085F97648017801290DD104709E490E70B8
:107240006348067007E000BF771D002030F4000897
:107250006C4804F073F9AC480078012806D19149D4
:107260000C7091480470684804F068F91220614974
:107270000870A1E05F480078122809D18B4802F01D
:10728000B0FB280003F0E4F996E000BF7CF10008B1
:10729000584800781A2821D1280000F0B9F80128B0
:1072A0000AD1864809E000BF94F300084019002085
:1072B0004403002045030020814802F092FB162081
:1072C0004C490870404876E0A40300203CF40008D4
:1072D000940300204CF400082C000000454800787E
:1072E0001C2869D106228949280004F091F8002859
:1072F00062D191490E7091490C70914804F01EF9C9
:1073000015203C490870404804F018F93D4804F045
:1073100015F9364804F012F9894804F00FF92948A4
:1073200004F00CF905F05CF99B480078002817D1AF
:107330002B490C73084686720021C17227483131EF
:107340000171447110E000BF58F40008C31C002014
:1073500060F4000874F4000880080020840800200D
:107360009948C4744674847498490C7002F015FEF0
:10737000974851490978012918D1154A1670164ABB
:1073800016704D4A147093495F4A1278002A03D14F
:107390000E708722520102608F4A1670104A567191
:1073A000087810708D4802F01CFB00E0046056491C
:1073B0000C70BC77AC4806703DB0F0BD201A0020C0
:1073C00080F400084C1D0020BE1C00208CF4000836
:1073D000BC1C0020B81D0020410300205C030020DD
:1073E00028030020FC160020341D0020C81C0020AB
:1073F00098F4000842030020A4F40008C4F4000834
:10740000D4F40008D41C002050030020BD1C002030
:10741000F8B5050072A70222390003F0F9FF002831
:107420003BD100243900A81C09E005228B49280023
:1074300003F0EEFF002800D134003900002005F0F1
:10744000A5FA050024D0661C0D22854903F0E0FF53
:107450000028F1D008228349280003F0D9FF002832
:10746000EAD004228149280003F0D2FF002807D186
:107470000A220021281D05F04AFC7D490871DBE73E
:1074800004228B49280003F0C3FF0028CDD1D3E7A5
:10749000E4B2052C01D10120F2BD0020F2BD0000B4
:1074A000B8F40008C21D002046030020ECF40008D8
:1074B00010B5804C34E00000C01C0020F8F4000837
:1074C00004F5000870B57B4E34005834207C012848
:1074D00001D1022070BD01252574300003F0D6FBD8
:1074E00030680168102291430160E068006801681B
:1074F000A943016000202080E168096848600A68AB
:1075000015430D60207470BDBF1C00207CF1000885
:1075100010B5694C606E0068016801220A43026080
:10752000664A6749200003F03EFB2068016810228C
:107530000A43026010BD0000440300204503002000
:107540009403002038B55C4D2C005834207C012871
:1075500001D1022032BD01202074280003F096FBE7
:1075600028680168102291430160E06800680168A2
:1075700001229143016000202080E1680968486091
:10758000207432BD00684B490968884202D101204D
:107590004C49087070470000C01D00200068454934
:1075A0000968884200D100BF704780B5FFF7CCF86A
:1075B0000122D102A020C00504F0C7FF0022012152
:1075C000414804F0C2FF01BD1C1D0020D01700205F
:1075D000A41D0020400300204303002014F50008F0
:1075E0000D0A000038B539480078002802D1FEF7AE
:1075F00067F931BD364803F0A1FF364803F09EFF1E
:10760000354803F09BFF354803F098FF00243449C8
:107610000C7034490C7001253348007801280AD1D8
:1076200032480178002904D1057031480078314989
:107630000870022000E000202F4948722F4802F015
:10764000D0F92F48817F491C81772E490C7002F0B8
:10765000A4FC2D4804600448057031BD50F50008B5
:1076600024F5000834F50008B41D002040F500089A
:10767000701D002038B5224DE87F002803D020205F
:10768000285C012813D10020202168548C4C200054
:1076900005F0EAFBE87D152803DA0022A021890124
:1076A00002E00022A0210902200005F067FB31BDA5
:1076B00048F5000840190020B01900204C040000D3
:1076C00084080020BB1D002000040050410300205E
:1076D00094030020D41C0020500300204C1D0020E7
:1076E000C21D00204603002047030020480300205D
:1076F00040030020AF1D00202803002058F500089B
:1077000014020020BF1C0020A41D0020F8B56D4805
:10771000016804220A43026001266B4C2021665452
:107720006A480078012800D0C9E069480068401C18
:1077300067490860002567480078012803D1664939
:107740000E70052026E0200080300090634800780D
:10775000B427FF00010020D15F480078010003D169
:107760005F4948788A7812E001283ED10098006885
:10777000E17D152902DAB84206D302E0B908884251
:1077800002D30098056066725549C8780A791206D6
:10779000120C10435349088027E0012825D1524894
:1077A0000078012807D1A07E002804D1A6764F4892
:1077B000007802F0B7FE009800684749097801296F
:1077C0000BD1401CE17D152902DAB84205D302E055
:1077D000B908884201D300206672009908604448C5
:1077E0000078002801D100F02BFC424F3878424944
:1077F000097801431CD1E07D152819DAA07A002808
:1078000016D1C3490D7020793C4909780143E07BCA
:1078100008430DD100223102394804F096FEE07B86
:10782000401CE0736420E0642000483003F0BEFE9A
:107830002C480088010031D0E17D152902DA0C21A5
:10784000484301E0410008182149096880B281429B
:1078500024D32000483003F071FEFEF775FF1C486A
:107860000560E57739782448007808430ED11E4931
:10787000097801290AD117490978012906D1154A41
:107880001570A6751F490978134A1170144A95712D
:107890001D4AD570002810D166730EE0387816495D
:1078A00009780143207D084309D1608C401C608425
:1078B00080B25A2803DB6584267595480570F1BDB2
:1078C000E01C002000700040140200204103002052
:1078D000A41D0020AE1D002040030020C01D00207C
:1078E000280300204C03002047030020351C002003
:1078F000C41D0020B91D0020B81D0020BC1D0020A3
:1079000000040050AF1D00201C1D0020F8B501240C
:10791000854DA86F20402CD06C756878012825D043
:107920006C70287900280ED12C71AC70280024309E
:1079300003F03CFEFEF708FF2800483003F0FEFD90
:107940007A4802F04EF8287901280FD1687900288A
:107950000CD16C71764E0821300005F033FB01200C
:10796000C04331680861300005F002FBA86F604039
:10797000A8670226A86F30400AD02879012804D1D0
:107980006C4802F02EF80020A870A86F4640AE6741
:107990000426A86F304004D003F04AFEA86F46408A
:1079A000AE670826A86F304033D0687801282BD105
:1079B0000121A020C00504F0C2FD002822D12878B2
:1079C000401C28705C49097801290DD129790129C9
:1079D0000AD1E979002907D1C0B2012804D1287C55
:1079E00000280FD1EC710DE0C0B205280AD1687FE4
:1079F000002807D17E4801F0F4FF00F0A5FA7D4889
:107A000003F0D4FD0020687000206871A86F464024
:107A1000AE671026A86F304004D0FEF73FFDA86F78
:107A20004640AE672027A86F384060D0EC77954875
:107A30000078714909780143687D084334496F4AE9
:107A40001278012A4DD16E4E6E4A1278002A47D123
:107A50006D4801F0C6FF6B490C708B480078002818
:107A600042D06548007801280AD1884803F066FDB5
:107A7000002087490870874801F0B3FF00F0C6FA7C
:107A80008048007801281CD1834803F057FD8348C3
:107A900003F054FD824803F051FD824803F04EFD8F
:107AA000814803F04BFD954801F09BFF94490C7011
:107AB000002077490870934908707249087002F0F5
:107AC0006CFA914801F08DFF0020A87674728F49FE
:107AD0000C708F4908600520B14908806C7303E081
:107AE0007472002800D10C70A86F4740AF67002067
:107AF000F2BD10B5AB4C0821200005F063FA01205F
:107B0000C04321680861200005F032FA10BD000072
:107B1000B41D002080B5A3480121C943026811614A
:107B200005F030FA01BD00001402002064F50008E1
:107B3000741B002074F5000841030020F8B5924C36
:107B4000A07A01280DD1E07A010003D10022802122
:107B5000490003E0012804D100221021924804F0DA
:107B6000F4FC2A4F00250126607C012808D1FEF78D
:107B7000EBFD65746648056066733D708B4834E0C4
:107B8000E07D152824DAE07B052810DA884801F02A
:107B900028FF3102844804F0DEFCE07B401CE073E7
:107BA0006420E0642000483003F000FDF1BDE5737F
:107BB000A07A002801D1FEF7C7FD324800780E49AF
:107BC0000978014313D17B4801F00BFF3E70F1BDF2
:107BD000FEF7BAFD2B48007807490978014303D125
:107BE000754801F0FEFE3E70C94801F0FAFEF1BD95
:107BF0007CF50008401D0020B91D0020470300202F
:107C000028030020AE1D002084F50008B41D0020CC
:107C100070B501255C4C207E002802D125761F48D6
:107C20001DE0002626766548007801001DD1607FA2
:107C3000002817D1624801F0D4FE624803F07EFCB0
:107C40002000303003F07AFCFFF764FF00222902A5
:107C5000554804F07AFC5C48206720006C3003F043
:107C6000A5FC70BDFDF72CFE70BD012809D191481F
:107C700001F0B7FE257702F090F925480660A84884
:107C8000057070BDB81D002048030020581D00205D
:107C9000BC1C00208CF50008940300204C1D002023
:107CA000D41C002050030020C81C002080B5FDF724
:107CB00007FE01BD38B5344C0025E57195A001F0F3
:107CC00090FEA078002817D12178934801F089FE12
:107CD0002078012810D191A001F083FE25702000AA
:107CE000243003F02BFC257101208E4908703548A3
:107CF000C821416003F05AFC31BD000094F5000832
:107D000042030020BE1C00209CF500084003002018
:107D1000A41D002010B5844C606804F048FC0020CD
:107D20006060194908728A6D804B9A4200D148728E
:107D30007F4801F056FE00F069F97E487E490978D7
:107D400000290ED17D4909787D4A117315235943C5
:107D5000491C9172090AD172117B152251433131AC
:107D60000BE078490978B14AD17415234B43537419
:107D70001B0A9374152251432D310171090A417177
:107D800000F0E2F810BD00001402002080B50120D0
:107D900089490870B84801F024FEFFF7B9FB01BD1E
:107DA0004C030020AC1B002000040050A4F5000888
:107DB000ACF50008B8F50008C4F500084103002040
:107DC000DCF50008401D002088130000F8B57B4E4C
:107DD000002701247A4D287D01283CD1376179485C
:107DE00005F042FBFA21774805F06CFB754805F079
:107DF00032FC800503D5734805F0D8FBF060F068CD
:107E0000C82109014843000BF060A82148436421C0
:107E100004F083F90100E9677B4801F0E2FD0023EB
:107E2000AA7A317AE86F00F0DFFBE8754449C8713F
:107E30007E490874307201007D4801F0D2FD2F7533
:107E40007C4800787C490978014304D17B4801F0E3
:107E5000C8FD33490C70E86FCD210901884226D254
:107E6000287B012813D174480078724909780143AE
:107E70001ED1824801F0B5FD81490F7081490C7017
:107E80002F736C7380490F7025480770F1BD7F48D0
:107E900000787C49097801430AD17DA001F0A1FD59
:107EA0002C75F7721E480470FDF728FFF1BDF472BF
:107EB000F1BD0000ECF5000810B5834C2078C10737
:107EC00024D5FE21014021705B48007801280BD0A9
:107ED00058480078012819D1FFF7F4FA201DFEF761
:107EE00073FEFFF7E5FA10BD33480178012906D18A
:107EF000002101707549201D05F020FC10BDFFF721
:107F000021FB201DFEF724F9FFF702FB10BD000046
:107F1000D0F500082E2E2E00FCF5000821000000F0
:107F2000B41D00203E1900207C1D0020307500008B
:107F300010F600085C030020C01D0020FC16002085
:107F400028030020D017002010B5FFF7B1FA012058
:107F5000384908705E480078002805D102F016F80C
:107F6000FEF7F8FD5B4821E05B486921415C21296F
:107F700005D1202169228154584801F032FD104C6E
:107F8000207F012805D1564801F02BFD20006030EC
:107F90000CE04E49534805F0D1FB1A2052490870B5
:107FA0000F2001F0FBFF51485149416003F0FEFAF8
:107FB000C24801F016FD10BD941C002014030020DF
:107FC00014020020901A002038B51421494805F009
:107FD000B5FB04F0DFFA012017490870464C002574
:107FE00065804649887120001C3003F0DFFA444860
:107FF00003F0DCFA3D4803F0A1FA25704148057012
:10800000D04801F0EEFC31BD04F3000880B5FFF765
:1080100099FA04F0C4FA0020074908702B49314846
:1080200005F08CFBC84801F0DCFC01BD1C1D0020E4
:1080300030F60008B81D0020B91D00203CF60008ED
:1080400010B582B03048807800F0F0FF0090002436
:1080500068464078012801D12C490C7068460078A8
:10806000012808D12A48007802F05CFA2948046007
:108070000120B849087013BD20F6000848F6000832
:1080800040030020BD1D0020BC1C0020BE1D0020A0
:10809000534C000080B500F03FF801BD80B50020D2
:1080A000164988778649087086490870032001F0D0
:1080B00075FF854803F07AFA03200B490870A6483B
:1080C00003F074FA01BD0000800800204C04000099
:1080D000410300204C1D00204019002050F60008EC
:1080E00060F600088408002042030020C81C00201D
:1080F00060EA00006C1C0020941C00201402002088
:10810000581D0020B01D00201C1C0020BF1D002099
:10811000351C0020A41D0020F0B5BDB001208F4A01
:1081200010708F490978012903D08E4909780129F7
:1081300005D18D4916220A70624A1278002A00D0B1
:10814000BAE05F4A1378894C894E052B00DB83E047
:108150005B1C1370874D88490978012910D11920BB
:10816000287100206871854801F03BFC290084B02B
:108170006846172201F082FC0FBC01F0ADFA67E0FF
:108180007F4F80490978012902D0B17D01290FD1A3
:10819000D1206870207B1521484331302871000AB6
:1081A0006871297968790006000C0143764838E047
:1081B0007649097801292CD1754EA179012900D180
:1081C000F070744800783071D3206870F07C15210D
:1081D00048432D302871000A68716F4907A8D322DF
:1081E00001F04CFC310002A8142201F047FC2900E8
:1081F00084B06846172201F041FC0FBC01F078F80A
:10820000297968790006000C0143644801F0E9FB14
:108210001EE000291CD1297968790006000C014371
:108220005F4801F0DEFB390008A8D32201F026FCEC
:10823000210004A80D2201F021FC290082B068462B
:10824000172201F01BFC0CBC0021112001F0A6FE3E
:10825000544803F0ABF92FE000251570087052491F
:108260000D7052490D70524801F0BBFB164803F0E7
:1082700065F94C4803F062F94E4803F05FF94E4847
:1082800003F05CF9344803F059F93000603003F032
:108290008DF94A48017801290ED105703B480078D4
:1082A000F17C014308D13B490D70257044480078AA
:1082B000012801D1434805703DB0F0BD68F60008C3
:1082C000450300204403002094030020F0B587B04C
:1082D00002203D490A6802430A6009680840059087
:1082E00005988024E400394F00222100380004F072
:1082F0002CF9374E01223100380004F026F9012212
:10830000C021380004F021F90094012401940025D3
:10831000029503956946380003F0CEFF009601945C
:10832000029403956946380003F0C6FFC020009010
:108330000195029403956946380003F0BDFF07B02C
:10834000F0BD000074F6000880F6000880B5FDF767
:10835000B7FA01BDB41D00204C1D0020B81D00203F
:1083600041030020BD1C0020420300202803002000
:10837000140200205C030020C21C00208CF60008C0
:10838000FC160020AE1D002058F30008C01D002080
:108390001C1D002040030020D017002094F6000888
:1083A000ACF60008D41C0020BE1C0020BC1C002021
:1083B000C4F4000850030020C81C0020BC1D00208D
:1083C00047030020AF1D00202C1002400004005085
:1083D00002080000FEE7FEE780B50648016840227B
:1083E0000A430260002005F0ADF905F0BFF9002056
:1083F00002BD0000002002400248016802220A4338
:108400000260704710E000E005480168020D0A4371
:108410000260704702480168420D0A4302607047DB
:1084200000700040F0B587B0012433480168214353
:1084300001600168214005910599022102680A4303
:1084400002600068014005910598A027FF05002201
:1084500081210901380004F078F8284E00222849CB
:10846000300004F072F8882000020090019400258A
:10847000029503956946380003F01EFFFF20123075
:1084800000900194029503956946300003F014FFB3
:1084900026200090019502956946300003F00CFFFC
:1084A000202000901748019002956946300003F0A3
:1084B00003FF0094144E019602946946380003F0BD
:1084C000FBFE40200090019602956946380003F0BB
:1084D000F3FE00220021052003F090FE052003F0AA
:1084E00091FE00220021072003F088FE072003F000
:1084F00089FE07B0F0BD00BF2C1002400004005000
:1085000001810000000021100000311080B5012021
:108510000C490A6802430A60096808400090009804
:10852000002200210A2003F069FE0A2003F06AFEFF
:10853000002200210B2003F061FE0B2003F062FEFD
:1085400001BD00BF3010024030B583B0394C3A480D
:10855000206000202064902189036160A0600321D5
:10856000E16301212161E06020626062E062FF213D
:10857000C231A1622063042161616063A061A063D4
:10858000E06100BF31A5200004F09CFE002803D06C
:1085900053212800FFF71EFF28480090000C01908F
:1085A0006946200005F005F8002803D05C2128006A
:1085B000FFF710FF37BD00681F49884200D07047A1
:1085C00000B585B01E480168420D0A4302601020C4
:1085D000009003200190002002906946A020C00571
:1085E00003F06AFE05B000BD30B501006420002232
:1085F000144B1D888D421BD35D8A8D4201D3002010
:1086000030BD54001C192588A9420ED264888C42C2
:108610000BD2521C0A235A43801AC0B20A2807D12F
:10862000094A914204D2052030BD521C0A2AE8DBD7
:1086300030BD0000901A00200024014010000010FE
:108640003410024000000020DE0D0000443A5C546B
:10865000454C55535C436F61705C4C6F6361746F44
:10866000725F4C30353154385F5363686564756CA4
:1086700065303732334F54415F494D53495F53455D
:108680004E534F525C5372635C6164632E6300000F
:1086900080B5AB48AB49016096218901416000215A
:1086A0008160C16001610C224261816101624162AD
:1086B00002F09EF9002804D04D2100BFA4A0FFF7CE
:1086C00089FE01BD80B5A048D44901609621890189
:1086D000416000218160C16001610C2242618161C1
:1086E000C1610162416202F083F9002803D0622176
:1086F00097A0FFF76FFE01BD80B59448C84901609F
:1087000096218901416000218160C16001610C22D4
:1087100042618161C1610162416202F069F9002830
:1087200003D077218AA0FFF755FE01BDF0B587B0D1
:1087300006003268BB480024BB4D0221814B9A429F
:108740004AD142684B0413434360C02000010190AA
:10875000029101200390032004900420059001A9B8
:10876000B24803F0A9FDB2481430286005276F60B5
:10877000AC60EC60802028616C61AC61EC612C62C3
:10878000280005F013F8002803D0A02170A0FFF7FF
:1087900021FE7566AE62A64828646F641020A86446
:1087A000EC64802028656C65AC65EC652C6628005F
:1087B000403004F0FBFF002803D0B12164A0FFF794
:1087C00009FE280040303066AE66002200211D20E0
:1087D00003F014FD1D20AEE02F0084378F4B9A422A
:1087E00052D102684B0313430360C020C0000190C4
:1087F000029101200390032004900420059001A918
:10880000A020C00503F058FD280080300090884863
:108810003C3000990860032038607C60BC60802098
:10882000F8603C617C61BC61FC61009804F0BEFFB3
:10883000002804D0DD2100BF45A0FFF7CBFD009844
:1088400070667E627A482830F8630320386410200E
:108850007864BC648020F8643C657C65BC65FC651C
:108860002C00C034200004F0A1FF002803D0EE212A
:1088700037A0FFF7AFFD34667E66002200211B2083
:1088800003F0BCFC1B2056E0654B9A4255D1426870
:108890000B04134343600C200190029101200390CC
:1088A000032004900420059001A9A020C00503F036
:1088B00003FD5F485030F867822040002F180420E5
:1088C00038607C60BC608020F8603C617C61BC6189
:1088D000FC6180302818009004F068FF002804D064
:1088E0008D2149001AA0FFF775FD009870667E6221
:1088F0004F486430F8630420386410207864BC6406
:108900008020F8643C657C65BC65FC65C0302C1833
:10891000200004F04BFF002805D0FF212C3100BFC0
:108920000BA0FFF757FD34667E66002200211C2055
:1089300003F064FC1C2003F065FC07B0F0BD0000F0
:108940004019002000480040B0190020201A0020E3
:10895000443A5C54454C55535C436F61705C4C6FBA
:108960006361746F725F4C30353154385F536368A4
:108970006564756C65303732334F54415F494D53F0
:10898000495F53454E534F525C5372635C7573613C
:1089900072742E630000000010B5040022682149A3
:1089A0002448824210D14868514A02404A60C0219E
:1089B00009011E4803F043FD606E04F06DFF206E58
:1089C00004F06AFF1D2025E0A020C005134B9A4249
:1089D0000FD10A68474B13400B60C021C90003F058
:1089E0002EFD606E04F058FF206E04F055FF1B2032
:1089F00010E00B4B9A420FD14A683F4B13404B603B
:108A00000C2103F01CFD606E04F046FF206E04F0A4
:108A100043FF1C2003F0FDFB10BD000000380140A7
:108A20000044004034100240501400200004005064
:108A30001C00024000480040F1B530480068009931
:108A4000096801272E4C2F4E1025814214D1C96987
:108A5000294011D00562294802F0ECF82748406E01
:108A600000684068301A60802078384320703200F7
:108A7000211D224802F097F82348006800990968F0
:108A8000814214D1C969294011D005621E4802F003
:108A9000D1F81D48406E00684068301A6080207828
:108AA000384320703200211D174802F07CF8174827
:108AB000006800990968814218D1C969294015D018
:108AC0000562124802F0B6F81048406E006840682F
:108AD0008A21C9006118301A4880087807430F704E
:108AE00032000B482118094802F05DF8F1BD000082
:108AF000FFFFFBFFFFBFFFFFFFFFFDFF401900204F
:108B0000800800204C040000B0190020201A00202A
:108B10005404000070B586B0724C8021C9052160F4
:108B2000714961600025A560401EE060256100BFBD
:108B300074A6200004F0FCF9002803D04021300086
:108B4000FFF748FC80204001029002A9200004F0B9
:108B5000E8FA002803D046213000FFF73BFC0095DF
:108B600001956946200005F07FF9002803D04D21CA
:108B70003000FFF72FFC06B070BD000070B586B066
:108B80005A4C5B482060584860600025A5609520DD
:108B9000E06025615BA6200004F0CAF9002803D03C
:108BA0005E213000FFF716FC80204001029002A9F0
:108BB000200004F0B6FA002803D064213000FFF74B
:108BC00009FC009501956946200005F04DF9002843
:108BD00003D06B213000FFF7FDFB06B070BD000035
:108BE00070B586B0434C444820603F486060002523
:108BF000A5604248E060256142A6200004F098F993
:108C0000002803D07C213000FFF7E4FB80204001E6
:108C1000029002A9200004F084FA002803D08221E7
:108C20003000FFF7D7FB009501956946200005F05D
:108C30001BF9002803D089213000FFF7CBFB06B0D9
:108C400070BD80B501682E488022D20591420AD1BC
:108C5000416801220A434260002200210F2003F0F4
:108C6000CDFA0F201AE0224A91420AD1016804226B
:108C70000A43026000220021142003F0BFFA1420EE
:108C80000CE01D4A91420BD1016820220A43026088
:108C900000220021162003F0B1FA162003F0B2FAE8
:108CA00001BD80B5016816488022D205914205D1E8
:108CB00041680122914341600F2010E00C4A91422B
:108CC00005D10168042291430160142007E00A4A9B
:108CD000914206D10168202291430160162003F0E1
:108CE00098FA01BD3C1B00207F3E0000741B002051
:108CF00000080140AC1B002000140140B70B00002D
:108D000034100240443A5C54454C55535C436F6107
:108D1000705C4C6F6361746F725F4C3035315438E6
:108D20005F5363686564756C65303732334F544107
:108D30005F494D53495F53454E534F525C537263E5
:108D40005C74696D2E63000080B516481649016099
:108D5000002141607F228260FF22C2600161416187
:108D60008161C16105F0A4F8002804D0432100BF4F
:108D70000FA0FFF72FFB01BD00680B49884200D010
:108D8000704780B5094801688022D2020A43026018
:108D900000220021022003F031FA022003F032FA0F
:108DA00001BD0000E01C00200028004050100240DF
:108DB000443A5C54454C55535C436F61705C4C6F56
:108DC0006361746F725F4C30353154385F53636840
:108DD0006564756C65303732334F54415F494D538C
:108DE000495F53454E534F525C5372635C727463D8
:108DF0002E63000038B5294C29482060294860605E
:108E00000020A0600121E16020616061A061E0615B
:108E1000206200BF26A5200005F01CFA002803D020
:108E200042212800FFF7D6FA0021200005F006FDB8
:108E3000002803D049212800FFF7CCFA00212000A8
:108E400005F018FD002803D050212800FFF7C2FAD2
:108E500031BD00681249884200D0704700B585B026
:108E6000C020009012200190012002900321039164
:108E7000049069460C4803F01FFA0C4801688022F0
:108E800092030A43026000220021172003F0B6F982
:108E9000172003F0B7F905B000BD0000F01A00205C
:108EA000005400405B3D3000000400503810024088
:108EB000443A5C54454C55535C436F61705C4C6F55
:108EC0006361746F725F4C30353154385F5363683F
:108ED0006564756C65303732334F54415F494D538B
:108EE000495F53454E534F525C5372635C69326322
:108EF0002E630000F1B50F001600042901D00629E9
:108F000001D11F2E4ADA092901D00B2901D11F2EC8
:108F100044DA820704D0022906D11D2E04DB3DE08D
:108F2000022901D11E2E39DA3A0037D00D2935DA5F
:108F3000310033D0202E31DA182B2FDA06983C2856
:108F40002CDA07993C2929DA089D2A0026D0082D19
:108F500024DA834C23726072A17200206061A061E8
:108F60000022210008317F4804F0F2FF002801D0E0
:108F70000BA00EE025706770A67068460078E07060
:108F800000222100774805F088F8002804D000BFAF
:108F900007A000F026FD01E00120F2BD0020F2BD97
:108FA00053657454696D654572726F720D0A0000E5
:108FB000536574446174654572726F720D0A0000E6
:108FC00070B50125674E664C002221000831300043
:108FD00005F03DF800280FD100222100300005F0F7
:108FE000BDF8002808D10025A37A627A217A00BF53
:108FF00004A000F0F6FC02E007A000F0F2FC28005C
:1090000070BD0000253032643A253032643A253094
:1090100032640D0A000000006765745254435F44D7
:109020006174655F4552524F520D0A00F1B582B02E
:109030003FA0006800900125FFF7C2FF002873D110
:10904000A24F474C0026207A002842D1607A00289F
:109050006CD1A07A010069D03C2867DAA07F002893
:1090600064D19B480078012800D1A5779948007801
:10907000012804D1984802F061FAFEF7C7FF38785A
:10908000012811D1954802F059FA954802F056FA94
:10909000944802F053FA944802F050FA934802F0D0
:1090A0004DFA3E7000F079FF69460D706846007A0F
:1090B000401E03D0401E012809D90AE0607F401CF1
:1090C000E17903F027F86177607F694600E0A078D6
:1090D0008870207A0B2829D1607A3B2826D1A07A83
:1090E0002838132822D2684645707A48007801282B
:1090F00004D1794802F022FAFEF788FF3878012877
:1091000014D1764802F01AFA754802F017FA754839
:1091100002F014FA744802F011FA744802F00EFAE0
:109120003E7000F03AFF01E06846C5700098FEBD51
:109130000000000080B5FFF743FFC8480178072909
:109140000BD1017A172908D1417A3B2905D1807AC0
:109150001438282801D2012002BD002002BD0000E1
:10916000181C0020E01C0020F1B58AB00B002F2055
:1091700030210591FF210022029200925B1EDBB29A
:10918000069307ACB64B6370A170012323700025D2
:10919000B24B1E7AB54206D169005D7A1E2D00DB06
:1091A000491CC9B203E06D1CEDB2182DF2DB00259D
:1091B000AC4EB446069F782677436646F61901966C
:1091C000019EAF007F19F619B778002F0AD0767884
:1091D000B14207DA2F2E05DA0120029030006E46E8
:1091E000357402E06D1C182DEADB019D9600B6185F
:1091F000AD19AD782E0009D0A94207DA312D05DA74
:10920000012600960595D2B2039202E0521C182A5C
:10921000EBDB1A7A3C2555435A7AAD18ADB2009A69
:10922000002A45D0019A039B9E00F318D6182F29D7
:1092300016D02E2914D00599884211DA02990029F6
:109240000ED01E214843401B6070000AA070019898
:109250006946097C8A005118405C207000202BE090
:10926000F07831790906090C0843F1783279120651
:10927000120C1143000A0902014389B20091777868
:109280001E204743E81B009902F044FF401C009950
:109290004843401BC0196070000AA07030782070ED
:1092A000F07831790906090C0843E070000A04E0FF
:1092B0003C2060700020A070E07020710A9807A91F
:1092C000052200F0DBFB0BB0F0BD0000B81D002054
:1092D00041030020B91D0020581D002094030020E8
:1092E0004C1D0020D41C002050030020C81C00206E
:1092F0000FB4F0B583B05C4C20790EA948720EA86B
:10930000411D206803F030FDE01D05F0DBFA1190EF
:109310006079A1790906090C08430EA9488108A8BB
:109320008088010A0002084308A988800EA8457CAD
:10933000817C0906090C0D435235ADB20EA9487C5B
:109340008A7C1206120C10430EAA517C937C1B06D9
:109350001B0C1943000A090201435174090A917454
:109360000EA8C07C002802D1A81E042101E0681EBE
:1093700002216A46517080B200F034FF0400690097
:1093800040181A3069468880744821005931C9B2A2
:109390004218172108A803F0B7FB8734A4B26F481E
:1093A000021914210EA803F0AFFB2834A4B2002543
:1093B00069460D7015E013A81521694346183A0057
:1093C0001521701C03F0A0FB2A34A4B21521701CD7
:1093D00003F04EFB694609780818694608706D1C51
:1093E000EDB25E4807190EA8C07C8542E3DB16216A
:1093F00008A8401C03F03CFB694609780818694638
:10940000087014210EA803F033FB69460978081888
:10941000694608703A000121684603F075FBFA209E
:1094200069468870BA1C012100A8801C03F06CFBFF
:1094300009224B494948A41CA4B20019801C03F01E
:1094400036FB6846808869464978421A92B2434999
:10945000444801F066FB03B084E10000181C0020C2
:10946000FFFF000008110020701D0020F1B584B03E
:1094700000209749087010229649049803F0E5FAF5
:109480001025944948798A791206120C10430A462D
:10949000517993791B061B0C1943000A09020143F9
:1094A0005171090A9171B1480078401C69464870B1
:1094B0001079C870D07888709078002802D1012087
:1094C00083490870002602AF00E0761C8149C97903
:1094D000F0B2884237D2062201A90498401903F05D
:1094E000B4FAAD1DADB2002411E0052202A9A548D1
:1094F000844668460379782043436046C018E4B246
:10950000A3001B19C018783803F0D1FA641C01A914
:109510008978E0B28842D8D20A2202A90498401978
:1095200003F093FA0A35ADB2B8787978814208D25F
:10953000302906DA010004D0312802DA387802280E
:10954000D3DB002004E062480078012800D0AA2084
:1095500069460870009805B0F0BD0000080D0020B5
:109560009C970008401900200FB4F8B506A8808821
:10957000010A0002084306A988800CA948788A7865
:109580001206120C10430CAA517893781B061B0C80
:109590001943000A090201435170090A91700CA98C
:1095A000C8780A791206120C10430CAAD1781379E4
:1095B0001B061B0C1943000A09020143D170090A5A
:1095C00011710CA84089010A000208430CA94881C6
:1095D0000CA8057B152045435535A8B200F002FEC6
:1095E0000400690040181A30694648806648210026
:1095F0005931C9B24218172106A803F085FA8734F9
:10960000A4B2614802190B2145A803F07DFA163473
:10961000A4B25D4802190D210CA803F075FA1A34A2
:10962000A4B2002569460D7015E010A81521694304
:1096300046183A001521701C03F066FA2A34A4B2C9
:109640001521701C03F014FA694609780818694658
:1096500008706D1CEDB24C4807190CA8007B8542C0
:10966000E3DB162106A8401C03F002FA69460978DC
:109670000818694608700D210CA803F0F9F969462D
:1096800009780818694608700B2145A803F0F0F91D
:10969000694609780818694608703A000121684649
:1096A00003F032FAFA2069464870BA1C012100A87A
:1096B000401C03F029FA092238A13348A41CA4B2A3
:1096C0000019801C03F0F3F9684642882E4945E0F2
:1096D000311D00208C1D00200FB4F8B506ACA08809
:1096E000010A00020843A08000206075A075D22006
:1096F00060703D2000F076FD0500234E5930C0B269
:109700003218172106A803F0FFF92F008737BFB2E0
:109710000020694608701621601C03F0A9F969460B
:109720000978081869460870F41922000121684672
:1097300003F0EAF9FA2069464870A21C012100A84A
:10974000401C03F0E1F9092214A1BF1CBFB2F019BB
:10975000801C03F0ACF99435AAB231000B4801F03B
:10976000E0F901B00498F0BC05B00047BA1D002034
:109770007047074880218902016206494162064913
:109780008162704708110020080D00204019002058
:10979000181C002088130000719700082C307830C6
:1097A0003130300D0A00000002B5002805D00268F3
:1097B00011700168491C016001BD034B012269461B
:1097C000024801F04BF901BDFFFF0000201A002004
:1097D000F1B50E00140000252027012C0EDB00201F
:1097E00001E0401C491C0A78002AFAD1A04201DBA2
:1097F000002400E0241A980700D53027D80708D4A1
:1098000005E039000098FFF7CFFF6D1C641E012CA6
:10981000F7DA317808000BD00098FFF7C5FF6D1C10
:10982000761CF6E739000098FFF7BEFF6D1C641E3A
:10983000012CF7DA2800F2BDF5B585B000200190C3
:1098400000900E0002AA0C9D09D1302111705070B9
:109850000D9B2A0002A90598FFF7BAFF3DE0002BF7
:1098600007D0069B0A2B04D1002902D501230193BE
:109870004E4202A90C000B34D0720E9F002E10E055
:109880003000069902F049FC0A2902DB38003A3818
:109890000918641E303121703000069902F03DFC39
:1098A0000600EDD1019800280FD0002D0AD00D98A8
:1098B000800707D52D210598FFF776FF012000903E
:1098C0006D1E02E0641E2D202070009E0D9B2A005C
:1098D00021000598FFF77CFF301807B0F0BD0000AD
:1098E000F0B585B007000C001600002505E02178D2
:1098F0003800FFF759FF6D1C641C2078010068D008
:109900002528F4D1641C002300222078010060D0B7
:109910002528ECD02D2806D1641C012303E0641C0B
:1099200018000223034320783028F8D02078010063
:1099300030390A2905D20A214A431218303A641CE8
:10994000F4E773280AD13168361D002901D100BF20
:109950002DA13800FFF73CFF2D18CDE764280BD16F
:109960003168361D612002900193009201230A2282
:109970003800FFF761FFEFE7782808D13168361D1E
:10998000612002900193009200231022F0E75828F2
:1099900008D13168361D41200290019300920023C6
:1099A0001022E5E7752807D13168361D6120029045
:1099B000019300920023DAE763289DD13068361DB9
:1099C00069460873002003A948703800FFF700FFBC
:1099D000C2E7002F02D0002039680870280005B0C7
:1099E000F0BD0EB400B501AA01000020FFF778FF1A
:1099F000009904B008470DB400B502AA01A8FFF70A
:109A00006FFF009904B00847286E756C6C29000040
:109A100011B581B004F062FF040004F05FFF001B89
:109A200001998842F9D313BD70B505000C001600EA
:109A300004F05AFF0F482D1807E022782900002073
:109A400004F068FF6D1C641C761E002E02D00A48CC
:109A50008542F2D304F054FF70BD064BC018002AB3
:109A600004E003780B70401C491C521EF9D170476A
:109A7000000000000000080800080808124207D093
:109A80008B0706D00B78491C0370401C521EF7D878
:109A90007047830706D00B78491C0370401C521E88
:109AA000F9D1704770B4103A03D378C9103A78C02E
:109AB000FBD2530701D318C918C001D508C908C083
:109AC000D20704D30B880380891C801C002A01D58F
:109AD0000B78037070BC7047F1B586B00E0001A81A
:109AE000B7A11422FFF7DEFF994C9621200003F066
:109AF00027FE20009830009000250580320000BF2E
:109B0000B4A12000FFF777FF200002F067FF0100FB
:109B100001AA0EE0069B5B191F783F09D75D07700D
:109B2000491C18780007000F105C89B26054491C6A
:109B30006D1C89B26018B542ECDB00BFAAA1FFF72B
:109B40005AFF200002F04AFF00990880009802881E
:109B50002100804800F0E5FF0098028821007E483F
:109B600000F0DFFF07B0F0BD80B50B001100132837
:109B700004D0142805D0182807D001BD00F013F830
:109B800001BD180000F03AF801BD002073490870CB
:109B900000F007F9724801F0D1FC0F2071490870FC
:109BA00000F0FCF901BD38B56F4CFF202070FE209D
:109BB00060700120A0701320E0700020A080A071D0
:109BC0001121E1712072694D2800083002F006FF72
:109BD00002002900083120000930FFF74FFF19214A
:109BE000200004F0D9FE80B200210918090A217171
:109BF000607119212000FFF76FFF31BD38B50500F6
:109C00005A4C1022290020001830FFF737FF287C1B
:109C10000002697C40186080A87C0002E97C401842
:109C20002080A0880090238862882100183100BF1E
:109C300070A0FFF7D6FE00F061F800281BD10B22C0
:109C40007AA12000183004F0AEFE002810D000F0F9
:109C500077F8012000F09EF8012000F08FF8BFF3A4
:109C60004F8F434843490860BFF34F8F00BFFDE764
:109C7000032000F001F831BD10B53B4CFF212170ED
:109C8000FE2161700121A1701422FFE7E270002221
:109C9000A280A271E17120720921200004F07CFEF3
:109CA00080B200210918090A217160710921200080
:109CB000FFF712FF10BD10B52B4CFF212170FE21C4
:109CC00061700121A1701821E1700021A180A171B2
:109CD0001121E17120721022274920000930FFF77D
:109CE000CDFE1921200004F057FE80B20021091892
:109CF000090A217160711921D9E7000038B50024E3
:109D00001A4D2888002803D14BA0FFF76AFE0124D2
:109D10006888002804D100BF4EA0FFF762FE02242D
:109D2000102200BF52A12800183004F03CFE002889
:109D300004D100BF53A0FFF754FE0424200032BD1D
:109D400080B5282209492020FFF76EFE01BD0000E2
:109D5000A4180020201A002040190020C31C002055
:109D60009403002042030020E41B0020441C002038
:109D70000400FA050CED00E04C1C002001B50122A6
:109D800069461020FFF750FE01BDFFF766FE6846EA
:109D9000007802BD01B5012269461120FFF744FE9B
:109DA00001BD01B5012269461220FFF73DFE01BD4C
:109DB00080B500206946087001221220E5E7000006
:109DC00030313233343536373839414243444546F1
:109DD0000000000041542B4D4C57554C4441544118
:109DE00045583D25642C00002C3078303130300D42
:109DF0000A0000006E65772076657273696F6E20C9
:109E0000696E666F3A25730A2020202073697A658F
:109E10003A25640A6E756D3A25640A20202063682D
:109E200065636B3A3078253034580A0076312E302D
:109E30002E31383130303900666F74615F696E667B
:109E40006F2E626C6F636B5F6E756D206572726FE3
:109E5000720A0000666F74615F696E666F2E626CD5
:109E60006F636B5F73697A65206572726F720A0047
:109E700000000000000000000000000000000000E2
:109E800000000000666F74615F696E666F2E6E651C
:109E9000775F7665725F73746172206572726F723C
:109EA0000A00000038B500246846047004F09AFDEA
:109EB000344D68460078332801D02C7031BD04F051
:109EC000D5FE002004F0B1FD0120287031BDF8B5A9
:109ED00005000C0017001E002A48007800282CD02E
:109EE00004F0C4FE280004F087FD002C01D10120FD
:109EF00000E0022004F099FD072004F0EDFD0020B1
:109F000004F050FE012004F035FE002004F063FE52
:109F1000402004F07EFE380004F0F9FD012004F03A
:109F200010FE002004F088FEF0B204F0CBFE022008
:109F300004F0D2FE152004F0ADFEF1BDE0B5102214
:109F400002920122019200910123020033210E4866
:109F500004F086FA401E8041C00F0EBD02B584B0E9
:109F6000102102910121019104A900910123020015
:109F70003221054804F0C8F9401E8041C00F05B0E9
:109F800000BD0000B21D0020F01A002080B50122A3
:109F90000121604802F0D9FA01BD70470EB4F0B556
:109FA000BEB0070062A25CA65C4D5D4C5DA15EA0E8
:109FB000032F04D05DA3082F04D1009032E000905D
:109FC00033002FE0052F09D1009000BF5AA300BF36
:109FD0005FA2042002F075FD1D2292E0042F03D140
:109FE000009000BF5CA21DE0062F06D103007AA2FC
:109FF000032002F066FD082283E0092F02D10090C1
:10A0000057A20FE00A2F09D1019000BF56A000907F
:10A0100059A2052002F055FD1B2272E00B2F06D13C
:10A0200000906E4A042002F04CFD0B2269E00C2FD8
:10A0300005D1009052A2042002F043FD0EE00D2F46
:10A0400005D1009050A2042002F03BFD06E00E2F47
:10A0500006D103004EA2032002F033FD0C2250E093
:10A060000F2F07D1030000BF4BA2032002F029FDF0
:10A070000D2246E0102F0BD1019000BF49A00090A7
:10A080004BA300BF4CA2052002F01BFD1A2238E0B2
:10A09000112F20D143A8041D0068002835D12500C8
:10A0A00018354F493BA80B22FFF7E8FC2900103177
:10A0B00006A8D322FFF7E2FC290002A80D22FFF731
:10A0C000DDFC210084B068461722FFF7D7FC0FBCE7
:10A0D000FFF74AFA19E0132F0AD1019038A0009037
:10A0E000330000BF38A2052002F0EBFC0F2208E08D
:10A0F000002F0AD1030000BF35A2032002F0E1FCCB
:10A1000009222100280000F00CFD3EB00498F0BCAC
:10A1100004B00047000400503D300000401900200A
:10A12000080D002041542B000D0A00003D310000B5
:10A130004346554E000000003D3131372E36302E5B
:10A140003135372E3133372C3536383300000000A7
:10A150004E434450000000004347534E00000000AF
:10A16000434D4545000000002C224950222C22631B
:10A17000746E657422000000434744434F4E540000
:10A1800043474154540000004353434F4E000000E6
:10A1900043475041444452004E5545535441545353
:10A1A000000000002C31372C373430302C310000C7
:10A1B0003D444752414D00004E534F435200000072
:10A1C0002C353132000000004E534F524600000043
:10A1D00043474D52000000004E5242000CA80008B8
:10A1E000701D0020F8B505000024652801DB04245B
:10A1F00006E00B2801DB032402E0280000D0022443
:10A200001EA27BA1022002F05CFC68466D1C05804A
:10A210000088642101F07EFF0D0028000A2101F072
:10A2200079FF30316846817028000A2101F072FF01
:10A23000050030352C26154F68460088652810DB50
:10A2400068460088642101F065FF3030F8733D7482
:10A25000684680787874BE744A22664938001330A4
:10A2600008E0FD736846807838747E744A2261493C
:10A270003800123002F01BFC2000F2BD4D4C575547
:10A280004C4441544145583D00000000080D002059
:10A29000F0B585B006000D00052D16DB68003018FE
:10A2A000001F02F0A3FB0400281F410089B2B01C6C
:10A2B00002F0ECFBA04209D0010000BF4EA0FFF766
:10A2C00090FB21004FA0FFF78CFB8EE0122201A92A
:10A2D000300002F0BAFB01A80178FA29F5D1C17962
:10A2E000027A1206120C1143C279037A1B061B0C68
:10A2F0001A43090A12020A43C271120A0272C17990
:10A30000027A1206120C1143B74C618422004932C2
:10A310000B0A090219431170090A5170407800278D
:10A320000125C12825D100BF39A0FFF75AFB607E67
:10A33000002802D17A4801F001F9062130001230DC
:10A3400000F084F8A9490870002808D1607C022830
:10A350000AD000BF30A0FFF744FBA5480770607C1F
:10A36000022801D0A57701E0A2480570A248E0626A
:10A3700037E0C22839D100BF2BA0FFF732FB607E47
:10A38000002802D1664801F0D9F89C484188300085
:10A390001230FFF76BF80090994E300069460422A6
:10A3A000FFF76CFB9148407801281ED130780128D6
:10A3B0000BD100BF1EA0FFF714FBB078012801D11C
:10A3C000904807708A490D7003E000BF1CA0FFF79A
:10A3D00008FB884805708848E0628A48007800F0E9
:10A3E000A1F82000283001F0E1F805B0F0BD000030
:10A3F00041542B00A00300204353313A25640D0A39
:10A40000000000004353323A25640D0A00000000AA
:10A4100043310D0A000000004D6F64654368616EB2
:10A4200067650D0A0000000043320D0A00000000BD
:10A4300043325F537563636573730D0A0000000058
:10A4400043325F4661696C0D0A00000070B59AB036
:10A450000D006A0092B2694602F0F7FA624C2A00D7
:10A4600069462000103002F022FB0025A571217CF6
:10A470000120654E032904D1E07735700220607217
:10A480001EE004291ED12078207659490978012937
:10A4900004D15C48007800F045F80CE0010002D1DE
:10A4A0006078A17803E0012805D1E07821790906D8
:10A4B000090C0843A0846572E57735702020255487
:10A4C00001202AE0627C022A01DB26D124E0022955
:10A4D00001D022762270E17F012900D17270A18A19
:10A4E0000A0A09021143628A130A12021A43474BED
:10A4F00089B2994211DA92B29A420EDAE170090AEF
:10A5000021716270120AA270E17822791206120C8F
:10A510001143792900DAE07600201AB070BD0000FE
:10A52000341D0020F0B583B007000024FEF748FD7D
:10A53000334880782C4DB04E012802D17C1CE1B20A
:10A5400015E0022802D1AD4804780FE003281ED19F
:10A55000AA480478FEF7EEFD002807D00020244921
:10A56000087028782876A648A88410E0210068465C
:10A57000FEF7FAFD300069460522FFF77FFA707892
:10A58000B1780906090C0843A884307828769D48DC
:10A590000078012800D128769B488470F1783279C0
:10A5A0001206120C11430170090A4170297E0171D3
:10A5B000012908D0297C022905D00021C17401217C
:10A5C0004174002181740A48007801280BD1A98CBC
:10A5D0000FA0FFF706FA297E13A0FFF702FA791CF5
:10A5E00016A0FFF7FEF9F7BD28030020301D00205C
:10A5F000C01D0020C21D002088130000800800201C
:10A600001C1C0020351C0020AE1D0020A1050000F0
:10A610005363686564756C655F6379636C653A2044
:10A6200025640D0A000000005363686564756C655D
:10A630005F4D6F64653A2025640D0A0053636865B9
:10A6400064756C655F446174653A2025640D0A0089
:10A65000F1B59CB000250195AF4CA56001270126FE
:10A66000AE48428869A11C9802F069FA0090AB4894
:10A67000428800BF67A11C9802F061FAA0600099AF
:10A68000002902D1002800D1B0E02000183000F0ED
:10A6900055FF0098002801D0401D01900A2200219A
:10A6A000019802F034FB80B20090B249884222DA6D
:10A6B000642801DB032602E00A2800DB02260146AB
:10A6C00056A0FFF78EF9A068002815D057A0FFF715
:10A6D00088F9E179481E8041C00F607100984200FE
:10A6E00092B202A9A068401C02F0AFF9009989B2A9
:10A6F00002A800F015F97CE01C988019019060799F
:10A700009D4E009908291BD1002872D1B07F9B492A
:10A71000097801436DD1042246A11C980A3000F04B
:10A7200077FE002865D196480078002861D100BFE7
:10A7300042A0FFF756F901980D3000F091F858E06B
:10A740000099022943D1002853D100BF3EA0FFF752
:10A7500048F9B07F8949097801434AD1307C012802
:10A7600009D13574BFF34F8F864887490860BFF31E
:10A770004F8F00BFFDE7022810D13000283000F0D5
:10A78000DDFE20000C3000F0D9FE00BF31A0FFF745
:10A7900028F9FDF719FC2570A5702AE0707E0128C4
:10A7A00002D02079012805D1A079002821D100F01C
:10A7B00089F81EE067701620B0763776F7767771E5
:10A7C0003770B5832000183000F0F0FE11E0092941
:10A7D0000FDB00280DD1E77070A0FFF702F9009998
:10A7E00089B201980930FFF753FD02E070A0FFF72E
:10A7F000F8F81DB0F0BD0000841D0020181C0020DA
:10A80000FFFF0000BC1D00201C1D00204E4E4D49C6
:10A81000000000002C46464645000000646174615B
:10A820005F4C656E3A25640D0A00000046464645B9
:10A830000D0A0000464146410000000054696D6564
:10A840005F73796E0D0A00005365727665725273FC
:10A85000700D0A005370656369616C464E0D0A0005
:10A8600070B586B00822010004A804F03FFA08225F
:10A8700003A902F0EAF8454C03A80022210003785E
:10A880001B0645782D0486783602AD19C078281845
:10A890001818E123DB01C01804F0A2FAE079029055
:10A8A000A0790190607900902379E278A1782088DE
:10A8B000C0B2FEF71FFB012801D13149087006B074
:10A8C00070BD000038B500252C4805702A4CA577CE
:10A8D000E07F01280BD12020205C002805D1012039
:10A8E00020216054207E2A494870022000E0002088
:10A8F000607200BF30A0FFF774F81C20A076A5831B
:10A9000020006C3000F052FE202221004C31214802
:10A9100000F007F931BD0000BC1C002080080020B9
:10A9200038B50400207800026278801880B21A4A94
:10A9300090421DD12079000262798518ADB20020C5
:10A9400020716071200004F027F880B2A84205D081
:10A95000020029001CA0FFF744F831BDA0790002D5
:10A96000E179401882B221000831E078FFF7FCF865
:10A9700031BD00000102000028030020C21D00209C
:10A98000BF1D00200400FA050CED00E0941D00201E
:10A99000AE1D002040190020FEFF000070726F63A2
:10A9A000657373696E67446174610D0A000000008D
:10A9B0004F746865720D0A00656E746572536C653C
:10A9C00065700D0A00000000637263313620657205
:10A9D000726F720A726563763A3078253034582C7B
:10A9E000747275653A3078253034580A00000000DA
:10A9F00038B5040001D1012032BD250068356878E2
:10AA0000002803D128702000FDF790FE24206870F4
:10AA100020680168012291430160606A002802D029
:10AA2000200000F045FB200000F028FA012811D09A
:10AA300020684168084A0A404260206881682A22EA
:10AA4000914381602068016801220A43026020006E
:10AA500000F092FB32BD0000FFB7FFFFFCB583B0F2
:10AA600006000C0035005035687E202856D1002C99
:10AA70000BD0002A09D0B06880214901884206D154
:10AA80003069002803D1E00701D5012047E0287E86
:10AA9000012843D0012028760027EF612120687625
:10AAA00003F01CFF019068468089288068468089F1
:10AAB000688005E02088C005C00D31688862A41C4C
:10AAC0006888002819D06888401E68800498009023
:10AAD000019B00228021300000F082FB002816D16B
:10AAE000B06880214901884202D130690028E1D054
:10AAF000207831688862641CE2E704980090019B2A
:10AB000000224021300000F06BFB002801D0032020
:10AB100005E0202068762F76002000E0022005B0B6
:10AB2000F0BD70B5060035005035687E202838D15C
:10AB300000290BD0100009D0B06880235B01984237
:10AB400006D13069002803D1C80701D5012070BDA6
:10AB5000287E012825D001202876F1642A806A8089
:10AB60000024EC61212068765C482969C8625C4851
:10AB7000296908635B48296948632869846313006D
:10AB800032682832F16C286902F06EFF402031688B
:10AB900008622C763068816880220A438260002037
:10ABA00070BD022070BDF8B5060035005835A87C90
:10ABB00020283DD100290BD0100009D0B068802397
:10ABC0005B01984206D13069002803D1C80701D53E
:10ABD0000120F2BD287C01282AD001272F7471653D
:10ABE0002A8000246C612220A8743F48E968C8626A
:10ABF0003E48E96808633B48E9684863E86884635D
:10AC00001300726D31682431E86802F02DFF2C7456
:10AC1000306801683A020A430260306881680F4375
:10AC200087603068816840220A4382600020F2BD5C
:10AC30000220F2BD38B504002500693528782128A6
:10AC40000FD12068816809060BD581688022914365
:10AC50008160206E002801D002F02EFF200000F05D
:10AC6000F5FA687822280FD12068816849060BD54B
:10AC70008168402291438160606E002801D002F01B
:10AC80001BFF200000F0EBFA002032BD70B504007D
:10AC900020680168164A0A40026020688168012223
:10ACA000914381602500643520680026816849064B
:10ACB0000AD581684022914381602868002803D02A
:10ACC0008663286802F0F8FE5A2026520F20216879
:10ACD00008622020A871002070BD00008DB200081D
:10ACE000BDB2000827B30008C7B200081DB30008B2
:10ACF000DFFEFFFFF8B504002368D869196806076E
:10AD0000360F07D1820605D58A0603D5200000F04C
:10AD100037FBF1BD9A6825006435002E62D001260C
:10AD2000324203D190277F000F405BD0C70705D583
:10AD3000CF0503D51E62AB681E43AE600223042616
:10AD4000870706D5D70704D527683B62AF68374326
:10AD5000AF60470706D5D70704D527683E62AE68BF
:10AD60003343AB600826030708D58B0601D4D2070E
:10AD700004D522681662AA683243AA60AA68002A2B
:10AD800079D0800604D5880602D5200000F0F8FAB4
:10AD9000A868064003D12068806840061CD52000C2
:10ADA00000F05DFA20688168490611D5816840226B
:10ADB00091438160286800280AD02F498163286860
:10ADC00002F0AAFE002856D02868816B8847F1BDA2
:10ADD000200004F05DF8F1BD200004F059F80020D7
:10ADE000A860F1BD2026C70209D5520207D5F0039D
:10ADF00018626E71AE71200004F04CF8F1BD0206CD
:10AE00002DD50A062BD56879212834D15220205A15
:10AE1000002809D1186880218843186020680168DB
:10AE200040220A430260F1BDA068F10188420BD1C3
:10AE30002069002808D1E06C0088C005C00D986228
:10AE4000E06C801CE06404E0E06C411CE16400788C
:10AE500098625220205A401E52216052F1BD400695
:10AE600009D5480607D518684021884318606E71D7
:10AE70002000FCF787FBF1BD6DB30008FEB50700AD
:10AE800010241025002669460E7039680868814A2A
:10AE90000240B86810433A69024378691043FA697E
:10AEA00002430A6048687C4A0240F86810434860E0
:10AEB000B8697A4A914202D00200386A10438A681F
:10AEC000774B134018438860764881420BD176480F
:10AED000C06C8007800F04D0022812D029D3032829
:10AEE00023E0012528E0714881420CD16E48C06CF6
:10AEF0000C2101401BD004291BD0082901D00C29AA
:10AF000013E0022518E06548814215D16648C06CFF
:10AF1000C021090101400AD0A001814209D04000AE
:10AF20008142EED0C0200001814204D004E000251F
:10AF300002E0042500E00825022001F02FF839681E
:10AF40000291E202554B994231D1002D06D0022DDB
:10AF500011D0042D17D0082D18D093E000F0C9FEB1
:10AF6000002860D07A6851008918884202D3110302
:10AF700081420DD286E04C480068044001D09748D9
:10AF8000F0E7BE48EEE700F07BFEE9E71000E9E7F6
:10AF9000050E04025008002100196941002303F046
:10AFA0007AFFA8494118A84A91426BD25FE0F9693B
:10AFB000914239D1002D08D0012D0AD0022D0BD09D
:10AFC000042D13D0082D1AD021E0796840004A08DA
:10AFD00018E000F09BFE0BE079684808324A1268DE
:10AFE000144001D0A64A0DE0A64A0BE000F048FE4E
:10AFF00079680191400049084018019903E0796897
:10B0000048085200801801F088F8060002E001208C
:10B01000694608709C4931403006400E4007400F99
:10B0200001433868C16030E0002D08D0012D09D0FF
:10B03000022D0AD0042D12D0082D1AD022E000F0E3
:10B0400058FE0EE000F062FE0BE079684808164AF0
:10B050001268144001D0614A0DE0884A0BE000F00C
:10B060000FFE79684A08801801F057F880B23968F5
:10B0700006E079684808801801F04FF880B202991C
:10B08000C86002E001206946087068460078FEBD8D
:10B0900000000000F369FFEFFFCFFFFF0048004012
:10B0A000FFF4FFFF00380140001002400044004060
:10B0B0002421415CC90706D501684A68914B1340B9
:10B0C000826A1A434A602421415C890706D50168D7
:10B0D0004A688D4B1340C26A1A434A602421415C7E
:10B0E000490706D501684A68884B1340026B1A432A
:10B0F0004A602421415C090706D501684A68844BEF
:10B100001340426B1A434A602421415CC90606D5AC
:10B1100001688A687F4B1340826B1A438A6024213E
:10B12000415C890606D501688A687B4B1340C26B77
:10B130001A438A602421415C490611D501684A6896
:10B14000AC4B1340026C1A434A60026C80235B03D1
:10B150009A4205D14A68A84B1340426C1A434A6090
:10B160002421415C090606D501684A68A34B1340B7
:10B17000806C184348607047F8B5040000256830BB
:10B18000456003F0ABFB06009D4F20680068000798
:10B1900009D500973300002280218903200000F0A8
:10B1A0001FF800280DD12068006840070BD50097D4
:10B1B000330000228021C903200000F011F800288C
:10B1C00001D00320F2BD2020210068314870210009
:10B1D00068318870682025540020F2BD00093D00C8
:10B1E000FEB504000F000025089E2068C0693840A5
:10B1F000B84201D1012000E0002069460979884267
:10B200001DD10020C0438642EFD0002E05D003F0B0
:10B2100065FB0299401A8642E7D220680168794AA4
:10B220000A40026020688168012291438160200009
:10B23000683020214170817005700320FEBD002020
:10B24000FEBD000000FDFFFF00FD0F0001680A6861
:10B25000C0239A430A602021692281547047016803
:10B260000A68694B13400B6001688A6801239A439E
:10B270008A6020216A228154704700000024F40073
:10B2800000127A000048E801F0FF000080B50100DC
:10B29000886A0968096889060DD400215222815202
:10B2A00001688A6880239A438A60006801684022A6
:10B2B0000A43026001BDFCF765F901BD80B5806AF3
:10B2C00003F01EFE01BD38B50100886A202209681E
:10B2D0000968114013D101005A3100230B80036823
